:100000000C9456030C9473030C9473030C947303B5
:100010000C9473030C9473030C9473030C94BA0D37
:100020000C9473030C9473030C9473030C94A11934
:100030000C9473030C9473030C9473030C94730368
:100040000C944A1B0C9473030C9438140C94FA13FC
:100050000C9473030C9473030C9473030C94730348
:100060000C9473030C947303A106A706AA06AD06AD
:10007000B206BA06C4062B072B072B07CC06CE0602
:10008000D706E006E8062B072B072B072B072B07C5
:10009000F0062B07FA06020705070E0717071D07CC
:1000A000280C380C560C380C5A0C6D0C600C660C75
:1000B0004022432248224B224E22512254225722D0
:1000C0005A225D2260226C226C226C226C226C22ED
:1000D0006C226C226C226622632269223E0D0A0089
:1000E0002C52583A002C4275663A002C002C57507E
:1000F0006F733A002C002C4D506F733A003C4368EC
:1001000065636B003C416C61726D003C486F6D65CE
:10011000003C486F6C64003C52756E003C51756544
:100120007565003C49646C65005D0D0A005B302E0E
:10013000312E32303134313030353A000D0A003D45
:1001400000244E005D0D0A00204600205400204788
:10015000005B473830005B4733005B4732005B474A
:1001600031005B4730005D0D0A005B544C4F3A0094
:100170005D0D0A002C005B4739323A005D0D0A0024
:100180002C003A003330003238005B47005D0D0A26
:10019000002C005B5052423A00290D0A00206D618C
:1001A000782074726176656C2C206465670020612C
:1001B0006363656C2C206465672F7365635E320032
:1001C000206D617820726174652C206465672F73DF
:1001D0006563002C20737465702F646567007A0076
:1001E000790078002028003D0024002028686F6DE9
:1001F000696E672070756C6C2D6F66662C206D6D56
:10020000290D0A00202868617264206C696D697488
:10021000732C20626F6F6C290D0A2432323D00204E
:1002200028736F6674206C696D6974732C20626F1B
:100230006F6C290D0A2432313D0020286175746FDE
:100240002073746172742C20626F6F6C290D0A2404
:1002500032303D0020287265706F727420696E63C1
:100260006865732C20626F6F6C290D0A2431343D50
:1002700000202861726320746F6C6572616E636523
:100280002C20646567290D0A2431333D0020286A3B
:10029000756E6374696F6E20646576696174696FE9
:1002A0006E2C20646567290D0A2431323D00290D2A
:1002B0000A2431313D0020287374617475732072F3
:1002C00065706F7274206D61736B3A0020287072D4
:1002D0006F62652070696E20696E766572742C207D
:1002E000626F6F6C290D0A2431303D0020286C6943
:1002F0006D69742070696E7320696E766572742CF6
:1003000020626F6F6C290D0A24363D00202873741B
:10031000657020656E61626C6520696E76657274C9
:100320002C20626F6F6C290D0A24353D00290D0ABF
:1003300024343D00202864697220706F7274206933
:100340006E76657274206D61736B3A00290D0A2414
:10035000333D0020287374657020706F72742069BB
:100360006E76657274206D61736B3A002028737429
:1003700065702069646C652064656C61792C206D02
:10038000736563290D0A24323D002028737465705B
:100390002070756C73652C2075736563290D0A24B4
:1003A000313D0024303D00242420287669657720E3
:1003B0004772626C2073657474696E6773290D0AE5
:1003C0002423202876696577202320706172616D6F
:1003D0006574657273290D0A24472028766965774C
:1003E00020706172736572207374617465290D0ADF
:1003F0002449202876696577206275696C642069D4
:100400006E666F290D0A244E202876696577207361
:1004100074617274757020626C6F636B73290D0A5E
:1004200024783D76616C7565202873617665204778
:1004300072626C2073657474696E67290D0A244EAC
:10044000783D6C696E6520287361766520737461F0
:100450007274757020626C6F636B290D0A244320DF
:1004600028636865636B2067636F6465206D6F64E4
:1004700065290D0A245820286B696C6C20616C6119
:10048000726D206C6F636B290D0A244820287275E9
:100490006E20686F6D696E67206379636C65290DE6
:1004A0000A7E20286379636C6520737461727429F5
:1004B0000D0A2120286665656420686F6C64290D2B
:1004C0000A3F202863757272656E742073746174BC
:1004D0007573290D0A6374726C2D78202872657308
:1004E0006574204772626C290D0A000D0A486F720C
:1004F000757320302E31205B27242720666F7220F1
:1005000068656C705D0D0A005D0D0A0044697361D9
:10051000626C656400456E61626C65640043617580
:1005200074696F6E3A20556E6C6F636B656400275B
:100530002448277C2724582720746F20756E6C6F01
:10054000636B00526573657420746F20636F6E7403
:10055000696E7565005B000D0A0050726F62652060
:100560006661696C0041626F727420647572696EB5
:1005700067206379636C6500486172642F736F66EE
:1005800074206C696D697400414C41524D3A2000F1
:100590000D0A00496E76616C69642067636F64655B
:1005A0002049443A00556E646566696E656420664C
:1005B000656564207261746500556E737570706F47
:1005C0007274656420636F6D6D616E64004D6F645D
:1005D000616C2067726F75702076696F6C617469E9
:1005E0006F6E004C696E65206F766572666C6F7712
:1005F00000486F6D696E67206E6F7420656E616272
:100600006C656400416C61726D206C6F636B004EB1
:100610006F742069646C6500454550524F4D2072DF
:10062000656164206661696C2E205573696E672070
:1006300064656661756C74730056616C7565203C09
:10064000203320757365630053657474696E672089
:1006500064697361626C65640056616C7565203C09
:10066000203000496E76616C696420737461746532
:100670006D656E7400426164206E756D62657220F6
:10068000666F726D6174004578706563746564208F
:10069000636F6D6D616E64206C6574746572006566
:1006A00072726F723A20006F6B0D0A0011241FBE28
:1006B000CFEFD8E0DEBFCDBF11E0A0E0B1E0E8EDC4
:1006C000F3E502C005900D92A830B107D9F716E006
:1006D000A8E0B1E001C01D92AF3DB107E1F70E9473
:1006E0000F0D0C94EA290C940000CF93DF93EC01DA
:1006F0008991882319F00E94DE13FACFDF91CF9100
:100700000895CF93DF93FC018491EF012196882314
:1007100021F00E94DE13FE01F7CFDF91CF91089503
:10072000EF92FF920F931F93CF93DF93CDB7DEB776
:1007300028970FB6F894DEBF0FBECDBFFE013196ED
:100740007F019E01275F3F4F982F9170919386956F
:10075000E217F307C9F78F01F80182918F01805DDD
:100760000E94DE130E151F05B9F728960FB6F894F0
:10077000DEBF0FBECDBFDF91CF911F910F91FF90D4
:10078000EF9008951F93CF93DF9300D01F92CDB7C2
:10079000DEB7811109C080E30F900F900F90DF91B9
:1007A000CF911F910C94DE1390E02AE011E0190F15
:1007B000E1E0F0E0EC0FFD1FE90FF11D622F0E9458
:1007C0006229905D9083882311F0912FEFCF112340
:1007D00041F0FE01E10FF11D80810E94DE131150F6
:1007E000F6CF0F900F900F90DF91CF911F9108954A
:1007F0008F929F92AF92BF92CF92DF92EF92FF9231
:100800000F931F93CF93DF93CDB7DEB72A970FB621
:10081000F894DEBF0FBECDBF6B017C01142F20E02A
:1008200030E0A9010E94AE2687FF07C08DE20E943A
:10083000DE13F7FAF094F7F8F094012F023060F02D
:1008400020E030E048EC52E4C701B6010E94842861
:100850006B017C010250F2CF10FF0AC020E030E0B3
:1008600040E251E4C701B6010E9484286B017C017B
:1008700020E030E040E05FE3C701B6010E94372688
:100880000E941A27E1E0F0E0EC0FFD1FE10FF11DDF
:100890002EE22083D12C5AE0852E912CA12CB12C54
:1008A0006115710581059105A9F0D11201C0D3949C
:1008B000EE24E394F12CEC0EFD1EED0CF11CA501D1
:1008C00094010E946E29605DF7016083B901CA013D
:1008D000D394E6CF80E3D11648F4E1E0F0E0EC0FEA
:1008E000FD1FED0DF11D8083D394F5CF8D2DD11219
:1008F0000BC0D394D3948F5FE1E0F0E0EC0FFD1FC9
:10090000E80FF11D80E38083DD2041F0FE01ED0D55
:10091000F11D80810E94DE13DA94F6CF2A960FB67D
:10092000F894DEBF0FBECDBFDF91CF911F910F9125
:10093000FF90EF90DF90CF90BF90AF909F908F90FF
:10094000089520916E0520FF08C02BE832E441E2B3
:100950005DE30E94842844E001C043E00C94F80366
:1009600020916E0520FF08C02BE832E441E25DE3F0
:100970000E94842841E001C040E00C94F80343E069
:100980000C94F80321E5829FC001112440E550E05A
:100990009D5F0C94E70E40E550E0BC018EEA93E0C9
:1009A0000C94E70E2DE0829FC00111244CE050E032
:1009B0009E5F0C94E70E61E080E090E00E94C50E1F
:1009C0004DE450E061E375E081E090E00C94E70EC7
:1009D0008AE08093610589E1809364051092620545
:1009E00086E08093630583E0809365058AE097ED58
:1009F000A3EABCE38093660590936705A09368051E
:100A0000B09369058FE692E1A3E0BBE380936A05AA
:100A100090936B05A0936C05B0936D0510926F05D4
:100A200080E090E0A8ECB1E48093700590937105AC
:100A3000A0937205B093730580E090E0AAEFB3E451
:100A40008093740590937505A0937605B093770510
:100A50008AEF90E0909379058093780580E090E0AC
:100A6000A0E8BFE380937A0590937B05A0937C0573
:100A7000B0937D0582E080936E0584EE98E3AEE04E
:100A8000B1E48093310590933205A0933305B09380
:100A900034058093350590933605A0933705B093C0
:100AA00038058093390590933A05A0933B05B093A0
:100AB0003C0580E090ECA8E2B6E480933D0590937D
:100AC0003E05A0933F05B093400580934105909368
:100AD0004205A0934305B093440580934505909348
:100AE0004605A0934705B093480580E094E3AEE146
:100AF000B9E48093490590934A05A0934B05B093C0
:100B00004C0580934D0590934E05A0934F05B093EF
:100B100050058093510590935205A0935305B093CF
:100B2000540580E090E0A7E8B4EC809355059093DD
:100B30005605A0935705B093580580935905909397
:100B40005A05A0935B05B0935C0580935D05909377
:100B50005E05A0935F05B09360050C94DB0460E034
:100B600080E093E00E94C50E60E081E593E00C9484
:100B7000C50E60E08EEA93E00C94C50E1F93CF93F0
:100B8000DF93182FEB0181E5189FB00111247D5FE1
:100B900040E550E0CE010E94250F892B39F41882E0
:100BA000BE01812F0E94C20480E001C081E0DF917C
:100BB000CF911F910895CF93DF93EC0140E550E072
:100BC0006EEA73E00E94250F892B31F41882CE0162
:100BD0000E94CB0480E001C081E0DF91CF910895B5
:100BE0001F93CF93DF93182FEB018DE0189FB00177
:100BF00011247E5F4CE050E0CE010E94250F892B2E
:100C000059F48CE0FE0111928A95E9F7BE01812F1B
:100C10000E94D20480E001C081E0DF91CF911F915A
:100C2000089580E090E00E94BD0E813059F44DE4BB
:100C300050E061E070E081E395E00E94250F21E043
:100C4000892B09F420E0822F0895CF92DF92EF9252
:100C5000FF92CF93DF93C82F6A017B0120E030E041
:100C6000A901C701B6010E94AE2687FDF2C0C436B5
:100C700008F456C02CE92C0F80E0233008F047C060
:100C800030E08230D1F0833091F1813041F0F901D0
:100C9000EE0FFF1FEE0FFF1FEF5CFA4F33C0E901AD
:100CA000CC0FDD1FCC0FDD1FC35CDA4F20E030E03E
:100CB00040E752E4C701B60113C0E901CC0FDD1FC4
:100CC000CC0FDD1FC75BDA4F20E030E040E752E495
:100CD000C701B6010E94842820E030E040E752E4DA
:100CE0000E948428688379838A839B83AEC0F9013C
:100CF000EE0FFF1FEE0FFF1FEB5AFA4FF7FAF094BB
:100D0000F7F8F094C082D182E282F3829EC08F5FB6
:100D10002A3008F4A0C0843009F49DC02A50ADCF19
:100D2000C701B6010E9449290E941F278C2F90E01D
:100D30008C31910508F08FC0FC01EC5CFF4F0C94E6
:100D40009029633008F489C0609361057EC0609388
:100D500064057BC06093620502C0609363050E94D6
:100D6000601B73C080916E05662311F0846007C01C
:100D70008B7F05C080916E05662321F0806480938F
:100D80006E0563C08F7BFBCF80916E05662311F0EB
:100D90008068F5CF8F77F3CF60936505C0926605C5
:100DA000D0926705E0926805F09269054EC0C09246
:100DB0006A05D0926B05E0926C05F0926D0545C016
:100DC00080916E05662311F08160D9CF8E7FD7CFD9
:100DD00080916E05662311F08260D1CF8D7FCFCFD9
:100DE00080916E05662321F084FF39C08062C7CFF1
:100DF0008F7DC5CF80916E05662311F08061BFCFD6
:100E00008F7CBDCF60936F0520C0C0927005D092DB
:100E10007105E0927205F092730517C0C0927405D7
:100E2000D0927505E0927605F09277050EC070E0DD
:100E3000709379056093780508C0C0927A05D092C6
:100E40007B05E0927C05F0927D050E94DB0480E04A
:100E500007C084E005C083E003C086E001C08AE0EB
:100E6000DF91CF91FF90EF90DF90CF9008951F9387
:100E7000CF93DF93CDB7DEB72C970FB6F894DEBFD4
:100E80000FBECDBF0E94110681110BC087E00E94EA
:100E900027220E94E8040E94AF050E94B9050E9423
:100EA000C72210E0BE016F5F7F4F812F0E94F005C7
:100EB000811103C087E00E9427221F5F183091F73D
:100EC0002C960FB6F894DEBF0FBECDBFDF91CF9149
:100ED0001F91089580E1089580E208958EE3EEE782
:100EE000F5E0DF011D928A95E9F760EA75E080E0A0
:100EF0000E94F005811103C087E00C942722089519
:100F0000CF92DF92EF92FF920F931F93CF93DF93D5
:100F100000D000D0CDB7DEB78CEFC82E85E0D82E3C
:100F200091E3E92E95E0F92E04E915E0F6016191CF
:100F30007191819191916F01F701219131914191CD
:100F400051917F0129833A834B835C830E944D2713
:100F500029813A814B815C810E94B226F80161931C
:100F60007193819391938F01F8E0CF16F6E0DF063D
:100F7000E9F60F900F900F900F90DF91CF911F9196
:100F80000F91FF90EF90DF90CF9008952F923F92B6
:100F90004F925F926F927F928F929F92AF92BF9289
:100FA000CF92DF92EF92FF920F931F93CF93DF9335
:100FB000CDB7DEB7A3970FB6F894DEBF0FBECDBF97
:100FC0006C018CE3ECEBF5E0DF011D928A95E9F70B
:100FD0008DE0EEE7F5E0ADEBB5E001900D928A957E
:100FE000E1F71D8E00E010E0E12CF12C912C812C1A
:100FF000222423948D8DF601E80FF11DA080AA20F4
:1010000009F4E6C09FEB9A0D9A3108F0D8C48F5FBF
:101010008D8FAE01475E5F4FBE01635E7F4FC6019D
:101020000E94000E882309F4CCC4498C5A8C6B8C26
:101030007C8CC301B2010E9449290E941F27B62E51
:1010400070E080E090E00E944D279B01AC01C3015D
:10105000B2010E94362620E030E048EC52E40E94C3
:1010600084280E94E7280E941F27B7E4AB1621F0CE
:10107000EDE4AE16B9F063C0F1E0BF12ACC481106C
:10108000A2C4B092BD05662311F087E1AFC4E1FEB2
:1010900002C085E1ABC46894E1F83324339492E054
:1010A000892EA8CF6111F1CF22E1B21661F12B1583
:1010B00048F082E08B15C0F491E1B9128CC4209203
:1010C000C8052CC0A2E3BA1621F1AB1520F0BEE191
:1010D000BB16A9F080C4E6E4BE16C1F0F7E4BF1267
:1010E0007AC42092C7051AC022E0B21641F08EE100
:1010F000B81629F0B11010C02092C4050DC092E0BE
:101100009093C40509C01092C80508C01092C70585
:1011100005C02092C90502C088E0382E81E090E029
:10112000032C02C0880F991F0A94E2F79C012E211C
:101130003F21232B09F0ADCFE82AF92A5BCFA4E5A4
:10114000AA1681F0B8E5AB1691F0E6E4AE1243C4FE
:101150004092CA055092CB056092CC057092CD05A5
:10116000312C11C0B092EB05B9E03B2E0CC040927F
:10117000EC055092ED056092EE057092EF05AAE045
:101180003A2E99249394AA24A394B12C032C02C040
:10119000AA0CBB1C0A94E2F7C50180239123892B7A
:1011A00009F013C481E693E0032C02C0959587955E
:1011B0000A94E2F780FF09C020E030E0A901C301F2
:1011C000B2010E94AE2687FD02C40A291B2912CF54
:1011D000992021F0811002C0E2E08E2E05FF0EC0A2
:1011E0008091DB059091DC05A091DD05B091DE05D5
:1011F00080389649A849B1050CF0EBC38091BE0533
:10120000813031F422E0821232C000FFEAC32FC0E5
:1012100080917F0581112BC000FF13C08091BF0515
:10122000813029F523E333E34BEC51E46091CA05A7
:101230007091CB058091CC059091CD050E948428BA
:101240000EC020E030E040E752E460918F057091DD
:10125000900580919105909192050E94B22660932D
:10126000CA057093CB058093CC059093CD0510FDF6
:1012700010C080918B0590918C05A0918D05B09147
:101280008E058093E7059093E805A093E905B09358
:10129000EA058091BC05813029F406FD02C08CE18D
:1012A000A5C30F7B8091BF05813061F08CE0E0EA3F
:1012B000F5E0DE011D9601900D928A95E1F7E7FCBD
:1012C0002DC034C07CEEA72E75E0B72EC12CD12CDA
:1012D000692C712CC3010C2C02C0959587950A943A
:1012E000E2F780FF10C023E333E34BEC51E4D50178
:1012F0006D917D918D919C910E948428F501608370
:10130000718382839383FFEFCF1ADF0A24E0A20E5A
:10131000B11C83E0C816D104E9F6C8CF8091C3059B
:10132000873020F590918405981322C09091BC05D8
:101330009E8F923021F0983009F4D4C03CC199209E
:1013400009F48FC0C80180759927892B09F4A7CFAC
:101350006091DF057091E0058091E1059091E205D3
:101360000E9449290E941F27673058F08DE13EC333
:10137000BE01635F7F4F0E94F0058111D7CF87E0E8
:1013800035C38091DA05843109F06DC00F7A662388
:1013900009F46FC033243A94360EBE016F5F7F4F5D
:1013A000832D0E94F005882351F32090DA054090A8
:1013B000B8055090B9056090BA057090BB05DE0184
:1013C00011966D016CEEA62E65E0B62EE4E9F5E00F
:1013D000FF8FEE8FE12CF12C892D90E099A388A34B
:1013E00088A199A10E2C02C0959587950A94E2F7E1
:1013F00080FD42C0FFEFEF1AFF0A24E0C20ED11CAD
:1014000084E0A80EB11CAE8DBF8D1496BF8FAE8F39
:10141000B3E0EB16F10421F7F090BD05B5E0FB1643
:1014200009F475C1E2E08E12B7C1FF2009F472C160
:1014300020E030E0A9016091CA057091CB05809150
:10144000CC059091CD050E94AE26882309F4C9C22F
:10145000F1E0FF1609F45EC124E0F212A2C191107E
:101460005DC18AE1C3C2823009F0B5C207FDB3C2D3
:101470008DCF3090C30591CF94E1291228C0AE8D55
:10148000BF8D58962D913D914D915C915B976D91DB
:101490007D918D919C910E943626F50120813181AC
:1014A000428153810E943626D6016D937D938D93A0
:1014B0009C931397B2E0EB129DCFA30192010E947F
:1014C0003626F601608371838283938393CFF5017F
:1014D00080819181A281B381F60180839183A2836F
:1014E000B38388CF992009F4BCCF4090B8055090C1
:1014F000B9056090BA057090BB054CEEE42E45E04E
:10150000F42E54E9A52E55E0B52E1E01EDE02E0E69
:10151000311CC12CD12C892D90E09F8F8E8F8E8D08
:101520009F8D0C2C02C0959587950A94E2F780FF59
:1015300026C0D1012D913D914D915C91F5016081C5
:101540007181828193810E943626D7012D913D9130
:101550004D915C910E943626F701608371838283EE
:101560009383F2E0CF1215C0A30192010E943626A8
:10157000D7016D937D938D939C9313970AC0F501CA
:10158000808D918DA28DB38DF70180839183A2838D
:10159000B383FFEFCF1ADF0A24E0E20EF11C84E0F0
:1015A000A80EB11C94E0290E311CA3E0CA16D10488
:1015B00009F0B5CFAAC091100BC0BE8DB53009F4AB
:1015C00092C0B73009F49CC0B33009F09EC083C00C
:1015D000E091C005E8A34090B8055090B90560902F
:1015E000BA057090BB0524E9A22E25E0B22E3CEE90
:1015F000E32E35E0F32E1E01FDE02F0E311CC12C31
:10160000D12C892D90E09BA38AA38AA19BA10C2CAD
:1016100002C0959587950A94E2F780FD0BC0F5010D
:1016200080819181A281B381F70180839183A2831C
:10163000B3833FC0FE8DF730E1F128A1211128C00E
:10164000D50158962D913D914D915C915B97F1019B
:1016500060817181828193810E943726D7012D910B
:101660003D914D915C910E943726F7016083718313
:1016700082839383F2E0CF121CC0A30192010E94E7
:101680003726D7016D937D938D939C93139711C04B
:10169000F5012081318142815381D7016D917D9186
:1016A0008D919C910E943726F7016083718382831C
:1016B0009383FFEFCF1ADF0A24E0A20EB11C84E06F
:1016C000E80EF11C94E0290E311CA3E0CA16D104E7
:1016D00009F09BCF72CF911001C0812CBE016F5FCA
:1016E0007F4F86E007C0911001C0812CBE016F5F63
:1016F0007F4F87E00E94F005882309F440CE05C0A3
:101700008091BD05823008F068C1312C85CE9110E2
:1017100066C142C0911045C0812C40C02091EC05AB
:101720003091ED054091EE055091EF0560919405E3
:101730007091950580919605909197050E94AE262F
:1017400081112FC02091F0053091F1054091F205F3
:101750005091F305609198057091990580919A05D3
:1017600090919B050E94AE2681111BC02091F4052B
:101770003091F5054091F6055091F70560919C0573
:1017800070919D0580919E0590919F050E94AE26C7
:10179000811107C081E22AC1811003C00E7D1C7F28
:1017A00002C00E7D107E012B09F01DC18091BE0587
:1017B00080937F0520E030E040E752E46091CA0565
:1017C0007091CB058091CC059091CD050E94842825
:1017D00060938F0570939005809391059093920587
:1017E0008091EB05809393058091BC05813051F485
:1017F0006091DF057091E0058091E1059091E2052F
:101800000E9475128091C105809382058091C30565
:1018100090918405981759F0809384058CE0FE011F
:101820003D96A0EAB5E001900D928A95E1F780918E
:10183000C005809381058091BC0590E0FC01329742
:10184000E830F10508F049C0E05BFF4F0C949029A7
:10185000BE016F5F7F4F832D0E94D204809184056B
:1018600083113BC08CE0FE013196A0EAB5E019C0BF
:10187000882049F020E040E050E060E87FEB8CEE0B
:1018800095E00E94381220E040E050E060E87FEBF5
:10189000CE0101960E9438128CE0FE013196A4E937
:1018A000B5E001900D928A95E1F717C064E975E003
:1018B00086E003C064E975E087E00E94D2040DC0B1
:1018C0008CE0ECEEF5E0ACEAB5E0EBCF8CE0ECEAD6
:1018D000F5E0DF011D928A95E9F78091BD058093BF
:1018E0007E05B2E08B1231C08130C1F088F08430C7
:1018F00019F540918F055091900560919105709177
:10190000920520917F058CEE95E00E94D41214C0C0
:1019100020E040E050E060E87FEB0AC040918F0596
:1019200050919005609191057091920520917F05ED
:101930008CEE95E00E9438128CE0ECEEF5E0A4E924
:10194000B5E001900D928A95E1F78091C4058093EE
:101950008505882369F00E94D511109208068091B0
:101960008505823019F40E94A41302C010928505E7
:101970006091C7056093880570E08091EB0590E069
:101980000E949D0D8091C80580938905813039F4AE
:1019900080E090E00E946F190E944F1906C081E01C
:1019A00090E00E946F190E9472198091C9058130E0
:1019B000E1F48091EB0590E00E94181216C081E0DE
:1019C00015C082E013C088E111C089E10FC084E036
:1019D0000DC08BE10BC084E109C08EE107C08FE12F
:1019E00005C086E103C084E201C080E0A3960FB683
:1019F000F894DEBF0FBECDBFDF91CF911F910F9145
:101A0000FF90EF90DF90CF90BF90AF909F908F901E
:101A10007F906F905F904F903F902F9008950E941D
:101A2000C8130E9437070E94CC1B0E946A0F0E94B5
:101A3000EF118EE1E8EFF5E0DF011D928A95E9F7FD
:101A400081E08093F805789480916E0584FF03C04F
:101A500081E08093F905C1E00E948E140E946E0718
:101A60000E944C0D0E9422190E94AE150E949C1BE0
:101A70000E94E0180E9480071092F8051092FA0563
:101A800080916E0581FF03C0C093080602C01092CA
:101A900008060E946411E0CF8AB18C638AB98BB1C9
:101AA000837C8BB9F8941092B20083EF8093B300DB
:101AB00082E08093B00086E08093B100E0E7F0E040
:101AC000808182608083789408959BB1982B9BB924
:101AD00008959BB1809589238BB90895EF92FF9269
:101AE0000F931F93CF93DF931F92CDB7DEB7843050
:101AF000E0F4E82EF12CF701E050FF4F80818823BD
:101B0000A1F08701065E194F613039F469830E94A4
:101B1000650D6981F801608308C00E94690DF801B4
:101B20001082F701EA5EF94F10820F90DF91CF919A
:101B30001F910F91FF90EF900895CF93DF9300D006
:101B4000CDB7DEB79091F905923079F06A83898339
:101B50000E9457110E94D5116A81898181500F908E
:101B60000F90DF91CF910C946E0D0F900F90DF913D
:101B7000CF9108951F920F920FB60F9211242F93B9
:101B80003F934F935F936F937F938F939F93AF9305
:101B9000BF93CF93DF93EF93FF93809108018F5F03
:101BA00080930801811119C0C0E0D0E08C2FFE01A4
:101BB000E65EF94F9081FE01EA5EF94F992319F034
:101BC00090819F5F908390819F3F19F460E00E9415
:101BD0006E0D2196C430D10549F7FF91EF91DF9149
:101BE000CF91BF91AF919F918F917F916F915F91B5
:101BF0004F913F912F910F900FBE0F901F9018950E
:101C00006F927F928F929F92AF92BF92CF92DF920C
:101C1000EF92FF920F931F93CF93DF937C018B0181
:101C20006A01FB018081F701E80FF11D2081EF01BE
:101C30002D3229F4229621816624639407C02B3229
:101C400011F0219602C022962181612CA12CB12C89
:101C5000712C60E070E0CB01FE0130ED932E920E0E
:101C600029E02915C8F0B39428E02B1588F0A110BD
:101C70007A94A5E0B0E09B01AC010E945729660F61
:101C8000771F881F991F690D711D811D911D0BC044
:101C9000A11009C0739407C02EEF921207C0A110C3
:101CA00005C0AA24A39421962081D6CFBB2009F495
:101CB00049C00E944B274B015C0120E030E0A901A4
:101CC0000E94AE26882361F18FEF78166CF42AE02B
:101CD00037ED43E25CE3C501B4010E9484284B0167
:101CE0005C0173947394F0CF78120BC02DEC3CEC34
:101CF0004CEC5DE3C501B4010E9484284B015C01FA
:101D00000FC0772069F020E030E040E251E4C501E7
:101D1000B4010E9484284B015C017A9417149CF34F
:101D2000662021F0B7FAB094B7F8B094F60180823B
:101D30009182A282B382CE19DF09C150F801C0831B
:101D400081E001C080E0DF91CF911F910F91FF9062
:101D5000EF90DF90CF90BF90AF909F908F907F904B
:101D60006F900895009741F0EFE9FFE03197F1F7A8
:101D700000C000000197F6CF0895F999FECF92BDFB
:101D800081BD81E08FBB80B50895F894F999FECFAD
:101D900092BD81BD81E08FBB40B54627842F992736
:101DA00087FD9095262F30E082239323892B39F0ED
:101DB0006F3F19F060BD84E006C084E104C0442395
:101DC00021F060BD84E28FBBF99A789408959F92C8
:101DD000AF92BF92CF92DF92EF92FF920F931F9339
:101DE000CF93DF938C017A016B01C40ED51EEB01FA
:101DF000912C5C01A61AB70ACE018A0D9B1DCC1549
:101E0000DD0591F0911009C0692D772767FD709568
:101E1000272F221F2227221F01C021E06991922E25
:101E2000960E0E94C50EE8CF692DC8018E0D9F1D2C
:101E3000DF91CF911F910F91FF90EF90DF90CF90A6
:101E4000BF90AF909F900C94C50E9F92AF92BF929F
:101E5000CF92DF92EF92FF920F931F93CF93DF9376
:101E60008B017A016C01C40ED51EEC01912C5B0133
:101E7000A81AB90AC5018C0F9D1FCC15DD0591F07C
:101E80000E94BD0E911009C0292D332727FD3095E2
:101E9000232F221F2227221F01C021E0922E980EFD
:101EA0008993E8CFC8018E0D9F1D0E94BD0E21E0D1
:101EB00030E0981611F020E030E0C901DF91CF91B9
:101EC0001F910F91FF90EF90DF90CF90BF90AF9058
:101ED0009F90089508951F93CF93DF93EC0110E036
:101EE000BE01812F0E94BE05811102C087E009C09A
:101EF0008881882341F0CE010E947503CE010E94A3
:101F0000C6070E9427221F5F123051F7DF91CF9141
:101F10001F910895CF92DF92EF92FF921F93CF937C
:101F2000DF93CDB7DEB729970FB6F894DEBF0FBEAB
:101F3000CDBF7C0181E08987F7018181833449F13C
:101F40002CF4882341F0843249F049C08734C1F031
:101F50008835A9F144C00E94C32210C082E089875D
:101F6000F7018281882311F083E0FEC08091F9059A
:101F7000807311F088E0F8C00E94C72280E0F4C0AE
:101F800082E08987F70182818111EECF0E94CF2400
:101F9000F5CF82E08987F70192819111E5CF909189
:101FA000F905923021F40E94A41385E005C0911137
:101FB000E1CF8093F90584E00E949922DFCF82E08F
:101FC0008987F70182818111CFCF8091F905813016
:101FD000A9F683E00E9499221092F905CFCF909143
:101FE000F905923038F6883491F01CF4833231F0E0
:101FF00059C08934C1F08E34B9F154C082E0898768
:10200000F70182818111B0CF0E943E24B7CF809129
:102010006E0584FFA8C08091F8058111AFCFC7017C
:102020000E946B0FABCF82E08987F701828181111B
:1020300007C0C7010E94DB05C7010E9429259ECF6A
:102040008D3309F091CF83E0F701E80FF11D908106
:10205000DF0113979C938F5F90819111F5CF898752
:10206000C7010E94CB048ACF82E08987F701828171
:10207000811114C010E0B701812F0E94BE058111AB
:1020800004C087E00E94272204C0B701812F0E946C
:102090000F251F5F123009F471CFEDCF91116ACF78
:1020A00011E001C010E0AE014B5F5F4FBE01675F02
:1020B0007F4FC7010E94000E811102C082E054C010
:1020C000898521E0280F2987F701E80FF11D80811C
:1020D0008D3309F049CF112321F1822F90E0E22FB7
:1020E000F0E0D701AE0FBF1F3C91E81BF90BEE0DDE
:1020F000FF1D30832F5F3C913111F1CF2987C7013C
:102100000E94C607811130C06D817E818F819885C4
:102110000E9449290E941F27862FB7010E94C204EE
:102120002DCFAE014F5F5F4FBE01675F7F4FC7018D
:102130000E94000E882311F28985F701E80FF11D36
:102140008081811111CFC980DA80EB80FC806D81A4
:102150007E818F8198850E941F27862FB701A60157
:102160000E94250601C085E029960FB6F894DEBFCF
:102170000FBECDBFDF91CF911F91FF90EF90DF9009
:10218000CF900895CF93C091FA05CC2309F486C06F
:102190008C2F807639F181E08093F905C6FF17C056
:1021A000C5FF02C08FEF01C08DEF0E947A2281E04F
:1021B0000E9499229FB7F8948091FA058F7E8093B0
:1021C000FA059FBF8091FA0584FFFCCF03C08EEF14
:1021D0000E947A229FB7F8948091FA058F798093B4
:1021E000FA059FBFC4FF04C081E08093F8055DC07D
:1021F000C0FF0AC00E9439259FB7F8948091FA0564
:102200008E7F8093FA059FBFC3FF15C08091F905AB
:10221000803149F480E28093F9050E94EA1B0E9414
:102220000C1C109208069FB7F8948091FA05877FDE
:102230008093FA059FBFC1FF1DC08091F9058830CA
:1022400089F480E18093F9050E940C1C0E944F19CB
:1022500080916E0581FF04C081E08093080602C072
:10226000109208069FB7F8948091FA058D7F8093AD
:10227000FA059FBFC2FF12C00E94D315892B21F01F
:1022800088E08093F90502C01092F9059FB7F89491
:102290008091FA058B7F8093FA059FBF8091F905A5
:1022A000847319F0CF910C940C1CCF9108958091F8
:1022B0000806882341F09FB7F8948091FA05826060
:1022C0008093FA059FBF0895CF93DF930E94BF22AA
:1022D0008091F905813021F482E00E94992221C089
:1022E0001092F90589E091E00E946B0F1AC08D30C1
:1022F00069F0DD2391F1D1E0893209F4D0E00E9448
:1023000024148F3F09F445C08A3089F7EC2FF0E0A0
:10231000E75FFE4F10820E94C2108091F80588236B
:1023200011F0C0E0EBCF80910901811104C08CE075
:102330000E942722F6CF843229F489E091E00E949E
:102340008A0FF6CF8091F905813011F489E0F0CF42
:1023500089E091E00E94C607EBCF813280F28F3294
:1023600071F28832A1F0CF3428F08BE00E9427224E
:10237000C0E0C5CF2C2F30E0CF5F9FE9980FF90167
:10238000E75FFE4F9A3108F480528083B8CFD1E0E6
:10239000B6CF0E9457110E94C2108091F805882381
:1023A00009F4ADCFDF91CF9108950E94571180912C
:1023B000F905803171F481E0809308060AC08091AC
:1023C000F905803159F40E94C2108091F8058111FD
:1023D00005C00E94D315892BB1F7F1CF0895EAE724
:1023E000F0E0808187608083ACE7B0E08C9180640E
:1023F0008C9380818068808380818064808308954D
:1024000090917C00907F90937C0090917C00982B21
:1024100090937C0080917A00806480937A00809110
:102420007A0086FDFCCF8091780090917900089524
:10243000CF93DF9300D000D01F92CDB7DEB70E94BC
:1024400000124AE050E0BE016F5F7F4F0E94A52955
:10245000CE0101960E94750384E091E00E9475030D
:102460000F900F900F900F900F90DF91CF910895E4
:10247000EF92FF921F93CF93DF9300D000D0CDB7A0
:10248000DEB77C01122F8091F905823021F149835A
:102490005A836B837C830E94C2108091F80581115E
:1024A0001AC00E94FD1549815A816B817C81882365
:1024B00039F00E94571149815A816B817C81E7CFA5
:1024C000212FC7010E9405168091F905811103C0D3
:1024D00088E08093F9050F900F900F900F90DF9197
:1024E000CF911F91FF90EF9008958F929F92AF929E
:1024F000BF92CF92DF92EF92FF924B015C018091ED
:10250000F905823009F447C020E030E040EA51E4A8
:10251000C501B4010E9484280E9488270E941F27B9
:102520006B017C010E94D51120E030E04AE754E4C1
:10253000C501B4010E9484284B015C0182E38C9D9B
:10254000B0018D9D700D112480E090E00E944B271A
:102550009B01AC01C501B4010E9436260E94882768
:102560000E941F27CB010E94B20EC114D10499F022
:102570000E94C21021E0C21AD1088091F805811191
:102580000AC08FEF90E722E0815090402040E1F7B1
:1025900000C00000EACFFF90EF90DF90CF90BF9097
:1025A000AF909F908F9008954F925F926F927F921D
:1025B0008F929F92AF92BF92CF92DF92EF92FF9253
:1025C0000F931F93CF93DF9300D000D0CDB7DEB72A
:1025D0004C016A017B01722E8091F905823009F469
:1025E0009EC00E94D511609008060E943019882371
:1025F00051F09FB7F8948091FA0580648093FA05B2
:102600009FBF0E94C2108091F805811188C0272DBC
:10261000B701A601C4010E94381281E08093090627
:102620009FB7F8948091FA0582608093FA059FBF66
:102630000E94C2108091F805811171C08091F90546
:10264000877FB1F780910906813041F49FB7F894F4
:102650008091FA0580648093FA059FBF0E94C210A2
:102660008091F80581115BC00E949C1B0E94AE15F1
:102670000E94E0180AE016E081E3A82E85E0B82E5B
:102680002401F80161917191819191918F01F5017E
:1026900021913191419151915F0129833A834B837B
:1026A0005C830E944D2729813A814B815C810E9485
:1026B000B226F20161937193819391932F01F6E019
:1026C00006311F07F1F6272DB701A601C4010E94AC
:1026D00038129FB7F8948091FA0582608093FA05CA
:1026E0009FBF0E94D5118091F805811118C060929A
:1026F00008060F900F900F900F90DF91CF911F91D0
:102700000F91FF90EF90DF90CF90BF90AF909F9090
:102710008F907F906F905F904F900C94F4230F9068
:102720000F900F900F90DF91CF911F910F91FF901D
:10273000EF90DF90CF90BF90AF909F908F907F9061
:102740006F905F904F9008958091FA0584FD16C0B8
:102750009FB7F8948091FA0580618093FA059FBF36
:102760008091F905847351F09FB7F8948091FA0530
:1027700080628093FA059FBF0C947219089590911E
:102780005B0180915C01891708F48058891B0895CA
:10279000E0ECF0E08081826080831092C50080E1EF
:1027A0008093C400E1ECF0E08081806180838081CF
:1027B000886080838081806880830895E0915A01D9
:1027C00091E09E0F903409F490E02091590192130A
:1027D00005C02091FA0524FFF8CF0895F0E0E25EED
:1027E000F94F808390935A018091C1008062809359
:1027F000C10008951F920F920FB60F9211248F936C
:102800009F93EF93FF9380915901E82FF0E0E25EF0
:10281000F94F90819093C6008F5F803409F480E077
:102820008093590190915A01891305C08091C1008C
:102830008F7D8093C100FF91EF919F918F910F90B9
:102840000FBE0F901F90189590915B0180915C01D5
:10285000891761F0E92FF0E0E25AF94F80819F5F1C
:10286000903809F490E090935B0108958FEF0895FC
:102870001F920F920FB60F9211242F933F934F93F5
:102880005F936F937F938F939F93AF93BF93EF93D8
:10289000FF938091C6008132B1F028F48831E1F4D1
:1028A0000E94A4132AC08F3341F08E37A9F49FB73A
:1028B000F8948091FA0582600BC09FB7F8948091DC
:1028C000FA05816005C09FB7F8948091FA05886089
:1028D0008093FA059FBF11C0E0915C0191E09E0FCB
:1028E000903809F490E020915B01921731F0F0E00C
:1028F000E25AF94F808390935C01FF91EF91BF9171
:10290000AF919F918F917F916F915F914F913F9187
:102910002F910F900FBE0F901F90189580915C0122
:1029200080935B0108954F925F926F927F928F9296
:102930009F92AF92BF92CF92DF92EF92FF920F934E
:102940001F93CF93DF9310917B01111101C012E10E
:10295000115000917901101709F4EFC089E2189F16
:10296000E0011124C358DE4F8D889E88AF88B88C53
:1029700069A17AA18BA19CA19B01AC010E94372681
:102980002DA13EA14FA158A50E9484286B017C0176
:102990009B01AC01B401C5010E94AE2687FF02C0B5
:1029A00064017501A601B701498B5A8B6B8B7C8B37
:1029B000111101C012E177247A94710E701619F08A
:1029C00029E2622E27C080917C01081351C00E9429
:1029D000EA1B4EC0679C8001112403581E4F7110E2
:1029E00002C092E1792E7A9480917C01781202C023
:1029F0000E94EA1BF801C588D688E788F08CA701F9
:102A0000960161897289838994890E94AE26811119
:102A100006C0E801809179017812DCCF29C0F80165
:102A200061A172A183A194A19B01AC010E943726F0
:102A3000F80125A136A147A150A50E948428298923
:102A40003A894B895C890E9437264B015C01A701BA
:102A500096010E94AE26F80187FF05C0818A928AFE
:102A6000A38AB48AD6CFC18AD28AE38AF48AD1CF24
:102A700060907901F9E26F9E8001112403581E4F86
:102A800077247394760C82E1781201C0712C5090F7
:102A90007B0189E2482E751409F44DC0479CE00182
:102AA0001124C358DE4FF80181889288A388B48826
:102AB000C988DA88EB88FC88A7019601C501B401B2
:102AC0000E94AE2687FF23C0F80161A172A183A1F5
:102AD00094A19B01AC010E943726F80125A136A1E3
:102AE00047A150A50E9484289B01AC01C501B401F7
:102AF0000E9437264B015C01A70196010E94AE2679
:102B000087FF05C0898A9A8AAB8ABC8A672C2D897F
:102B10003E894F89588D69897A898B899C890E9461
:102B2000AE26811101C0672C7394F2E17F1201C0BF
:102B3000712C8E01B0CF60927901DF91CF911F91FE
:102B40000F91FF90EF90DF90CF90BF90AF909F904C
:102B50008F907F906F905F904F9008958CE1EDE59E
:102B6000F1E0DF011D928A95E9F710927C01109245
:102B70007B0181E080937A01109279010895909110
:102B80007C0180917B01891769F081E0890F823196
:102B900009F480E020917901921302C080937901B9
:102BA00080937C01089580917C0190917B0198171E
:102BB00039F029E2829FC001112483589E4F089565
:102BC00080E090E00895E0917C01EF5FE23109F44C
:102BD000E0E080917B01E81761F089E2E89FF00175
:102BE0001124E358FE4F61897289838994890C947A
:102BF0000B2960E070E0CB01089581E020917C0119
:102C000090917A01291380E008952F923F924F927C
:102C10005F926F927F928F929F92AF92BF92CF926C
:102C2000DF92EF92FF920F931F93CF93DF93CDB775
:102C3000DEB7AD970FB6F894DEBF0FBECDBF142F31
:102C4000052F6B8F7C8F822E20917B0139E2239F91
:102C500010011124F101E358FE4F1F01158616865D
:102C60001786108A15A216A217A210A6108249E98B
:102C700056E766E97EE741A352A363A374A35C0110
:102C800031E3E32E35E0F32E9E01235F3F4F3E8F6D
:102C90002D8F8DE591E098A38F8F6F01FE01319606
:102CA000FAA3E9A3912CF501619171918191919120
:102CB0005F01F70120813181428153810E94842884
:102CC0000E945428ED8DFE8D6193719381939193B1
:102CD000FE8FED8FEF8DF8A1419051906190719032
:102CE000F8A3EF8F64197509860997092B013C0138
:102CF00097FF07C0442455243201461A570A680A30
:102D0000790AF6014182528263827482F10125853B
:102D1000368547855089421653066406750610F4B9
:102D200029013A01F101458656866786708A0E941C
:102D30004D27F70120813181428153810E94B226C3
:102D40002B013C01E9A1FAA16193719381939193C5
:102D5000FAA3E9A320E030E0A9010E94AE2687FF94
:102D60000AC0F1019081892D9DA70E946C079DA545
:102D7000892BF1018083A3019201C301B2010E945A
:102D80008428F10125A136A147A150A50E9437262C
:102D9000F10165A376A387A390A79394F4E0EF0EC7
:102DA000F11C24E0C20ED11C33E093127CCF0E94B0
:102DB0000B296B017C01F10165A376A387A390A782
:102DC00085859685A785B089892B8A2B8B2B09F45D
:102DD000DEC120E030E0A901612F702F8B8D9C8D2A
:102DE0000E94AE2687FD21C0882061F0212F302F60
:102DF0004B8D5C8DC701B6010E94B226162F072F9E
:102E00008B8F9C8F20E030E040E85FE3612F702FD4
:102E10008B8D9C8D0E94AE2687FF0DC010E000E0D8
:102E200030E83B8F8FE38C8F06C019E906E7F6E99F
:102E3000FB8F2EE72C8FA701960160E070E080E801
:102E40009FE30E94B22669A77AA78BA79CA7E9E611
:102E5000F1E0FAA3E9A32DE335E038A32F8FCE01EB
:102E60000D969A8F898FFE013196FE8FED8FC12CC2
:102E7000D12C7601ED8DFE8D80809180A280B38073
:102E800020E030E0A901C501B4010E94AE268823EC
:102E900009F47FC029A53AA54BA55CA5C501B401DD
:102EA0000E9484284B015C01ED8DFE8D608371834F
:102EB000828393839B01AC0160E070E080E89FE334
:102EC0000E94B2262B013C01E89477F8EF8DF8A11F
:102ED0002081318142815381C301B2010E94842843
:102EE0006BA37CA38DA39EA39B01AC01612F702FCC
:102EF0008B8D9C8D0E94AE2687FF06C01BA30CA362
:102F0000FB8DFDA32C8D2EA3F101F1A1FB8FF1010F
:102F1000F2A1FC8FF101F3A1FFA3F101F4A1F8A745
:102F2000EF8DF8A12485358546855785C301B2010B
:102F30000E9484283B018C019B01AC016B8D7C8D30
:102F40008FA198A50E94AE2687FF04C06B8C7C8C55
:102F50000FA118A5C301D801F10181A392A3A3A3D6
:102F6000B4A3E9A1FAA12081318142815381C50135
:102F7000B4010E9484289B01AC01C701B6010E94E4
:102F800036266B017C011BA10CA1FDA1FB8F2EA19C
:102F90002C8F8D8D9E8D04969E8F8D8FE9A1FAA129
:102FA0003496FAA3E9A32F8D38A12C5F3F4F38A3A5
:102FB0002F8FE98DFA8D8E179F0709F05BCF9091C7
:102FC0007B0180917C0198130AC0F101118A128A59
:102FD000138A148A118E128E138E148E49C0A70183
:102FE000960160E070E080E89FE30E94362620E0D2
:102FF00030E040E05FE30E9484280E940B296B01CF
:103000007C012091660530916705409168055091DB
:103010006905F10161A172A183A194A10E94842894
:10302000A70196010E9484284B015C01A70196012B
:1030300060E070E080E89FE30E9436269B01AC01CF
:10304000C501B4010E94B2266B017C0120E030E092
:10305000A9010E94AE2687FF04C0C12CD12CE12C0F
:10306000F12CA601B701F101418F528F638F748F4C
:10307000212F302F4B8D5C8D612F702F8B8D9C8D70
:103080000E948428162F072FF82EE92E862F902FC6
:10309000AF2DBE2DF101858F968FA78FB0A3A18C88
:1030A000B28CC38CD48C6090750170907601809046
:1030B0007701909078019301A401612F702F8F2DDB
:1030C0009E2D0E94AE2687FD0BC09301A401B50181
:1030D000C6010E94AE2687FD11C0530164010EC0D7
:1030E000212F302F4F2D5E2DB501C6010E94AE2637
:1030F00087FD04C0A12EB02ECF2CDE2CC501D60139
:10310000F101858B968BA78BB08F8CE0FE013196F9
:10311000A9E6B1E001900D928A95E1F7812F902FF9
:10312000AF2DBE2D8093750190937601A09377010A
:10313000B09378018CE0FE013D96ADE5B1E00190E1
:103140000D928A95E1F780917A0180937B018F5FE0
:10315000823109F480E080937A01AD960FB6F8943D
:10316000DEBF0FBECDBFDF91CF911F910F91FF90BA
:10317000EF90DF90CF90BF90AF909F908F907F9017
:103180006F905F904F903F902F900C949314AD965A
:103190000FB6F894DEBF0FBECDBFDF91CF911F9168
:1031A0000F91FF90EF90DF90CF90BF90AF909F90E6
:1031B0008F907F906F905F904F903F902F900895E9
:1031C0008091FC059091FD05A091FE05B091FF0551
:1031D00080935D0190935E01A0935F01B0936001C5
:1031E0008091000690910106A0910206B09103061D
:1031F0008093610190936201A0936301B093640195
:103200008091040690910506A0910606B0910706EC
:103210008093650190936601A0936701B093680164
:10322000089580917B0190917C01891708F48E5E4E
:10323000891B08950E94EA1B80917C01809379018B
:103240000C9493143D9880916E0587FF04C04598B7
:103250001092DE060895459A80E28093DE06089576
:1032600086B180729091DE068927089580910906C3
:103270008130A1F40E943019882381F01092090650
:103280008CE0ECEFF5E0AAE0B6E001900D928A95B3
:10329000E1F78091FA0588608093FA05089580919E
:1032A0006E0582FF02C0299A01C029988091F90514
:1032B0008471A1F0809190048093A4048091910482
:1032C0008093A30480916105880F84508195809339
:1032D000A20480916F00826080936F0008958093B4
:1032E0008E04089580916F008D7F80936F00809190
:1032F0008100887F81608093810010928F0480918B
:1033000064058F3F21F49091FA0595FF09C09091D3
:10331000F905943029F090E00E94B20E81E001C0DE
:1033200080E090918E04992359F090916E0592FF60
:1033300002C091E08927882311F0299A08952998DD
:1033400008951F920F920FB60F9211242F933F935F
:103350004F935F936F937F938F939F93AF93BF939D
:10336000CF93DF93EF93FF9380918F0481117FC1FF
:1033700095B18091A40480729F7D892B85B985B118
:103380008F7E9091A304892B85B98091A20486BD7C
:1033900082E085BD81E080938F0478948091B604AB
:1033A0009091B704892B09F0A4C080919404909166
:1033B0009304981709F492C0E091940486E0E89F82
:1033C000F0011124E854FB4FF093B704E093B604E6
:1033D000838194819093890080938800808191817A
:1033E0009093B2048093B104A2818091B3048A17B0
:1033F00071F1A093B30481E1A89FD0011124A452DC
:10340000BB4FB093B504A093B4041D968D919D91CC
:103410000D90BC91A02DB695A79597958795809313
:10342000950490939604A0939704B0939804809386
:10343000990490939A04A0939B04B0939C04809366
:103440009D0490939E04A0939F04B093A004C09108
:10345000B404D091B5048091900498818927809319
:10346000A404258189819A81AB81BC81022E04C08C
:10347000B695A795979587950A94D2F78093A5045A
:103480009093A604A093A704B093A8048D819E8175
:10349000AF81B885022E04C0B695A79597958795FC
:1034A0000A94D2F78093A9049093AA04A093AB0442
:1034B000B093AC0489859A85AB85BC8504C0B6956C
:1034C000A795979587952A95D2F78093AD04909309
:1034D000AE04A093AF04B093B0040BC00E94721965
:1034E0009FB7F8948091FA0584608093FA059FBF96
:1034F000BEC00E9436191092A3048091A504909139
:10350000A604A091A704B091A804409195045091FD
:1035100096046091970470919804840F951FA61FDC
:10352000B71F8093950490939604A0939704B0934B
:103530009804E091B404F091B504458556856785FB
:103540007089481759076A077B0768F520E12093BF
:10355000A3044585568567857089841B950BA60B4A
:10356000B70B8093950490939604A0939704B0931F
:10357000980420818091FC059091FD05A091FE05A5
:10358000B091FF0525FF04C00197A109B10903C04F
:103590000196A11DB11D8093FC059093FD05A0939C
:1035A000FE05B093FF058091A9049091AA04A09113
:1035B000AB04B091AC044091990450919A0460918D
:1035C0009B0470919C04840F951FA61FB71F8093C6
:1035D000990490939A04A0939B04B0939C048091C7
:1035E000AD049091AE04A091AF04B091B0044091AD
:1035F0009D0450919E0460919F047091A004840FDB
:10360000951FA61FB71F80939D0490939E04A093BF
:103610009F04B093A0048091F905843039F480911F
:10362000FB059091A30489238093A3048091B104A6
:103630009091B20401979093B2048093B104892BC6
:1036400069F41092B7041092B604809194048F5FCD
:1036500080939404863011F4109294048091910424
:103660009091A30489278093A30410928F04FF9163
:10367000EF91DF91CF91BF91AF919F918F917F910A
:103680006F915F914F913F912F910F900FBE0F90CF
:103690001F9018951F920F920FB60F9211248F93BF
:1036A0009F9395B18091910480719F7E892B85B9FC
:1036B00015BC9F918F910F900FBE0F901F90189582
:1036C000FF920F931F93CF93DF9310929104109268
:1036D0009004C0E0D0E00C2F1C2F2091620530E058
:1036E0008C2F0C2E02C0359527950A94E2F720FF07
:1036F00007C0F09091040E946A078F29809391047B
:103700002091630530E002C0359527951A95E2F7C0
:1037100020FF08C010919004802F0E946C07812B1D
:10372000809390042196C330D105A9F6DF91CF9103
:103730001F910F91FF900895CF93C1E0C0938E0425
:103740000E9472198BE2EFE5F4E0DF011D928A9589
:10375000E9F783E2E5E9F4E0DF011D928A95E9F7F4
:1037600010928D0410928C04109294041092930481
:10377000C093920410928F040E94601B85B18F7ECB
:1037800090919104892B85B985B18F7D909190049A
:10379000892B85B9CF910895249A219A259AE1E839
:1037A000F0E080818F7E8083808188608083E0E884
:1037B000F0E080818C7F808380818F708083EEE653
:1037C000F0E08081887F808314BC15BC808181609B
:1037D00080830895CF93DF93C0918C04D0918D04A2
:1037E0002097B9F081E08093600460917604709135
:1037F000770480917804909179049B01AC010E9438
:103800008428698B7A8B8B8B9C8B10928D04109201
:103810008C04DF91CF9108952F923F924F925F9247
:103820006F927F928F929F92AF92BF92CF92DF92D0
:10383000EF92FF920F931F93CF93DF93CDB7DEB735
:10384000E5970FB6F894DEBF0FBECDBF90919404FC
:1038500080919204981709F4E1C580918C049091AD
:103860008D04892B09F057C20E94D3151C01909337
:103870008D0480938C04009709F4D0C58091600476
:103880001091F905882319F010926004BDC0809151
:103890005F048F5F853019F080935F0402C010923F
:1038A0005F04E0915F0421E12E9FF0011124E452B6
:1038B000FB4FF0938B04E0938A04D1018C918083B9
:1038C00011964D915D916D917C91149703E0440F99
:1038D000551F661F771F0A95D1F741835283638373
:1038E000748315964D915D916D917C91189783E04D
:1038F000440F551F661F771F8A95D1F7458356835E
:103900006783708719964D915D916D917C911C979D
:1039100093E0440F551F661F771F9A95D1F7418793
:103920005287638774871D966D917D918D919C91CF
:1039300050976B017C0123E0CC0CDD1CEE1CFF1CBE
:103940002A95D1F7C586D686E786F08A0E944B274E
:1039500060936104709362048093630490936404A1
:10396000F10125A136A147A150A50E94B2269B01D5
:10397000AC01609365047093660480936704909330
:10398000680460E070E080EA9FE30E94B2266093E2
:10399000690470936A0480936B0490936C04109292
:1039A0006D0410926E0410926F0410927004103225
:1039B000E1F460917E0470917F0480918004909185
:1039C00081046093760470937704809378049093D5
:1039D00079049B01AC010E948428D10151966D931A
:1039E0007D938D939C9354970FC0F10161897289E7
:1039F000838994890E940B296093760470937704DD
:103A00008093780490937904109272041092730456
:103A10001092740410927504D10191968D909D902E
:103A2000AD90BC909497A501940160E070E080E0B7
:103A30009FE30E94B2262B013C01F101C5A0D6A054
:103A4000E7A0F0A4103209F04DC0F2E0F093710449
:103A5000D10151962D913D914D915C9154972D83BB
:103A60003E834F8358870E9484289B01AC01C70185
:103A7000B6010E9436262B013C0120E030E0A9016E
:103A80000E94AE2687FF1DC0A5019401C501B401A7
:103A90000E943726A70196010E9484289B01AC0151
:103AA0006D817E818F8198850E9436260E940B2928
:103AB00060937E0470937F048093800490938104CC
:103AC0002AC14092720450927304609274047092FE
:103AD000750410927E0410927F041092800410925C
:103AE000810419C110927104C0928204D09283049F
:103AF000E0928404F09285040E94E3154B015C017E
:103B000060937E0470937F0480938004909381047B
:103B10009B01AC010E94842869837A838B839C83F8
:103B200000918C0410918D04D80195962D913D91B2
:103B30004D915C91989729873A874B875C8751967E
:103B40002D913D914D915C9154972D833E834F83F0
:103B500058879B01AC016D817E818F8198850E9481
:103B600036269B01AC01C301B2010E9484289B014F
:103B7000AC0169857A858B859C850E94372620E07B
:103B800030E040E05FE30E9484286B017C0120E08C
:103B900030E0A9010E94502818160CF0ACC029850D
:103BA0003A854B855C85C701B6010E94AE2687FF2A
:103BB0008EC0F801858C968CA78CB0A029813A81A3
:103BC0004B815C81C501B4010E9436269B01AC018A
:103BD000C301B2010E948428609386047093870415
:103BE0008093880490938904A70196010E94AE26D1
:103BF00087FF3DC0C501B4010E940B2960937A0480
:103C000070937B0480937C0490937D04A5019401C0
:103C10006D817E818F8198850E94AE26811104C0BE
:103C2000F1E0F093710477C02D813E814F8158857A
:103C3000C501B4010E9436269B01AC01C301B2014B
:103C40000E9484289B01AC016091820470918304DE
:103C500080918404909185040E94362660938204AA
:103C600070938304809384049093850454C0C0921D
:103C70008204D0928304E0928404F0928504C0927E
:103C80008604D0928704E0928804F0928904D801D7
:103C900091966D917D918D919C9194979B01AC0132
:103CA0000E943726A70196010E94842829813A8123
:103CB0004B815C810E9437260E940B2960937A0415
:103CC00070937B0480937C0490937D0424C0B2E0C5
:103CD000B09371048091760490917704A091780458
:103CE000B091790480937A0490937B04A0937C0430
:103CF000B0937D0410C0109282041092830410923D
:103D000084041092850480927A0490927B04A0929D
:103D10007C04B0927D0480919304F6E0F89FF0015A
:103D20001124E854FB4FFE83ED8380915F0482836E
:103D300020918C0430918D043E872D87D901959672
:103D4000BC91BCA7F901F6A1FDA7D9019796BC913A
:103D5000BEA7F901F0A5FFA72091690430916A047C
:103D600040916B0450916C046CA57DA58B2F9F2F07
:103D70000E94362668A779A78AA79BA720E030E093
:103D8000A9010E94AE2687FF04C018A619A61AA68C
:103D90001BA620918204288F30918304398F409193
:103DA00084044A8F509185045B8F80917A048C8FB4
:103DB00090917B049D8FA0917C04AE8FB0917D0487
:103DC000BF8FE0918604E8A3F0918704F9A32091C6
:103DD00088042AA3309189043BA3409172044CA328
:103DE000509173045DA3809174048EA39091750427
:103DF0009FA320917E0430917F04409180045091D4
:103E0000810428AB39AB4AAB5BAB30917604398384
:103E1000409177044987209078043090790450913C
:103E200071045F878CA58C8B9DA59D8BAEA5AE8BF9
:103E3000BFA5BF8B3EE3C32E33ECD32E3EE2E32E71
:103E400039E3F32E188A198A1A8A1B8A2601370148
:103E5000EF85EE2321F0E13009F47CC0B1C0AD85DF
:103E6000BE8591962D913D914D915C919497C7019E
:103E7000B6010E9484284B015C0120E030E040E064
:103E80005FE30E9484289B01AC0169817985C101AF
:103E90000E9437269B01AC01C701B6010E9484280D
:103EA0009B01AC016C897D898E899F890E94362691
:103EB0008B018DAB9CAB288D398D4A8D5B8D0E941B
:103EC000AE2687FF3FC0288D398D4A8D5B8D6CA54E
:103ED0007DA58EA59FA50E9436269B01AC010E9460
:103EE00037266B017C012C8D3D8D4E8D5F8D698158
:103EF0007985C1010E9437269B01AC01C701B6013B
:103F00000E94B2266B017C0128A139A14AA15BA1C4
:103F1000688D798D8A8D9B8D0E94AE26882319F03D
:103F2000B1E0BF8702C0E2E0EF87FC8DF9832D8D01
:103F300029872E8C3F8C088D198D3A8D3DAB4B8D8A
:103F40004CABAFC0A501940169817985C1010E9484
:103F500037267CC0A70196016C8D7D8D8E8D9F8D3F
:103F60000E9484289B01AC016C897D898E899F8980
:103F70000E9436268B018DAB9CAB28A139A14AA1AA
:103F80005BA10E94AE2687FF8CC028A139A14AA15F
:103F90005BA16C897D898E899F890E9436262C8D34
:103FA0003D8D4E8D5F8D0E94B2266B017C0108A174
:103FB00019A15AA15DAB8BA18CAB92E09F8771C018
:103FC000AD85BE8591962D913D914D915C919497D3
:103FD000C701B6010E9484284B015C019B01AC0122
:103FE00069817985C1010E94502818169CF520E04E
:103FF00030E040E05FE3C501B4010E9484289B01EA
:10400000AC0169817985C1010E9436269B01AC0112
:10401000C701B6010E9484289B01AC016C897D898F
:104020008E899F890E9436268B018DAB9CAB2CA17B
:104030003DA14EA15FA10E94502818165CF4A50175
:10404000940169817985C1010E9436266983798747
:104050001C0127C02CA13DA14EA15FA16C897D89C7
:104060008E899F890E9436269B01AC010E943726CB
:104070006B017C0128A939A94AA95BA969817985C5
:10408000C1010E9437269B01AC01C701B6010E9405
:10409000B2266B017C010CA11DA1BEA1BDABEFA19D
:1040A000ECABA7019601688979898A899B890E946E
:1040B0003726688B798B8A8B9B8BA30192010E9498
:1040C000AE2687FD5AC028A539A54AA55BA5B8012B
:1040D0008DA99CA90E94502818160CF444C089810F
:1040E0009985D1018093760490937704A093780406
:1040F000B0937904FF85F09371044090650450906B
:104100006604609067047090680498014DA95CA9EA
:10411000C301B2010E94842869837A838B839C83C4
:104120000E949B266B017C01609161047091620486
:1041300080916304909164040E949B264B015C0172
:10414000A70196010E9436260E941F2769877A8759
:104150008B879C87E985FA85AD81BE81ED93FC93C1
:104160003097B1F15AC02EE333EC4EE259E3C3016C
:10417000B2010E9437262B013C01288939894A89DE
:104180005B89C301B2010E9436266B017C012CA120
:104190003DA14EA15FA1B8018DA99CA90E94502804
:1041A00018167CF089819985D101809376049093CB
:1041B0007704A0937804B09379043F853093710419
:1041C0009CCF0C8B1D8B4DA94E8B5CA95F8B40CE79
:1041D0008091F905803209F51092760410927704E7
:1041E000109278041092790410926D0410926E046B
:1041F00010926F0410927004C0926104D092620415
:10420000E0926304F0926404A3019201C701B60135
:104210000E94B226AD85BE85EEC020916D0430911E
:104220006E0440916F0450917004688979898A897D
:104230009B890E9437262B013C0129813A814B81C1
:104240005C81C501B4010E9436269B01AC01C3010B
:10425000B2010E94B2264B015C0129813A814B8157
:104260005C81C701B6010E943626A50194010E9417
:10427000842860936D0470936E0480936F04909310
:10428000700420EC31EE44E65EE4C501B4010E9406
:1042900084280E949B260E941F27603DB7E07B0771
:1042A0008105910520F4ED81FE81158231C0603ACF
:1042B000FFE07F078105910510F4E1E009C060345B
:1042C000FFE17F078105910510F4E2E001C0E3E022
:1042D000AD81BE811596EC93AD81BE8115962C9172
:1042E0001597022E04C096958795779567950A9441
:1042F000D2F7E985FA8502C0EE0FFF1F2A95E2F793
:10430000ED93FC9361157105F1E08F07910538F489
:10431000AD81BE8114967C936E93139706C02FEFE8
:104320003FEFED81FE81348323838091920480935B
:1043300093048F5F863019F08093920402C010922C
:10434000920420917204309173044091740450914E
:104350007504B8018DA99CA90E9450281816C4F4B0
:10436000E0918C04F0918D04C801ADA9BCA985A38E
:1043700096A3A7A3B0A789819A81AB81BC818093C2
:10438000610490936204A0936304B09364045ECAD2
:1043900020E030E0A901B8018DA99CA90E94502815
:1043A0001816ACF5109276041092770410927804E7
:1043B0001092790410926D0410926E0410926F04A2
:1043C00010927004C0926104D0926204E09263047F
:1043D000F092640400918C0410918D042091650486
:1043E000309166044091670450916804C701B6019A
:1043F0000E94B226D80195966D937D938D939C93E0
:1044000098970E941A1988E08093F90507C01092C6
:104410008D0410928C040E94BF1518CAE5960FB641
:10442000F894DEBF0FBECDBFDF91CF911F910F91EA
:10443000FF90EF90DF90CF90BF90AF909F908F90C4
:104440007F906F905F904F903F902F900895CF9303
:10445000C82F8C3009F44CC0811103C087EA96E064
:1044600044C08FE996E00E9481034C2F50E0FA018E
:104470003197E631F10580F5E85AFF4F0C94902909
:1044800087E896E002C085E796E00E9481032BC092
:1044900083E696E0FACF89E596E0F7CF88E496E0E8
:1044A000F4CF89E396E0F1CF88E196E0EECF8FE09C
:1044B00096E0EBCF84E096E0E8CF81EF95E0E5CFA2
:1044C00083EE95E0E2CF8DEC95E0DFCF89EB95E0D0
:1044D000DCCF85EA95E0D9CF83E995E00E9481039E
:1044E0008C2F0E94C20380E995E0CF910C94810348
:1044F000CF910895CF93C82F88E895E00E9481035B
:10450000CE3F51F0CF3F29F0CD3F51F48AE595E001
:1045100005C088E795E002C085E695E00E9481032A
:1045200087E595E00E94810384EF91E0CF910C94A0
:10453000B20ECF93C82F85E595E00E948103C3306A
:1045400091F038F4C13061F0C230A1F48FE295E00F
:104550000FC0C43059F0C53069F48CE095E008C054
:1045600083E495E005C08DE195E002C085E195E02A
:104570000E94810388E095E0CF910C9481038BEE3B
:1045800094E00C94810387EA93E00C948103FF92FA
:104590000F931F93CF93DF9383EA93E00E948103ED
:1045A000809161050E94C2038AE893E00E94810322
:1045B000809164050E94C2038CE693E00E9481030F
:1045C000809162050E94C20383E593E00E9481030B
:1045D000809162050E9490038CE493E00E94810325
:1045E000809163050E94C20384E393E00E948103EB
:1045F000809163050E9490038DE293E00E94810305
:1046000080916E0582FB882780F90E94C2038CE0AE
:1046100093E00E94810380916E0586FB882780F9D4
:104620000E94C2038CEE92E00E94810380916E058D
:10463000881F8827881F0E94C2038CEC92E00E948A
:104640008103809165050E94C20386EB92E00E947F
:104650008103809165050E9490038EEA92E00E949A
:10466000810360916605709167058091680590915E
:1046700069050E94BF048DE892E00E948103609169
:104680006A0570916B0580916C0590916D050E9493
:10469000BF0481E792E00E94810380916E058170E2
:1046A0000E94C20384E592E00E94810380916E051E
:1046B000869581700E94C2038AE392E00E94810382
:1046C00080916E0585FB882780F90E94C2038FE1E7
:1046D00092E00E94810380916E0583FB882780F918
:1046E0000E94C20384E092E00E94810380916E05E3
:1046F000829581700E94C2038BEE91E00E9481033B
:1047000084E6F82E10E0C1E3D5E000E089EE91E008
:104710000E948103802F8F0D0E94C20387EE91E0DB
:104720000E948103123091F01330D9F0113029F03A
:10473000688179818A819B811BC020E030E040E75D
:1047400052E46C857D858E859F8508C020E030E031
:1047500041E655E4688D798D8A8D9B8D0E94B22645
:1047600007C08CA19DA1AEA1BFA1BC01CD019058F5
:104770000E94BF0484EE91E00E948103013029F081
:10478000023031F082EE91E005C080EE91E002C08F
:104790008EED91E00E948103123051F0133059F0F8
:1047A000113019F083ED91E008C080EC91E005C074
:1047B0008EEA91E002C08DE991E00E94810389E9CF
:1047C00091E00E9481030F5F2496033009F09ECF91
:1047D0008AE0F80E1F5F8CE8F81295CFDF91CF9139
:1047E0001F910F91FF900895CF92DF92FF920F9348
:1047F0001F93CF93DF9300D000D0CDB7DEB783E90E
:1048000091E00E9481030AE016E091E3C92E95E051
:10481000D92EF12CF80161917191819191918F01C3
:10482000F60121913191419151916F0129833A8390
:104830004B835C830E944D2729813A814B815C81A7
:104840000E94B2260E94A104F2E0FF1621F081E945
:1048500091E00E948103F39483E0F812DBCF8DE8AE
:1048600091E00F900F900F900F90DF91CF911F91DB
:104870000F91FF90DF90CF900C948103EF92FF9205
:104880000F931F93CF93DF93CDB7DEB72C970FB65F
:10489000F894DEBF0FBECDBFF12CBE016F5F7F4F1E
:1048A0008F2D0E94F005811104C087E00E9427220D
:1048B00069C08AE891E00E94810386E0F81631F031
:1048C000E7E0FE1208C084E891E002C087E891E0CA
:1048D0000E94810304C086E38F0D0E94C20382E818
:1048E00091E00E9481038E010F5F1F4FE12CF801C0
:1048F00061917191819191918F010E94A104F2E0E7
:10490000EF1619F080E891E002C08CE791E00E9478
:104910008103E39483E0E812EACFF394E8E0FE1227
:10492000BCCF86E791E00E9481030CEA15E0F12CF0
:10493000F80161917191819191918F010E94A1047F
:10494000F2E0FF1619F084E791E002C080E791E001
:104950000E948103F39483E0F812EACF8AE691E0A3
:104960000E9481036091B8057091B9058091BA05E4
:104970009091BB050E94A10486E691E00E9481030C
:104980000E94F4232C960FB6F894DEBF0FBECDBF65
:10499000DF91CF911F910F91FF90EF90089580913B
:1049A0007E05823091F038F4882361F08130A1F4E3
:1049B0008EE591E00FC0833059F0853069F481E5D0
:1049C00091E008C082E691E005C08AE591E002C06E
:1049D00086E591E00E9481038EE491E00E948103CC
:1049E000809184058A5C0E94C2038BE491E00E945E
:1049F0008103809193050E94C20388E491E00E94A4
:104A0000810360918F05709190058091910590913F
:104A100092050E94B00484E491E00C9481031F93FA
:104A2000CF93DF93182FEB0181E491E00E94810383
:104A3000812F0E94C2038FE391E00E948103CE0187
:104A40000E9475038CE391E0DF91CF911F910C944C
:104A50008103CF93DF93EC018DE291E00E9481030B
:104A6000CE010E94750389E291E0DF91CF910C9411
:104A70008103BF92CF92DF92EF92FF920F931F9329
:104A8000CF93DF93CDB7DEB76C970FB6F894DEBF48
:104A90000FBECDBF8CE0ECEFF5E0DE011D9601907E
:104AA0000D928A95E1F78091F9058430D9F040F4B0
:104AB0008130D9F070F08230E1F48DEF90E017C0D2
:104AC000803151F0803259F0883099F48CE191E0D6
:104AD0000EC083E291E00BC087E191E008C081E164
:104AE00091E005C08BE091E002C084E091E00E947B
:104AF00081038091650580FD05C08091650581FF7A
:104B00008AC03CC086EF90E00E9481036E012DE0D8
:104B1000C20ED11C31E3E32E35E0F32E8E010F5F80
:104B20001F4FB12CF60161917191819191916F01AB
:104B3000F70121913191419151917F01298F3A8F54
:104B40004B8F5C8F0E944D27298D3A8D4B8D5C8D4C
:104B50000E94B226F80161937193819391938F0122
:104B60000E94A104F2E0BF1621F084EF90E00E94C1
:104B70008103B39423E0B212D5CFBFCF8DEE90E086
:104B80000E94810320EAE22E25E0F22E8E010F5FC3
:104B90001F4FB12C6801F701619171918191919141
:104BA0007F0120853185428553850E9437269B01F0
:104BB000AC01F80160817181828193810E94362667
:104BC000F8016083718382839383F2E0BF120FC088
:104BD0002091B8053091B9054091BA055091BB05B7
:104BE0000E943626F80160837183828393830C5F71
:104BF0001F4FF60160817181828193810E94A1041F
:104C0000F2E0BF1621F08BEE90E00E948103B39496
:104C100023E0B212BFCF8091650582FF08C085EE08
:104C200090E00E9481030E9411190E94C2038091AA
:104C3000650583FF08C080EE90E00E9481030E941A
:104C4000BF130E94C2038CED90E06C960FB6F894EF
:104C5000DEBF0FBECDBFDF91CF911F910F91FF90AF
:104C6000EF90DF90CF90BF900C9481035058BB27FA
:104C7000AA270ED0C4C1B5D130F0BAD120F031F49A
:104C80009F3F11F41EF4AAC10EF4E095E7FB77C133
:104C9000E92FC6D180F3BA17620773078407950717
:104CA00018F071F49EF5F5C10EF4E0950B2EBA2FB5
:104CB000A02D0B01B90190010C01CA01A001112422
:104CC000FF27591B99F0593F50F4503E68F11A16CE
:104CD000F040A22F232F342F4427585FF3CF46955F
:104CE00037952795A795F0405395C9F77EF41F1681
:104CF000BA0B620B730B840BBAF09150A1F0FF0F4B
:104D0000BB1F661F771F881FC2F70EC0BA0F621F36
:104D1000731F841F48F4879577956795B795F79526
:104D20009E3F08F0B3CF9395880F08F09927EE0FB8
:104D300097958795089596D180F09F3740F491110B
:104D40000EF4A8C160E070E080E89FE3089526F0CB
:104D50001B16611D711D811D18C132C1ECD008F4F4
:104D600081E008950CD04BC143D140F03AD130F0EE
:104D700021F45F3F19F003C151118CC12FC150D1F3
:104D800098F39923C9F35523B1F3951B550BBB2712
:104D9000AA2762177307840738F09F5F5F4F220FBF
:104DA000331F441FAA1FA9F333D00E2E3AF0E0E8B8
:104DB00030D091505040E695001CCAF729D0FE2F04
:104DC00027D0660F771F881FBB1F26173707480796
:104DD000AB07B0E809F0BB0B802DBF01FF2793584C
:104DE0005F4F2AF09E3F510568F0C9C053C15F3F35
:104DF000ECF3983EDCF3869577956795B795F79534
:104E00009F5FC9F7880F911D9695879597F908952B
:104E1000E1E0660F771F881FBB1F621773078407C7
:104E2000BA0720F0621B730B840BBA0BEE1F88F7D6
:104E3000E095089504D06894B1112CC10895F8D07C
:104E400088F09F5790F0B92F9927B751A0F0D1F073
:104E5000660F771F881F991F1AF0BA95C9F712C0FD
:104E6000B13081F016D1B1E0089513C1672F782FCA
:104E70008827B85F39F0B93FCCF386957795679569
:104E8000B395D9F73EF490958095709561957F4FD5
:104E90008F4F9F4F0895E89409C097FB3EF490957B
:104EA0008095709561957F4F8F4F9F4F9923A9F003
:104EB000F92F96E9BB279395F69587957795679592
:104EC000B795F111F8CFFAF4BB0F11F460FF1BC0D6
:104ED0006F5F7F4F8F4F9F4F16C0882311F096E969
:104EE00011C0772321F09EE8872F762F05C0662317
:104EF00071F096E8862F70E060E02AF09A95660FD0
:104F0000771F881FDAF7880F9695879597F9089588
:104F1000A9D080F09F3740F491110EF0BBC060E043
:104F200070E080E89FEB089526F41B16611D711D4B
:104F3000811D2BC045C0990F0008550FAA0BE0E852
:104F4000FEEF16161706E807F907C0F0121613064B
:104F5000E407F50798F0621B730B840B950B39F48B
:104F60000A2661F0232B242B252B21F408950A26F1
:104F700009F4A140A6958FEF811D811D089597F931
:104F80009F6780E870E060E00895882371F47723DC
:104F900021F09850872B762F07C0662311F49927AC
:104FA0000DC09051862B70E060E02AF09A95660F54
:104FB000771F881FDAF7880F9695879597F90895D8
:104FC0009F3F31F0915020F4879577956795B7957D
:104FD000880F911D9695879597F908959FEF80EC1E
:104FE000089500240A94161617061806090608954F
:104FF00000240A9412161306140605060895092EB5
:105000000394000C11F4882352F0BB0F40F4BF2B23
:1050100011F460FF04C06F5F7F4F8F4F9F4F089563
:1050200057FD9058440F551F59F05F3F71F0479559
:10503000880F97FB991F61F09F3F79F0879508953E
:10504000121613061406551FF2CF4695F1DF08C05D
:10505000161617061806991FF1CF8695710561057A
:1050600008940895E5DFA0F0BEE7B91788F4BB27E0
:105070009F3860F41616B11D672F782F8827985F28
:10508000F7CF869577956795B11D93959639C8F3B7
:105090000895E894BB2766277727CB0197F90895F1
:1050A0004ADF08F48FEF0895C3DF58F19E5758F197
:1050B0009851A0F0E9F0983020F5092E9927660F55
:1050C000771F881F991F0A94D1F712C0062E672FE9
:1050D000782F8827985F11F4000C07C0993FB4F32C
:1050E0008695779567959395D9F7611D711D811DFB
:1050F0003EF490958095709561957F4F8F4F9F4FAF
:1051000008956894C7CFC5CF0BD079CF6ADF28F058
:105110006FDF18F0952309F032CF60CF1124BACF9A
:105120007FDFA0F3959FD1F3950F50E0551F629F4D
:10513000F001729FBB27F00DB11D639FAA27F00DF0
:10514000B11DAA1F649F6627B00DA11D661F829F17
:105150002227B00DA11D621F739FB00DA11D621FFC
:10516000839FA00D611D221F749F3327A00D611D19
:10517000231F849F600D211D822F762F6A2F1124FB
:105180009F5750408AF0E1F088234AF0EE0FFF1F4E
:10519000BB1F661F771F881F91505040A9F79E3F85
:1051A000510570F0ECCE76CF5F3FECF3983EDCF328
:1051B000869577956795B795F795E7959F5FC1F7C2
:1051C000FE2B880F911D9695879597F9089530DFEE
:1051D000E0F09E37D8F09639B8F49E3848F4672F3F
:1051E000782F8827985FF9CF86957795679593955F
:1051F0009539D0F3B62FB1706B0F711D811D20F45E
:105200008795779567959395C0CEDACE43CF11F405
:105210000EF4E4CED5CE0CDFD0F39923D9F3CEF340
:105220009F57550B87FF3CD00024A0E640EA900131
:1052300080585695979528F4805C660F771F881FD5
:1052400020F026173707480730F4621B730B840BD6
:10525000202931294A2BA69517940794202531251A
:105260004A2758F7660F771F881F20F02617370741
:10527000480730F4620B730B840B200D311D411D68
:10528000A09581F7B901842F9158880F969587953D
:105290000895E8DE20F09F3708F4FCCE76CE90CE5D
:1052A00091505040660F771F881FD2F708950E94D3
:1052B0009629A59F900DB49F900DA49F800D911DE0
:1052C00011240895991B79E004C0991F961708F0DE
:1052D000961B881F7A95C9F780950895A1E21A2E2A
:1052E000AA1BBB1BFD010DC0AA1FBB1FEE1FFF1F8A
:1052F000A217B307E407F50720F0A21BB30BE40BDA
:10530000F50B661F771F881F991F1A9469F7609520
:105310007095809590959B01AC01BD01CF010895DA
:10532000EE0FFF1F0590F491E02D0994A29FB001AC
:10533000B39FC001A39F700D811D1124911DB29FC9
:10534000700D811D1124911D0895FB019F01E894AA
:105350004230C4F04532B4F44A3029F497FB1EF4CD
:10536000909581959F4F642F77270E94D629805D65
:105370008A330CF0895D8193CB010097A1F716F475
:105380005DE251931082C9010C94C629DC01FC0135
:10539000672F71917723E1F7329704C07C916D9369
:1053A00070836291AE17BF07C8F30895AA1BBB1B99
:1053B00051E107C0AA1FBB1FA617B70710F0A61B15
:1053C000B70B881F991F5A95A9F780959095BC0136
:0853D000CD010895F894FFCF10
:0853D800040810200D0A00007A
:00000001FF
