:100000000C945D000C9485000C9485000C94850084
:100010000C9485000C9485000C9485000C9485004C
:100020000C9485000C9485000C9485000C9432028D
:100030000C9485000C9485000C9485000C9485002C
:100040000C947F030C9485000C94F2040C943505F9
:100050000C9485000C9485000C9485000C9485000C
:100060000C9485000C94850000000007000201003C
:100070000003040600000000000000000102040864
:100080001020408001020408102001020408102002
:10009000040404040404040402020202020203032E
:1000A0000303030300000000250028002B000000CC
:1000B0000000240027002A00F10511241FBECFEF05
:1000C000D8E0DEBFCDBF11E0A0E0B1E0E8E9F1E1AA
:1000D00002C005900D92A431B107D9F711E0A4E157
:1000E000B1E001C01D92AF3DB107E1F710E0CAEBEE
:1000F000D0E004C02297FE010E94C608C83BD10789
:10010000C9F70E944D040C94CA080C94000040E00A
:100110005BE460E070E085E391E00E94700561E0DF
:1001200082E00E94100361E083E00E94100360E01F
:1001300082E00E94490360E083E00E94490361E09D
:100140008CE00E94100361E08DE00E94100360E0EB
:100150008CE00E94490361E08DE00E94490361E068
:1001600089E00E94100360E089E00E944903F8944E
:10017000A1E8B0E08C918F7E8C938C9188608C93F9
:10018000E0E8F0E080818D7F808380818E7F8083B6
:1001900080818F73808380818F7C80838C91887F26
:1001A00082608C9380ED97E0909389008093880023
:1001B0001092850010928400EFE6F0E0808182606A
:1001C0008083789408958F929F92AF92BF92CF923E
:1001D000DF92EF92FF920F931F93CF93DF93EC0187
:1001E0008B0149015A01C12CD12C76010C171D0736
:1001F0003CF1FE01E85EFE4F6081772767FD709558
:1002000060537109882777FD8095982F0E948B078E
:10021000A50194010E943F089B01AC01C701B601F2
:100220000E9488066B017C0120E030E040E251E44E
:10023000C501B4010E94F0064B015C012196D6CFA6
:10024000C701B601DF91CF911F910F91FF90EF9001
:10025000DF90CF90BF90AF909F908F900895809146
:1002600018018236B9F580912401813799F520E093
:1002700030E048EC52E466E070E081E090E00E94FB
:10028000E300609328017093290180932A019093E1
:100290002B0120E030E040E85FEB0E94EC06882371
:1002A000C9F020E030E44CE156E46BE070E087E018
:1002B00090E00E94E3000E945807709389006093C9
:1002C00088006F3F7F4F41F480ED97E09093890065
:1002D0008093880080E0089581E00895CF92DF92B6
:1002E000EF92FF92CF93DF93C82F837C813809F080
:1002F000A5C0C2FBDD27D0F9C5FF04C06D2F82E089
:100300000E944903C4FF04C06D2F83E00E9449038B
:100310008C2F807309F094C0CC708C2F90E0959551
:100320008795959587958230910509F446C083306D
:10033000910509F479C0019749F080916F008D7F94
:1003400080936F0061E089E00E944903C09126011B
:10035000D091270120E030E040E851E4609128018D
:100360007091290180912A0190912B010E943F08F0
:1003700026E636E646EE5FE30E94F0066B017C015E
:1003800020E030E0A9010E943B0820E030E040E09E
:100390005FE387FD05C0C701B6010E94880604C05F
:1003A000C701B6010E9487060E9458076C0F7D1F87
:1003B000709327016093260143C0C0912601D0911C
:1003C000270120E030E040E851E46091280170917D
:1003D000290180912A0190912B010E943F0826E675
:1003E00036E646EE5FE30E94F0066B017C0120E0FA
:1003F00030E0A9010E943B0820E030E040E05FE3EC
:1004000087FD05C0C701B6010E94880604C0C70168
:10041000B6010E9487060E945807C61BD70BD093CF
:100420002701C09326010CC060E089E00E944903C7
:1004300080916F00826080936F0002C080E001C0F5
:1004400081E0DF91CF91FF90EF90DF90CF90089502
:10045000CF93C82F60E00E94490361E08C2FCF91B9
:100460000C9449031F920F920FB60F9211242F93F1
:100470003F934F935F936F937F938F939F93AF932C
:10048000BF93EF93FF938091260190912701181657
:10049000190674F461E08DE00E9449038CE090E05D
:1004A0000E942802809126019091270101970FC098
:1004B000892B89F060E08DE00E9449038CE090E098
:1004C0000E94280280912601909127010196909325
:1004D000270180932601FF91EF91BF91AF919F91EA
:1004E0008F917F916F915F914F913F912F910F90DD
:1004F0000FBE0F901F90189585E391E00E945A045B
:10050000892B39F180911601909117010D970CF00C
:10051000089585E391E00E948704209116013091AF
:1005200017018A3059F4F901E85EFE4F1082121665
:1005300013067CF481E0809315010895F901E85ECB
:10054000FE4F80832F5F3F4F30931701209316019A
:100550000895089585E391E00E945A04892B89F15A
:10056000809114018823F9F00E947C02809115018A
:10057000811106C080911601909117010D97A1F786
:100580000E942F011092150110921701109216016E
:10059000882351F360E071E085E391E00E948506D5
:1005A000109214010EC085E391E00E94870491E04F
:1005B000833C09F090E090931401911102C00E94D5
:1005C0006E0161E070E080E090E00C94EC03833019
:1005D00081F028F4813099F08230A1F008958630BE
:1005E000A9F08730B9F08430D1F4809180008F7DFC
:1005F00003C0809180008F7780938000089584B538
:100600008F7702C084B58F7D84BD08958091B0003E
:100610008F7703C08091B0008F7D8093B0000895E4
:10062000CF93DF9390E0FC01E458FF4F2491FC014D
:10063000E057FF4F8491882349F190E0880F991F7C
:10064000FC01E255FF4FA591B4918C559F4FFC01E1
:10065000C591D4919FB7611108C0F8948C912095F1
:1006600082238C93888182230AC0623051F4F894EB
:100670008C91322F309583238C938881822B8883B1
:1006800004C0F8948C91822B8C939FBFDF91CF9103
:1006900008950F931F93CF93DF931F92CDB7DEB7CB
:1006A000282F30E0F901E859FF4F8491F901E4580F
:1006B000FF4F1491F901E057FF4F04910023C9F057
:1006C000882321F069830E94E7026981E02FF0E02E
:1006D000EE0FFF1FEC55FF4FA591B4919FB7F89413
:1006E0008C91611103C01095812301C0812B8C93E3
:1006F0009FBF0F90DF91CF911F910F9108951F928F
:100700000F920FB60F9211242F933F938F939F93C5
:10071000AF93BF9380912D0190912E01A0912F0155
:10072000B091300130912C0123E0230F2D3720F4BC
:100730000196A11DB11D05C026E8230F0296A11D3B
:10074000B11D20932C0180932D0190932E01A09335
:100750002F01B09330018091310190913201A0912D
:100760003301B09134010196A11DB11D8093310177
:1007700090933201A0933301B0933401BF91AF91B4
:100780009F918F913F912F910F900FBE0F901F90CF
:1007900018953FB7F8948091310190913201A09162
:1007A0003301B091340126B5A89B05C02F3F19F045
:1007B0000196A11DB11D3FBF6627782F892F9A2F63
:1007C000620F711D811D911D42E0660F771F881F0A
:1007D000991F4A95D1F70895CF92DF92EF92FF9239
:1007E000CF93DF936B017C010E94C903EB01C1141D
:1007F000D104E104F10479F00E94C9036C1B7D0B64
:10080000683E7340A0F381E0C81AD108E108F108FE
:10081000C851DC4FECCFDF91CF91FF90EF90DF908C
:10082000CF900895789484B5826084BD84B581604A
:1008300084BD85B5826085BD85B5816085BDEEE6E8
:10084000F0E0808181608083E1E8F0E010828081C7
:1008500082608083808181608083E0E8F0E0808135
:1008600081608083E1EBF0E0808184608083E0EB55
:10087000F0E0808181608083EAE7F0E0808184603D
:100880008083808182608083808181608083808199
:10089000806880831092C10008950E9412040E9413
:1008A0008700CCE2D5E00E94AA022097E1F30E94E3
:1008B0002C05F9CFFC0124853585F901E05CFF4F5B
:1008C00080819181F901EE5BFF4F20813181821B94
:1008D000930B8F7399270895FC0184859585FC01FE
:1008E000E05CFF4F40815181FC01EE5BFF4F2081B6
:1008F00031814217530741F00190F081E02DE80F5C
:10090000F91F808190E008958FEF9FEF0895FC011B
:1009100084859585FC01E05CFF4F40815181FC019D
:10092000EE5BFF4F208131814217530779F0A081A0
:10093000B181A80FB91F8C91208131812F5F3F4F6A
:100940002F7333273183208390E008958FEF9FEF3B
:100950000895FC0181A1882329F0A489B5898C918F
:1009600086FFFBCF11A20895CF93DF93FC0126856C
:100970003785D901A05CBF4F8D919C91119701964D
:100980008F739927E901CE5BDF4F48815981841726
:100990009507D9F30D90BC91A02DA20FB31F6C93B6
:1009A000A685B785A05CBF4F11969C938E93A689B0
:1009B000B7892C9181E090E0078C02C0880F991FC5
:1009C0000A94E2F7282B2C9381E081A30488F5890F
:1009D000E02D80818064808381E090E0DF91CF9181
:1009E000089508951F920F920FB60F9211242F931E
:1009F0003F934F938F939F93EF93FF938091C0000A
:100A000082FD1CC04091C6008091DB019091DC0109
:100A100001968F7399272091DD013091DE018217B5
:100A2000930771F0E091DB01F091DC01E556FE4F98
:100A300040839093DC018093DB0102C08091C6006B
:100A4000FF91EF919F918F914F913F912F910F9037
:100A50000FBE0F901F90189585E391E00E945A04F5
:100A6000892B11F00C94F10408951F920F920FB688
:100A70000F9211242F933F938F939F93EF93FF93A4
:100A800020919701309198018091990190919A015C
:100A90002817390731F48091C1008F7D8093C10000
:100AA00014C0E0919901F0919A01E95AFE4F20811A
:100AB0008091990190919A0101968F739927909353
:100AC0009A01809399012093C600FF91EF919F9125
:100AD0008F913F912F910F900FBE0F901F901895FF
:100AE000CF92DF92EF92FF92CF93DF93EC016A01F6
:100AF0007B01411581EE580761057105F9F0EC891C
:100B0000FD8981E090E008A002C0880F991F0A9437
:100B1000E2F7808360E079E08DE390E0A701960141
:100B20000E94A20821503109410951095695479563
:100B300037952795211580E1380798F0EC89FD89D4
:100B4000108260E874E88EE190E0A70196010E94AF
:100B5000A208215031094109510956954795379509
:100B60002795E889F9893083EA89FB89208319A2CE
:100B7000EE89FF89408181E090E09C010C8C02C0ED
:100B8000220F331F0A94E2F7422B4083EE89FF893C
:100B900040819C010D8C02C0220F331F0A94E2F7A2
:100BA000422B4083EE89FF8940819C010E8C02C05C
:100BB000220F331F0A94E2F7422B4083EE89FF890C
:100BC00020810F8C02C0880F991F0A94E2F780954C
:100BD00082238083DF91CF91FF90EF90DF90CF90C1
:100BE0000895109238011092370188EE93E0A0E04A
:100BF000B0E08093390190933A01A0933B01B09308
:100C00003C0188E091E090933601809335018BE9B7
:100C100091E0909342018093410187E591E09093A8
:100C200044018093430185EC90E0909346018093CA
:100C3000450184EC90E0909348018093470180EC5B
:100C400090E090934A018093490181EC90E0909369
:100C50004C0180934B0182EC90E090934E01809385
:100C60004D0186EC90E09093500180934F0184E019
:100C70008093510183E08093520187E08093530178
:100C800085E08093540181E0809355010895CF92CF
:100C9000DF92EF92FF920F931F93CF93DF936C013C
:100CA0007A01EB01E60EF71E00E010E0CE15DF053D
:100CB00061F06991D601ED91FC910190F081E02DF8
:100CC000C6010995080F191FF1CFC801DF91CF9117
:100CD0001F910F91FF90EF90DF90CF9008956115D5
:100CE000710581F0DB010D900020E9F7AD01415065
:100CF0005109461B570BDC01ED91FC910280F381F9
:100D0000E02D099480E090E008950C946F0650580F
:100D1000BB27AA270ED075C166D130F06BD120F069
:100D200031F49F3F11F41EF45BC10EF4E095E7FB34
:100D300051C1E92F77D180F3BA176207730784078F
:100D4000950718F071F49EF58FC10EF4E0950B2E07
:100D5000BA2FA02D0B01B90190010C01CA01A0010D
:100D60001124FF27591B99F0593F50F4503E68F168
:100D70001A16F040A22F232F342F4427585FF3CFA9
:100D8000469537952795A795F0405395C9F77EF47A
:100D90001F16BA0B620B730B840BBAF09150A1F0C3
:100DA000FF0FBB1F661F771F881FC2F70EC0BA0F49
:100DB000621F731F841F48F4879577956795B795D1
:100DC000F7959E3F08F0B3CF9395880F08F09927C9
:100DD000EE0F979587950895D9D008F481E008958E
:100DE0000CD00FC107D140F0FED030F021F45F3FAE
:100DF00019F0F0C0511139C1F3C014D198F39923FF
:100E0000C9F35523B1F3951B550BBB27AA276217CE
:100E10007307840738F09F5F5F4F220F331F441F13
:100E2000AA1FA9F333D00E2E3AF0E0E830D091504B
:100E30005040E695001CCAF729D0FE2F27D0660F38
:100E4000771F881FBB1F261737074807AB07B0E877
:100E500009F0BB0B802DBF01FF2793585F4F2AF08D
:100E60009E3F510568F0B6C000C15F3FECF3983E6D
:100E7000DCF3869577956795B795F7959F5FC9F7EA
:100E8000880F911D9695879597F90895E1E0660F73
:100E9000771F881FBB1F621773078407BA0720F0EC
:100EA000621B730B840BBA0BEE1F88F7E095089555
:100EB00004D06894B111D9C00895BCD088F09F5770
:100EC00090F0B92F9927B751A0F0D1F0660F771F96
:100ED000881F991F1AF0BA95C9F712C0B13081F076
:100EE000C3D0B1E00895C0C0672F782F8827B85FBE
:100EF00039F0B93FCCF3869577956795B395D9F7D7
:100F00003EF490958095709561957F4F8F4F9F4FE0
:100F10000895E89409C097FB3EF4909580957095EC
:100F200061957F4F8F4F9F4F9923A9F0F92F96E935
:100F3000BB279395F695879577956795B795F111AA
:100F4000F8CFFAF4BB0F11F460FF1BC06F5F7F4F47
:100F50008F4F9F4F16C0882311F096E911C0772359
:100F600021F09EE8872F762F05C0662371F096E862
:100F7000862F70E060E02AF09A95660F771F881F31
:100F8000DAF7880F9695879597F90895990F0008D5
:100F9000550FAA0BE0E8FEEF16161706E807F9074B
:100FA000C0F012161306E407F50798F0621B730BE6
:100FB000840B950B39F40A2661F0232B242B252B67
:100FC00021F408950A2609F4A140A6958FEF811D0A
:100FD000811D089597F99F6780E870E060E00895AB
:100FE0009FEF80EC089500240A9416161706180641
:100FF0000906089500240A9412161306140605061D
:101000000895092E0394000C11F4882352F0BB0FAD
:1010100040F4BF2B11F460FF04C06F5F7F4F8F4F10
:101020009F4F089557FD9058440F551F59F05F3F4B
:1010300071F04795880F97FB991F61F09F3F79F0FA
:1010400087950895121613061406551FF2CF46957C
:10105000F1DF08C0161617061806991FF1CF8695FE
:101060007105610508940895E894BB2766277727E2
:10107000CB0197F908958ADF08F48FEF08950BD01C
:10108000C0CFB1DF28F0B6DF18F0952309F0A2CF6A
:10109000A7CF1124EACFC6DFA0F3959FD1F3950F18
:1010A00050E0551F629FF001729FBB27F00DB11DEC
:1010B000639FAA27F00DB11DAA1F649F6627B00D7C
:1010C000A11D661F829F2227B00DA11D621F739F65
:1010D000B00DA11D621F839FA00D611D221F749F73
:1010E0003327A00D611D231F849F600D211D822FBA
:1010F000762F6A2F11249F5750408AF0E1F0882301
:101100004AF0EE0FFF1FBB1F661F771F881F91500D
:101110005040A9F79E3F510570F05CCFA6CF5F3FCE
:10112000ECF3983EDCF3869577956795B795F79540
:10113000E7959F5FC1F7FE2B880F911D96958795C8
:1011400097F90895A1E21A2EAA1BBB1BFD010DC041
:10115000AA1FBB1FEE1FFF1FA217B307E407F50767
:1011600020F0A21BB30BE40BF50B661F771F881F43
:10117000991F1A9469F760957095809590959B01D9
:10118000AC01BD01CF010895EE0FFF1F0590F49152
:08119000E02D0994F894FFCF53
:1011980062710A0000000000B40447065A0487047C
:0411A8006C04A90426
:00000001FF
