:100000000C945D000C9485000C9485000C94850084
:100010000C9485000C9485000C9485000C9485004C
:100020000C9485000C9485000C9485000C9485003C
:100030000C9485000C9485000C9485000C9485002C
:100040000C94C6020C9485000C9444040C94870410
:100050000C9485000C9485000C9485000C9485000C
:100060000C9485000C94850000000007000201003C
:100070000003040600000000000000000102040864
:100080001020408001020408102001020408102002
:10009000040404040404040402020202020203032E
:1000A0000303030300000000250028002B000000CC
:1000B0000000240027002A00430511241FBECFEFB3
:1000C000D8E0DEBFCDBF11E0A0E0B1E0E4E3F0E1B5
:1000D00002C005900D92A831B107D9F711E0A8E14F
:1000E000B1E001C01D92A13EB107E1F710E0CAEBFB
:1000F000D0E004C02297FE010E941408C83BD1073B
:10010000C9F70E949F030C9418080C94000040E06B
:100110005BE460E070E087E391E00E94C20461E08C
:1001200082E00E94570261E083E00E94570260E093
:1001300082E00E94900260E083E00E94900261E011
:100140008CE00E94570261E08DE00E94570260E05F
:100150008CE00E94900261E08DE00E94900261E0DC
:1001600089E00E94570260E089E00C9490028F922F
:100170009F92AF92BF92CF92DF92EF92FF920F9336
:100180001F93CF93DF93EC018B0149015A01C12CDE
:10019000D12C76010C171D073CF1FE01E45EFE4FE9
:1001A0006081772767FD709560537109882777FD17
:1001B0008095982F0E94DD06A50194010E948D076D
:1001C0009B01AC01C701B6010E94DA056B017C01FD
:1001D00020E030E040E251E4C501B4010E94420653
:1001E0004B015C012196D6CFC701B601DF91CF91BB
:1001F0001F910F91FF90EF90DF90CF90BF90AF9045
:100200009F908F90089580911C01823691F5809186
:100210002601813771F520E030E040E251E464E0EE
:1002200070E081E090E00E94B70060932A01709333
:100230002B0180932C0190932D0120E030E040E8C9
:100240005FEB0E943E068823A1F020E030E44CE101
:1002500056E469E070E085E090E00E94B7000E94FB
:10026000AA06709329016093280121E06F3F7F4F18
:1002700009F420E0822F0895CF93C82F60E00E94F8
:10028000900280912801909129010E94590361E018
:100290008C2F0E9490028091280190912901CF918A
:1002A0000C945903EF92FF920F931F93CF93DF9318
:1002B000EC01CB01BA012091000130910101409184
:1002C0000201509103010E948D070E94AA067B0142
:1002D00000E010E00E151F0534F4CE010E943C0131
:1002E0000F5F1F4FF7CFDF91CF911F910F91FF90BD
:1002F000EF900895CF93DF93C82F837C8138E9F581
:10030000C2FBDD27D0F9C5FF04C06D2F82E00E943B
:100310009002C4FF04C06D2F83E00E9490028C2FD6
:10032000807369F5CC708C2F90E0959587959595A5
:1003300087958230910559F083309105C9F0019776
:1003400021F061E089E00E94900261E001C060E07C
:100350008DE00E94900240912A0150912B01609102
:100360002C0170912D018CE090E00E94520107C099
:1003700060E089E00E94900202C080E001C081E05C
:10038000DF91CF91089587E391E00E94AC03892B20
:1003900039F180911A0190911B010B970CF008958F
:1003A00087E391E00E94D90320911A0130911B014B
:1003B0008A3059F4F901E45EFE4F108212161306DA
:1003C0007CF481E0809318010895F901E45EFE4F0A
:1003D00080832F5F3F4F30931B0120931A010895B4
:1003E000089587E391E00E94AC03892B89F1809105
:1003F00019018823F9F00E94C3018091180181112D
:1004000006C080911A0190911B010B97A1F70E94E1
:1004100003011092180110921B0110921A018823F7
:1004200051F364E071E087E391E00E94D7051092F8
:1004300019010EC087E391E00E94D90391E0833C4B
:1004400009F090E090931901911102C00E947A0185
:1004500061E070E080E090E00C943303833081F041
:1004600028F4813099F08230A1F008958630A9F007
:100470008730B9F08430D1F4809180008F7D03C043
:10048000809180008F7780938000089584B58F7766
:1004900002C084B58F7D84BD08958091B0008F77B0
:1004A00003C08091B0008F7D8093B0000895CF93FA
:1004B000DF9390E0FC01E458FF4F2491FC01E057EA
:1004C000FF4F8491882349F190E0880F991FFC0128
:1004D000E255FF4FA591B4918C559F4FFC01C591FA
:1004E000D4919FB7611108C0F8948C912095822314
:1004F0008C93888182230AC0623051F4F8948C91E5
:10050000322F309583238C938881822B888304C07B
:10051000F8948C91822B8C939FBFDF91CF9108959B
:100520000F931F93CF93DF931F92CDB7DEB7282F82
:1005300030E0F901E859FF4F8491F901E458FF4F89
:100540001491F901E057FF4F04910023C9F088236B
:1005500021F069830E942E026981E02FF0E0EE0F06
:10056000FF1FEC55FF4FA591B4919FB7F8948C9164
:10057000611103C01095812301C0812B8C939FBF13
:100580000F90DF91CF911F910F9108951F920F92BD
:100590000FB60F9211242F933F938F939F93AF9396
:1005A000BF9380912F0190913001A0913101B091C2
:1005B000320130912E0123E0230F2D3720F40196D4
:1005C000A11DB11D05C026E8230F0296A11DB11D76
:1005D00020932E0180932F0190933001A09331013D
:1005E000B09332018091330190913401A091350193
:1005F000B09136010196A11DB11D809333019093F6
:100600003401A0933501B0933601BF91AF919F9112
:100610008F913F912F910F900FBE0F901F901895C3
:100620003FB7F8948091330190913401A091350146
:10063000B091360126B5A89B05C02F3F19F0019651
:10064000A11DB11D3FBF6627782F892F9A2F620FFA
:10065000711D811D911D42E0660F771F881F991F34
:100660004A95D1F70895CF92DF92EF92FF92CF9300
:10067000DF936B017C010E941003EB01C114D104D4
:10068000E104F10479F00E9410036C1B7D0B683EBD
:100690007340A0F381E0C81AD108E108F108C851FD
:1006A000DC4FECCFDF91CF91FF90EF90DF90CF90B8
:1006B00008950197009739F0880F991F880F991FA7
:1006C00002970197F1F70895789484B5826084BD0C
:1006D00084B5816084BD85B5826085BD85B5816046
:1006E00085BDEEE6F0E0808181608083E1E8F0E0A6
:1006F0001082808182608083808181608083E0E8D5
:10070000F0E0808181608083E1EBF0E080818460B3
:100710008083E0EBF0E0808181608083EAE7F0E0B5
:100720008081846080838081826080838081816019
:1007300080838081806880831092C10008950E9428
:1007400064030E948700CEE7D4E00E94F101209765
:10075000E1F30E947E04F9CFFC0124853585F9017F
:10076000E05CFF4F80819181F901EE5BFF4F2081BA
:100770003181821B930B8F7399270895FC01848527
:100780009585FC01E05CFF4F40815181FC01EE5BEF
:10079000FF4F208131814217530741F00190F081D2
:1007A000E02DE80FF91F808190E008958FEF9FEF13
:1007B0000895FC0184859585FC01E05CFF4F408134
:1007C0005181FC01EE5BFF4F2081318142175307BD
:1007D00079F0A081B181A80FB91F8C91208131815E
:1007E0002F5F3F4F2F7333273183208390E008958D
:1007F0008FEF9FEF0895FC0181A1882329F0A48940
:10080000B5898C9186FFFBCF11A20895CF93DF931A
:10081000FC0126853785D901A05CBF4F8D919C9145
:10082000119701968F739927E901CE5BDF4F4881BD
:10083000598184179507D9F30D90BC91A02DA20F73
:10084000B31F6C93A685B785A05CBF4F11969C9390
:100850008E93A689B7892C9181E090E0078C02C025
:10086000880F991F0A94E2F7282B2C9381E081A32B
:100870000488F589E02D80818064808381E090E0A8
:10088000DF91CF91089508951F920F920FB60F92A6
:1008900011242F933F934F938F939F93EF93FF9345
:1008A0008091C00082FD1CC04091C6008091DD0196
:1008B0009091DE0101968F7399272091DF0130918D
:1008C000E0018217930771F0E091DD01F091DE0104
:1008D000E356FE4F40839093DE018093DD0102C01A
:1008E0008091C600FF91EF919F918F914F913F9121
:1008F0002F910F900FBE0F901F90189587E391E0F6
:100900000E94AC03892B11F00C94430408951F92AC
:100910000F920FB60F9211242F933F938F939F93B3
:10092000EF93FF932091990130919A0180919B015F
:1009300090919C012817390731F48091C1008F7D77
:100940008093C10014C0E0919B01F0919C01E75A93
:10095000FE4F208180919B0190919C0101968F73A5
:10096000992790939C0180939B012093C600FF914F
:10097000EF919F918F913F912F910F900FBE0F900C
:100980001F901895CF92DF92EF92FF92CF93DF9353
:10099000EC016A017B01411581EE58076105710583
:1009A000F9F0EC89FD8981E090E008A002C0880F91
:1009B000991F0A94E2F7808360E079E08DE390E08C
:1009C000A70196010E94F007215031094109510900
:1009D0005695479537952795211580E1380798F06A
:1009E000EC89FD89108260E874E88EE190E0A7014F
:1009F00096010E94F007215031094109510956958D
:100A0000479537952795E889F9893083EA89FB89E5
:100A1000208319A2EE89FF89408181E090E09C014A
:100A20000C8C02C0220F331F0A94E2F7422B408342
:100A3000EE89FF8940819C010D8C02C0220F331F7B
:100A40000A94E2F7422B4083EE89FF8940819C01A2
:100A50000E8C02C0220F331F0A94E2F7422B408310
:100A6000EE89FF8920810F8C02C0880F991F0A949C
:100A7000E2F7809582238083DF91CF91FF90EF9002
:100A8000DF90CF90089510923A011092390188EECC
:100A900093E0A0E0B0E080933B0190933C01A093F1
:100AA0003D01B0933E018CE091E09093380180933A
:100AB00037018DE991E0909344018093430189E5EA
:100AC00091E0909346018093450185EC90E09093EE
:100AD00048018093470184EC90E090934A01809311
:100AE000490180EC90E090934C0180934B0181ECA4
:100AF00090E090934E0180934D0182EC90E09093B2
:100B0000500180934F0186EC90E0909352018093C6
:100B1000510184E08093530183E08093540187E086
:100B20008093550185E08093560181E080935701C1
:100B30000895CF92DF92EF92FF920F931F93CF937E
:100B4000DF936C017A01EB01E60EF71E00E010E086
:100B5000CE15DF0561F06991D601ED91FC91019010
:100B6000F081E02DC6010995080F191FF1CFC801CA
:100B7000DF91CF911F910F91FF90EF90DF90CF9079
:100B800008956115710581F0DB010D900020E9F7F2
:100B9000AD0141505109461B570BDC01ED91FC9111
:100BA0000280F381E02D099480E090E008950C9498
:100BB000C1055058BB27AA270ED075C166D130F0A9
:100BC0006BD120F031F49F3F11F41EF45BC10EF4A1
:100BD000E095E7FB51C1E92F77D180F3BA1762079F
:100BE00073078407950718F071F49EF58FC10EF412
:100BF000E0950B2EBA2FA02D0B01B90190010C012D
:100C0000CA01A0011124FF27591B99F0593F50F444
:100C1000503E68F11A16F040A22F232F342F44279C
:100C2000585FF3CF469537952795A795F040539594
:100C3000C9F77EF41F16BA0B620B730B840BBAF064
:100C40009150A1F0FF0FBB1F661F771F881FC2F7CF
:100C50000EC0BA0F621F731F841F48F487957795E3
:100C60006795B795F7959E3F08F0B3CF9395880F9A
:100C700008F09927EE0F979587950895D9D008F435
:100C800081E008950CD00FC107D140F0FED030F0C4
:100C900021F45F3F19F0F0C0511139C1F3C014D1F4
:100CA00098F39923C9F35523B1F3951B550BBB2733
:100CB000AA2762177307840738F09F5F5F4F220FE0
:100CC000331F441FAA1FA9F333D00E2E3AF0E0E8D9
:100CD00030D091505040E695001CCAF729D0FE2F25
:100CE00027D0660F771F881FBB1F261737074807B7
:100CF000AB07B0E809F0BB0B802DBF01FF2793586D
:100D00005F4F2AF09E3F510568F0B6C000C15F3FBB
:100D1000ECF3983EDCF3869577956795B795F79554
:100D20009F5FC9F7880F911D9695879597F908954C
:100D3000E1E0660F771F881FBB1F621773078407E8
:100D4000BA0720F0621B730B840BBA0BEE1F88F7F7
:100D5000E095089504D06894B111D9C00895BCD02D
:100D600088F09F5790F0B92F9927B751A0F0D1F094
:100D7000660F771F881F991F1AF0BA95C9F712C01E
:100D8000B13081F0C3D0B1E00895C0C0672F782F93
:100D90008827B85F39F0B93FCCF38695779567958A
:100DA000B395D9F73EF490958095709561957F4FF6
:100DB0008F4F9F4F0895E89409C097FB3EF490959C
:100DC0008095709561957F4F8F4F9F4F9923A9F024
:100DD000F92F96E9BB279395F695879577956795B3
:100DE000B795F111F8CFFAF4BB0F11F460FF1BC0F7
:100DF0006F5F7F4F8F4F9F4F16C0882311F096E98A
:100E000011C0772321F09EE8872F762F05C0662337
:100E100071F096E8862F70E060E02AF09A95660FF0
:100E2000771F881FDAF7880F9695879597F90895A9
:100E3000990F0008550FAA0BE0E8FEEF16161706EB
:100E4000E807F907C0F012161306E407F50798F053
:100E5000621B730B840B950B39F40A2661F0232B6C
:100E6000242B252B21F408950A2609F4A140A695E8
:100E70008FEF811D811D089597F99F6780E870E0CD
:100E800060E008959FEF80EC089500240A94161600
:100E9000170618060906089500240A941216130668
:100EA000140605060895092E0394000C11F48823F6
:100EB00052F0BB0F40F4BF2B11F460FF04C06F5F12
:100EC0007F4F8F4F9F4F089557FD9058440F551FE8
:100ED00059F05F3F71F04795880F97FB991F61F0BC
:100EE0009F3F79F087950895121613061406551F33
:100EF000F2CF4695F1DF08C0161617061806991F9F
:100F0000F1CF86957105610508940895E894BB2793
:100F100066277727CB0197F908950BD0C4CFB5DFAB
:100F200028F0BADF18F0952309F0A6CFABCF112433
:100F3000EECFCADFA0F3959FD1F3950F50E0551F78
:100F4000629FF001729FBB27F00DB11D639FAA271E
:100F5000F00DB11DAA1F649F6627B00DA11D661F6D
:100F6000829F2227B00DA11D621F739FB00DA11D8E
:100F7000621F839FA00D611D221F749F3327A00D48
:100F8000611D231F849F600D211D822F762F6A2FE4
:100F900011249F5750408AF0E1F088234AF0EE0F69
:100FA000FF1FBB1F661F771F881F91505040A9F776
:100FB0009E3F510570F060CFAACF5F3FECF3983EA3
:100FC000DCF3869577956795B795F795E7959F5FDD
:100FD000C1F7FE2B880F911D9695879597F9089577
:100FE000A1E21A2EAA1BBB1BFD010DC0AA1FBB1F2D
:100FF000EE1FFF1FA217B307E407F50720F0A21B9F
:10100000B30BE40BF50B661F771F881F991F1A940B
:1010100069F760957095809590959B01AC01BD0135
:10102000CF010895EE0FFF1F0590F491E02D099474
:04103000F894FFCF62
:10103400E4380E4162710A000000000006049905BC
:08104400AC03D903BE03FB035A
:00000001FF
