:100000000C9456030C9473030C9473030C947303B5
:100010000C9473030C9473030C9473030C941F0AD5
:100020000C9473030C9473030C9473030C94FB1BD8
:100030000C9473030C9473030C9473030C94730368
:100040000C94A41D0C9473030C94A2180C946418C3
:100050000C9473030C9473030C9473030C94730348
:100060000C9473030C947303D408E4080209E408A5
:10007000060919090C091209331436143B143E14ED
:100080004114441447144A144D14501453145F146B
:100090005F145F145F145F145F145F145F145914CE
:1000A00056145C14DC1AE21AE51AE81AED1AF51A6D
:1000B000FF1A661B661B661B071B091B121B1B1BFB
:1000C000231B661B661B661B661B661B2B1B661BA6
:1000D000351B3D1B401B491B521B581B3E0D0A0084
:1000E0002C52583A002C4275663A002C002C57507E
:1000F0006F733A002C002C4D506F733A003C4368EC
:1001000065636B003C416C61726D003C486F6D65CE
:10011000003C486F6C64003C52756E003C51756544
:100120007565003C49646C65005D0D0A005B302E0E
:10013000312E32303134313030353A000D0A003D45
:1001400000244E005D0D0A00204600205400204788
:10015000005B473830005B4733005B4732005B474A
:1001600031005B4730005D0D0A005B544C4F3A0094
:100170005D0D0A002C005B4739323A005D0D0A0024
:100180002C003A003330003238005B47005D0D0A26
:10019000002C005B5052423A00290D0A00206D618C
:1001A000782074726176656C2C206465670020612C
:1001B0006363656C2C206465672F7365635E320032
:1001C000206D617820726174652C206465672F73DF
:1001D0006563002C20737465702F646567007A0076
:1001E000790078002028003D0024002028686F6DE9
:1001F000696E672070756C6C2D6F66662C206D6D56
:10020000290D0A00202868617264206C696D697488
:10021000732C20626F6F6C290D0A2432323D00204E
:1002200028736F6674206C696D6974732C20626F1B
:100230006F6C290D0A2432313D0020286175746FDE
:100240002073746172742C20626F6F6C290D0A2404
:1002500032303D0020287265706F727420696E63C1
:100260006865732C20626F6F6C290D0A2431343D50
:1002700000202861726320746F6C6572616E636523
:100280002C20646567290D0A2431333D0020286A3B
:10029000756E6374696F6E20646576696174696FE9
:1002A0006E2C20646567290D0A2431323D00290D2A
:1002B0000A2431313D0020287374617475732072F3
:1002C00065706F7274206D61736B3A0020287072D4
:1002D0006F62652070696E20696E766572742C207D
:1002E000626F6F6C290D0A2431303D0020286C6943
:1002F0006D69742070696E7320696E766572742CF6
:1003000020626F6F6C290D0A24363D00202873741B
:10031000657020656E61626C6520696E76657274C9
:100320002C20626F6F6C290D0A24353D00290D0ABF
:1003300024343D00202864697220706F7274206933
:100340006E76657274206D61736B3A00290D0A2414
:10035000333D0020287374657020706F72742069BB
:100360006E76657274206D61736B3A002028737429
:1003700065702069646C652064656C61792C206D02
:10038000736563290D0A24323D002028737465705B
:100390002070756C73652C2075736563290D0A24B4
:1003A000313D0024303D00242420287669657720E3
:1003B0004772626C2073657474696E6773290D0AE5
:1003C0002423202876696577202320706172616D6F
:1003D0006574657273290D0A24472028766965774C
:1003E00020706172736572207374617465290D0ADF
:1003F0002449202876696577206275696C642069D4
:100400006E666F290D0A244E202876696577207361
:1004100074617274757020626C6F636B73290D0A5E
:1004200024783D76616C7565202873617665204778
:1004300072626C2073657474696E67290D0A244EAC
:10044000783D6C696E6520287361766520737461F0
:100450007274757020626C6F636B290D0A244320DF
:1004600028636865636B2067636F6465206D6F64E4
:1004700065290D0A245820286B696C6C20616C6119
:10048000726D206C6F636B290D0A244820287275E9
:100490006E20686F6D696E67206379636C65290DE6
:1004A0000A7E20286379636C6520737461727429F5
:1004B0000D0A2120286665656420686F6C64290D2B
:1004C0000A3F202863757272656E742073746174BC
:1004D0007573290D0A6374726C2D78202872657308
:1004E0006574204772626C290D0A000D0A486F720C
:1004F000757320302E31205B27242720666F7220F1
:1005000068656C705D0D0A005D0D0A0044697361D9
:10051000626C656400456E61626C65640043617580
:1005200074696F6E3A20556E6C6F636B656400275B
:100530002448277C2724582720746F20756E6C6F01
:10054000636B00526573657420746F20636F6E7403
:10055000696E7565005B000D0A0050726F62652060
:100560006661696C0041626F727420647572696EB5
:1005700067206379636C6500486172642F736F66EE
:1005800074206C696D697400414C41524D3A2000F1
:100590000D0A00496E76616C69642067636F64655B
:1005A0002049443A00556E646566696E656420664C
:1005B000656564207261746500556E737570706F47
:1005C0007274656420636F6D6D616E64004D6F645D
:1005D000616C2067726F75702076696F6C617469E9
:1005E0006F6E004C696E65206F766572666C6F7712
:1005F00000486F6D696E67206E6F7420656E616272
:100600006C656400416C61726D206C6F636B004EB1
:100610006F742069646C6500454550524F4D2072DF
:10062000656164206661696C2E205573696E672070
:1006300064656661756C74730056616C7565203C09
:10064000203320757365630053657474696E672089
:1006500064697361626C65640056616C7565203C09
:10066000203000496E76616C696420737461746532
:100670006D656E7400426164206E756D62657220F6
:10068000666F726D6174004578706563746564208F
:10069000636F6D6D616E64206C6574746572006566
:1006A00072726F723A20006F6B0D0A0011241FBE28
:1006B000CFEFD8E0DEBFCDBF11E0A0E0B1E0E4E9CC
:1006C000F2E502C005900D92A430B107D9F716E00B
:1006D000A4E0B1E001C01D92A93DB107E1F70E947D
:1006E000650A0C9448290C940000F999FECF92BD3C
:1006F00081BD81E08FBB80B50895F894F999FECF54
:1007000092BD81BD81E08FBB40B54627842F9927DC
:1007100087FD9095262F30E082239323892B39F093
:100720006F3F19F060BD84E006C084E104C044233B
:1007300021F060BD84E28FBBF99A789408959F926E
:10074000AF92BF92CF92DF92EF92FF920F931F93DF
:10075000CF93DF938C017A016B01C40ED51EEB01A0
:10076000912C5C01A61AB70ACE018A0D9B1DCC15EF
:10077000DD0591F0911009C0692D772767FD70950F
:10078000272F221F2227221F01C021E06991922ECC
:10079000960E0E947D03E8CF692DC8018E0D9F1D26
:1007A000DF91CF911F910F91FF90EF90DF90CF904D
:1007B000BF90AF909F900C947D039F92AF92BF9299
:1007C000CF92DF92EF92FF920F931F93CF93DF931D
:1007D0008B017A016C01C40ED51EEC01912C5B01DA
:1007E000A81AB90AC5018C0F9D1FCC15DD0591F023
:1007F0000E947503911009C0292D332727FD3095DC
:10080000232F221F2227221F01C021E0922E980EA3
:100810008993E8CFC8018E0D9F1D0E94750321E0CA
:1008200030E0981611F020E030E0C901DF91CF915F
:100830001F910F91FF90EF90DF90CF90BF90AF90FE
:100840009F9008958DE3EDE2F5E0DF011D928A951A
:10085000E9F76EE475E080E00E942B1A811103C075
:1008600087E00C941A140895CF92DF92EF92FF92D2
:100870000F931F93CF93DF9300D000D0CDB7DEB797
:1008800081EBC82E85E0D82E9CE8E92E96E0F92E63
:1008900002E415E0F60161917191819191916F01EE
:1008A000F70121913191419151917F0129833A833F
:1008B0004B835C830E94F02629813A814B815C81C5
:1008C0000E945526F80161937193819391938F0152
:1008D000FDEBCF16F5E0DF06E9F60F900F900F90D5
:1008E0000F90DF91CF911F910F91FF90EF90DF90CC
:1008F000CF9008952F923F924F925F926F927F9286
:100900008F929F92AF92BF92CF92DF92EF92FF921F
:100910000F931F93CF93DF93CDB7DEB7A3970FB697
:10092000F894DEBF0FBECDBF6C018BE3EAE6F5E0C5
:10093000DF011D928A95E9F78CE0EDE2F5E0ABE688
:10094000B5E001900D928A95E1F71D8E00E010E070
:10095000E12CF12C912C812C222423948D8DF601F5
:10096000E80FF11DA080AA2009F4DEC09FEB9A0DCC
:100970009A3108F0C8C48F5F8D8FAE01475E5F4F1C
:10098000BE01635E7F4FC6010E94270C882309F4D5
:10099000BCC4498C5A8C6B8C7C8CC301B2010E9404
:1009A000EC280E94C226B62E70E080E090E00E9403
:1009B000F0269B01AC01C301B2010E94D92520E0C1
:1009C00030E048EC52E40E9427280E948A280E94C6
:1009D000C226B7E4AB1621F0EDE4AE16B9F05BC069
:1009E000F1E0BF129CC4811092C4B0926B056623E3
:1009F00011F087E19DC4E1FE02C085E199C46894CD
:100A0000E1F83324339492E0892EA8CF6111F1CF1D
:100A100022E1B21621F12B1548F082E08B1580F40B
:100A200091E1B9127CC42092760524C0A6E4BA16DE
:100A3000C9F0B7E4BB16C9F0EEE1BE1270C40BC03A
:100A4000F2E0BF1641F02EE1B21629F0B11010C04D
:100A5000209272050DC082E08093720509C0109249
:100A6000760508C01092750505C02092750502C074
:100A700088E0382E81E090E0032C02C0880F991F97
:100A80000A94E2F79C012E213F21232B09F0B5CFD8
:100A9000E82AF92A63CF94E5A91681F0A8E5AA16F9
:100AA00091F0B6E4AB123BC44092770550927805C2
:100AB0006092790570927A05312C11C0B092980538
:100AC000B9E03B2E0CC04092990550929A05609275
:100AD0009B0570929C05AAE03A2E99249394AA242F
:100AE000A394B12C032C02C0AA0CBB1C0A94E2F7FD
:100AF000C50180239123892B09F00BC481E693E083
:100B0000032C02C0959587950A94E2F780FF09C0EF
:100B100020E030E0A901C301B2010E94512687FD07
:100B2000FAC30A291B291ACF992021F0811002C08B
:100B3000E2E08E2E05FF0EC0809188059091890518
:100B4000A0918A05B0918B0580389649A849B105D6
:100B50000CF0E3C380916C05813031F4F2E08F1228
:100B600032C000FFE2C32FC080912E0581112BC03F
:100B700000FF13C080916D05813029F523E333E335
:100B80004BEC51E46091770570917805809179057F
:100B900090917A050E9427280EC020E030E040E7BF
:100BA00052E460913D0570913E0580913F05909122
:100BB00040050E94552660937705709378058093D1
:100BC000790590937A0510FD10C0809139059091B8
:100BD0003A05A0913B05B0913C0580939405909314
:100BE0009505A0939605B093970580916A0581308D
:100BF00029F406FD02C08CE19BC30F7B80916D053B
:100C0000813061F08CE0EEE4F5E0DE011D960190AC
:100C10000D928A95E1F7E7FC2DC034C079E9A72E43
:100C200075E0B72EC12CD12C692C712CC3010C2C72
:100C300002C0959587950A94E2F780FF10C023E3E0
:100C400033E34BEC51E4D5016D917D918D919C91F5
:100C50000E942728F5016083718382839383FFEFCD
:100C6000CF1ADF0A24E0A20EB11C83E0C816D1041B
:100C7000E9F6C8CF80917105873020F59091330552
:100C8000981322C090916A059E8F923021F098307F
:100C900009F4D4C03CC1992009F48FC0C801807503
:100CA0009927892B09F4A7CF60918C0570918D0548
:100CB00080918E0590918F050E94EC280E94C2269B
:100CC000673058F08DE134C3BE01635F7F4F0E94EF
:100CD0002B1A8111D7CF87E02BC3809187058431F0
:100CE00009F06DC00F7A662309F46FC033243A947B
:100CF000360EBE016F5F7F4F832D0E942B1A882313
:100D000051F32090870540906605509067056090EC
:100D1000680570906905DE0111966D0169E9A62EDE
:100D200065E0B62EE2E4F5E0FF8FEE8FE12CF12CCA
:100D3000892D90E099A388A388A199A10E2C02C0C7
:100D4000959587950A94E2F780FD42C0FFEFEF1A70
:100D5000FF0A24E0C20ED11C84E0A80EB11CAE8DA7
:100D6000BF8D1496BF8FAE8FB3E0EB16F10421F761
:100D7000F0906B05B5E0FB1609F475C1E2E08E1248
:100D8000B7C1FF2009F472C120E030E0A9016091F1
:100D90007705709178058091790590917A050E9488
:100DA0005126882309F4C1C2F1E0FF1609F45EC19F
:100DB00024E0F212A2C191105DC18AE1B9C2823071
:100DC00009F0ADC207FDABC28DCF3090710591CF58
:100DD00094E1291228C0AE8DBF8D58962D913D917A
:100DE0004D915C915B976D917D918D919C910E944D
:100DF000D925F50120813181428153810E94D92575
:100E0000D6016D937D938D939C931397B2E0EB1273
:100E10009DCFA30192010E94D925F60160837183C1
:100E20008283938393CFF50180819181A281B381E5
:100E3000F60180839183A283B38388CF992009F43C
:100E4000BCCF409066055090670560906805709033
:100E5000690549E9E42E45E0F42E52E4A52E55E05B
:100E6000B52E1E01EDE02E0E311CC12CD12C892D8A
:100E700090E09F8F8E8F8E8D9F8D0C2C02C095954C
:100E800087950A94E2F780FF26C0D1012D913D910C
:100E90004D915C91F50160817181828193810E9405
:100EA000D925D7012D913D914D915C910E94D92575
:100EB000F7016083718382839383F2E0CF1215C0C0
:100EC000A30192010E94D925D7016D937D938D9343
:100ED0009C9313970AC0F501808D918DA28DB38DDF
:100EE000F70180839183A283B383FFEFCF1ADF0AD8
:100EF00024E0E20EF11C84E0A80EB11C94E0290E5F
:100F0000311CA3E0CA16D10409F0B5CFAAC09110D4
:100F10000BC0BE8DB53009F492C0B73009F49CC047
:100F2000B33009F09EC083C0E0916E05E8A3409005
:100F3000660550906705609068057090690522E429
:100F4000A22E25E0B22E39E9E32E35E0F32E1E0164
:100F5000FDE02F0E311CC12CD12C892D90E09BA3DC
:100F60008AA38AA19BA10C2C02C0959587950A940F
:100F7000E2F780FD0BC0F50180819181A281B381F0
:100F8000F70180839183A283B3833FC0FE8DF73046
:100F9000E1F128A1211128C0D50158962D913D914C
:100FA0004D915C915B97F1016081718182819381A8
:100FB0000E94DA25D7012D913D914D915C910E94BF
:100FC000DA25F7016083718382839383F2E0CF1285
:100FD0001CC0A30192010E94DA25D7016D937D9375
:100FE0008D939C93139711C0F5012081318142812B
:100FF0005381D7016D917D918D919C910E94DA254D
:10100000F7016083718382839383FFEFCF1ADF0A36
:1010100024E0A20EB11C84E0E80EF11C94E0290E3D
:10102000311CA3E0CA16D10409F09BCF72CF9110F6
:1010300001C0812CBE016F5F7F4F86E007C0911019
:1010400001C0812CBE016F5F7F4F87E00E942B1A89
:10105000882309F440CE05C080916B05823008F0EA
:1010600060C1312C85CE91105EC142C0911045C047
:10107000812C40C02091990530919A0540919B05A3
:1010800050919C0560914205709143058091440503
:10109000909145050E94512681112FC020919D05F8
:1010A00030919E0540919F055091A00560914605A5
:1010B0007091470580914805909149050E945126FD
:1010C00081111BC02091A1053091A2054091A3057B
:1010D0005091A40560914A0570914B0580914C0593
:1010E00090914D050E945126811107C081E220C1D7
:1010F000811003C00E7D1C7F02C00E7D107E012B6F
:1011000009F015C180916C0580932E0520E030E038
:1011100040E752E4609177057091780580917905F8
:1011200090917A050E94272860933D0570933E05B3
:1011300080933F05909340058091980580934105E9
:1011400080916A05813051F460918C0570918D0514
:1011500080918E0590918F050E94DD0A80916F0528
:10116000809331058091710590913305981759F05E
:10117000809333058CE0FE013D96AEE4B5E001902E
:101180000D928A95E1F780916E05809330058091EC
:101190006A0590E0FC013297E830F10508F049C09B
:1011A000EC5CFF4F0C943329BE016F5F7F4F832DA2
:1011B0000E940D198091330583113BC08CE0FE0124
:1011C0003196AEE4B5E019C0882049F020E040E057
:1011D00050E060E87FEB89E995E00E94A00A20E0FA
:1011E00040E050E060E87FEBCE0101960E94A00A4B
:1011F0008CE0FE013196A2E4B5E001900D928A9553
:10120000E1F717C062E475E086E003C062E475E0D0
:1012100087E00E940D190DC08CE0E9E9F5E0AAE530
:10122000B5E0EBCF8CE0EAE5F5E0DF011D928A95B1
:10123000E9F780916B0580932D05B2E08B1231C0E8
:101240008130C1F088F0843019F540913D0550910E
:101250003E0560913F057091400520912E0589E97A
:1012600095E00E943C0B14C020E040E050E060E8B4
:101270007FEB0AC040913D0550913E0560913F05CE
:101280007091400520912E0589E995E00E94A00A01
:101290008CE0E9E9F5E0A2E4B5E001900D928A95D1
:1012A000E1F78091720580933405882369F00E94EC
:1012B00000141092BD0580913405823019F40E940B
:1012C0000C0C02C0109234056091750560933705CF
:1012D00070E08091980590E00E94020A8091760566
:1012E00080933805813039F480E090E00E94C91B7A
:1012F0000E94A91B06C081E090E00E94C91B0E94C9
:10130000CC1B80E015C081E013C082E011C088E1F1
:101310000FC089E10DC084E00BC08BE109C084E1FE
:1013200007C08EE105C08FE103C086E101C084E201
:10133000A3960FB6F894DEBF0FBECDBFDF91CF915D
:101340001F910F91FF90EF90DF90CF90BF90AF90E3
:101350009F908F907F906F905F904F903F902F90D5
:1013600008958AB18C638AB98BB1837C8BB9F89468
:101370001092B20083EF8093B30082E08093B000BC
:1013800086E08093B100E0E7F0E0808182608083B6
:10139000789408959BB1982B9BB908959BB1809543
:1013A00089238BB90895EF92FF920F931F93CF93E8
:1013B000DF931F92CDB7DEB78430E0F4E82EF12C36
:1013C000F701E050FF4F80818823A1F08701075586
:1013D0001A4F613039F469830E94CA096981F801A2
:1013E000608308C00E94CE09F8011082F701EB5516
:1013F000FA4F10820F90DF91CF911F910F91FF90C4
:10140000EF900895CF93DF9300D0CDB7DEB79091E2
:10141000AE05923079F06A8389830E9482130E941C
:1014200000146A81898181500F900F90DF91CF91D4
:101430000C94D3090F900F90DF91CF9108951F92D4
:101440000F920FB60F9211242F933F934F935F93F8
:101450006F937F938F939F93AF93BF93CF93DF93BC
:10146000EF93FF93809104018F5F809304018111BA
:1014700019C0C0E0D0E08C2FFE01E755FA4F9081F3
:10148000FE01EB55FA4F992319F090819F5F9083ED
:1014900090819F3F19F460E00E94D3092196C430E7
:1014A000D10549F7FF91EF91DF91CF91BF91AF91B6
:1014B0009F918F917F916F915F914F913F912F916C
:1014C0000F900FBE0F901F9018950E9432180E9427
:1014D000721B0E94261E0E9481248EE1EDEAF5E037
:1014E000DF011D928A95E9F781E08093AD0578943C
:1014F0008091C90684FF03C081E08093AE05C1E0FE
:101500000E94F8180E9422040E94B1090E94C01291
:101510000E94FF0D0E94F61D0E9431110E943404AA
:101520001092AD051092AF058091C90681FF03C0EE
:10153000C093BD0502C01092BD050E948F13E0CF7D
:10154000EF92FF921F93CF93DF9300D000D0CDB7DF
:10155000DEB77C01122F8091AE05823021F14983E4
:101560005A836B837C830E94ED128091AD058111BB
:101570001AC00E944E0E49815A816B817C8188235A
:1015800039F00E94821349815A816B817C81E7CFB7
:10159000212FC7010E94560E8091AE05811103C014
:1015A00088E08093AE050F900F900F900F90DF9121
:1015B000CF911F91FF90EF9008958F929F92AF92DD
:1015C000BF92CF92DF92EF92FF924B015C0180912C
:1015D000AE05823009F447C020E030E040EA51E433
:1015E000C501B4010E9427280E942B270E94C22611
:1015F0006B017C010E94001420E030E04AE754E4D3
:10160000C501B4010E9427284B015C0182E38C9D37
:10161000B0018D9D700D112480E090E00E94EE26B7
:101620009B01AC01C501B4010E94D9250E942B2762
:101630000E94C226CB010E94D90CC114D10499F09A
:101640000E94ED1221E0C21AD1088091AD058111EE
:101650000AC08FEF90E722E0815090402040E1F7F0
:1016600000C00000EACFFF90EF90DF90CF90BF90D6
:10167000AF909F908F9008954F925F926F927F925C
:101680008F929F92AF92BF92CF92DF92EF92FF9292
:101690000F931F93CF93DF9300D000D0CDB7DEB769
:1016A0004C016A017B01722E8091AE05823009F4F3
:1016B0009EC00E9400146090BD050E94CE12882337
:1016C00051F09FB7F8948091AF0580648093AF0587
:1016D0009FBF0E94ED128091AD05811188C0272D1A
:1016E000B701A601C4010E94A00A81E08093BE0553
:1016F0009FB7F8948091AF0582608093AF059FBF3C
:101700000E94ED128091AD05811171C08091AE05EE
:10171000877FB1F78091BE05813041F49FB7F8947F
:101720008091AF0580648093AF059FBF0E94ED124A
:101730008091AD0581115BC00E94F61D0E94FF0DD6
:101740000E9431110FEB15E08CE8A82E86E0B82E30
:101750002401F80161917191819191918F01F501BD
:1017600021913191419151915F0129833A834B83BA
:101770005C830E94F02629813A814B815C810E9422
:101780005526F20161937193819391932F01F5E0B6
:101790000B3C1F07F1F6272DB701A601C4010E94DB
:1017A000A00A9FB7F8948091AF0582608093AF053F
:1017B0009FBF0E9400148091AD05811118C06092F6
:1017C000BD050F900F900F900F90DF91CF911F915B
:1017D0000F91FF90EF90DF90CF90BF90AF909F90D0
:1017E0008F907F906F905F904F900C94E7150F90C3
:1017F0000F900F900F90DF91CF911F910F91FF905D
:10180000EF90DF90CF90BF90AF909F908F907F90A0
:101810006F905F904F9008958091AF0584FD16C042
:101820009FB7F8948091AF0580618093AF059FBF0B
:101830008091AE05847351F09FB7F8948091AF0505
:1018400080628093AF059FBF0C94CC1B08956F926C
:101850007F928F929F92AF92BF92CF92DF92EF9240
:10186000FF920F931F93CF93DF937C018B016A014B
:10187000FB018081F701E80FF11D2081EF012D327E
:1018800029F4229621816624639407C02B3211F03B
:10189000219602C022962181612CA12CB12C712CA1
:1018A00060E070E0CB01FE0130ED932E920E29E056
:1018B0002915C8F0B39428E02B1588F0A1107A946C
:1018C000A5E0B0E09B01AC010E94FA28660F771FEB
:1018D000881F991F690D711D811D911D0BC0A110DD
:1018E00009C0739407C02EEF921207C0A11005C063
:1018F000AA24A39421962081D6CFBB2009F449C005
:101900000E94EE264B015C0120E030E0A9010E941C
:101910005126882361F18FEF78166CF42AE037EDB9
:1019200043E25CE3C501B4010E9427284B015C013E
:1019300073947394F0CF78120BC02DEC3CEC4CEC0C
:101940005DE3C501B4010E9427284B015C010FC073
:10195000772069F020E030E040E251E4C501B401B5
:101960000E9427284B015C017A9417149CF366208F
:1019700021F0B7FAB094B7F8B094F6018082918262
:10198000A282B382CE19DF09C150F801C08381E081
:1019900001C080E0DF91CF911F910F91FF90EF90F8
:1019A000DF90CF90BF90AF909F908F907F906F907F
:1019B0000895009741F0EFE9FFE03197F1F700C09B
:1019C00000000197F6CF08954F925F926F927F9239
:1019D0008F929F92AF92BF92CF92DF92EF92FF923F
:1019E0000F931F93CF93DF9310912301111101C027
:1019F00012E1115000912101101709F4EFC089E2A2
:101A0000189FE0011124CB5DDE4F8D889E88AF8842
:101A1000B88C69A17AA18BA19CA19B01AC010E9409
:101A2000DA252DA13EA14FA158A50E9427286B01C0
:101A30007C019B01AC01B401C5010E94512687FFC6
:101A400002C064017501A601B701498B5A8B6B8BEB
:101A50007C8B111101C012E177247A94710E7016FB
:101A600019F029E2622E27C080912401081351C089
:101A70000E94441E4EC0679C800111240B5D1E4FC6
:101A8000711002C092E1792E7A948091240178122B
:101A900002C00E94441EF801C588D688E788F08CF1
:101AA000A701960161897289838994890E945126D0
:101AB000811106C0E801809121017812DCCF29C094
:101AC000F80161A172A183A194A19B01AC010E94C4
:101AD000DA25F80125A136A147A150A50E942728A3
:101AE00029893A894B895C890E94DA254B015C017E
:101AF000A70196010E945126F80187FF05C0818A3F
:101B0000928AA38AB48AD6CFC18AD28AE38AF48A17
:101B1000D1CF60902101F9E26F9E800111240B5D0D
:101B20001E4F77247394760C82E1781201C0712CD9
:101B30005090230189E2482E751409F44DC0479C4A
:101B4000E0011124CB5DDE4FF80181889288A388E3
:101B5000B488C988DA88EB88FC88A7019601C5019A
:101B6000B4010E94512687FF23C0F80161A172A130
:101B700083A194A19B01AC010E94DA25F80125A163
:101B800036A147A150A50E9427289B01AC01C501A1
:101B9000B4010E94DA254B015C01A70196010E9465
:101BA000512687FF05C0898A9A8AAB8ABC8A672C2E
:101BB0002D893E894F89588D69897A898B899C89BD
:101BC0000E945126811101C0672C7394F2E17F12AB
:101BD00001C0712C8E01B0CF60922101DF91CF91B5
:101BE0001F910F91FF90EF90DF90CF90BF90AF903B
:101BF0009F908F907F906F905F904F9008958CE1B1
:101C0000E5E0F1E0DF011D928A95E9F710922401E9
:101C10001092230181E08093220110922101089506
:101C20009091240180912301891769F081E0890F47
:101C3000823109F480E020912101921302C0809347
:101C40002101809324010895809124019091230122
:101C5000981739F029E2829FC00111248B5D9E4FB5
:101C6000089580E090E00895E0912401EF5FE23173
:101C700009F4E0E080912301E81761F089E2E89F30
:101C8000F0011124EB5DFE4F61897289838994898B
:101C90000C94AE2860E070E0CB01089581E02091C3
:101CA000240190912201291380E008952F923F9200
:101CB0004F925F926F927F928F929F92AF92BF925C
:101CC000CF92DF92EF92FF920F931F93CF93DF9308
:101CD000CDB7DEB7AD970FB6F894DEBF0FBECDBF60
:101CE000142F052F6B8F7C8F822E2091230139E2D8
:101CF000239F10011124F101EB5DFE4F1F0115869A
:101D000016861786108A15A216A217A210A6108290
:101D100049E956E766E97EE741A352A363A374A3AA
:101D20005C013CE8E32E36E0F32E9E01235F3F4F3B
:101D30003E8F2D8F85E091E098A38F8F6F01FE017C
:101D40003196FAA3E9A3912CF501619171918191EA
:101D500091915F01F70120813181428153810E947D
:101D600027280E94F727ED8DFE8D61937193819353
:101D70009193FE8FED8FEF8DF8A14190519061907E
:101D80007190F8A3EF8F64197509860997092B01E3
:101D90003C0197FF07C0442455243201461A570AD4
:101DA000680A790AF6014182528263827482F101E3
:101DB0002585368547855089421653066406750683
:101DC00010F429013A01F101458656866786708A2A
:101DD0000E94F026F70120813181428153810E94C7
:101DE00055262B013C01E9A1FAA1619371938193DE
:101DF0009193FAA3E9A320E030E0A9010E945126C3
:101E000087FF0AC0F1019081892D9DA70E94A71B21
:101E10009DA5892BF1018083A3019201C301B20129
:101E20000E942728F10125A136A147A150A50E94B3
:101E3000DA25F10165A376A387A390A79394F4E034
:101E4000EF0EF11C24E0C20ED11C33E093127CCFC4
:101E50000E94AE286B017C01F10165A376A387A3E4
:101E600090A785859685A785B089892B8A2B8B2B92
:101E700009F4DEC120E030E0A901612F702F8B8DC5
:101E80009C8D0E94512687FD21C0882061F0212F62
:101E9000302F4B8D5C8DC701B6010E945526162F41
:101EA000072F8B8F9C8F20E030E040E85FE3612FAD
:101EB000702F8B8D9C8D0E94512687FF0DC010E0E6
:101EC00000E030E83B8F8FE38C8F06C019E906E70E
:101ED000F6E9FB8F2EE72C8FA701960160E070E0FA
:101EE00080E89FE30E94552669A77AA78BA79CA745
:101EF000E1E1F1E0FAA3E9A328E936E038A32F8F66
:101F0000CE010D969A8F898FFE013196FE8FED8F4F
:101F1000C12CD12C7601ED8DFE8D80809180A28028
:101F2000B38020E030E0A901C501B4010E94512630
:101F3000882309F47FC029A53AA54BA55CA5C50156
:101F4000B4010E9427284B015C01ED8DFE8D60835A
:101F50007183828393839B01AC0160E070E080E831
:101F60009FE30E9455262B013C01E89477F8EF8D02
:101F7000F8A12081318142815381C301B2010E94C5
:101F800027286BA37CA38DA39EA39B01AC01612F8B
:101F9000702F8B8D9C8D0E94512687FF06C01BA33E
:101FA0000CA3FB8DFDA32C8D2EA3F101F1A1FB8FC2
:101FB000F101F2A1FC8FF101F3A1FFA3F101F4A162
:101FC000F8A7EF8DF8A12485358546855785C3018F
:101FD000B2010E9427283B018C019B01AC016B8D53
:101FE0007C8D8FA198A50E94512687FF04C06B8C21
:101FF0007C8C0FA118A5C301D801F10181A392A384
:10200000A3A3B4A3E9A1FAA1208131814281538124
:10201000C501B4010E9427289B01AC01C701B6018C
:102020000E94D9256B017C011BA10CA1FDA1FB8F96
:102030002EA12C8F8D8D9E8D04969E8F8D8FE9A164
:10204000FAA13496FAA3E9A32F8D38A12C5F3F4F54
:1020500038A32F8FE98DFA8D8E179F0709F05BCF7C
:10206000909123018091240198130AC0F101118AF3
:10207000128A138A148A118E128E138E148E49C0FE
:10208000A701960160E070E080E89FE30E94D925F7
:1020900020E030E040E05FE30E9427280E94AE2865
:1020A0006B017C012091C1063091C2064091C306AC
:1020B0005091C406F10161A172A183A194A10E9473
:1020C0002728A70196010E9427284B015C01A70140
:1020D000960160E070E080E89FE30E94D9259B01B3
:1020E000AC01C501B4010E9455266B017C0120E0C2
:1020F00030E0A9010E94512687FF04C0C12CD12CD9
:10210000E12CF12CA601B701F101418F528F638FB1
:10211000748F212F302F4B8D5C8D612F702F8B8D05
:102120009C8D0E942728162F072FF82EE92E862F28
:10213000902FAF2DBE2DF101858F968FA78FB0A365
:10214000A18CB28CC38CD48C60901D0170901E0148
:1021500080901F01909020019301A401612F702FA6
:102160008F2D9E2D0E94512687FD0BC09301A40147
:10217000B501C6010E94512687FD11C053016401BB
:102180000EC0212F302F4F2D5E2DB501C6010E94AC
:10219000512687FD04C0A12EB02ECF2CDE2CC50108
:1021A000D601F101858B968BA78BB08F8CE0FE0159
:1021B0003196A1E1B1E001900D928A95E1F7812F6E
:1021C000902FAF2DBE2D80931D0190931E01A093E3
:1021D0001F01B09320018CE0FE013D96A5E0B1E027
:1021E00001900D928A95E1F780912201809323015D
:1021F0008F5F823109F480E080932201AD960FB6A3
:10220000F894DEBF0FBECDBFDF91CF911F910F912C
:10221000FF90EF90DF90CF90BF90AF909F908F9006
:102220007F906F905F904F903F902F900C94E40CB4
:10223000AD960FB6F894DEBF0FBECDBFDF91CF9144
:102240001F910F91FF90EF90DF90CF90BF90AF90D4
:102250009F908F907F906F905F904F903F902F90C6
:1022600008958091B1059091B205A091B305B09108
:10227000B4058093050190930601A0930701B093E4
:1022800008018091B5059091B605A091B705B09170
:10229000B8058093090190930A01A0930B01B093B4
:1022A0000C018091B9059091BA05A091BB05B09140
:1022B000BC0580930D0190930E01A0930F01B09384
:1022C000100108958091230190912401891708F449
:1022D0008E5E891B08950E94441E80912401809384
:1022E00021010C94E40CCF93DF93EC0189918823B6
:1022F00019F00E944818FACFDF91CF910895CF933B
:10230000DF93FC018491EF012196882321F00E9444
:102310004818FE01F7CFDF91CF910895EF92FF9219
:102320000F931F93CF93DF93CDB7DEB728970FB6E8
:10233000F894DEBF0FBECDBFFE0131967F019E0136
:10234000275F3F4F982F917091938695E217F3077F
:10235000C9F78F01F80182918F01805D0E944818B2
:102360000E151F05B9F728960FB6F894DEBF0FBEFD
:10237000CDBFDF91CF911F910F91FF90EF90089506
:102380001F93CF93DF9300D01F92CDB7DEB781119B
:1023900009C080E30F900F900F90DF91CF911F91B4
:1023A0000C94481890E02AE011E0190FE1E0F0E009
:1023B000EC0FFD1FE90FF11D622F0E940529905DB2
:1023C0009083882311F0912FEFCF112341F0FE016C
:1023D000E10FF11D80810E9448181150F6CF0F9037
:1023E0000F900F90DF91CF911F9108958F929F9240
:1023F000AF92BF92CF92DF92EF92FF920F931F9313
:10240000CF93DF93CDB7DEB72A970FB6F894DEBF30
:102410000FBECDBF6B017C01142F20E030E0A9017D
:102420000E94512687FF07C08DE20E944818F7FAE4
:10243000F094F7F8F094012F023060F020E030E0E3
:1024400048EC52E4C701B6010E9427286B017C01C9
:102450000250F2CF10FF0AC020E030E040E251E429
:10246000C701B6010E9427286B017C0120E030E003
:1024700040E05FE3C701B6010E94DA250E94BD2655
:10248000E1E0F0E0EC0FFD1FE10FF11D2EE22083F3
:10249000D12C5AE0852E912CA12CB12C61157105FF
:1024A00081059105A9F0D11201C0D394EE24E394E3
:1024B000F12CEC0EFD1EED0CF11CA50194010E9407
:1024C0001129605DF7016083B901CA01D394E6CF99
:1024D00080E3D11648F4E1E0F0E0EC0FFD1FED0DD4
:1024E000F11D8083D394F5CF8D2DD1120BC0D394E1
:1024F000D3948F5FE1E0F0E0EC0FFD1FE80FF11DDA
:1025000080E38083DD2041F0FE01ED0DF11D80812F
:102510000E944818DA94F6CF2A960FB6F894DEBFD8
:102520000FBECDBFDF91CF911F910F91FF90EF9024
:10253000DF90CF90BF90AF909F908F9008952091A3
:10254000C90620FF08C02BE832E441E25DE30E94A7
:10255000272844E001C043E00C94F6112091C906FD
:1025600020FF08C02BE832E441E25DE30E94272807
:1025700041E001C040E00C94F61143E00C94F611E8
:102580003D988091C90687FF04C045981092CB05FD
:102590000895459A80E28093CB05089586B18072B4
:1025A0009091CB05892708958091BE058130A1F4D3
:1025B0000E94CE12882381F01092BE058CE0E1EBE0
:1025C000F5E0AFEBB5E001900D928A95E1F78091CF
:1025D000AF0588608093AF050895CF93C091AF0594
:1025E000CC2309F486C08C2F807639F181E080936A
:1025F000AE05C6FF17C0C5FF02C08FEF01C08DEF4B
:102600000E946D1481E00E948C149FB7F894809111
:10261000AF058F7E8093AF059FBF8091AF0584FF8C
:10262000FCCF03C08EEF0E946D149FB7F894809189
:10263000AF058F798093AF059FBFC4FF04C081E0D1
:102640008093AD055DC0C0FF0AC00E942C179FB7E4
:10265000F8948091AF058E7F8093AF059FBFC3FF35
:1026600015C08091AE05803149F480E28093AE05BB
:102670000E94441E0E94661E1092BD059FB7F894EA
:102680008091AF05877F8093AF059FBFC1FF1DC0BD
:102690008091AE05883089F480E18093AE050E9478
:1026A000661E0E94A91B8091C90681FF04C081E0BB
:1026B0008093BD0502C01092BD059FB7F89480912C
:1026C000AF058D7F8093AF059FBFC2FF12C00E94F0
:1026D000240E892B21F088E08093AE0502C0109271
:1026E000AE059FB7F8948091AF058B7F8093AF05BF
:1026F0009FBF8091AE05847319F0CF910C94661E34
:10270000CF9108958091BD05882341F09FB7F8943B
:102710008091AF0582608093AF059FBF0895CF93EE
:10272000DF930E94B2148091AE05813021F482E0E3
:102730000E948C1421C01092AE0587E094E00E94A4
:1027400082241AC08D3069F0DD2391F1D1E0893205
:1027500009F4D0E00E948E188F3F09F445C08A30FA
:1027600089F7EC2FF0E0E95FFB4F10820E94ED1239
:102770008091AD05882311F0C0E0EBCF8091070474
:10278000811104C08CE00E941A14F6CF843229F41F
:1027900087E094E00E94A124F6CF8091AE058130BD
:1027A00011F489E0F0CF87E094E00E947A04EBCF47
:1027B000813280F28F3271F28832A1F0CF3428F06A
:1027C0008BE00E941A14C0E0C5CF2C2F30E0CF5F01
:1027D0009FE9980FF901E95FFB4F9A3108F48052A5
:1027E0008083B8CFD1E0B6CF0E9482130E94ED1251
:1027F0008091AD05882309F4ADCFDF91CF91089585
:102800000E9482138091AE05803171F481E0809343
:10281000BD050AC08091AE05803159F40E94ED12C9
:102820008091AD05811105C00E94240E892BB1F75E
:10283000F1CF0895CF93C82F8C3009F44CC081118B
:1028400003C087EA96E044C08FE996E00E947F11BA
:102850004C2F50E0FA013197E631F10580F5E45C48
:10286000FF4F0C94332987E896E002C085E796E095
:102870000E947F112BC083E696E0FACF89E596E0AF
:10288000F7CF88E496E0F4CF89E396E0F1CF88E1D2
:1028900096E0EECF8FE096E0EBCF84E096E0E8CFD5
:1028A00081EF95E0E5CF83EE95E0E2CF8DEC95E00A
:1028B000DFCF89EB95E0DCCF85EA95E0D9CF83E9DE
:1028C00095E00E947F118C2F0E94C01180E995E055
:1028D000CF910C947F11CF910895CF93C82F88E8A2
:1028E00095E00E947F11CE3F51F0CF3F29F0CD3FC0
:1028F00051F48AE595E005C088E795E002C085E6D9
:1029000095E00E947F1187E595E00E947F1184EF9A
:1029100091E0CF910C94D90CCF93C82F85E595E029
:102920000E947F11C33091F038F4C13061F0C230A1
:10293000A1F48FE295E00FC0C43059F0C53069F4BE
:102940008CE095E008C083E495E005C08DE195E05A
:1029500002C085E195E00E947F1188E095E0CF916B
:102960000C947F118BEE94E00C947F1187EA93E036
:102970000C947F11FF920F931F93CF93DF9383EA01
:1029800093E00E947F118091BC060E94C0118AE8EA
:1029900093E00E947F118091BF060E94C0118CE6D7
:1029A00093E00E947F118091BD060E94C01183E5D3
:1029B00093E00E947F118091BD060E948E118CE4ED
:1029C00093E00E947F118091BE060E94C01184E3B3
:1029D00093E00E947F118091BE060E948E118DE2CD
:1029E00093E00E947F118091C90682FB882780F9BD
:1029F0000E94C0118CE093E00E947F118091C90673
:102A000086FB882780F90E94C0118CEE92E00E941C
:102A10007F118091C906881F8827881F0E94C011D6
:102A20008CEC92E00E947F118091C0060E94C01140
:102A300086EB92E00E947F118091C0060E948E1169
:102A40008EEA92E00E947F116091C1067091C206E9
:102A50008091C3069091C4060E94BD128DE892E059
:102A60000E947F116091C5067091C6068091C706CD
:102A70009091C8060E94BD1281E792E00E947F11EA
:102A80008091C90681700E94C01184E592E00E9485
:102A90007F118091C906869581700E94C0118AE3DA
:102AA00092E00E947F118091C90685FB882780F9FA
:102AB0000E94C0118FE192E00E947F118091C906AF
:102AC00083FB882780F90E94C01184E092E00E9475
:102AD0007F118091C906829581700E94C0118BEE92
:102AE00091E00E947F1184E6F82E10E0CCE8D6E059
:102AF00000E089EE91E00E947F11802F8F0D0E94EF
:102B0000C01187EE91E00E947F11123091F01330D6
:102B1000D9F0113029F0688179818A819B811BC0AD
:102B200020E030E040E752E46C857D858E859F850E
:102B300008C020E030E041E655E4688D798D8A8D4B
:102B40009B8D0E94552607C08CA19DA1AEA1BFA15F
:102B5000BC01CD0190580E94BD1284EE91E00E940C
:102B60007F11013029F0023031F082EE91E005C092
:102B700080EE91E002C08EED91E00E947F11123054
:102B800051F0133059F0113019F083ED91E008C085
:102B900080EC91E005C08EEA91E002C08DE991E001
:102BA0000E947F1189E991E00E947F110F5F2496B6
:102BB000033009F09ECF8AE0F80E1F5F8CE8F81210
:102BC00095CFDF91CF911F910F91FF900895CF92F4
:102BD000DF92FF920F931F93CF93DF9300D000D02B
:102BE000CDB7DEB783E991E00E947F110FEB15E0CE
:102BF0009CE8C92E96E0D92EF12CF80161917191D3
:102C0000819191918F01F6012191319141915191E1
:102C10006F0129833A834B835C830E94F0262981CC
:102C20003A814B815C810E9455260E949F12F2E0FE
:102C3000FF1621F081E991E00E947F11F39483E077
:102C4000F812DBCF8DE891E00F900F900F900F906E
:102C5000DF91CF911F910F91FF90DF90CF900C9457
:102C60007F11EF92FF920F931F93CF93DF93CDB716
:102C7000DEB72C970FB6F894DEBF0FBECDBFF12C98
:102C8000BE016F5F7F4F8F2D0E942B1A811104C0F0
:102C900087E00E941A1469C08AE891E00E947F11BF
:102CA00086E0F81631F0E7E0FE1208C084E891E013
:102CB00002C087E891E00E947F1104C086E38F0D77
:102CC0000E94C01182E891E00E947F118E010F5F87
:102CD0001F4FE12CF80161917191819191918F01C8
:102CE0000E949F12F2E0EF1619F080E891E002C016
:102CF0008CE791E00E947F11E39483E0E812EACF31
:102D0000F394E8E0FE12BCCF86E791E00E947F11C9
:102D10000AE515E0F12CF801619171918191919191
:102D20008F010E949F12F2E0FF1619F084E791E0F4
:102D300002C080E791E00E947F11F39483E0F812D3
:102D4000EACF8AE691E00E947F116091660570915A
:102D5000670580916805909169050E949F1286E63B
:102D600091E00E947F110E94E7152C960FB6F8940F
:102D7000DEBF0FBECDBFDF91CF911F910F91FF90AE
:102D8000EF90089580912D05823091F038F48823DA
:102D900061F08130A1F48EE591E00FC0833059F0ED
:102DA000853069F481E591E008C082E691E005C0D4
:102DB0008AE591E002C086E591E00E947F118EE4F1
:102DC00091E00E947F11809133058A5C0E94C011BE
:102DD0008BE491E00E947F11809141050E94C01117
:102DE00088E491E00E947F1160913D0570913E055D
:102DF00080913F05909140050E94AE1284E491E0DD
:102E00000C947F111F93CF93DF93182FEB0181E474
:102E100091E00E947F11812F0E94C0118FE391E009
:102E20000E947F11CE010E9473118CE391E0DF912B
:102E3000CF911F910C947F11CF93DF93EC018DE222
:102E400091E00E947F11CE010E94731189E291E00E
:102E5000DF91CF910C947F11BF92CF92DF92EF92CE
:102E6000FF920F931F93CF93DF93CDB7DEB76C978D
:102E70000FB6F894DEBF0FBECDBF8CE0E1EBF5E0FE
:102E8000DE011D9601900D928A95E1F78091AE05C5
:102E90008430D9F040F48130D9F070F08230E1F420
:102EA0008DEF90E017C0803151F0803259F08830BA
:102EB00099F48CE191E00EC083E291E00BC087E1D0
:102EC00091E008C081E191E005C08BE091E002C093
:102ED00084E091E00E947F118091C00680FD05C0D2
:102EE0008091C00681FF8AC03CC086EF90E00E94BE
:102EF0007F116E012DE0C20ED11C3CE8E32E36E0BE
:102F0000F32E8E010F5F1F4FB12CF601619171916D
:102F1000819191916F01F7012191319141915191ED
:102F20007F01298F3A8F4B8F5C8F0E94F026298D6D
:102F30003A8D4B8D5C8D0E945526F80161937193FB
:102F4000819391938F010E949F12F2E0BF1621F0AE
:102F500084EF90E00E947F11B39423E0B212D5CFAA
:102F6000BFCF8DEE90E00E947F112EE4E22E25E08F
:102F7000F22E8E010F5F1F4FB12C6801F701619196
:102F80007191819191917F01208531854285538591
:102F90000E94DA259B01AC01F80160817181828178
:102FA00093810E94D925F801608371838283938382
:102FB000F2E0BF120FC02091660530916705409185
:102FC0006805509169050E94D925F80160837183D5
:102FD000828393830C5F1F4FF60160817181828130
:102FE00093810E949F12F2E0BF1621F08BEE90E0D9
:102FF0000E947F11B39423E0B212BFCF8091C0062C
:1030000082FF08C085EE90E00E947F110E9462114D
:103010000E94C0118091C00683FF08C080EE90E03E
:103020000E947F110E9429180E94C0118CED90E02F
:103030006C960FB6F894DEBF0FBECDBFDF91CF9177
:103040001F910F91FF90EF90DF90CF90BF900C9465
:103050007F119091590480915A04891708F480587F
:10306000891B0895E0ECF0E08081826080831092FB
:10307000C50080E18093C400E1ECF0E080818061D4
:1030800080838081886080838081806880830895C8
:10309000E091580491E09E0F903409F490E0209163
:1030A0005704921305C02091AF0524FFF8CF08956F
:1030B000F0E0E453FA4F8083909358048091C1006C
:1030C00080628093C10008951F920F920FB60F92F5
:1030D00011248F939F93EF93FF9380915704E82FD0
:1030E000F0E0E453FA4F90819093C6008F5F8034F4
:1030F00009F480E08093570490915804891305C027
:103100008091C1008F7D8093C100FF91EF919F91CD
:103110008F910F900FBE0F901F90189590915904AA
:1031200080915A04891761F0E92FF0E0E45FF94FCC
:1031300080819F5F903809F490E09093590408953E
:103140008FEF08951F920F920FB60F9211242F93B5
:103150003F934F935F936F937F938F939F93AF931F
:10316000BF93EF93FF938091C6008132B1F028F4B2
:103170008831E1F40E940C0C2AC08F3341F08E3765
:10318000A9F49FB7F8948091AF0582600BC09FB7F8
:10319000F8948091AF05816005C09FB7F894809145
:1031A000AF0588608093AF059FBF11C0E0915A04BE
:1031B00091E09E0F903809F490E020915904921705
:1031C00031F0F0E0E45FF94F808390935A04FF916F
:1031D000EF91BF91AF919F918F917F916F915F918F
:1031E0004F913F912F910F900FBE0F901F90189508
:1031F00080915A0480935904089521E5829FC0016B
:10320000112440E550E09D5F0C949F0340E550E0A1
:10321000BC018EEA93E00C949F032DE0829FC001D5
:1032200011244CE050E09E5F0C949F0361E080E02D
:1032300090E00E947D034DE450E06CE876E081E090
:1032400090E00C949F038AE08093BC0689E1809310
:10325000BF061092BD0686E08093BE0683E0809391
:10326000C0068AE097EDA3EABCE38093C106909381
:10327000C206A093C306B093C4068FE692E1A3E012
:10328000BBE38093C5069093C606A093C706B09390
:10329000C8061092CA0680E090E0A8ECB1E48093E2
:1032A000CB069093CC06A093CD06B093CE0680E0DB
:1032B00090E0AAEFB3E48093CF069093D006A0935A
:1032C000D106B093D2068AEF90E09093D406809313
:1032D000D30680E090E0A0E8BFE38093D50690930A
:1032E000D606A093D706B093D80682E08093C9068D
:1032F00084EE98E3AEE0B1E480938C0690938D0663
:10330000A0938E06B0938F068093900690939106BB
:10331000A0939206B093930680939406909395069B
:10332000A0939606B093970680E090ECA8E2B6E4EE
:103330008093980690939906A0939A06B0939B0663
:1033400080939C0690939D06A0939E06B0939F0643
:103350008093A0069093A106A093A206B093A30623
:1033600080E094E3AEE1B9E48093A4069093A506CF
:10337000A093A606B093A7068093A8069093A906EB
:10338000A093AA06B093AB068093AC069093AD06CB
:10339000A093AE06B093AF0680E090E0A7E8B4EC4F
:1033A0008093B0069093B106A093B206B093B30693
:1033B0008093B4069093B506A093B606B093B70673
:1033C0008093B8069093B906A093BA06B093BB0653
:1033D0000C94161960E080E093E00E947D0360E0A9
:1033E00081E593E00C947D0360E08EEA93E00C9419
:1033F0007D031F93CF93DF93182FEB0181E5189F77
:10340000B00111247D5F40E550E0CE010E94DD0354
:10341000892B39F41882BE01812F0E94FD1880E0AB
:1034200001C081E0DF91CF911F910895CF93DF9389
:10343000EC0140E550E06EEA73E00E94DD03892B69
:1034400031F41882CE010E94061980E001C081E0AB
:10345000DF91CF9108951F93CF93DF93182FEB0146
:103460008DE0189FB00111247E5F4CE050E0CE014A
:103470000E94DD03892B59F48CE0FE0111928A959C
:10348000E9F7BE01812F0E940D1980E001C081E0A3
:10349000DF91CF911F91089580E090E00E94750325
:1034A000813059F44DE450E061E070E08CE896E042
:1034B0000E94DD0321E0892B09F420E0822F08958A
:1034C000CF92DF92EF92FF92CF93DF93C82F6A01E2
:1034D0007B0120E030E0A901C701B6010E9451261E
:1034E00087FDF2C0C43608F456C02CE92C0F80E0EA
:1034F000233008F047C030E08230D1F0833091F1C2
:10350000813041F0F901EE0FFF1FEE0FFF1FE4576E
:10351000F94F33C0E901CC0FDD1FCC0FDD1FC856BA
:10352000D94F20E030E040E752E4C701B60113C0B4
:10353000E901CC0FDD1FCC0FDD1FCC55D94F20E0AA
:1035400030E040E752E4C701B6010E94272820E09E
:1035500030E040E752E40E942728688379838A8319
:103560009B83AEC0F901EE0FFF1FEE0FFF1FE0556A
:10357000F94FF7FAF094F7F8F094C082D182E28222
:10358000F3829EC08F5F2A3008F4A0C0843009F413
:103590009DC02A50ADCFC701B6010E94EC280E9401
:1035A000C2268C2F90E08C31910508F08FC0FC0171
:1035B000EE5AFF4F0C943329633008F489C06093AE
:1035C000BC067EC06093BF067BC06093BD0602C090
:1035D0006093BE060E94BA1D73C08091C90666231F
:1035E00011F0846007C08B7F05C08091C9066623F7
:1035F00021F080648093C90663C08F7BFBCF8091EC
:10360000C906662311F08068F5CF8F77F3CF6093FA
:10361000C006C092C106D092C206E092C306F092E4
:10362000C4064EC0C092C506D092C606E092C70638
:10363000F092C80645C08091C906662311F08160EA
:10364000D9CF8E7FD7CF8091C906662311F08260D3
:10365000D1CF8D7FCFCF8091C906662321F084FF23
:1036600039C08062C7CF8F7DC5CF8091C9066623E0
:1036700011F08061BFCF8F7CBDCF6093CA0620C0A0
:10368000C092CB06D092CC06E092CD06F092CE0648
:1036900017C0C092CF06D092D006E092D106F09229
:1036A000D2060EC070E07093D4066093D30608C0B3
:1036B000C092D506D092D606E092D706F092D806F0
:1036C0000E94161980E007C084E005C083E003C0B3
:1036D00086E001C08AE0DF91CF91FF90EF90DF900C
:1036E000CF9008951F93CF93DF93CDB7DEB72C977C
:1036F0000FB6F894DEBF0FBECDBF0E944C1A8111E9
:103700000BC087E00E941A140E9423190E94EA1934
:103710000E94F4190E94BA1410E0BE016F5F7F4F3F
:10372000812F0E942B1A811103C087E00E941A1476
:103730001F5F183091F72C960FB6F894DEBF0FBEBE
:10374000CDBFDF91CF911F91089580E1089580E270
:1037500008958091C90682FF02C0299A01C0299864
:103760008091AE058471A1F080918C048093A004B7
:1037700080918D0480939F048091BC06880F8450B3
:10378000819580939E0480916F00826080936F008A
:10379000089580938A04089580916F008D7F8093AF
:1037A0006F0080918100887F8160809381001092FA
:1037B0008B048091BF068F3F21F49091AF0595FF58
:1037C00009C09091AE05943029F090E00E94D90C88
:1037D00081E001C080E090918A04992359F0909192
:1037E000C90692FF02C091E08927882311F0299A27
:1037F0000895299808951F920F920FB60F921124E1
:103800002F933F934F935F936F937F938F939F93E8
:10381000AF93BF93CF93DF93EF93FF9380918B048C
:1038200081117FC195B18091A00480729F7D892B09
:1038300085B985B18F7E90919F04892B85B9809140
:103840009E0486BD82E085BD81E080938B047894E0
:103850008091B2049091B304892B09F0A4C08091A7
:10386000900490918F04981709F492C0E09190040D
:1038700086E0E89FF0011124EC54FB4FF093B30471
:10388000E093B204838194819093890080938800AF
:10389000808191819093AE048093AD04A281809148
:1038A000AF048A1771F1A093AF0481E1A89FD00102
:1038B0001124A852BB4FB093B104A093B0041D963D
:1038C0008D919D910D90BC91A02DB695A795979542
:1038D00087958093910490939204A0939304B0935E
:1038E00094048093950490939604A0939704B093C6
:1038F00098048093990490939A04A0939B04B093A6
:103900009C04C091B004D091B10480918C04988142
:1039100089278093A004258189819A81AB81BC810C
:10392000022E04C0B695A795979587950A94D2F76D
:103930008093A1049093A204A093A304B093A40441
:103940008D819E81AF81B885022E04C0B695A79562
:10395000979587950A94D2F78093A5049093A6042F
:10396000A093A704B093A80489859A85AB85BC85EC
:1039700004C0B695A795979587952A95D2F7809319
:10398000A9049093AA04A093AB04B093AC040BC019
:103990000E94CC1B9FB7F8948091AF058460809300
:1039A000AF059FBFBEC00E94D41210929F048091A9
:1039B000A1049091A204A091A304B091A404409109
:1039C0009104509192046091930470919404840F37
:1039D000951FA61FB71F8093910490939204A09304
:1039E0009304B0939404E091B004F091B104458540
:1039F000568567857089481759076A077B0768F5F8
:103A000020E120939F044585568567857089841B36
:103A1000950BA60BB70B8093910490939204A093FF
:103A20009304B093940420818091B1059091B205E4
:103A3000A091B305B091B40525FF04C00197A10979
:103A4000B10903C00196A11DB11D8093B1059093EA
:103A5000B205A093B305B093B4058091A5049091ED
:103A6000A604A091A704B091A80440919504509198
:103A700096046091970470919804840F951FA61F77
:103A8000B71F8093950490939604A0939704B093E6
:103A900098048091A9049091AA04A091AB04B091DC
:103AA000AC044091990450919A0460919B047091E8
:103AB0009C04840F951FA61FB71F809399049093B1
:103AC0009A04A0939B04B0939C048091AE0584302B
:103AD00039F48091B00590919F04892380939F04CD
:103AE0008091AD049091AE0401979093AE048093C1
:103AF000AD04892B69F41092B3041092B204809142
:103B000090048F5F80939004863011F4109290049B
:103B100080918D0490919F04892780939F04109237
:103B20008B04FF91EF91DF91CF91BF91AF919F9166
:103B30008F917F916F915F914F913F912F910F9056
:103B40000FBE0F901F9018951F920F920FB60F92F5
:103B500011248F939F9395B180918D0480719F7EE6
:103B6000892B85B915BC9F918F910F900FBE0F9037
:103B70001F901895FF920F931F93CF93DF9310928E
:103B80008D0410928C04C0E0D0E00C2F1C2F2091EB
:103B9000BD0630E08C2F0C2E02C0359527950A9477
:103BA000E2F720FF07C0F0908D040E94A51B8F292B
:103BB00080938D042091BE0630E002C03595279594
:103BC0001A95E2F720FF08C010918C04802F0E9404
:103BD000A71B812B80938C042196C330D105A9F6B5
:103BE000DF91CF911F910F91FF900895CF93C1E086
:103BF000C0938A040E94CC1B8BE2EBE5F4E0DF016A
:103C00001D928A95E9F783E2E1E9F4E0DF011D9274
:103C10008A95E9F710928904109288041092900412
:103C200010928F04C0938E0410928B040E94BA1DD0
:103C300085B18F7E90918D04892B85B985B18F7D5B
:103C400090918C04892B85B9CF910895249A219A5B
:103C5000259AE1E8F0E080818F7E80838081886012
:103C60008083E0E8F0E080818C7F808380818F70AA
:103C70008083EEE6F0E08081887F808314BC15BCF1
:103C80008081816080830895CF93DF93C091880401
:103C9000D09189042097B9F081E080935C04609111
:103CA00072047091730480917404909175049B0167
:103CB000AC010E942728698B7A8B8B8B9C8B10928E
:103CC000890410928804DF91CF9108952F923F923A
:103CD0004F925F926F927F928F929F92AF92BF921C
:103CE000CF92DF92EF92FF920F931F93CF93DF93C8
:103CF000CDB7DEB7E5970FB6F894DEBF0FBECDBFE8
:103D00009091900480918E04981709F4E1C58091F8
:103D1000880490918904892B09F057C20E94240ECF
:103D20001C019093890480938804009709F4D0C5FE
:103D300080915C041091AE05882319F010925C0408
:103D4000BDC080915B048F5F853019F080935B0468
:103D500002C010925B04E0915B0421E12E9FF00110
:103D60001124E852FB4FF0938704E0938604D101BD
:103D70008C91808311964D915D916D917C911497FA
:103D800003E0440F551F661F771F0A95D1F7418343
:103D900052836383748315964D915D916D917C91EF
:103DA000189783E0440F551F661F771F8A95D1F738
:103DB000458356836783708719964D915D916D9108
:103DC0007C911C9793E0440F551F661F771F9A95AF
:103DD000D1F741875287638774871D966D917D91D6
:103DE0008D919C9150976B017C0123E0CC0CDD1CE4
:103DF000EE1CFF1C2A95D1F7C586D686E786F08A89
:103E00000E94EE2660935D0470935E0480935F04CD
:103E100090936004F10125A136A147A150A50E940D
:103E200055269B01AC0160936104709362048093FA
:103E300063049093640460E070E080EA9FE30E9472
:103E4000552660936504709366048093670490938D
:103E500068041092690410926A0410926B04109224
:103E60006C041032E1F460917A0470917B048091CB
:103E70007C0490917D04609372047093730480932A
:103E80007404909375049B01AC010E942728D10112
:103E900051966D937D938D939C9354970FC0F10130
:103EA00061897289838994890E94AE286093720423
:103EB00070937304809374049093750410926E044D
:103EC00010926F041092700410927104D1019196B7
:103ED0008D909D90AD90BC909497A501940160E069
:103EE00070E080E09FE30E9455262B013C01F10128
:103EF000C5A0D6A0E7A0F0A4103209F04DC0F2E0B2
:103F0000F0936D04D10151962D913D914D915C91AD
:103F100054972D833E834F8358870E9427289B0107
:103F2000AC01C701B6010E94D9252B013C0120E05C
:103F300030E0A9010E94512687FF1DC0A501940110
:103F4000C501B4010E94DA25A70196010E94272825
:103F50009B01AC016D817E818F8198850E94D9255E
:103F60000E94AE2860937A0470937B0480937C0453
:103F700090937D042AC140926E0450926F04609227
:103F800070047092710410927A0410927B04109263
:103F90007C0410927D0419C110926D04C0927E04BD
:103FA000D0927F04E0928004F09281040E94340E4B
:103FB0004B015C0160937A0470937B0480937C04D2
:103FC00090937D049B01AC010E94272869837A832A
:103FD0008B839C830091880410918904D801959665
:103FE0002D913D914D915C91989729873A874B8708
:103FF0005C8751962D913D914D915C9154972D8305
:104000003E834F8358879B01AC016D817E818F81F8
:1040100098850E94D9259B01AC01C301B2010E9481
:1040200027289B01AC0169857A858B859C850E9438
:10403000DA2520E030E040E05FE30E9427286B01B2
:104040007C0120E030E0A9010E94F32718160CF053
:10405000ACC029853A854B855C85C701B6010E94B5
:10406000512687FF8EC0F801858C968CA78CB0A056
:1040700029813A814B815C81C501B4010E94D92517
:104080009B01AC01C301B2010E9427286093820406
:10409000709383048093840490938504A701960110
:1040A0000E94512687FF3DC0C501B4010E94AE2881
:1040B00060937604709377048093780490937904E6
:1040C000A50194016D817E818F8198850E94512682
:1040D000811104C0F1E0F0936D0477C02D813E8121
:1040E0004F815885C501B4010E94D9259B01AC01BF
:1040F000C301B2010E9427289B01AC0160917E049C
:1041000070917F0480918004909181040E94D92550
:1041100060937E0470937F04809380049093810465
:1041200054C0C0927E04D0927F04E0928004F0924A
:104130008104C0928204D0928304E0928404F092BD
:104140008504D80191966D917D918D919C91949764
:104150009B01AC010E94DA25A70196010E94272845
:1041600029813A814B815C810E94DA250E94AE2828
:104170006093760470937704809378049093790425
:1041800024C0B2E0B0936D048091720490917304E6
:10419000A0917404B0917504809376049093770491
:1041A000A0937804B093790410C010927E0410920A
:1041B0007F04109280041092810480927604909281
:1041C0007704A0927804B092790480918F04F6E08D
:1041D000F89FF0011124EC54FB4FFE83ED83809196
:1041E0005B04828320918804309189043E872D8767
:1041F000D9019596BC91BCA7F901F6A1FDA7D901FB
:104200009796BC91BEA7F901F0A5FFA72091650480
:104210003091660440916704509168046CA57DA5B7
:104220008B2F9F2F0E94D92568A779A78AA79BA7C4
:1042300020E030E0A9010E94512687FF04C018A6A3
:1042400019A61AA61BA620917E04288F30917F0400
:10425000398F409180044A8F509181045B8F809107
:1042600076048C8F909177049D8FA0917804AE8F07
:10427000B0917904BF8FE0918204E8A3F0918304A8
:10428000F9A3209184042AA3309185043BA3409193
:104290006E044CA350916F045DA3809170048EA3B3
:1042A000909171049FA320917A0430917B044091F6
:1042B0007C0450917D0428AB39AB4AAB5BAB3091A9
:1042C00072043983409173044987209074043090BC
:1042D000750450916D045F878CA58C8B9DA59D8B7B
:1042E000AEA5AE8BBFA5BF8B3EE3C32E33ECD32E62
:1042F0003EE2E32E39E3F32E188A198A1A8A1B8AC2
:1043000026013701EF85EE2321F0E13009F47CC06E
:10431000B1C0AD85BE8591962D913D914D915C9139
:104320009497C701B6010E9427284B015C0120E049
:1043300030E040E05FE30E9427289B01AC016981E7
:104340007985C1010E94DA259B01AC01C701B60144
:104350000E9427289B01AC016C897D898E899F89E9
:104360000E94D9258B018DAB9CAB288D398D4A8D50
:104370005B8D0E94512687FF3FC0288D398D4A8D65
:104380005B8D6CA57DA58EA59FA50E94D9259B015F
:10439000AC010E94DA256B017C012C8D3D8D4E8D88
:1043A0005F8D69817985C1010E94DA259B01AC018D
:1043B000C701B6010E9455266B017C0128A139A1D5
:1043C0004AA15BA1688D798D8A8D9B8D0E945126B3
:1043D000882319F0B1E0BF8702C0E2E0EF87FC8DCF
:1043E000F9832D8D29872E8C3F8C088D198D3A8D60
:1043F0003DAB4B8D4CABAFC0A50194016981798574
:10440000C1010E94DA257CC0A70196016C8D7D8DCB
:104410008E8D9F8D0E9427289B01AC016C897D8920
:104420008E899F890E94D9258B018DAB9CAB28A1D9
:1044300039A14AA15BA10E94512687FF8CC028A107
:1044400039A14AA15BA16C897D898E899F890E94CF
:10445000D9252C8D3D8D4E8D5F8D0E9455266B018B
:104460007C0108A119A15AA15DAB8BA18CAB92E094
:104470009F8771C0AD85BE8591962D913D914D91DF
:104480005C919497C701B6010E9427284B015C01FB
:104490009B01AC0169817985C1010E94F32718163F
:1044A0009CF520E030E040E05FE3C501B4010E94EC
:1044B00027289B01AC0169817985C1010E94D9251A
:1044C0009B01AC01C701B6010E9427289B01AC01EA
:1044D0006C897D898E899F890E94D9258B018DAB3E
:1044E0009CAB2CA13DA14EA15FA10E94F327181601
:1044F0005CF4A501940169817985C1010E94D925E7
:10450000698379871C0127C02CA13DA14EA15FA121
:104510006C897D898E899F890E94D9259B01AC0178
:104520000E94DA256B017C0128A939A94AA95BA957
:1045300069817985C1010E94DA259B01AC01C7011F
:10454000B6010E9455266B017C010CA11DA1BEA1E4
:10455000BDABEFA1ECABA7019601688979898A8987
:104560009B890E94DA25688B798B8A8B9B8BA301B0
:1045700092010E94512687FD5AC028A539A54AA557
:104580005BA5B8018DA99CA90E94F32718160CF40D
:1045900044C089819985D1018093720490937304FA
:1045A000A0937404B0937504FF85F0936D0440905C
:1045B00061045090620460906304709064049801F8
:1045C0004DA95CA9C301B2010E94272869837A839F
:1045D0008B839C830E943E266B017C0160915D046D
:1045E00070915E0480915F04909160040E943E2669
:1045F0004B015C01A70196010E94D9250E94C226A9
:1046000069877A878B879C87E985FA85AD81BE812A
:10461000ED93FC933097B1F15AC02EE333EC4EE2A8
:1046200059E3C301B2010E94DA252B013C0128891C
:1046300039894A895B89C301B2010E94D9256B017E
:104640007C012CA13DA14EA15FA1B8018DA99CA91F
:104650000E94F32718167CF089819985D1018093F7
:10466000720490937304A0937404B09375043F850F
:1046700030936D049CCF0C8B1D8B4DA94E8B5CA988
:104680005F8B40CE8091AE05803209F510927204A6
:1046900010927304109274041092750410926904BD
:1046A00010926A0410926B0410926C04C0925D0424
:1046B000D0925E04E0925F04F0926004A301920144
:1046C000C701B6010E945526AD85BE85EEC020917A
:1046D000690430916A0440916B0450916C046889BC
:1046E00079898A899B890E94DA252B013C012981DD
:1046F0003A814B815C81C501B4010E94D9259B019F
:10470000AC01C301B2010E9455264B015C01298115
:104710003A814B815C81C701B6010E94D925A50170
:1047200094010E9427286093690470936A0480931F
:104730006B0490936C0420EC31EE44E65EE4C5011A
:10474000B4010E9427280E943E260E94C226603D96
:10475000B7E07B078105910520F4ED81FE8115828C
:1047600031C0603AFFE07F078105910510F4E1E078
:1047700009C06034FFE17F078105910510F4E2E094
:1047800001C0E3E0AD81BE811596EC93AD81BE81A1
:1047900015962C911597022E04C0969587957795BE
:1047A00067950A94D2F7E985FA8502C0EE0FFF1FDC
:1047B0002A95E2F7ED93FC9361157105F1E08F07FF
:1047C000910538F4AD81BE8114967C936E93139756
:1047D00006C02FEF3FEFED81FE813483238380916C
:1047E0008E0480938F048F5F863019F080938E043F
:1047F00002C010928E0420916E0430916F0440919B
:10480000700450917104B8018DA99CA90E94F327EE
:104810001816C4F4E0918804F0918904C801ADA988
:10482000BCA985A396A3A7A3B0A789819A81AB81D0
:10483000BC8180935D0490935E04A0935F04B09369
:1048400060045ECA20E030E0A901B8018DA99CA9EE
:104850000E94F3271816ACF510927204109273049C
:1048600010927404109275041092690410926A04F4
:1048700010926B0410926C04C0925D04D0925E049E
:10488000E0925F04F0926004009188041091890422
:10489000209161043091620440916304509164045A
:1048A000C701B6010E945526D80195966D937D9358
:1048B0008D939C9398970E946B1188E08093AE052E
:1048C00007C010928904109288040E94100E18CA22
:1048D000E5960FB6F894DEBF0FBECDBFDF91CF9146
:1048E0001F910F91FF90EF90DF90CF90BF90AF900E
:1048F0009F908F907F906F905F904F903F902F9000
:10490000089508951F93CF93DF93EC0110E0BE014B
:10491000812F0E94F919811102C087E009C08881A6
:10492000882341F0CE010E947311CE010E947A04C7
:104930000E941A141F5F123051F7DF91CF911F911F
:104940000895CF92DF92EF92FF921F93CF93DF9360
:10495000CDB7DEB729970FB6F894DEBF0FBECDBF37
:104960007C0181E08987F7018181833449F12CF44E
:10497000882341F0843249F049C08734C1F088353A
:10498000A9F144C00E94B61410C082E08987F701E3
:104990008281882311F083E0FEC08091AE05807390
:1049A00011F088E0F8C00E94BA1480E0F4C082E000
:1049B0008987F70182818111EECF0E94C216F5CF5F
:1049C00082E08987F70192819111E5CF9091AE0540
:1049D000923021F40E940C0C85E005C09111E1CFCA
:1049E0008093AE0584E00E948C14DFCF82E089873B
:1049F000F70182818111CFCF8091AE058130A9F678
:104A000083E00E948C141092AE05CFCF9091AE053A
:104A1000923038F6883491F01CF4833231F059C06A
:104A20008934C1F08E34B9F154C082E08987F7012E
:104A300082818111B0CF0E943116B7CF8091C90613
:104A400084FFA8C08091AD058111AFCFC7010E943E
:104A50008224ABCF82E08987F7018281811107C070
:104A6000C7010E94161AC7010E941C179ECF8D33E2
:104A700009F091CF83E0F701E80FF11D9081DF018C
:104A800013979C938F5F90819111F5CF8987C70110
:104A90000E9406198ACF82E08987F70182818111FD
:104AA00014C010E0B701812F0E94F919811104C0D0
:104AB00087E00E941A1404C0B701812F0E940217D8
:104AC0001F5F123009F471CFEDCF91116ACF11E061
:104AD00001C010E0AE014B5F5F4FBE01675F7F4FCB
:104AE000C7010E94270C811102C082E054C0898551
:104AF00021E0280F2987F701E80FF11D80818D3310
:104B000009F049CF112321F1822F90E0E22FF0E04C
:104B1000D701AE0FBF1F3C91E81BF90BEE0DFF1D37
:104B200030832F5F3C913111F1CF2987C7010E945B
:104B30007A04811130C06D817E818F8198850E94B9
:104B4000EC280E94C226862FB7010E94FD182DCFA7
:104B5000AE014F5F5F4FBE01675F7F4FC7010E948D
:104B6000270C882311F28985F701E80FF11D808158
:104B7000811111CFC980DA80EB80FC806D817E814C
:104B80008F8198850E94C226862FB701A6010E94B8
:104B9000601A01C085E029960FB6F894DEBF0FBEFB
:104BA000CDBFDF91CF911F91FF90EF90DF90CF901D
:104BB00008955058BB27AA270ED0C4C1B5D130F0F4
:104BC000BAD120F031F49F3F11F41EF4AAC10EF4C3
:104BD000E095E7FB77C1E92FC6D180F3BA176207EA
:104BE00073078407950718F071F49EF5F5C10EF46C
:104BF000E0950B2EBA2FA02D0B01B90190010C01ED
:104C0000CA01A0011124FF27591B99F0593F50F404
:104C1000503E68F11A16F040A22F232F342F44275C
:104C2000585FF3CF469537952795A795F040539554
:104C3000C9F77EF41F16BA0B620B730B840BBAF024
:104C40009150A1F0FF0FBB1F661F771F881FC2F78F
:104C50000EC0BA0F621F731F841F48F487957795A3
:104C60006795B795F7959E3F08F0B3CF9395880F5A
:104C700008F09927EE0F97958795089596D180F0C3
:104C80009F3740F491110EF4A8C160E070E080E815
:104C90009FE3089526F01B16611D711D811D18C12B
:104CA00032C1ECD008F481E008950CD04BC143D15F
:104CB00040F03AD130F021F45F3F19F003C15111B7
:104CC0008CC12FC150D198F39923C9F35523B1F367
:104CD000951B550BBB27AA2762177307840738F06B
:104CE0009F5F5F4F220F331F441FAA1FA9F333D0CA
:104CF0000E2E3AF0E0E830D091505040E695001C7E
:104D0000CAF729D0FE2F27D0660F771F881FBB1F39
:104D1000261737074807AB07B0E809F0BB0B802D13
:104D2000BF01FF2793585F4F2AF09E3F510568F05F
:104D3000C9C053C15F3FECF3983EDCF3869577958D
:104D40006795B795F7959F5FC9F7880F911D969561
:104D5000879597F90895E1E0660F771F881FBB1FBD
:104D6000621773078407BA0720F0621B730B840B6A
:104D7000BA0BEE1F88F7E095089504D06894B1113E
:104D80002CC10895F8D088F09F5790F0B92F99273B
:104D9000B751A0F0D1F0660F771F881F991F1AF046
:104DA000BA95C9F712C0B13081F016D1B1E00895BB
:104DB00013C1672F782F8827B85F39F0B93FCCF33C
:104DC000869577956795B395D9F73EF4909580953C
:104DD000709561957F4F8F4F9F4F0895E89409C05C
:104DE00097FB3EF490958095709561957F4F8F4F1E
:104DF0009F4F9923A9F0F92F96E9BB279395F69534
:104E0000879577956795B795F111F8CFFAF4BB0FB1
:104E100011F460FF1BC06F5F7F4F8F4F9F4F16C015
:104E2000882311F096E911C0772321F09EE8872F9F
:104E3000762F05C0662371F096E8862F70E060E05B
:104E40002AF09A95660F771F881FDAF7880F9695D4
:104E5000879597F90895A9D080F09F3740F4911174
:104E60000EF0BBC060E070E080E89FEB089526F490
:104E70001B16611D711D811D2BC045C0990F0008B7
:104E8000550FAA0BE0E8FEEF16161706E807F9071C
:104E9000C0F012161306E407F50798F0621B730BB7
:104EA000840B950B39F40A2661F0232B242B252B38
:104EB00021F408950A2609F4A140A6958FEF811DDB
:104EC000811D089597F99F6780E870E060E008957C
:104ED000882371F4772321F09850872B762F07C011
:104EE000662311F499270DC09051862B70E060E085
:104EF0002AF09A95660F771F881FDAF7880F969524
:104F0000879597F908959F3F31F0915020F4879548
:104F100077956795B795880F911D9695879597F921
:104F200008959FEF80EC089500240A941616170642
:104F300018060906089500240A941216130614068A
:104F400005060895092E0394000C11F4882352F0ED
:104F5000BB0F40F4BF2B11F460FF04C06F5F7F4FA5
:104F60008F4F9F4F089557FD9058440F551F59F08C
:104F70005F3F71F04795880F97FB991F61F09F3F46
:104F800079F087950895121613061406551FF2CF6F
:104F90004695F1DF08C0161617061806991FF1CFBF
:104FA00086957105610508940895E5DFA0F0BEE7D8
:104FB000B91788F4BB279F3860F41616B11D672F08
:104FC000782F8827985FF7CF869577956795B11DDD
:104FD00093959639C8F30895E894BB2766277727F9
:104FE000CB0197F908954ADF08F48FEF0895C3DFE6
:104FF00058F19E5758F19851A0F0E9F0983020F5FB
:10500000092E9927660F771F881F991F0A94D1F7D9
:1050100012C0062E672F782F8827985F11F4000C96
:1050200007C0993FB4F38695779567959395D9F71F
:10503000611D711D811D3EF490958095709561955F
:105040007F4F8F4F9F4F08956894C7CFC5CF0BD028
:1050500079CF6ADF28F06FDF18F0952309F032CF9F
:1050600060CF1124BACF7FDFA0F3959FD1F3950FC6
:1050700050E0551F629FF001729FBB27F00DB11DDC
:10508000639FAA27F00DB11DAA1F649F6627B00D6C
:10509000A11D661F829F2227B00DA11D621F739F55
:1050A000B00DA11D621F839FA00D611D221F749F63
:1050B0003327A00D611D231F849F600D211D822FAA
:1050C000762F6A2F11249F5750408AF0E1F08823F1
:1050D0004AF0EE0FFF1FBB1F661F771F881F9150FE
:1050E0005040A9F79E3F510570F0ECCE76CF5F3F60
:1050F000ECF3983EDCF3869577956795B795F79531
:10510000E7959F5FC1F7FE2B880F911D96958795B8
:1051100097F9089530DFE0F09E37D8F09639B8F46B
:105120009E3848F4672F782F8827985FF9CF8695A7
:105130007795679593959539D0F3B62FB1706B0F2E
:10514000711D811D20F48795779567959395C0CE45
:10515000DACE43CF11F40EF4E4CED5CE0CDFD0F38B
:105160009923D9F3CEF39F57550B87FF3CD00024EA
:10517000A0E640EA900180585695979528F4805C07
:10518000660F771F881F20F026173707480730F46F
:10519000621B730B840B202931294A2BA695179487
:1051A0000794202531254A2758F7660F771F881F57
:1051B00020F026173707480730F4620B730B840B77
:1051C000200D311D411DA09581F7B901842F915803
:1051D000880F969587950895E8DE20F09F3708F4AC
:1051E000FCCE76CE90CE91505040660F771F881F30
:1051F000D2F708950E943929A59F900DB49F900D74
:10520000A49F800D911D11240895991B79E004C07D
:10521000991F961708F0961B881F7A95C9F78095F5
:105220000895A1E21A2EAA1BBB1BFD010DC0AA1FE7
:10523000BB1FEE1FFF1FA217B307E407F50720F0FF
:10524000A21BB30BE40BF50B661F771F881F991F7A
:105250001A9469F760957095809590959B01AC01C3
:10526000BD01CF010895EE0FFF1F0590F491E02DD1
:105270000994A29FB001B39FC001A39F700D811D2F
:105280001124911DB29F700D811D1124911D08954F
:04529000F894FFCFC0
:0452940004081020DA
:00000001FF
