:100000000C94C7030C94E4030C94E4030C94E403F1
:100010000C94E4030C94E4030C94E4030C94E403C4
:100020000C94E4030C94E4030C94E4030C94FE207D
:100030000C94E4030C94E4030C94E4030C94E403A4
:100040000C94A7220C94E4030C94BA1D0C947C1D10
:100050000C94E4030C94E4030C94E4030C94E40384
:100060000C94E4030C94E403D90AEA0A090BEA0AA3
:100070000D0B200B130B190B0F19121917191A1945
:100080001D1920192319261929192C192F193B1963
:100090003B193B193B193B193B193B193B193519C6
:1000A00032193819DF1FE51FE81FEB1FF01FF81F7B
:1000B00002206920692069200A200C2015201E20BA
:1000C0002620692069206920692069202E20692066
:1000D0003820402043204C2055205B20084AD73B45
:1000E0003BCE016E84BCBFFDC12F3D6C74319ABD07
:1000F00056833DDA3D00C77F11BED9E4BB4C3E912B
:100100006BAAAABE000000803F05A84CCDB2D44E19
:10011000B93836A9020C50B9918688083CA6AAAA1B
:100120002ABE000000803F3E0D0A002C52583A00C3
:100130002C4275663A002C002C57506F733A002CF5
:10014000002C4D506F733A003C436865636B003C74
:10015000416C61726D003C486F6D65003C486F6C8E
:1001600064003C52756E003C5175657565003C49F4
:10017000646C65005D0D0A005B302E39672E3230ED
:100180003134303831373A000D0A003D00244E003A
:100190005D0D0A002046002054002047005B4738D0
:1001A00030005B4733005B4732005B4731005B4701
:1001B00030005D0D0A005B544C4F3A005D0D0A00A3
:1001C0002C005B4739323A005D0D0A002C003A00E2
:1001D0003330003238005B47005D0D0A002C005BB5
:1001E0005052423A00290D0A00206D617820747245
:1001F0006176656C2C206465670020616363656CC3
:100200002C206465672F7365635E3200206D617812
:1002100020726174652C206465672F6D696E002CF7
:1002200020737465702F646567007A007900780028
:100230002028003D0024002028686F6D696E67202B
:1002400070756C6C2D6F66662C206D6D290D0A0023
:100250002028686F6D696E67206465626F756E63D4
:10026000652C206D736563290D0A2432373D00200B
:1002700028686F6D696E67207365656B2C206D6DE6
:100280002F6D696E290D0A2432363D002028686FD3
:100290006D696E6720666565642C206D6D2F6D69D4
:1002A0006E290D0A2432353D00290D0A2432343DD1
:1002B000002028686F6D696E672064697220696E1E
:1002C00076657274206D61736B3A002028686F6DDB
:1002D000696E67206379636C652C20626F6F6C298F
:1002E0000D0A2432333D00202868617264206C6955
:1002F0006D6974732C20626F6F6C290D0A24323281
:100300003D002028736F6674206C696D6974732CCE
:1003100020626F6F6C290D0A2432313D0020286164
:1003200075746F2073746172742C20626F6F6C2906
:100330000D0A2432303D0020287265706F727420DF
:10034000696E636865732C20626F6F6C290D0A24D7
:1003500031343D00202861726320746F6C657261D6
:100360006E63652C206D6D290D0A2431333D00200C
:10037000286A756E6374696F6E206465766961744E
:10038000696F6E2C206D6D290D0A2431323D0029D4
:100390000D0A2431313D0020287374617475732077
:1003A0007265706F7274206D61736B3A00202870F3
:1003B000726F62652070696E20696E766572742C4A
:1003C00020626F6F6C290D0A2431303D0020286CAB
:1003D000696D69742070696E7320696E76657274D8
:1003E0002C20626F6F6C290D0A24363D0020287383
:1003F00074657020656E61626C6520696E766572E9
:10040000742C20626F6F6C290D0A24353D00290D74
:100410000A24343D00202864697220706F727420B1
:10042000696E76657274206D61736B3A00290D0AEE
:1004300024333D0020287374657020706F7274201F
:10044000696E76657274206D61736B3A0020287353
:100450007465702069646C652064656C61792C201A
:100460006D736563290D0A24323D0020287374657D
:10047000702070756C73652C2075736563290D0A87
:1004800024313D0024303D002424202876696577FE
:10049000204772626C2073657474696E6773290DEE
:1004A0000A242320287669657720232070617261F1
:1004B0006D6574657273290D0A2447202876696575
:1004C0007720706172736572207374617465290D91
:1004D0000A2449202876696577206275696C642052
:1004E000696E666F290D0A244E202876696577208B
:1004F0007374617274757020626C6F636B73290D15
:100500000A24783D76616C756520287361766520D4
:100510004772626C2073657474696E67290D0A24D2
:100520004E783D6C696E6520287361766520737422
:10053000617274757020626C6F636B290D0A2443BD
:100540002028636865636B2067636F6465206D6F47
:100550006465290D0A245820286B696C6C20616C35
:1005600061726D206C6F636B290D0A24482028721C
:10057000756E20686F6D696E67206379636C65299D
:100580000D0A7E20286379636C6520737461727430
:10059000290D0A2120286665656420686F6C64292E
:1005A0000D0A3F202863757272656E742073746142
:1005B000747573290D0A6374726C2D782028726526
:1005C000736574204772626C290D0A000D0A477228
:1005D000626C20302E3967205B27242720666F72DB
:1005E0002068656C705D0D0A005D0D0A004469733A
:1005F00061626C656400456E61626C6564004361B4
:100600007574696F6E3A20556E6C6F636B6564002C
:10061000272448277C2724582720746F20756E6C68
:100620006F636B00526573657420746F20636F6E27
:1006300074696E7565005B000D0A0050726F62652B
:10064000206661696C0041626F7274206475726922
:100650006E67206379636C6500486172642F736F05
:100660006674206C696D697400414C41524D3A20AA
:10067000000D0A00496E76616C69642067636F64DF
:10068000652049443A00556E646566696E6564206C
:1006900066656564207261746500556E737570706F
:1006A0006F7274656420636F6D6D616E64004D6F71
:1006B00064616C2067726F75702076696F6C61740D
:1006C000696F6E004C696E65206F766572666C6F3F
:1006D0007700486F6D696E67206E6F7420656E617C
:1006E000626C656400416C61726D206C6F636B00BD
:1006F0004E6F742069646C6500454550524F4D2023
:1007000072656164206661696C2E205573696E673D
:100710002064656661756C74730056616C75652044
:100720003C203320757365630053657474696E678C
:100730002064697361626C65640056616C75652044
:100740003C203000496E76616C696420737461747A
:10075000656D656E7400426164206E756D626572D0
:1007600020666F726D6174004578706563746564AE
:1007700020636F6D6D616E64206C657474657200CA
:100780006572726F723A20006F6B0D0A00001124BF
:100790001FBECFEFD8E0DEBFCDBF11E0A0E0B1E0DB
:1007A000E2E6FEE502C005900D92A430B107D9F74C
:1007B00016E0A4E0B1E001C01D92A03DB107E1F751
:1007C0000E94280C0C942F2F0C940000F999FECF56
:1007D00092BD81BD81E08FBB80B50895F894F999F1
:1007E000FECF92BD81BD81E08FBB40B54627842FEF
:1007F000992787FD9095262F30E082239323892B1C
:1008000039F06F3F19F060BD84E006C084E104C098
:10081000442321F060BD84E28FBBF99A7894089557
:100820009F92AF92BF92CF92DF92EF92FF920F937F
:100830001F93CF93DF938C017A016B01C40ED51EF9
:10084000EB01912C5C01A61AB70ACE018A0D9B1D03
:10085000CC15DD0591F0911009C0692D772767FD52
:100860007095272F221F2227221F01C021E06991A6
:10087000922E960E0E94EE03E8CF692DC8018E0DD0
:100880009F1DDF91CF911F910F91FF90EF90DF900F
:10089000CF90BF90AF909F900C94EE039F92AF9239
:1008A000BF92CF92DF92EF92FF920F931F93CF935D
:1008B000DF938B017A016C01C40ED51EEC01912CE3
:1008C0005B01A81AB90AC5018C0F9D1FCC15DD0567
:1008D00091F00E94E603911009C0292D332727FDCE
:1008E0003095232F221F2227221F01C021E0922EA4
:1008F000980E8993E8CFC8018E0D9F1D0E94E603D4
:1009000021E030E0981611F020E030E0C901DF91DD
:10091000CF911F910F91FF90EF90DF90CF90BF90FC
:10092000AF909F9008958DE3ECE2F5E0DF011D921A
:100930008A95E9F76DE475E080E00E943F1F811120
:1009400003C087E00C94F9180895CF92DF92EF92DC
:10095000FF920F931F93CF93DF9300D000D0CDB7BA
:10096000DEB788EAC82E85E0D82E93E8E92E96E017
:10097000F92E01E415E0F601619171918191919157
:100980006F01F70121913191419151917F012983AB
:100990003A834B835C830E94582C29813A814B8196
:1009A0005C810E94BD2BF8016193719381939193B7
:1009B0008F01F4EBCF16F5E0DF06E9F60F900F900C
:1009C0000F900F90DF91CF911F910F91FF90EF90BB
:1009D000DF90CF9008952F923F924F925F926F9247
:1009E0007F928F929F92AF92BF92CF92DF92EF92BF
:1009F000FF920F931F93CF93DF93CDB7DEB7AB97E3
:100A00000FB6F894DEBF0FBECDBF6C018BE3E9E6F5
:100A1000F5E0DF011D928A95E9F78CE0ECE2F5E064
:100A2000AAE6B5E001900D928A95E1F71D8E212C82
:100A3000312C00E010E0812C1E8EEE24E394F12C8A
:100A40008D8DF601E80FF11DA080AA2009F4EDC0FC
:100A50009FEB9A0D9A3108F089C68F5F8D8FAE019A
:100A6000475E5F4FBE01635E7F4FC6010E94E1108B
:100A7000882309F47DC6498C5A8C6B8C7C8CC3010D
:100A8000B2010E94C22E0E942A2CB62E70E080E095
:100A900090E00E94582C9B01AC01C301B2010E945E
:100AA000DC2A20E030E048EC52E40E94F42D0E9461
:100AB000572E0E942A2CB7E4AB1621F0EDE4AE16B7
:100AC00001F16CC0F1E0BF125DC62E8D211152C63E
:100AD000B0926A05662311F087E163C6C701092C4D
:100AE00002C0880F991F0A94E2F79C01202331234A
:100AF000232B11F085E155C6082B192B82E08E8F30
:100B00009FCF6111E9CF92E1B91639F19B1550F0F1
:100B1000A2E0AB1590F4B1E1BB1234C6A1E0A09302
:100B200075052CC0EEE1BE16A1F0BE1608F42AC66B
:100B30008AEB8B0D8230A0F025C6F2E0BF1649F09B
:100B40002EE1B21631F0B11017C081E0809371052B
:100B500013C092E0909371050FC0109275050EC0FE
:100B6000B7E4BB1619F01092740503C0E1E0E093FE
:100B700074052EE0922E02C098E0992EC701092C30
:100B800002C0880F991F0A94E2F79C0120233123A9
:100B9000232B09F0AFCF082B192B52CFF4E5AF165A
:100BA00081F028E5A21691F086E4A812EBC54092E8
:100BB0007605509277056092780570927905912CB0
:100BC00011C0B092970589E0982E0CC0409298050C
:100BD0005092990560929A0570929B05BAE09B2EFF
:100BE000882483945701092C02C0AA0CBB1C0A94C8
:100BF000E2F7C50182219321892B09F0BDC581E669
:100C000093E0092C02C0959587950A94E2F780FF3E
:100C100009C020E030E0A901C301B2010E94B62B57
:100C200087FDACC52A283B280BCF882029F09E8D54
:100C3000911102C0A2E0AE8F25FE0EC08091870503
:100C400090918805A0918905B0918A0580389649D0
:100C5000A849B1050CF094C580916B05813031F441
:100C6000FE8DF230A1F520FE93C531C080912D0597
:100C700081112DC020FE1BC080916C05813039F59B
:100C800023E333E34BEC51E46091760570917705F3
:100C900080917805909179050E94F42D60937605F6
:100CA00070937705809378059093790510C08091B3
:100CB0003C0590913D05A0913E05B0913F05809384
:100CC000760590937705A0937805B093790530FC6D
:100CD00010C08091380590913905A0913A05B091E6
:100CE0003B058093930590939405A0939505B0934D
:100CF000960580916905813031F426FC02C08CE1B3
:100D000050C5E89426F880916E05882341F0813023
:100D100061F01FA292E09CA3A1E0ABA30BC022E074
:100D20002FA381E08CA31BA205C0B1E0BFA31CA22E
:100D3000E2E0EBA380916C05813061F08CE0EDE4A2
:100D4000F5E0DE011D9601900D928A95E1F707FD11
:100D50002DC034C0A8E9CA2EA5E0DA2EE12CF12C72
:100D6000A82CB12CC5010E2C02C0959587950A942C
:100D7000E2F780FF10C023E333E34BEC51E4D601EC
:100D80006D917D918D919C910E94F42DF60160836F
:100D9000718382839383FFEFEF1AFF0A24E0C20E70
:100DA000D11C83E0E816F104E9F6C8CF8091700504
:100DB000873028F590913205981323C0709069050B
:100DC00092E0791629F0A8E07A1609F4CDC032C174
:100DD000882009F48AC0C10180759927892B09F4FC
:100DE0008ECF60918B0570918C0580918D059091CF
:100DF0008E050E94C22E0E942A2C673058F08DE189
:100E0000D0C4BE01635F7F4F0E943F1F8111D6CFC8
:100E100087E0C7C480918605843109F068C0BFEAC5
:100E20002B22662309F469C061506F8FBE016F5F8A
:100E30007F4F8F8D0E943F1F882351F3909086052E
:100E40004090650550906605609067057090680554
:100E5000CE0101967C01E8E9CE2EE5E0DE2EF1E43C
:100E6000AF2EF5E0BF2E00E010E0A82DB0E0BEA34D
:100E7000ADA38DA19EA1002E02C0959587950A94E1
:100E8000E2F780FD3EC00F5F1F4FF4E0EF0EF11C54
:100E900024E0C20ED11C84E0A80EB11C0330110561
:100EA00041F710916A05153009F46FC1AE8DA2307B
:100EB00009F04EC2112309F472C120E030E0A9010B
:100EC000609176057091770580917805909179050C
:100ED0000E94B62B882309F45BC4143008F05BC170
:100EE000123008F455C181105EC18AE15AC48230C3
:100EF00009F048C427FC46C492CFE0917005EF8FFB
:100F000095CFB4E19B1225C0F501208D318D428D26
:100F1000538D60817181828193810E94DC2AD60188
:100F20002D913D914D915C910E94DC2AF7016083E7
:100F3000718382839383023009F0A5CFA3019201CC
:100F40000E94DC2AD7016D937D938D939C93139718
:100F50009ACFF60180819181A281B381F7018083CC
:100F60009183A283B3838FCF882009F4BECF4090B2
:100F7000650550906605609067057090680508E902
:100F800015E071E4C72E75E0D72E5E019DE0A90E35
:100F9000B11CE12CF12CA82DB0E0B8A3AF8F8F8D40
:100FA00098A10E2C02C0959587950A94E2F780FFD0
:100FB00026C0F5012081318142815381D6016D9196
:100FC0007D918D919C910E94DC2AF80120813181D4
:100FD000428153810E94DC2AD8016D937D938D93C9
:100FE0009C931397B2E0EB1214C0A30192010E94EC
:100FF000DC2AF80160837183828393830AC0F6013F
:10100000808D918DA28DB38DF80180839183A28311
:10101000B383FFEFEF1AFF0A0C5F1F4F24E0C20EED
:10102000D11C84E0A80EB11C93E0E916F10409F08C
:10103000B6CFA9C081100CC0A5E07A1609F491C002
:10104000B7E07B1609F49AC0E3E07E129CC081C031
:1010500060906D058091650590916605A09167058A
:10106000B09168058F8F98A3A9A3BAA361E4C62E97
:1010700065E0D62E08E915E02E019DE0490E511CD1
:10108000E12CF12CA82CB12CC5010E2C02C0959599
:1010900087950A94E2F780FD0BC0F601808191816B
:1010A000A281B381F80180839183A283B38340C07E
:1010B000F7E07F16E9F161102AC0D60158962D910C
:1010C0003D914D915C915B97F201608171818281CC
:1010D00093810E94DD2AD8012D913D914D915C9123
:1010E0000E94DD2AF8016083718382839383F2E09A
:1010F000EF121EC02F8D38A149A15AA10E94DD2AEE
:10110000D8016D937D938D939C93139711C0F60135
:101110002081318142815381D8016D917D918D91E2
:101120009C910E94DD2AF8016083718382839383FE
:10113000FFEFEF1AFF0A24E0C20ED11C0C5F1F4F15
:1011400084E0480E511C93E0E916F10409F09CCFAD
:1011500073CF811001C01E8EBE016F5F7F4F86E08E
:1011600007C0811001C01E8EBE016F5F7F4F87E0F8
:101170000E943F1F882309F44BCE05C080916A0569
:10118000823008F001C31F8E8CCE8110FFC2E0C0F8
:10119000113029F0B8C1143009F499C0B4C18110DC
:1011A000B2C11E8ED8C0BBA10B2F10E0FCA1EF2F47
:1011B000F0E0FEA3EDA321E030E0C9010CA002C0E5
:1011C000880F991F0A94E2F702C0220F331FBA95C5
:1011D000E2F7822B932B282D30E082239323892B57
:1011E00009F4D8C2C801880F991F880F991FFC0104
:1011F000E759FA4FDC01A45DBA4F55962D913D9108
:101200004D915C91589767A570A981A992A90E94F8
:10121000DC2A6B017C018DA19EA1880F991F880F8C
:10122000991FFC01E759FA4FDC01A45DBA4F5596AE
:101230002D913D914D915C91589767A570A981A919
:1012400092A90E94DC2A4B015C0127FEA5C2E8940A
:1012500027F8209198053091990540919A05509171
:101260009B056091410570914205809143059091E5
:1012700044050E94B62B811172C020919C053091CB
:101280009D0540919E0550919F0560914505709187
:10129000460580914705909148050E94B62B811123
:1012A0005EC02091A0053091A1054091A20550910A
:1012B000A3056091490570914A0580914B05909175
:1012C0004C050E94B62B882309F440C048C08820F2
:1012D00009F40BCE209198053091990540919A051B
:1012E00050919B05609141057091420580914305A5
:1012F000909144050E94B62B811105C120919C0557
:1013000030919D0540919E0550919F056091450546
:101310007091460580914705909148050E94B62B33
:101320008111F1C02091A0053091A1054091A20545
:101330005091A3056091490570914A0580914B0534
:1013400090914C050E94B62B8111DDC081E229C22B
:10135000FE8DF111D8C0C1018E7D9C7FD7C08091D8
:101360006C058130B1F423E333E34BEC51E460913D
:101370008F057091900580919105909192050E9442
:10138000F42D60938F057093900580939105909351
:10139000920540908F055090900560909105709057
:1013A000920520E030E040E850E4C301B2010E9421
:1013B000F42DA30192010E94F42D2B013C01A70101
:1013C0009601C701B6010E94F42D9B01AC01C30137
:1013D000B2010E94DC2A2B013C01A5019401C50148
:1013E000B4010E94F42D9B01AC01C301B2010E9423
:1013F000DC2A2B013C0120E030E0A9010E94B62B41
:1014000087FDCEC1C301B2010E94812E2B013C0198
:10141000A5019401C701B6010E949E119B01AC0178
:10142000C301B20190580E94BD2B2B013C01809159
:101430006A05833021F477FA709477F8709480917C
:101440008F0590919005A0919105B091920588A784
:1014500099A7AAA7BBA720E030E0A901BC01CD0154
:101460000E94B62B87FF11C077FA709477F87094BA
:1014700088A599A5AAA5BBA5B05880938F05909380
:101480009005A0939105B0939205000F111F000FD6
:10149000111F03591A4FA3019201C501B4010E9403
:1014A000F42D9B01AC01C701B6010E94DC2A20E0AB
:1014B00030E040E05FE30E94F42DD8011D966D936B
:1014C0007D938D939C9350970DA11EA1000F111F2A
:1014D000000F111F03591A4FA3019201C701B60152
:1014E0000E94F42D9B01AC01C501B4010E94DD2ACC
:1014F00020E030E040E05FE30E94F42DF8016587D2
:1015000076878787908BC1018E7D907E892B09F02D
:1015100045C180916B0580932D0580917605909152
:101520007705A0917805B091790580933C0590935B
:101530003D05A0933E05B0933F05809197058093AC
:10154000400580916905813051F460918B0570915F
:101550008C0580918D0590918E050E94970F80914A
:101560006E058093300580916C0580932E058091E7
:10157000700590913205981759F0809332058CE0F0
:10158000FE013D96ADE4B5E001900D928A95E1F73C
:1015900080916D0580932F058091690590E0FC0195
:1015A0003297E830F10508F04BC0EC5CFF4F0C942B
:1015B0001A2FBE016F5F7F4F8F8D0E94251E809175
:1015C00032052F8D82133CC08CE0FE013196ADE4D4
:1015D000B5E01AC08E8D882349F020E040E050E04D
:1015E00060E87FEB88E995E00E94630C20E040E032
:1015F00050E060E87FEBCE0101960E94630C8CE026
:10160000FE013196A1E4B5E001900D928A95E1F7D3
:1016100017C061E475E086E003C061E475E087E02F
:101620000E94251E0DC08CE0E8E9F5E0A9E5B5E0D3
:10163000EBCF8CE0E9E5F5E0DF011D928A95E9F753
:1016400080916A0580932C05853009F45DC0BE8DBC
:10165000B23009F059C0843090F4823058F58823B4
:10166000F9F0813009F047C040913C0550913D05AB
:1016700060913E0570913F0520912D0516C0843084
:10168000D1F540913C0550913D0560913E0570912A
:101690003F0520912D0588E995E00E94F60F2BC0AB
:1016A00020E040E050E060E87FEB88E995E00E94B0
:1016B000630C21C0C0903C05D0903D05E0903E05F4
:1016C000F0903F0500918F051091900520919105B4
:1016D00030919205EFA1EF93FCA1FF938BA0A09016
:1016E0002D054AE755E068E975E081E495E00E9440
:1016F000A00C0F900F908CE0E8E9F5E0A1E4B5E0D4
:1017000001900D928A95E1F78091710580933305E0
:10171000882369F00E94DF181092B4058091330588
:10172000823019F40E94C61002C0109233058091D5
:101730007405809336056091970570E090E00E94F3
:10174000FA0B8091750580933705813039F480E07C
:1017500090E00E94CC200E94AC2006C081E090E086
:101760000E94CC200E94CF2080E01BC081E019C0E5
:1017700082E017C088E115C089E113C084E011C080
:101780008BE10FC084E10DC08EE10BC08FE109C079
:1017900086E107C080E205C083E203C084E201C0A5
:1017A00082E2AB960FB6F894DEBF0FBECDBFDF91DD
:1017B000CF911F910F91FF90EF90DF90CF90BF904E
:1017C000AF909F908F907F906F905F904F903F90E1
:1017D0002F9008958AB18C638AB98BB1837C8BB9C1
:1017E00008959BB1809589238BB908959BB1982B5F
:1017F0009BB908951F93CF93DF931F92CDB7DEB7A8
:10180000182F8091A5058230F1F069830E9462183B
:101810000E94DF18698161506430A8F4E62FF0E07F
:10182000E050FF4F8081882371F0113031F40F9028
:10183000DF91CF911F910C94F60B0F90DF91CF9118
:101840001F910C94F10B0F90DF91CF911F91089590
:101850000E944A1D0E9475200E9429230E9484290B
:101860008EE1E4EAF5E0DF011D928A95E9F781E077
:101870008093A40578948091C00684FF03C081E022
:101880008093A505C1E00E94101E0E9493040E944F
:10189000EA0B0E94A0170E94DF120E94F9220E9408
:1018A00011160E94A5041092A4051092A60580911D
:1018B000C00681FF03C0C093B40502C01092B405F6
:1018C0000E946F18E0CFEF92FF921F93CF93DF93A8
:1018D00000D000D0CDB7DEB77C01122F8091A505D6
:1018E000823021F149835A836B837C830E94CD1718
:1018F0008091A40581111AC00E942E1349815A813A
:101900006B817C81882339F00E94621849815A8159
:101910006B817C81E7CF212FC7010E943613809114
:10192000A505811103C088E08093A5050F900F9055
:101930000F900F90DF91CF911F91FF90EF9008953E
:101940002F923F924F925F926F927F928F929F92CF
:10195000AF92BF92CF92DF92EF92FF920F931F93BD
:10196000CF93DF93CDB7DEB7E7970FB6F894DEBF1E
:101970000FBECDBF9C8B8B8B1B013A0109871A8749
:101980002B873C87AD8A2D961FAD2D972E962FADB8
:101990002E97298B84E0889EA00111245A834983C5
:1019A000AB89BC89A40FB51FBF8BAE8B460D571DED
:1019B000598F488FFA0180809180A280B3802D9149
:1019C0003D914D915C91C501B4010E94DD2A6A8F61
:1019D0007B8F8C8F9D8FF4E01F9F800111242B89BA
:1019E0003C89200F311F3F8F2E8FA301400F511FC5
:1019F00059A348A3DA014D905D906D907C90F90158
:101A00002081318142815381C301B2010E94DD2ACC
:101A10006AA37BA38CA39DA3A501940150582D8795
:101A20003E874F87588BD301C201B0588D839E8368
:101A3000AF83B887E981FA81E20DF31D2A8D3B8DD2
:101A40004C8D5D8D60817181828193810E94DC2A41
:101A50002B013C01F101E00FF11F2AA13BA14CA198
:101A60005DA160817181828193810E94DC2A4B019A
:101A70005C01A30192016D857E858F8598890E9406
:101A8000F42D69837A838B839C83A50194016D81F6
:101A90007E818F8198850E94F42D9B01AC01698124
:101AA0007A818B819C810E94DD2A69837A838B8372
:101AB0009C83A50194016D857E858F8598890E9400
:101AC000F42D4B015C01A30192016D817E818F8118
:101AD00098850E94F42D9B01AC01C501B4010E94C0
:101AE000DC2A29813A814B815C810E94502B2B0199
:101AF0003C0180912C0520E030E0A901823079F48E
:101B0000C301B2010E94B92D87FD19C02BED3FE042
:101B100049EC50E4C301B2010E94DC2A0EC0C301AB
:101B2000B2010E94B62B181654F02BED3FE049ECA1
:101B300050E4C301B2010E94DD2A2B013C018090D8
:101B4000BC069090BD06A090BE06B090BF06298549
:101B50003A854B855C85CA01B9010E94DD2AA50141
:101B600094010E94DC2A9B01AC01C501B4010E94D2
:101B7000F42D0E94812E4B015C0120E030E040E01A
:101B80005FE3C301B2010E94F42D29853A854B859C
:101B90005C850E94F42D9F77A50194010E94BD2BC6
:101BA0000E94932C0E942A2C7FA36EA3DB01AB2BF7
:101BB00009F486C14B01A12CB12CBD89BB2361F076
:101BC000C501B4010E94562C9B01AC01C701B601AE
:101BD0000E94F42D6B017C01C501B4010E94562CBA
:101BE0004B015C019B01AC01C301B2010E94BD2B02
:101BF00069877A878B879C87F989E4E0FE9FC0011B
:101C000011242B893C89280F391F3A8B298BF1012C
:101C1000E80FF91FD9012D913D914D915C916081A3
:101C20007181828193810E94DC2AA50194010E9426
:101C3000BD2B6CAB7DAB8EAB9FAB29853A854B85BD
:101C40005C85CA01B9010E94F42D9B01AC0160E0E2
:101C500070E080E090E40E94DC2A4B015C012BEAFA
:101C60003AEA4AE25EE369857A858B859C850E9423
:101C7000F42D2B013C0120E030E040E850E4C501A8
:101C8000B4010E94DD2A9B01AC01C301B2010E9494
:101C9000F42D68A779A78AA79BA720E030E040E051
:101CA0005FE3C501B4010E94F42D6CA77DA78EA748
:101CB0009FA7198201E010E0EEA1FFA10E171F07F8
:101CC00009F4FEC0B981BC3008F04AC02CA53DA57E
:101CD0004EA55FA56D817E818F8198850E94F42D30
:101CE0004B015C0128A539A54AA55BA56D857E85BC
:101CF0008F8598890E94F42DA50194010E94DD2A08
:101D0000B62EA72E982E892E2CA53DA54EA55FA5F3
:101D10006D857E858F8598890E94F42D2B013C016D
:101D200028A539A54AA55BA56D817E818F819885FF
:101D30000E94F42D9B01AC01C301B2010E94DC2A78
:101D40006D877E878F87988BE981EF5FE9838B2D85
:101D50009A2DA92DB82D8D839E83AF83B8876EC031
:101D6000B80180E090E00E94562C29853A854B8589
:101D70005C850E94F42D4B015C010E94BA2B6D839F
:101D80007E838F839887C501B4010E94772E4B0113
:101D90005C01E88DF98D80819181A281B3819C01E4
:101DA000AD01505829833A834B835C83A8A1B9A124
:101DB0008D919D910D90BC91A02D88AB99ABAAAB54
:101DC000BBAB2D813E814F81588569817A818B81A2
:101DD0009C810E94F42D2B013C01A501940168A96E
:101DE00079A98AA99BA90E94F42D9B01AC01C3018A
:101DF000B2010E94DD2A6D877E878F87988BA501AF
:101E0000940169817A818B819C810E94F42D4B0120
:101E10005C012D813E814F81588568A979A98AA9E5
:101E20009BA90E94F42D9B01AC01C501B4010E9445
:101E3000DC2A6D837E838F83988719822D853E856A
:101E40004F8558896A8D7B8D8C8D9D8D0E94DD2AF2
:101E5000EE89FF8960837183828393832D813E8124
:101E60004F8158856AA17BA18CA19DA10E94DD2A8A
:101E7000AE8DBF8D6D937D938D939C9313972CA9FD
:101E80003DA94EA95FA9E989FA89608171818281A2
:101E900093810E94DD2AA989BA896D937D938D93E0
:101EA0009C9313972D89B701A6018B899C890E9469
:101EB000630C8091A405811121C00F5F1F4FFCCEE0
:101EC0002D89B701A601C101E7960FB6F894DEBFD0
:101ED0000FBECDBFDF91CF911F910F91FF90EF907B
:101EE000DF90CF90BF90AF909F908F907F906F903A
:101EF0005F904F903F902F900C94630CE7960FB635
:101F0000F894DEBF0FBECDBFDF91CF911F910F912F
:101F1000FF90EF90DF90CF90BF90AF909F908F9009
:101F20007F906F905F904F903F902F9008958F9289
:101F30009F92AF92BF92CF92DF92EF92FF924B01AE
:101F40005C018091A505823009F447C020E030E0B3
:101F500040EA51E4C501B4010E94F42D0E94932C83
:101F60000E942A2C6B017C010E94DF1820E030E0E7
:101F70004AE754E4C501B4010E94F42D4B015C0111
:101F800082E38C9DB0018D9D700D112480E090E066
:101F90000E94562C9B01AC01C501B4010E94DC2AB1
:101FA0000E94932C0E942A2CCB010E949311C114F1
:101FB000D10499F00E94CD1721E0C21AD108809176
:101FC000A40581110AC08FEF90E722E08150904074
:101FD0002040E1F700C00000EACFFF90EF90DF90D3
:101FE000CF90BF90AF909F908F9008954F925F9247
:101FF0006F927F928F929F92AF92BF92CF92DF9219
:10200000EF92FF920F931F93CF93DF9300D000D0F6
:10201000CDB7DEB74C016A017B01722E8091A50518
:10202000823009F49EC00E94DF186090B4050E94BF
:10203000AE17882351F09FB7F8948091A60580646D
:102040008093A6059FBF0E94CD178091A4058111A2
:1020500088C0272DB701A601C4010E94630C81E04E
:102060008093B5059FB7F8948091A6058260809310
:10207000A6059FBF0E94CD178091A405811171C054
:102080008091A505877FB1F78091B505813041F436
:102090009FB7F8948091A60580648093A6059FBFA2
:1020A0000E94CD178091A40581115BC00E94F92286
:1020B0000E94DF120E94111606EB15E083E8A82E9D
:1020C00086E0B82E2401F80161917191819191917E
:1020D0008F01F50121913191419151915F01298346
:1020E0003A834B835C830E94582C29813A814B812F
:1020F0005C810E94BD2BF201619371938193919356
:102100002F01F5E0023C1F07F1F6272DB701A601CC
:10211000C4010E94630C9FB7F8948091A605826069
:102120008093A6059FBF0E94DF188091A4058111AE
:1021300018C06092B4050F900F900F900F90DF9130
:10214000CF911F910F91FF90EF90DF90CF90BF90B4
:10215000AF909F908F907F906F905F904F900C9476
:10216000FF1A0F900F900F900F90DF91CF911F915A
:102170000F91FF90EF90DF90CF90BF90AF909F9026
:102180008F907F906F905F904F9008958091A605FB
:1021900084FD16C09FB7F8948091A6058061809356
:1021A000A6059FBF8091A505847351F09FB7F89451
:1021B0008091A60580628093A6059FBF0C94CF20D6
:1021C00008956F927F928F929F92AF92BF92CF921B
:1021D000DF92EF92FF920F931F93CF93DF937C01D7
:1021E0008B016A01FB018081F701E80FF11D20815D
:1021F000EF012D3229F4229621816624639407C0D1
:102200002B3211F0219602C022962181612CA12C43
:10221000B12C712C60E070E0CB01FE0130ED932E0B
:10222000920E29E02915C8F0B39428E02B1588F008
:10223000A1107A94A5E0B0E09B01AC010E94E12ED0
:10224000660F771F881F991F690D711D811D911DD4
:102250000BC0A11009C0739407C02EEF921207C0E3
:10226000A11005C0AA24A39421962081D6CFBB201B
:1022700009F449C00E94562C4B015C0120E030E07B
:10228000A9010E94B62B882361F18FEF78166CF4B8
:102290002AE037ED43E25CE3C501B4010E94F42D6E
:1022A0004B015C0173947394F0CF78120BC02DEC4A
:1022B0003CEC4CEC5DE3C501B4010E94F42D4B01F4
:1022C0005C010FC0772069F020E030E040E251E48B
:1022D000C501B4010E94F42D4B015C017A941714DE
:1022E0009CF3662021F0B7FAB094B7F8B094F601E9
:1022F00080829182A282B382CE19DF09C150F80197
:10230000C08381E001C080E0DF91CF911F910F91E8
:10231000FF90EF90DF90CF90BF90AF909F908F9005
:102320007F906F900895009741F0EFE9FFE03197BB
:10233000F1F700C000000197F6CF08958F929F92A9
:10234000AF92BF92CF92DF92EF92FF9269017A0132
:102350009B01AC010E94F42D4B015C01A701960189
:10236000C701B6010E94F42D9B01AC01C501B40167
:102370000E94DD2AFF90EF90DF90CF90BF90AF904A
:102380009F908F900C94812E4F925F926F927F92CC
:102390008F929F92AF92BF92CF92DF92EF92FF9275
:1023A0000F931F93CF93DF9310912201111101C05E
:1023B00012E1115000912001101709F4EFC089E2D9
:1023C000189FE0011124CC5DDE4F8D889E88AF8878
:1023D000B88C69A17AA18BA19CA19B01AC010E9440
:1023E000DD2A2DA13EA14FA158A50E94F42D6B011D
:1023F0007C019B01AC01B401C5010E94B62B87FF93
:1024000002C064017501A601B701498B5A8B6B8B21
:102410007C8B111101C012E177247A94710E701631
:1024200019F029E2622E27C080912301081351C0C0
:102430000E9447234EC0679C800111240C5D1E4FF3
:10244000711002C092E1792E7A9480912301781262
:1024500002C00E944723F801C588D688E788F08C1F
:10246000A701960161897289838994890E94B62B9C
:10247000811106C0E801809120017812DCCF29C0CB
:10248000F80161A172A183A194A19B01AC010E94FA
:10249000DD2AF80125A136A147A150A50E94F42DFF
:1024A00029893A894B895C890E94DD2A4B015C01AC
:1024B000A70196010E94B62BF80187FF05C0818A0B
:1024C000928AA38AB48AD6CFC18AD28AE38AF48A4E
:1024D000D1CF60902001F9E26F9E800111240C5D44
:1024E0001E4F77247394760C82E1781201C0712C10
:1024F0005090220189E2482E751409F44DC0479C82
:10250000E0011124CC5DDE4FF80181889288A38818
:10251000B488C988DA88EB88FC88A7019601C501D0
:10252000B4010E94B62B87FF23C0F80161A172A1FC
:1025300083A194A19B01AC010E94DD2AF80125A191
:1025400036A147A150A50E94F42D9B01AC01C50105
:10255000B4010E94DD2A4B015C01A70196010E9493
:10256000B62B87FF05C0898A9A8AAB8ABC8A672CFA
:102570002D893E894F89588D69897A898B899C89F3
:102580000E94B62B811101C0672C7394F2E17F1277
:1025900001C0712C8E01B0CF60922001DF91CF91EC
:1025A0001F910F91FF90EF90DF90CF90BF90AF9071
:1025B0009F908F907F906F905F904F9008958CE1E7
:1025C000E4E0F1E0DF011D928A95E9F71092230122
:1025D0001092220181E08093210110922001089540
:1025E0009091230180912201891769F081E0890F80
:1025F000823109F480E020912001921302C080937F
:10260000200180932301089580912301909122015C
:10261000981739F029E2829FC00111248C5D9E4FEA
:10262000089580E090E00895E0912301EF5FE231AA
:1026300009F4E0E080912201E81761F089E2E89F67
:10264000F0011124EC5DFE4F6189728983899489C0
:102650000C94812E60E070E0CB01089581E0209120
:10266000230190912101291380E008952F923F9238
:102670004F925F926F927F928F929F92AF92BF9292
:10268000CF92DF92EF92FF920F931F93CF93DF933E
:10269000CDB7DEB7AD970FB6F894DEBF0FBECDBF96
:1026A000142F052F6B8F7C8F822E2091220139E20F
:1026B000239F10011124F101EC5DFE4F1F011586CF
:1026C00016861786108A15A216A217A210A61082C7
:1026D00049E956E766E97EE741A352A363A374A3E1
:1026E0005C0133E8E32E36E0F32E9E01235F3F4F7B
:1026F0003E8F2D8F84E091E098A38F8F6F01FE01B4
:102700003196FAA3E9A3912CF50161917191819120
:1027100091915F01F70120813181428153810E94B3
:10272000F42D0E94C42DED8DFE8D619371938193E4
:102730009193FE8FED8FEF8DF8A1419051906190B4
:102740007190F8A3EF8F64197509860997092B0119
:102750003C0197FF07C0442455243201461A570A0A
:10276000680A790AF6014182528263827482F10119
:1027700025853685478550894216530664067506B9
:1027800010F429013A01F101458656866786708A60
:102790000E94582CF70120813181428153810E948F
:1027A000BD2B2B013C01E9A1FAA1619371938193A7
:1027B0009193FAA3E9A320E030E0A9010E94B62B8F
:1027C00087FF0AC0F1019081892D9DA70E94AA2050
:1027D0009DA5892BF1018083A3019201C301B20160
:1027E0000E94F42DF10125A136A147A150A50E9418
:1027F000DD2AF10165A376A387A390A79394F4E063
:10280000EF0EF11C24E0C20ED11C33E093127CCFFA
:102810000E94812E6B017C01F10165A376A387A341
:1028200090A785859685A785B089892B8A2B8B2BC8
:1028300009F4DEC120E030E0A901612F702F8B8DFB
:102840009C8D0E94B62B87FD21C0882061F0212F2E
:10285000302F4B8D5C8DC701B6010E94BD2B162F0A
:10286000072F8B8F9C8F20E030E040E85FE3612FE3
:10287000702F8B8D9C8D0E94B62B87FF0DC010E0B2
:1028800000E030E83B8F8FE38C8F06C019E906E744
:10289000F6E9FB8F2EE72C8FA701960160E070E030
:1028A00080E89FE30E94BD2B69A77AA78BA79CA70E
:1028B000E0E1F1E0FAA3E9A32FE836E038A32F8F97
:1028C000CE010D969A8F898FFE013196FE8FED8F86
:1028D000C12CD12C7601ED8DFE8D80809180A2805F
:1028E000B38020E030E0A901C501B4010E94B62BFD
:1028F000882309F47FC029A53AA54BA55CA5C5018D
:10290000B4010E94F42D4B015C01ED8DFE8D6083BE
:102910007183828393839B01AC0160E070E080E867
:102920009FE30E94BD2B2B013C01E89477F8EF8DCB
:10293000F8A12081318142815381C301B2010E94FB
:10294000F42D6BA37CA38DA39EA39B01AC01612FEF
:10295000702F8B8D9C8D0E94B62B87FF06C01BA30A
:102960000CA3FB8DFDA32C8D2EA3F101F1A1FB8FF8
:10297000F101F2A1FC8FF101F3A1FFA3F101F4A198
:10298000F8A7EF8DF8A12485358546855785C301C5
:10299000B2010E94F42D3B018C019B01AC016B8DB7
:1029A0007C8D8FA198A50E94B62B87FF04C06B8CED
:1029B0007C8C0FA118A5C301D801F10181A392A3BA
:1029C000A3A3B4A3E9A1FAA120813181428153815B
:1029D000C501B4010E94F42D9B01AC01C701B601F1
:1029E0000E94DC2A6B017C011BA10CA1FDA1FB8FC5
:1029F0002EA12C8F8D8D9E8D04969E8F8D8FE9A19B
:102A0000FAA13496FAA3E9A32F8D38A12C5F3F4F8A
:102A100038A32F8FE98DFA8D8E179F0709F05BCFB2
:102A2000909122018091230198130AC0F101118A2B
:102A3000128A138A148A118E128E138E148E49C034
:102A4000A701960160E070E080E89FE30E94DC2A25
:102A500020E030E040E05FE30E94F42D0E94812EF0
:102A60006B017C012091B8063091B9064091BA06FD
:102A70005091BB06F10161A172A183A194A10E94B2
:102A8000F42DA70196010E94F42D4B015C01A701D2
:102A9000960160E070E080E89FE30E94DC2A9B01E1
:102AA000AC01C501B4010E94BD2B6B017C0120E08B
:102AB00030E0A9010E94B62B87FF04C0C12CD12CA5
:102AC000E12CF12CA601B701F101418F528F638FE8
:102AD000748F212F302F4B8D5C8D612F702F8B8D3C
:102AE0009C8D0E94F42D162F072FF82EE92E862F8D
:102AF000902FAF2DBE2DF101858F968FA78FB0A39C
:102B0000A18CB28CC38CD48C60901C0170901D0180
:102B100080901E0190901F019301A401612F702FDE
:102B20008F2D9E2D0E94B62B87FD0BC09301A40113
:102B3000B501C6010E94B62B87FD11C05301640187
:102B40000EC0212F302F4F2D5E2DB501C6010E94E2
:102B5000B62B87FD04C0A12EB02ECF2CDE2CC501D4
:102B6000D601F101858B968BA78BB08F8CE0FE018F
:102B70003196A0E1B1E001900D928A95E1F7812FA5
:102B8000902FAF2DBE2D80931C0190931D01A0931B
:102B90001E01B0931F018CE0FE013D96A4E0B1E060
:102BA00001900D928A95E1F7809121018093220195
:102BB0008F5F823109F480E080932101AD960FB6DA
:102BC000F894DEBF0FBECDBFDF91CF911F910F9163
:102BD000FF90EF90DF90CF90BF90AF909F908F903D
:102BE0007F906F905F904F903F902F900C94C41106
:102BF000AD960FB6F894DEBF0FBECDBFDF91CF917B
:102C00001F910F91FF90EF90DF90CF90BF90AF900A
:102C10009F908F907F906F905F904F903F902F90FC
:102C200008958091A8059091A905A091AA05B09159
:102C3000AB058093040190930501A0930601B09326
:102C400007018091AC059091AD05A091AE05B091C2
:102C5000AF058093080190930901A0930A01B093F6
:102C60000B018091B0059091B105A091B205B09192
:102C7000B30580930C0190930D01A0930E01B093C6
:102C80000F0108958091220190912301891708F482
:102C90008E5E891B08950E944723809123018093B3
:102CA00020010C94C411CF93DF93EC018991882308
:102CB00019F00E94601DFACFDF91CF910895CF9354
:102CC000DF93FC018491EF012196882321F00E947B
:102CD000601DFE01F7CFDF91CF910895EF92FF9233
:102CE0000F931F93CF93DF93CDB7DEB728970FB61F
:102CF000F894DEBF0FBECDBFFE0131967F019E016D
:102D0000275F3F4F982F917091938695E217F307B5
:102D1000C9F78F01F80182918F01805D0E94601DCB
:102D20000E151F05B9F728960FB6F894DEBF0FBE33
:102D3000CDBFDF91CF911F910F91FF90EF9008953C
:102D40001F93CF93DF9300D01F92CDB7DEB78111D1
:102D500009C080E30F900F900F90DF91CF911F91EA
:102D60000C94601D90E02AE011E0190FE1E0F0E022
:102D7000EC0FFD1FE90FF11D622F0E94EC2E905DFC
:102D80009083882311F0912FEFCF112341F0FE01A2
:102D9000E10FF11D80810E94601D1150F6CF0F9050
:102DA0000F900F90DF91CF911F9108958F929F9276
:102DB000AF92BF92CF92DF92EF92FF920F931F9349
:102DC000CF93DF93CDB7DEB72A970FB6F894DEBF67
:102DD0000FBECDBF6B017C01142F20E030E0A901B4
:102DE0000E94B62B87FF07C08DE20E94601DF7FA94
:102DF000F094F7F8F094012F023060F020E030E01A
:102E000048EC52E4C701B6010E94F42D6B017C012D
:102E10000250F2CF10FF0AC020E030E040E251E45F
:102E2000C701B6010E94F42D6B017C0120E030E067
:102E300040E05FE3C701B6010E94DD2A0E94252C15
:102E4000E1E0F0E0EC0FFD1FE10FF11D2EE2208329
:102E5000D12C5AE0852E912CA12CB12C6115710535
:102E600081059105A9F0D11201C0D394EE24E39419
:102E7000F12CEC0EFD1EED0CF11CA50194010E943D
:102E8000F82E605DF7016083B901CA01D394E6CFE3
:102E900080E3D11648F4E1E0F0E0EC0FFD1FED0D0A
:102EA000F11D8083D394F5CF8D2DD1120BC0D39417
:102EB000D3948F5FE1E0F0E0EC0FFD1FE80FF11D10
:102EC00080E38083DD2041F0FE01ED0DF11D808166
:102ED0000E94601DDA94F6CF2A960FB6F894DEBFF2
:102EE0000FBECDBFDF91CF911F910F91FF90EF905B
:102EF000DF90CF90BF90AF909F908F9008952091DA
:102F0000C00620FF08C02BE832E441E25DE30E94E6
:102F1000F42D44E001C043E00C94D6162091C00685
:102F200020FF08C02BE832E441E25DE30E94F42D6B
:102F300041E001C040E00C94D61643E00C94D61654
:102F40003D988091C00687FF04C045981092C20545
:102F50000895459A80E28093C205089586B18072F3
:102F60009091C205892708958091B5058130A1F41B
:102F70000E94AE17882381F01092B5058CE0E8EA34
:102F8000F5E0A6EBB5E001900D928A95E1F780910E
:102F9000A60588608093A6050895CF93C091A605E5
:102FA000CC2309F486C08C2F807639F181E08093A0
:102FB000A505C6FF17C0C5FF02C08FEF01C08DEF8A
:102FC0000E94471981E00E9466199FB7F89480918A
:102FD000A6058F7E8093A6059FBF8091A60584FFDE
:102FE000FCCF03C08EEF0E9447199FB7F8948091E1
:102FF000A6058F798093A6059FBFC4FF04C081E01A
:103000008093A4055DC0C0FF0AC00E94441C9FB706
:10301000F8948091A6058E7F8093A6059FBFC3FF7D
:1030200015C08091A505803149F480E28093A50503
:103030000E9447230E9469231092B4059FB7F89419
:103040008091A605877F8093A6059FBFC1FF1DC005
:103050008091A505883089F480E18093A5050E94C0
:1030600069230E94AC208091C00681FF04C081E0EA
:103070008093B40502C01092B4059FB7F894809174
:10308000A6058D7F8093A6059FBFC2FF12C00E9438
:103090000413892B21F088E08093A50502C01092CB
:1030A000A5059FB7F8948091A6058B7F8093A60510
:1030B0009FBF8091A505847319F0CF910C9469236B
:1030C000CF9108958091B405882341F09FB7F8947B
:1030D0008091A60582608093A6059FBF0895CF9337
:1030E000DF930E948C198091A505813021F482E044
:1030F0000E94661921C01092A50586E094E00E9406
:1031000085291AC08D3069F0DD2389F1D1E089323B
:1031100009F4D0E00E94A61D8F3F09F444C08A3014
:1031200089F7EC2FF0E0EA5FFB4F10820E94CD1789
:103130008091A405882311F0C0E0EBCF80910604B4
:10314000811103C00E94F918F7CF843229F486E078
:1031500094E00E94A429F6CF8091A505813011F456
:1031600089E0F0CF86E094E00E94EB04EBCF81325F
:1031700088F28F3279F28832A1F0CF3428F08BE0D8
:103180000E94F918C0E0C6CF2C2F30E0CF5F9FE936
:10319000980FF901EA5FFB4F9A3108F4805280835F
:1031A000B9CFD1E0B7CF0E9462180E94CD178091AD
:1031B000A405882309F4AECFDF91CF9108950E9432
:1031C00062188091A505803171F481E08093B40587
:1031D0000AC08091A505803159F40E94CD178091D5
:1031E000A405811105C00E940413892BB1F7F1CF0A
:1031F0000895CF93C82F811103C088E897E044C099
:1032000080E897E00E945F164C2F50E0FA0131975A
:10321000E631F10580F5E45CFF4F0C941A2F88E647
:1032200097E002C086E597E00E945F162BC084E419
:1032300097E0FACF8AE397E0F7CF89E297E0F4CFFF
:103240008AE197E0F1CF89EF96E0EECF80EF96E04C
:10325000EBCF85EE96E0E8CF82ED96E0E5CF84EC0B
:1032600096E0E2CF8EEA96E0DFCF8AE996E0DCCF07
:1032700086E896E0D9CF84E796E00E945F168C2F0F
:103280000E94A01681E796E0CF910C945F16CF9331
:10329000C82F89E696E00E945F16CE3F51F0CF3FDF
:1032A00029F0CD3F51F48BE396E005C089E596E027
:1032B00002C086E496E00E945F1688E396E00E94D2
:1032C0005F1684EF91E0CF910C949311CF93C82FA8
:1032D00086E396E00E945F16C33091F038F4C13067
:1032E00061F0C230A1F480E196E00FC0C43059F023
:1032F000C53069F48DEE95E008C084E296E005C023
:103300008EEF95E002C086EF95E00E945F1689EE91
:1033100095E0CF910C945F168CEC95E00C945F16C1
:1033200088E894E00C945F16FF920F931F93CF935D
:10333000DF9384E894E00E945F168091B3060E94B8
:10334000A0168BE694E00E945F168091B6060E945C
:10335000A0168DE494E00E945F168091B4060E944E
:10336000A01684E394E00E945F168091B4060E9448
:103370006E168DE294E00E945F168091B5060E9461
:10338000A01685E194E00E945F168091B5060E9428
:103390006E168EE094E00E945F168091C00682FB5C
:1033A000882780F90E94A0168DEE93E00E945F1698
:1033B0008091C00686FB882780F90E94A0168DECBC
:1033C00093E00E945F168091C006881F8827881F9F
:1033D0000E94A0168DEA93E00E945F168091B706C6
:1033E0000E94A01687E993E00E945F168091B706BD
:1033F0000E946E168FE893E00E945F166091B806F7
:103400007091B9068091BA069091BB060E949D17F3
:103410008FE693E00E945F166091BC067091BD0636
:103420008091BE069091BF060E949D1784E593E0AF
:103430000E945F168091C00681700E94A01687E3EB
:1034400093E00E945F168091C006869581700E946D
:10345000A0168DE193E00E945F168091C00685FB67
:10346000882780F90E94A01682E093E00E945F16F0
:103470008091C00683FB882780F90E94A01687EE02
:1034800092E00E945F168091C006829581700E9432
:10349000A0168BEC92E00E945F168091C1060E94FC
:1034A000A01681EB92E00E945F168091C1060E94F7
:1034B0006E1689EA92E00E945F166091C2067091D2
:1034C000C3068091C4069091C5060E949D178CE8A2
:1034D00092E00E945F166091C6067091C7068091C7
:1034E000C8069091C9060E949D178FE692E00E943F
:1034F0005F168091CA060E94A01680E592E00E94A5
:103500005F166091CC067091CD068091CE069091A9
:10351000CF060E949D1787E392E00E945F1684E623
:10352000F82E10E0C3E8D6E000E085E392E00E94C8
:103530005F16802F8F0D0E94A01683E392E00E94F9
:103540005F16123071F01330B9F0113029F0688134
:1035500079818A819B8117C06C857D858E859F8549
:1035600012C020E030E041E655E4688D798D8A8D07
:103570009B8D0E94BD2B07C08CA19DA1AEA1BFA1B8
:10358000BC01CD0190580E949D1780E392E00E94FB
:103590005F16013029F0023031F08EE292E005C072
:1035A0008CE292E002C08AE292E00E945F16123042
:1035B00051F0133059F0113019F08FE192E008C04A
:1035C0008CE092E005C08AEF91E002C089EE91E0C4
:1035D0000E945F1685EE91E00E945F160F5F2496B1
:1035E000033009F0A2CF8AE0F80E1F5F8CE8F812D2
:1035F00099CFDF91CF911F910F91FF900895CF92B6
:10360000DF92FF920F931F93CF93DF9300D000D0F0
:10361000CDB7DEB78FED91E00E945F1606EB15E0A7
:1036200093E8C92E96E0D92EF12CF80161917191A1
:10363000819191918F01F6012191319141915191A7
:103640006F0129833A834B835C830E94582C298124
:103650003A814B815C810E94BD2B0E947F17F2E072
:10366000FF1621F08DED91E00E945F16F39483E048
:10367000F812DBCF89ED91E00F900F900F900F9033
:10368000DF91CF911F910F91FF90DF90CF900C941D
:103690005F16EF92FF920F931F93CF93DF93CDB7F7
:1036A000DEB72C970FB6F894DEBF0FBECDBFF12C5E
:1036B000BE016F5F7F4F8F2D0E943F1F811104C09D
:1036C00087E00E94F91869C086ED91E00E945F16BC
:1036D00086E0F81631F0E7E0FE1208C080ED91E0D8
:1036E00002C083ED91E00E945F1604C086E38F0D57
:1036F0000E94A0168EEC91E00E945F168E010F5F73
:103700001F4FE12CF80161917191819191918F018D
:103710000E947F17F2E0EF1619F08CEC91E002C0E6
:1037200088EC91E00E945F16E39483E0E812EACF10
:10373000F394E8E0FE12BCCF82EC91E00E945F16A9
:1037400009E515E0F12CF801619171918191919158
:103750008F010E947F17F2E0FF1619F080EC91E0D4
:1037600002C08CEB91E00E945F16F39483E0F812A4
:10377000EACF86EB91E00E945F166091650570913B
:10378000660580916705909168050E947F1782EB1E
:1037900091E00E945F160E94FF1A2C960FB6F894D3
:1037A000DEBF0FBECDBFDF91CF911F910F91FF9074
:1037B000EF90089580912C05823091F038F48823A1
:1037C00061F08130A1F48AEA91E00FC0833059F0B2
:1037D000853069F48DE991E008C08EEA91E005C07A
:1037E00086EA91E002C082EA91E00E945F168AE9CF
:1037F00091E00E945F16809132058A5C0E94A016BB
:1038000087E991E00E945F16809140050E94A01612
:1038100084E991E00E945F1660913C0570913D053E
:1038200080913E0590913F050E948E1780E991E0BE
:103830000C945F161F93CF93DF93182FEB018DE845
:1038400091E00E945F16812F0E94A0168BE891E004
:103850000E945F16CE010E94531688E891E0DF9126
:10386000CF911F910C945F16CF93DF93EC0188E703
:1038700091E00E945F16CE010E94531684E791E00A
:10388000DF91CF910C945F16BF92CF92DF92EF92AF
:10389000FF920F931F93CF93DF93CDB7DEB76C9753
:1038A0000FB6F894DEBF0FBECDBF8CE0E8EAF5E0BE
:1038B000DE011D9601900D928A95E1F78091A50594
:1038C0008430D9F040F48130D9F070F08230E1F4E6
:1038D00088E491E017C0803151F0803259F088308F
:1038E00099F487E691E00EC08EE691E00BC082E687
:1038F00091E008C08CE591E005C086E591E002C04A
:103900008FE491E00E945F168091B70680FD05C0AC
:103910008091B70681FF8AC03CC081E491E00E949B
:103920005F166E012DE0C20ED11C33E8E32E36E0A7
:10393000F32E8E010F5F1F4FB12CF6016191719133
:10394000819191916F01F7012191319141915191B3
:103950007F01298F3A8F4B8F5C8F0E94582C298DC5
:103960003A8D4B8D5C8D0E94BD2BF8016193719354
:10397000819391938F010E947F17F2E0BF1621F08F
:103980008FE391E00E945F16B39423E0B212D5CF8B
:10399000BFCF88E391E00E945F162DE4E22E25E080
:1039A000F22E8E010F5F1F4FB12C6801F70161915C
:1039B0007191819191917F01208531854285538557
:1039C0000E94DD2A9B01AC01F80160817181828136
:1039D00093810E94DC2AF801608371838283938340
:1039E000F2E0BF120FC0209165053091660540914D
:1039F0006705509168050E94DC2AF8016083718395
:103A0000828393830C5F1F4FF601608171818281F5
:103A100093810E947F17F2E0BF1621F086E391E0C8
:103A20000E945F16B39423E0B212BFCF8091B70615
:103A300082FF08C080E391E00E945F160E94421658
:103A40000E94A0168091B70683FF08C08BE291E028
:103A50000E945F160E94411D0E94A01687E291E01D
:103A60006C960FB6F894DEBF0FBECDBFDF91CF913D
:103A70001F910F91FF90EF90DF90CF90BF900C942B
:103A80005F169091580480915904891708F4805862
:103A9000891B0895E0ECF0E080818D7F8083109297
:103AA000C50087E68093C400E1ECF0E0808180618E
:103AB000808380818860808380818068808308958E
:103AC000E091570491E09E0F903409F490E020912A
:103AD0005604921305C02091A60524FFF8CF08953F
:103AE000F0E0ED53FA4F8083909357048091C1002A
:103AF00080628093C10008951F920F920FB60F92BB
:103B000011248F939F93EF93FF9380915604E82F96
:103B1000F0E0ED53FA4F90819093C6008F5F8034B0
:103B200009F480E08093560490915704891305C0EE
:103B30008091C1008F7D8093C100FF91EF919F9193
:103B40008F910F900FBE0F901F9018959091580471
:103B500080915904891761F0E92FF0E0ED5FF94F8A
:103B600080819F5F903809F490E090935804089505
:103B70008FEF08951F920F920FB60F9211242F937B
:103B80003F934F935F936F937F938F939F93AF93E5
:103B9000BF93EF93FF938091C6008132B1F028F478
:103BA0008831E1F40E94C6102AC08F3341F08E376D
:103BB000A9F49FB7F8948091A60582600BC09FB7C7
:103BC000F8948091A605816005C09FB7F894809114
:103BD000A60588608093A6059FBF11C0E091590497
:103BE00091E09E0F903809F490E0209158049217CC
:103BF00031F0F0E0ED5FF94F808390935904FF912D
:103C0000EF91BF91AF919F918F917F916F915F9154
:103C10004F913F912F910F900FBE0F901F901895CD
:103C20008091590480935804089521E5829FC00132
:103C3000112440E550E09D5F0C94100440E550E0F5
:103C4000BC018EEA93E00C9410042DE0829FC00129
:103C500011244CE050E09E5F0C94100469E080E079
:103C600090E00E94EE034DE450E063E876E081E0EE
:103C700090E00C9410048AE08093B30689E180936D
:103C8000B6061092B40686E08093B50683E0809372
:103C9000B7068AE097EDA3EABCE38093B806909359
:103CA000B906A093BA06B093BB068FE692E1A3E0F3
:103CB000BBE38093BC069093BD06A093BE06B09371
:103CC000BF061092C10680E090E0A8ECB1E48093BA
:103CD000C2069093C306A093C406B093C50680E0C5
:103CE00090E0AAEFB3E48093C6069093C706A09332
:103CF000C806B093C9062AEF30E03093CB06209374
:103D0000CA0640E050E060E87FE34093CC06509361
:103D1000CD066093CE067093CF0622E02093C006B6
:103D200040E050E06AE773E44093830650938406D2
:103D30006093850670938606109287061092880617
:103D40001092890610928A0610928B0610928C06A9
:103D500010928D0610928E0680938F069093900697
:103D6000A0939106B0939206109293061092940637
:103D70001092950610929606109297061092980649
:103D80001092990610929A0680E090EAACE0B7E4AF
:103D900080939B0690939C06A0939D06B0939E06ED
:103DA00010929F061092A0061092A1061092A206F1
:103DB0001092A3061092A4061092A5061092A606D1
:103DC00080E090E0AAE7B4EC8093A7069093A80661
:103DD000A093A906B093AA061092AB061092AC0667
:103DE0001092AD061092AE061092AF061092B00679
:103DF0001092B1061092B2060C942E1E60E080E084
:103E000093E00E94EE0360E081E593E00C94EE0302
:103E100060E08EEA93E00C94EE031F93CF93DF9360
:103E2000182FEB0181E5189FB00111247D5F40E55B
:103E300050E0CE010E944E04892B39F41882BE0155
:103E4000812F0E94151E80E001C081E0DF91CF919B
:103E50001F910895CF93DF93EC0140E550E06EEAA7
:103E600073E00E944E04892B31F41882CE010E9427
:103E70001E1E80E001C081E0DF91CF9108951F9365
:103E8000CF93DF93182FEB018DE0189FB001112421
:103E90007E5F4CE050E0CE010E944E04892B59F425
:103EA0008CE0FE0111928A95E9F7BE01812F0E94F4
:103EB000251E80E001C081E0DF91CF911F91089520
:103EC00080E090E00E94E603893059F44DE450E030
:103ED00061E070E083E896E00E944E0421E0892BC7
:103EE00009F420E0822F0895CF92DF92EF92FF92A3
:103EF000CF93DF93C82F6A017B0120E030E0A90156
:103F0000C701B6010E94B62B87FDE1C0C43608F494
:103F100045C02CE92C0F80E02330B8F530E082302A
:103F200079F0F901EE0FFF1FEE0FFF1F833011F143
:103F3000813019F0ED57F94F23C0E157F94F20C0F8
:103F4000E901CC0FDD1FCC0FDD1FC556D94F20E096
:103F500030E040E752E4C701B6010E94F42D20E0B2
:103F600030E040E752E40E94F42D688379838A832D
:103F70009B83A9C0E955F94FF7FAF094F7F8F0944C
:103F8000C082D182E282F3829EC08F5F2A3008F421
:103F9000A0C0843009F49DC02A50BECFC701B6012D
:103FA0000E94C22E0E942A2C8C2F90E08C31910509
:103FB00008F08FC0FC01EE5AFF4F0C941A2F6330AB
:103FC00008F489C06093B3067EC06093B6067BC0D8
:103FD0006093B40602C06093B5060E94BD2273C010
:103FE0008091C006662311F0846007C08B7F05C0F6
:103FF0008091C006662321F080648093C00663C070
:104000008F7BFBCF8091C006662311F08068F5CFCF
:104010008F77F3CF6093B706C092B806D092B906F7
:10402000E092BA06F092BB064EC0C092BC06D09297
:10403000BD06E092BE06F092BF0645C08091C00664
:10404000662311F08160D9CF8E7FD7CF8091C006D3
:10405000662311F08260D1CF8D7FCFCF8091C006D3
:10406000662321F084FF39C08062C7CF8F7DC5CF22
:104070008091C006662311F08061BFCF8F7CBDCFD9
:104080006093C10620C0C092C206D092C306E092DF
:10409000C406F092C50617C0C092C606D092C706E5
:1040A000E092C806F092C9060EC070E07093CB068D
:1040B0006093CA0608C0C092CC06D092CD06E092AA
:1040C000CE06F092CF060E942E1E80E007C084E04C
:1040D00005C083E003C086E001C08AE0DF91CF9194
:1040E000FF90EF90DF90CF9008951F93CF93DF93D1
:1040F000CDB7DEB72C970FB6F894DEBF0FBECDBF9D
:104100000E94601F81110BC087E00E94F9180E9475
:104110003B1E0E94FE1E0E94081F0E94941910E080
:10412000BE016F5F7F4F812F0E943F1F811103C02F
:1041300087E00E94F9181F5F183091F72C960FB690
:10414000F894DEBF0FBECDBFDF91CF911F910895D0
:1041500080E1089580E208958091C00682FF02C048
:10416000299A01C029988091A5058471A1F08091B8
:104170008B0480939F0480918C0480939E04809193
:10418000B306880F8450819580939D0480916F00C1
:10419000826080936F0008958093890408958091D0
:1041A0006F008D7F80936F0080918100887F816098
:1041B0008093810010928A048091B6068F3F21F48B
:1041C0009091A60595FF09C09091A505943029F01E
:1041D00090E00E94931181E001C080E090918904F9
:1041E000992359F09091C00692FF02C091E089276F
:1041F000882311F0299A0895299808951F920F9203
:104200000FB60F9211242F933F934F935F936F93A9
:104210007F938F939F93AF93BF93CF93DF93EF934E
:10422000FF9380918A0481117FC195B180919F0491
:1042300080729F7D892B85B985B18F7E90919E0478
:10424000892B85B980919D0486BD82E085BD81E082
:1042500080938A0478948091B1049091B204892B60
:1042600009F0A4C080918F0490918E04981709F4EE
:1042700092C0E0918F0486E0E89FF0011124ED5494
:10428000FB4FF093B204E093B10483819481909347
:10429000890080938800808191819093AD04809300
:1042A000AC04A2818091AE048A1771F1A093AE0490
:1042B00081E1A89FD0011124A952BB4FB093B00453
:1042C000A093AF041D968D919D910D90BC91A02D52
:1042D000B695A795979587958093900490939104B0
:1042E000A0939204B09393048093940490939504C4
:1042F000A0939604B09397048093980490939904A4
:10430000A0939A04B0939B04C091AF04D091B004E1
:1043100080918B049881892780939F0425818981CE
:104320009A81AB81BC81022E04C0B695A795979562
:1043300087950A94D2F78093A0049093A104A09348
:10434000A204B093A3048D819E81AF81B885022E13
:1043500004C0B695A795979587950A94D2F7809350
:10436000A4049093A504A093A604B093A704898500
:104370009A85AB85BC8504C0B695A795979587951A
:104380002A95D2F78093A8049093A904A093AA0435
:10439000B093AB040BC00E94CF209FB7F8948091DC
:1043A000A60584608093A6059FBFBEC00E94B41777
:1043B00010929E048091A0049091A104A091A20467
:1043C000B091A304409190045091910460919204A3
:1043D00070919304840F951FA61FB71F80939004BC
:1043E00090939104A0939204B0939304E091AF044E
:1043F000F091B0044585568567857089481759073F
:104400006A077B0768F520E120939E044585568561
:1044100067857089841B950BA60BB70B809390045E
:1044200090939104A0939204B0939304208180917F
:10443000A8059091A905A091AA05B091AB0525FF0B
:1044400004C00197A109B10903C00196A11DB11DC6
:104450008093A8059093A905A093AA05B093AB05F6
:104460008091A4049091A504A091A604B091A70402
:104470004091940450919504609196047091970432
:10448000840F951FA61FB71F8093940490939504E3
:10449000A0939604B09397048091A8049091A904E6
:1044A000A091AA04B091AB04409198045091990452
:1044B00060919A0470919B04840F951FA61FB71FEB
:1044C0008093980490939904A0939A04B0939B04CA
:1044D0008091A505843039F48091A70590919E04C0
:1044E000892380939E048091AC049091AD04019740
:1044F0009093AD048093AC04892B69F41092B204BC
:104500001092B10480918F048F5F80938F04863066
:1045100011F410928F0480918C0490919E0489274D
:1045200080939E0410928A04FF91EF91DF91CF91C6
:10453000BF91AF919F918F917F916F915F914F91BB
:104540003F912F910F900FBE0F901F9018951F92C3
:104550000F920FB60F9211248F939F9395B1809174
:104560008C0480719F7E892B85B915BC9F918F919A
:104570000F900FBE0F901F901895FF920F931F93EF
:10458000CF93DF9310928C0410928B04C0E0D0E0A4
:104590000C2F1C2F2091B40630E08C2F0C2E02C063
:1045A000359527950A94E2F720FF07C0F0908C0418
:1045B0000E94A8208F2980938C042091B50630E0BA
:1045C00002C0359527951A95E2F720FF08C0109193
:1045D0008B04802F0E94AA20812B80938B0421962C
:1045E000C330D105A9F6DF91CF911F910F91FF90B4
:1045F0000895CF93C1E0C09389040E94CF208BE23D
:10460000EAE5F4E0DF011D928A95E9F783E2E0E94B
:10461000F4E0DF011D928A95E9F710928804109268
:10462000870410928F0410928E04C0938D04109210
:104630008A040E94BD2285B18F7E90918C04892BC3
:1046400085B985B18F7D90918B04892B85B9CF91E8
:104650000895249A219A259AE1E8F0E080818F7EDE
:104660008083808188608083E0E8F0E080818C7FB7
:10467000808380818F708083EEE6F0E08081887F88
:10468000808314BC15BC8081816080830895CF93A2
:10469000DF93C0918704D09188042097B9F081E01E
:1046A00080935B0460917104709172048091730433
:1046B000909174049B01AC010E94F42D698B7A8B5C
:1046C0008B8B9C8B1092880410928704DF91CF9182
:1046D00008952F923F924F925F926F927F928F92A6
:1046E0009F92AF92BF92CF92DF92EF92FF920F9381
:1046F0001F93CF93DF93CDB7DEB7E5970FB6F8944E
:10470000DEBF0FBECDBF90918F0480918D049817AE
:1047100009F4E1C58091870490918804892B09F000
:1047200057C20E9404131C0190938804809387044D
:10473000009709F4D0C580915B041091A5058823EA
:1047400019F010925B04BDC080915A048F5F8530D0
:1047500019F080935A0402C010925A04E0915A044E
:1047600021E12E9FF0011124E952FB4FF0938604C2
:10477000E0938504D1018C91808311964D915D91D8
:104780006D917C91149703E0440F551F661F771FAE
:104790000A95D1F7418352836383748315964D91B3
:1047A0005D916D917C91189783E0440F551F661FB2
:1047B000771F8A95D1F7458356836783708719964B
:1047C0004D915D916D917C911C9793E0440F551F25
:1047D000661F771F9A95D1F7418752876387748741
:1047E0001D966D917D918D919C9150976B017C01EF
:1047F00023E0CC0CDD1CEE1CFF1C2A95D1F7C586EE
:10480000D686E786F08A0E94562C60935C047093EB
:104810005D0480935E0490935F04F10125A136A1AD
:1048200047A150A50E94BD2B9B01AC016093600481
:1048300070936104809362049093630460E070E07D
:1048400080EA9FE30E94BD2B60936404709365042B
:104850008093660490936704109268041092690430
:1048600010926A0410926B041032E1F460917904A2
:1048700070917A0480917B0490917C046093710420
:104880007093720480937304909374049B01AC0141
:104890000E94F42DD10151966D937D938D939C933D
:1048A00054970FC0F10161897289838994890E94AC
:1048B000812E6093710470937204809373049093BB
:1048C000740410926D0410926E0410926F04109292
:1048D0007004D10191968D909D90AD90BC9094976D
:1048E000A501940160E070E080E09FE30E94BD2B91
:1048F0002B013C01F101C5A0D6A0E7A0F0A4103225
:1049000009F04DC0F2E0F0936C04D10151962D9165
:104910003D914D915C9154972D833E834F835887F1
:104920000E94F42D9B01AC01C701B6010E94DC2A54
:104930002B013C0120E030E0A9010E94B62B87FF4B
:104940001DC0A5019401C501B4010E94DD2AA70183
:1049500096010E94F42D9B01AC016D817E818F81B7
:1049600098850E94DC2A0E94812E609379047093BE
:104970007A0480937B0490937C042AC140926D0456
:1049800050926E0460926F047092700410927904D9
:1049900010927A0410927B0410927C0419C1109238
:1049A0006C04C0927D04D0927E04E0927F04F09269
:1049B00080040E9414134B015C016093790470938E
:1049C0007A0480937B0490937C049B01AC010E9449
:1049D000F42D69837A838B839C83009187041091E3
:1049E0008804D80195962D913D914D915C919897B1
:1049F00029873A874B875C8751962D913D914D9140
:104A00005C9154972D833E834F8358879B01AC0163
:104A10006D817E818F8198850E94DC2A9B01AC018B
:104A2000C301B2010E94F42D9B01AC0169857A8516
:104A30008B859C850E94DD2A20E030E040E05FE32A
:104A40000E94F42D6B017C0120E030E0A9010E945E
:104A5000B92D18160CF0ACC029853A854B855C85BC
:104A6000C701B6010E94B62B87FF8EC0F801858C66
:104A7000968CA78CB0A029813A814B815C81C501BD
:104A8000B4010E94DC2A9B01AC01C301B2010E9467
:104A9000F42D609381047093820480938304909337
:104AA0008404A70196010E94B62B87FF3DC0C50173
:104AB000B4010E94812E60937504709376048093F4
:104AC000770490937804A50194016D817E818F8194
:104AD00098850E94B62B811104C0F1E0F0936C041C
:104AE00077C02D813E814F815885C501B4010E9458
:104AF000DC2A9B01AC01C301B2010E94F42D9B0191
:104B0000AC0160917D0470917E0480917F0490914E
:104B100080040E94DC2A60937D0470937E0480935D
:104B20007F049093800454C0C0927D04D0927E0490
:104B3000E0927F04F0928004C0928104D0928204BB
:104B4000E0928304F0928404D80191966D917D9156
:104B50008D919C9194979B01AC010E94DD2AA70145
:104B600096010E94F42D29813A814B815C810E943B
:104B7000DD2A0E94812E60937504709376048093E1
:104B800077049093780424C0B2E0B0936C048091D1
:104B9000710490917204A0917304B0917404809395
:104BA000750490937604A0937704B093780410C0B2
:104BB00010927D0410927E0410927F041092800463
:104BC0008092750490927604A0927704B092780453
:104BD00080918E04F6E0F89FF0011124ED54FB4F14
:104BE000FE83ED8380915A04828320918704309163
:104BF00088043E872D87D9019596BC91BCA7F90101
:104C0000F6A1FDA7D9019796BC91BEA7F901F0A521
:104C1000FFA720916404309165044091660450918F
:104C200067046CA57DA58B2F9F2F0E94DC2A68A7A7
:104C300079A78AA79BA720E030E0A9010E94B62BA4
:104C400087FF04C018A619A61AA61BA620917D04EA
:104C5000288F30917E04398F40917F044A8F509184
:104C600080045B8F809175048C8F909176049D8F6A
:104C7000A0917704AE8FB0917804BF8FE09181044A
:104C8000E8A3F0918204F9A3209183042AA3309130
:104C900084043BA340916D044CA350916E045DA32A
:104CA00080916F048EA3909170049FA3209179044A
:104CB00030917A0440917B0450917C0428AB39AB4D
:104CC0004AAB5BAB309171043983409172044987E0
:104CD000209073043090740450916C045F878CA50D
:104CE0008C8B9DA59D8BAEA5AE8BBFA5BF8B3EE3E8
:104CF000C32E33ECD32E3EEAE32E38E3F32E188A8C
:104D0000198A1A8A1B8A26013701EF85EE2321F0C2
:104D1000E13009F47CC0B1C0AD85BE8591962D917E
:104D20003D914D915C919497C701B6010E94F42D7D
:104D30004B015C0120E030E040E05FE30E94F42D95
:104D40009B01AC0169817985C1010E94DD2A9B012B
:104D5000AC01C701B6010E94F42D9B01AC016C8926
:104D60007D898E899F890E94DC2A8B018DAB9CAB4B
:104D7000288D398D4A8D5B8D0E94B62B87FF3FC0F1
:104D8000288D398D4A8D5B8D6CA57DA58EA59FA53F
:104D90000E94DC2A9B01AC010E94DD2A6B017C0190
:104DA0002C8D3D8D4E8D5F8D69817985C1010E946D
:104DB000DD2A9B01AC01C701B6010E94BD2B6B012E
:104DC0007C0128A139A14AA15BA1688D798D8A8DCA
:104DD0009B8D0E94B62B882319F0B1E0BF8702C0DB
:104DE000E2E0EF87FC8DF9832D8D29872E8C3F8C97
:104DF000088D198D3A8D3DAB4B8D4CABAFC0A501E5
:104E0000940169817985C1010E94DD2A7CC0A701D6
:104E100096016C8D7D8D8E8D9F8D0E94F42D9B0152
:104E2000AC016C897D898E899F890E94DC2A8B0167
:104E30008DAB9CAB28A139A14AA15BA10E94B62BE6
:104E400087FF8CC028A139A14AA15BA16C897D890B
:104E50008E899F890E94DC2A2C8D3D8D4E8D5F8D21
:104E60000E94BD2B6B017C0108A119A15AA15DAB69
:104E70008BA18CAB92E09F8771C0AD85BE8591966A
:104E80002D913D914D915C919497C701B6010E947F
:104E9000F42D4B015C019B01AC0169817985C10155
:104EA0000E94B92D18169CF520E030E040E05FE349
:104EB000C501B4010E94F42D9B01AC016981798583
:104EC000C1010E94DC2A9B01AC01C701B6010E940E
:104ED000F42D9B01AC016C897D898E899F890E948C
:104EE000DC2A8B018DAB9CAB2CA13DA14EA15FA117
:104EF0000E94B92D18165CF4A50194016981798589
:104F0000C1010E94DC2A698379871C0127C02CA17A
:104F10003DA14EA15FA16C897D898E899F890E94E8
:104F2000DC2A9B01AC010E94DD2A6B017C0128A9CF
:104F300039A94AA95BA969817985C1010E94DD2A45
:104F40009B01AC01C701B6010E94BD2B6B017C0126
:104F50000CA11DA1BEA1BDABEFA1ECABA7019601B9
:104F6000688979898A899B890E94DD2A688B798B77
:104F70008A8B9B8BA30192010E94B62B87FD5AC09E
:104F800028A539A54AA55BA5B8018DA99CA90E94B1
:104F9000B92D18160CF444C089819985D1018093EC
:104FA000710490937204A0937304B0937404FF850A
:104FB000F0936C044090600450906104609062042F
:104FC0007090630498014DA95CA9C301B2010E94CD
:104FD000F42D69837A838B839C830E94A32B6B01BE
:104FE0007C0160915C0470915D0480915E049091FD
:104FF0005F040E94A32B4B015C01A70196010E9454
:10500000DC2A0E942A2C69877A878B879C87E9850E
:10501000FA85AD81BE81ED93FC933097B1F15AC012
:105020002EE333EC4EEA58E3C301B2010E94DD2ABD
:105030002B013C01288939894A895B89C301B20166
:105040000E94DC2A6B017C012CA13DA14EA15FA135
:10505000B8018DA99CA90E94B92D18167CF08981F0
:105060009985D1018093710490937204A093730485
:10507000B09374043F8530936C049CCF0C8B1D8BD4
:105080004DA94E8B5CA95F8B40CE8091A5058032E7
:1050900009F5109271041092720410927304109228
:1050A0007404109268041092690410926A041092B9
:1050B0006B04C0925C04D0925D04E0925E04F092B6
:1050C0005F04A3019201C701B6010E94BD2BAD850B
:1050D000BE85EEC0209168043091690440916A0455
:1050E00050916B04688979898A899B890E94DD2A9D
:1050F0002B013C0129813A814B815C81C501B401BE
:105100000E94DC2A9B01AC01C301B2010E94BD2BAD
:105110004B015C0129813A814B815C81C701B60159
:105120000E94DC2AA50194010E94F42D609368047A
:105130007093690480936A0490936B0420EC31EEC1
:1051400044E65EE4C501B4010E94F42D0E94A32B45
:105150000E942A2C603DB7E07B078105910520F471
:10516000ED81FE81158231C0603AFFE07F07810545
:10517000910510F4E1E009C06034FFE17F0781058B
:10518000910510F4E2E001C0E3E0AD81BE81159627
:10519000EC93AD81BE8115962C911597022E04C01B
:1051A00096958795779567950A94D2F7E985FA855C
:1051B00002C0EE0FFF1F2A95E2F7ED93FC936115F5
:1051C0007105F1E08F07910538F4AD81BE81149629
:1051D0007C936E93139706C02FEF3FEFED81FE8116
:1051E0003483238380918D0480938E048F5F863077
:1051F00019F080938D0402C010928D0420916D04EB
:1052000030916E0440916F0450917004B8018DA9E3
:105210009CA90E94B92D1816C4F4E0918704F0915E
:105220008804C801ADA9BCA985A396A3A7A3B0A76C
:1052300089819A81AB81BC8180935C0490935D04E9
:10524000A0935E04B0935F045ECA20E030E0A90141
:10525000B8018DA99CA90E94B92D1816ACF5109221
:1052600071041092720410927304109274041092DC
:1052700068041092690410926A0410926B04C09240
:105280005C04D0925D04E0925E04F0925F040091B1
:10529000870410918804209160043091610440914A
:1052A000620450916304C701B6010E94BD2BD8016E
:1052B00095966D937D938D939C9398970E944B1632
:1052C00088E08093A50507C0109288041092870497
:1052D0000E94F01218CAE5960FB6F894DEBF0FBE12
:1052E000CDBFDF91CF911F910F91FF90EF90DF9095
:1052F000CF90BF90AF909F908F907F906F905F9076
:105300004F903F902F90089508951F93CF93DF9370
:10531000EC0110E0BE01812F0E940D1F811102C01F
:1053200087E009C08881882341F0CE010E9453168E
:10533000CE010E94EB040E94F9181F5F123051F752
:10534000DF91CF911F910895CF92DF92EF92FF925C
:105350001F93CF93DF93CDB7DEB729970FB6F8949D
:10536000DEBF0FBECDBF7C0181E08987F70181815F
:10537000833449F12CF4882341F0843249F049C048
:105380008734C1F08835A9F144C00E94901910C03B
:1053900082E08987F7018281882311F083E0FEC0D3
:1053A0008091A505807311F088E0F8C00E949419DF
:1053B00080E0F4C082E08987F70182818111EECF1D
:1053C0000E94DA1BF5CF82E08987F7019281911163
:1053D000E5CF9091A505923021F40E94C61085E09A
:1053E00005C09111E1CF8093A50584E00E94661964
:1053F000DFCF82E08987F70182818111CFCF809151
:10540000A5058130A9F683E00E9466191092A505D2
:10541000CFCF9091A505923038F6883491F01CF4E6
:10542000833231F059C08934C1F08E34B9F154C09F
:1054300082E08987F70182818111B0CF0E94491BE8
:10544000B7CF8091C00684FFA8C08091A4058111C8
:10545000AFCFC7010E948529ABCF82E08987F701D2
:105460008281811107C0C7010E942A1FC7010E94C3
:10547000341C9ECF8D3309F091CF83E0F701E80F04
:10548000F11D9081DF0113979C938F5F90819111A3
:10549000F5CF8987C7010E941E1E8ACF82E08987C7
:1054A000F7018281811114C010E0B701812F0E94A1
:1054B0000D1F811104C087E00E94F91804C0B701D4
:1054C000812F0E941A1C1F5F123009F471CFEDCF9B
:1054D00091116ACF11E001C010E0AE014B5F5F4F48
:1054E000BE01675F7F4FC7010E94E110811102C0BA
:1054F00082E054C0898521E0280F2987F701E80F51
:10550000F11D80818D3309F049CF112321F1822FC4
:1055100090E0E22FF0E0D701AE0FBF1F3C91E81BF7
:10552000F90BEE0DFF1D30832F5F3C913111F1CF50
:105530002987C7010E94EB04811130C06D817E81F3
:105540008F8198850E94C22E0E942A2C862FB70137
:105550000E94151E2DCFAE014F5F5F4FBE01675FEA
:105560007F4FC7010E94E110882311F28985F7015E
:10557000E80FF11D8081811111CFC980DA80EB80A5
:10558000FC806D817E818F8198850E942A2C862FD8
:10559000B701A6010E94741F01C085E029960FB6CD
:1055A000F894DEBF0FBECDBFDF91CF911F91FF906A
:1055B000EF90DF90CF9008955058BB27AA270ED0C8
:1055C00076C23FD230F044D220F031F49F3F11F444
:1055D0001EF40FC20EF4E095E7FBDCC1E92F89D27F
:1055E00080F3BA17620773078407950718F071F400
:1055F0009EF5B8C20EF4E0950B2EBA2FA02D0B012C
:10560000B90190010C01CA01A0011124FF27591B07
:1056100099F0593F50F4503E68F11A16F040A22F0D
:10562000232F342F4427585FF3CF4695379527957E
:10563000A795F0405395C9F77EF41F16BA0B620B7D
:10564000730B840BBAF09150A1F0FF0FBB1F661FC4
:10565000771F881FC2F70EC0BA0F621F731F841F07
:1056600048F4879577956795B795F7959E3F08F02D
:10567000B3CF9395880F08F09927EE0F97958795EC
:105680000895DFD158F080E891E009F49EEFE0D171
:1056900028F040E851E059F45EEF09C0AAC162C2A7
:1056A000E92FE07826D268F3092E052AC1F32617E0
:1056B00037074807590738F00E2E07F8E02569F03C
:1056C000E025E0640AC0EF6307F8009407FADB0105
:1056D000B9019D01DC01CA01AD01EF935DD0E7D1B5
:1056E0000AD05F91552331F02BED3FE049E450FDA6
:1056F00049EC63CF0895DF93DD27B92FBF7740E8EA
:105700005FE31616170648075B0710F4D92F35D24A
:105710009F938F937F936F9332D3ECEDF0E06CD136
:10572000C6D12F913F914F915F916AD2DD2349F00D
:105730009058A2EA2AED3FE049EC5FE3D0785D277C
:105740004DDFDF91B4C1F7D180F09F3740F4911164
:105750000EF409C260E070E080E89FE3089526F04F
:105760001B16611D711D811D1BC135C1EFD008F4D1
:1057700081E0089575D1E395ABC10CD098C168D193
:1057800040F05FD130F021F45F3F19F003C15111B7
:10579000EAC12FC1AED198F39923C9F35523B1F3D0
:1057A000951B550BBB27AA2762177307840738F090
:1057B0009F5F5F4F220F331F441FAA1FA9F333D0EF
:1057C0000E2E3AF0E0E830D091505040E695001CA3
:1057D000CAF729D0FE2F27D0660F771F881FBB1F5F
:1057E000261737074807AB07B0E809F0BB0B802D39
:1057F000BF01FF2793585F4F2AF09E3F510568F085
:10580000C9C0B1C15F3FECF3983EDCF38695779554
:105810006795B795F7959F5FC9F7880F911D969586
:10582000879597F90895E1E0660F771F881FBB1FE2
:10583000621773078407BA0720F0621B730B840B8F
:10584000BA0BEE1F88F7E095089504D06894B11163
:105850008AC1089556D188F09F5790F0B92F9927A3
:10586000B751A0F0D1F0660F771F881F991F1AF06B
:10587000BA95C9F712C0B13081F074D1B1E0089582
:1058800071C1672F782F8827B85F39F0B93FCCF303
:10589000869577956795B395D9F73EF49095809561
:1058A000709561957F4F8F4F9F4F0895E89409C081
:1058B00097FB3EF490958095709561957F4F8F4F43
:1058C0009F4F9923A9F0F92F96E9BB279395F69559
:1058D000879577956795B795F111F8CFFAF4BB0FD7
:1058E00011F460FF1BC06F5F7F4F8F4F9F4F16C03B
:1058F000882311F096E911C0772321F09EE8872FC5
:10590000762F05C0662371F096E8862F70E060E080
:105910002AF09A95660F771F881FDAF7880F9695F9
:10592000879597F9089507D180F09F3740F491113A
:105930000EF019C160E070E080E89FEB089526F456
:105940001B16611D711D811D2BC045C0990F0008DC
:10595000550FAA0BE0E8FEEF16161706E807F90741
:10596000C0F012161306E407F50798F0621B730BDC
:10597000840B950B39F40A2661F0232B242B252B5D
:1059800021F408950A2609F4A140A6958FEF811D00
:10599000811D089597F99F6780E870E060E00895A1
:1059A000882371F4772321F09850872B762F07C036
:1059B000662311F499270DC09051862B70E060E0AA
:1059C0002AF09A95660F771F881FDAF7880F969549
:1059D000879597F908959F3F31F0915020F487956E
:1059E00077956795B795880F911D9695879597F947
:1059F00008959FEF80EC0895DF93CF931F930F934B
:105A0000FF92EF92DF927B018C01689405C0DA2E41
:105A1000EF01F6D0FE01E894A591259135914591CD
:105A20005591AEF3EF01DADDFE019701A801DA949A
:105A300079F7DF90EF90FF900F911F91CF91DF9159
:105A4000089500240A9416161706180609060895E4
:105A500000240A9412161306140605060895C9CFE9
:105A600050D0E8F3E894E0E0BB279F57F0F02AED30
:105A70003FE049EC06C0EE0FBB0F661F771F881F83
:105A800028F0B23A62077307840728F0B25A620B13
:105A9000730B840BE3959A9572F7803830F49A95DE
:105AA000BB0F661F771F881FD2F7904896CF092E2D
:105AB0000394000C11F4882352F0BB0F40F4BF2B69
:105AC00011F460FF04C06F5F7F4F8F4F9F4F0895A9
:105AD000EF93E0FF06C0A2EA2AED3FE049EC5FEB5E
