:100000000C9440030C945D030C945D030C945D030D
:100010000C945D030C945D030C945D030C94100C24
:100020000C945D030C945D030C945D030C941E0E04
:100030000C945D030C945D030C945D030C945D03C0
:100040000C94C70F0C945D030C94470B0C94090B94
:100050000C945D030C945D030C945D030C945D03A0
:100060000C945D030C945D03D909E909070AE909B9
:100070000B0A2C0A110A170A1F0A301936193919E6
:100080003C19411949195319BA19BA19BA195B1906
:100090005D1966196F197719BA19BA19BA19BA1907
:1000A000BA197F19BA198919911994199D19A619A4
:1000B000AC19DC20DF20E420E720EA20ED20F0204E
:1000C000F320F620F920FC2008210821082108212E
:1000D00008210821082108210221FF2005213E0DC9
:1000E0000A002C52583A002C4275663A002C002C1B
:1000F00057506F733A002C002C4D506F733A003CF0
:10010000436865636B003C416C61726D003C486FF5
:100110006D65003C486F6C64003C52756E003C514C
:1001200075657565003C49646C65005D0D0A005B92
:10013000302E323A000D0A003D00244E005D0D0ABB
:10014000002046002054002047005B473830005B09
:100150004733005B4732005B4731005B4730005D4F
:100160000D0A005B544C4F3A005D0D0A002C005BF9
:100170004739323A005D0D0A002C003A0033300056
:100180003238005B47005D0D0A002C005B50524284
:100190003A00290D0A00206D61782074726176653D
:1001A0006C2C206465670020616363656C2C20649F
:1001B00065672F7365635E3200206D617820726120
:1001C00074652C206465672F736563002C2073743D
:1001D00065702F646567007A007900780020280038
:1001E0003D0024002028686F6D696E672070756C73
:1001F0006C2D6F66662C206D6D290D0A0020286815
:10020000617264206C696D6974732C20626F6F6C0D
:10021000290D0A2432323D002028736F6674206C49
:10022000696D6974732C20626F6F6C290D0A24321A
:10023000313D0020286175746F2073746172742CD5
:1002400020626F6F6C290D0A2432303D0020287225
:1002500065706F727420696E636865732C20626FBD
:100260006F6C290D0A2431343D002028617263200F
:10027000746F6C6572616E63652C20646567290D0F
:100280000A2431333D0020286A756E6374696F6EED
:1002900020646576696174696F6E2C2064656729D6
:1002A0000D0A2431323D00290D0A2431313D002050
:1002B00028737461747573207265706F7274206D29
:1002C00061736B3A00202870726F62652070696EEE
:1002D00020696E766572742C20626F6F6C290D0A2E
:1002E0002431303D0020286C696D69742070696E7E
:1002F0007320696E766572742C20626F6F6C290DA5
:100300000A24363D0020287374657020656E616292
:100310006C6520696E766572742C20626F6F6C2933
:100320000D0A24353D00290D0A24343D002028649F
:10033000697220706F727420696E76657274206DB8
:1003400061736B3A00290D0A24333D002028737431
:10035000657020706F727420696E76657274206D9E
:1003600061736B3A002028737465702069646C6552
:100370002064656C61792C206D736563290D0A24F6
:10038000323D002028737465702070756C73652C85
:100390002075736563290D0A24313D0024303D002A
:1003A00024242028766965772073657474696E67E4
:1003B00073290D0A2423202876696577202320706D
:1003C0006172616D6574657273290D0A2447202876
:1003D00076696577207061727365722073746174D9
:1003E00065290D0A24492028766965772062756998
:1003F0006C6420696E666F290D0A244E2028766988
:100400006577207374617274757020626C6F636BB2
:1004100073290D0A24783D76616C75652028736117
:1004200076652073657474696E67290D0A244E78A9
:100430003D6C696E65202873617665207374617206
:1004400074757020626C6F636B290D0A2443202839
:10045000636865636B2067636F6465206D6F6465B7
:10046000290D0A245820286B696C6C20616C61721C
:100470006D206C6F636B290D0A7E20286379636C95
:1004800065207374617274290D0A212028666565E0
:100490006420686F6C64290D0A3F202863757272AE
:1004A000656E7420737461747573290D0A637472B8
:1004B0006C2D7820287265736574290D0A000D0A69
:1004C000486F72757320302E32205B2724272066F8
:1004D0006F722068656C705D0D0A005D0D0A004446
:1004E000697361626C656400456E61626C6564008D
:1004F00043617574696F6E3A20556E6C6F636B65FE
:100500006400272448277C2724582720746F2075EF
:100510006E6C6F636B00526573657420746F20633B
:100520006F6E74696E7565005B000D0A0050726F26
:100530006265206661696C0041626F727420647547
:1005400072696E67206379636C6500486172642F1D
:10055000736F6674206C696D697400414C41524D33
:100560003A20000D0A00496E76616C696420676369
:100570006F64652049443A00556E646566696E652E
:10058000642066656564207261746500556E7375DC
:1005900070706F7274656420636F6D6D616E64005E
:1005A0004D6F64616C2067726F75702076696F6C37
:1005B0006174696F6E004C696E65206F7665726656
:1005C0006C6F7700486F6D696E67206E6F74206581
:1005D0006E61626C656400416C61726D206C6F636A
:1005E0006B004E6F742069646C6500454550524F36
:1005F0004D2072656164206661696C2E20557369B7
:100600006E672064656661756C74730056616C7505
:1006100065203C20332075736563005365747469ED
:100620006E672064697361626C65640056616C7505
:1006300065203C203000496E76616C6964207374DB
:100640006174656D656E7400426164206E756D62E3
:10065000657220666F726D617400457870656374B1
:10066000656420636F6D6D616E64206C6574746584
:1006700072006572726F723A20006F6B0D0A000093
:1006800011241FBECFEFD8E0DEBFCDBF11E0A0E048
:10069000B1E0E0ECF3E502C005900D92AE30B10799
:1006A000D9F716E0AEE0B1E001C01D92A53EB1075A
:1006B000E1F70E945F030C94DE290C9400000E9475
:1006C000D70A0E94C6190E9449100E94D2240E9493
:1006D000560C8EE1E7E3F5E0DF011D928A95E9F71C
:1006E00081E08093370578948091D40684FF03C01D
:1006F00081E080933805C1E00E949D0B0E94230594
:100700000E94A20B0E9496200E94181B0E941910A2
:100710000E944A1E0E943505109237051092390535
:100720008091D40681FF03C0C093470502C0109298
:1007300047050E94410DE0CFEF92FF921F93CF93A8
:10074000DF9300D000D0CDB7DEB77C01122F8091AF
:100750003805823021F149835A836B837C830E9460
:100760009F0C8091370581111AC00E94671B498137
:100770005A816B817C81882339F00E94340D498134
:100780005A816B817C81E7CF212FC7010E946F1BAB
:1007900080913805811103C088E0809338050F905F
:1007A0000F900F900F90DF91CF911F91FF90EF90DE
:1007B00008958F929F92AF92BF92CF92DF92EF9265
:1007C000FF924B015C0180913805823009F447C0EB
:1007D00020E030E040EA51E4C501B4010E947828ED
:1007E0000E947C270E9413276B017C010E94B20D9E
:1007F00020E030E04AE754E4C501B4010E947828C3
:100800004B015C0182E38C9DB0018D9D700D112424
:1008100080E090E00E943F279B01AC01C501B4013C
:100820000E942A260E947C270E941327CB010E9447
:100830003E1FC114D10499F00E949F0C21E0C21AFE
:10084000D1088091370581110AC08FEF90E722E02F
:10085000815090402040E1F700C00000EACFFF90B7
:10086000EF90DF90CF90BF90AF909F908F900895C2
:100870004F925F926F927F928F929F92AF92BF92B0
:10088000CF92DF92EF92FF920F931F93CF93DF935C
:1008900000D000D0CDB7DEB74C016A017B01722ECB
:1008A00080913805823009F49EC00E94B20D60909C
:1008B00047050E94A420882351F09FB7F8948091A7
:1008C00039058064809339059FBF0E949F0C8091F9
:1008D0003705811188C0272DB701A601C4010E94E8
:1008E0009C0381E0809348059FB7F8948091390577
:1008F0008260809339059FBF0E949F0C80913705CD
:10090000811171C080913805877FB1F780914805CA
:10091000813041F49FB7F8948091390580648093C9
:1009200039059FBF0E949F0C8091370581115BC0E4
:100930000E9419100E94181B0E944A1E09E415E02B
:1009400087E9A82E86E0B82E2401F8016191719103
:10095000819191918F01F5012191319141915191B5
:100960005F0129833A834B835C830E94412729815D
:100970003A814B815C810E94A626F20161937193BA
:10098000819391932F01F5E005351F07F1F6272D8F
:10099000B701A601C4010E949C039FB7F8948091FF
:1009A00039058260809339059FBF0E94B20D809106
:1009B0003705811118C0609247050F900F900F9076
:1009C0000F90DF91CF911F910F91FF90EF90DF90EB
:1009D000CF90BF90AF909F908F907F906F905F90DF
:1009E0004F900C9490220F900F900F900F90DF91EA
:1009F000CF911F910F91FF90EF90DF90CF90BF901C
:100A0000AF909F908F907F906F905F904F900895E0
:100A10008091390584FD16C09FB7F89480913905FF
:100A20008061809339059FBF80913805847351F0B0
:100A30009FB7F894809139058062809339059FBFF4
:100A40000C94EF0D08958EE3E5E5F5E0DF011D92CE
:100A50008A95E9F767E775E080E00E947F188111C9
:100A600003C087E00C94C3200895CF92DF92EF92E9
:100A7000FF920F931F93CF93DF9300D000D0CDB799
:100A8000DEB78BE3C82E85E0D82E97E9E92E96E0F5
:100A9000F92E0BE615E0F60161917191819191912A
:100AA0006F01F70121913191419151917F0129838A
:100AB0003A834B835C830E94412729813A814B8191
:100AC0005C810E94A626F8016193719381939193B2
:100AD0008F01F7E4CF16F5E0DF06E9F60F900F90EF
:100AE0000F900F90DF91CF911F910F91FF90EF909A
:100AF000DF90CF9008952F923F924F925F926F9226
:100B00007F928F929F92AF92BF92CF92DF92EF929D
:100B1000FF920F931F93CF93DF93CDB7DEB7A197CB
:100B20000FB6F894DEBF0FBECDBF5C018CE3E3E9E6
:100B3000F5E0DF011D928A95E9F78DE0E5E5F5E046
:100B4000A4E9B5E001900D928A95E1F71D8E00E0D1
:100B500010E0E12CF12C912C312CCC24C394D12C1D
:100B60008D8DF501E80FF11D90819E8F992309F479
:100B7000DCC09E8D91549A3108F0E0C48F5F8D8F58
:100B8000AE01475E5F4FBE01635E7F4FC5010E94AD
:100B90008C1E882309F4D4C4498C5A8C6B8C7C8CB1
:100BA000C301B2010E943D290E941327862E70E0E6
:100BB00080E090E00E9441279B01AC01C301B2019B
:100BC0000E942A2620E030E048EC52E40E94782877
:100BD0000E94DB280E941327BE8DB73419F0BD3464
:100BE000B9F059C0E1E08E1639F0F2E38F12B2C4C9
:100BF0002AE02093930508C03110A4C48092940584
:100C00002224239482E0382E6623B1F087E1ADC41C
:100C10006111FCCF82E1881689F18815D8F092E045
:100C2000891629F1A1E18A1629F1811093C421E0E6
:100C300020939B05B8E02B2EC601022C02C0880F22
:100C4000991F0A94E2F79C012E213F21232B01F1E9
:100C500085E18BC4B6E48B16A1F0E7E48E16A1F013
:100C6000F2E38F1277C491E09093A005E5CF8092D4
:100C70009B05E0CF81E080939F05DECF10929F051A
:100C8000DBCF10929E05D8CFA1E0A0939E05D4CFD4
:100C9000E82AF92A65CFBE8DB43579F0B83591F0E0
:100CA000B63409F057C44092A1055092A205609253
:100CB000A3057092A405212C11C08092C205A9E061
:100CC0002A2E0CC04092C3055092C4056092C505FF
:100CD0007092C605FAE02F2E99249394F601022C07
:100CE00002C0EE0FFF1F0A94E2F7FF8FEE8FCF01D5
:100CF00080239123892B09F027C481E693E0022CFD
:100D000002C0959587950A94E2F780FF09C020E01C
:100D100030E0A901C301B2010E94A22687FD16C4DA
:100D20008E8D9F8D082B192B1BCF992021F0311010
:100D300002C0E2E03E2E05FF0EC08091B205909108
:100D4000B305A091B405B091B50580389649A8497E
:100D5000B1050CF0FDC380919505813031F4F2E0CE
:100D60003F1232C000FFFCC32FC080915605811195
:100D70002BC000FF13C080919605813029F523E335
:100D800033E34BEC51E46091A1057091A205809191
:100D9000A3059091A4050E9478280EC020E030E0C1
:100DA00040E752E46091660570916705809168059F
:100DB000909169050E94A6266093A1057093A205F3
:100DC0008093A3059093A40510FD10C08091620547
:100DD00090916305A0916405B09165058093BE056F
:100DE0009093BF05A093C005B093C1058091930572
:100DF000813029F406FD02C08CE1B7C30F7B8091DE
:100E00009605813061F08CE0E7E7F5E0DE011D96A4
:100E100001900D928A95E1F7E7FC2DC034C073EC88
:100E2000A72E75E0B72EC12CD12C692C712CC301D3
:100E30000C2C02C0959587950A94E2F780FF10C0AC
:100E400023E333E34BEC51E4D5016D917D918D911A
:100E50009C910E947828F50160837183828393833B
:100E6000FFEFCF1ADF0A24E0A20EB11C83E0C81600
:100E7000D104E9F6C8CF80919A05873028F5909182
:100E80005B05981323C08090930592E0891629F0A2
:100E9000A8E08A1609F4D2C03DC1992009F48FC098
:100EA000C80180759927892B09F4A6CF6091B605F2
:100EB0007091B7058091B8059091B9050E943D29C0
:100EC0000E941327673058F08DE14FC3BE01635F66
:100ED0007F4F0E947F188111D6CF87E046C3809153
:100EE000B105843109F06DC00F7A662309F46FC033
:100EF00088248A94860EBE016F5F7F4F882D0E94E2
:100F00007F18882351F32090B10540908F055090B1
:100F100090056090910570909205FE0131966F01E9
:100F200063ECA62E65E0B62E8BE695E09F8F8E8F44
:100F3000E12CF12CA92DB0E0B9A3A8A388A199A117
:100F40000E2C02C0959587950A94E2F780FD42C069
:100F5000FFEFEF1AFF0A24E0C20ED11C84E0A80EB6
:100F6000B11CAE8DBF8D1496BF8FAE8FB3E0EB1664
:100F7000F10421F7F0909405E5E0FE1609F478C13C
:100F8000F2E03F12BAC1FF2009F475C120E030E061
:100F9000A9016091A1057091A2058091A30590918E
:100FA000A4050E94A226882309F4DAC221E0F216E1
:100FB00009F461C184E0F812A5C1911060C18AE111
:100FC000D4C2823009F0C6C207FDC4C28DCF809062
:100FD0009A0591CFB4E12B1226C0EE8DFF8D208DA6
:100FE000318D428D538D60817181828193810E9408
:100FF0002A26D5012D913D914D915C910E942A2682
:10100000F6016083718382839383F2E0EF12A0CFB5
:10101000A30192010E942A26D6016D937D938D93A0
:101020009C93139795CFF50180819181A281B38123
:10103000F60180839183A283B3838ACF992009F438
:10104000BECF40908F0550909005609091057090B4
:10105000920543ECE42E45E0F42E5BE6A52E55E028
:10106000B52EFE013D96FF8FEE8FC12CD12C892D20
:1010700090E099A388A388A199A10C2C02C0959512
:1010800087950A94E2F780FF27C0AE8DBF8D2D9122
:101090003D914D915C91F5016081718182819381D7
:1010A0000E942A26D7012D913D914D915C910E947D
:1010B0002A26F7016083718382839383F2E0CF1243
:1010C00015C0A30192010E942A26D7016D937D933A
:1010D0008D939C9313970AC0F501808D918DA28DFD
:1010E000B38DF70180839183A283B383FFEFCF1A7F
:1010F000DF0A24E0E20EF11C84E0A80EB11CAE8DE4
:10110000BF8D1496BF8FAE8FB3E0CB16D10409F01C
:10111000B2CFACC091100CC0E5E08E1609F494C0BB
:10112000F7E08F1609F49DC023E082129FC084C0AF
:101130002090970540908F05509090056090910504
:10114000709092052BE6A22E25E0B22E33ECE32E12
:1011500035E0F32ECE010D969F8F8E8FC12CD12CB2
:10116000A92DB0E0B9A3A8A388A199A10C2C02C015
:10117000959587950A94E2F780FD0BC0F501808173
:101180009181A281B381F70180839183A283B3838C
:101190003FC0F7E08F16E1F1211029C0D501589624
:1011A0002D913D914D915C915B97EE8DFF8D60810E
:1011B0007181828193810E942B26D7012D913D91CF
:1011C0004D915C910E942B26F7016083718382838D
:1011D0009383F2E0CF121CC0A30192010E942B2640
:1011E000D7016D937D938D939C93139711C0F50157
:1011F0002081318142815381D7016D917D918D9103
:101200009C910E942B26F7016083718382839383D4
:10121000FFEFCF1ADF0A24E0A20EB11C84E0E80E33
:10122000F11CAE8DBF8D1496BF8FAE8FB3E0CB1681
:10123000D10409F099CF70CF911001C0312CBE01BB
:101240006F5F7F4F86E007C0911001C0312CBE0157
:101250006F5F7F4F87E00E947F18882309F43DCE9F
:1012600005C080919405823008F076C1812C82CE31
:10127000911074C142C0911045C0312C40C02091E2
:10128000C3053091C4054091C5055091C6056091D4
:101290006B0570916C0580916D0590916E050E94B3
:1012A000A22681112FC02091C7053091C805409119
:1012B000C9055091CA0560916F05709170058091C4
:1012C0007105909172050E94A22681111BC0209188
:1012D000CB053091CC054091CD055091CE05609164
:1012E00073057091740580917505909176050E9443
:1012F000A226811107C081E238C1311003C00E7DE2
:101300001C7F02C00E7D107E012B09F02BC1809145
:1013100095058093560520E030E040E752E4609167
:10132000A1057091A2058091A3059091A4050E944A
:10133000782860936605709367058093680590939D
:1013400069058091C20580936A058091930581307B
:1013500051F46091B6057091B7058091B8059091F0
:10136000B9050E94D9038091980580935905809111
:101370009A0590915B05981759F080935B058CE076
:10138000FE013D96A7E7B5E001900D928A95E1F741
:1013900080919705809358058091930590E0FC011A
:1013A0003297E930F10508F057C0EC5CFF4F0C9420
:1013B0008429BE016F5F7F4F882D0E946117809145
:1013C0005B05881149C08CE0FE013196A7E7B5E0C6
:1013D00019C0332049F020E040E050E060E87FEBA6
:1013E00083EC95E00E949C0320E040E050E060E840
:1013F0007FEBCE0101960E949C038CE0FE013196AA
:10140000ABE6B5E001900D928A95E1F725C06BE659
:1014100075E086E003C06BE675E087E00E94611727
:101420001BC08CE0E3ECF5E0A3E8B5E0EBCF8CE08B
:10143000E3E8F5E0DF011D928A95E9F70DC08CE045
:10144000EBE3F5E0DF011D928A95E9F70E94181B96
:101450000E944A1E0E94350580919405809355058F
:10146000B2E03B1231C08130C1F088F0843019F510
:101470004091660550916705609168057091690516
:101480002091560583EC95E00E94380414C020E0BA
:1014900040E050E060E87FEB0AC040916605509163
:1014A000670560916805709169052091560583EC88
:1014B00095E00E949C038CE0E3ECF5E0ABE6B5E040
:1014C00001900D928A95E1F780919B0580935C05D0
:1014D000882369F00E94B20D1092470580915C0547
:1014E000823019F40E94080502C010925C056091D8
:1014F0009E0560935F0570E08091C20590E00E94B8
:10150000F30B80919F0580936005813039F480E072
:1015100090E00E94EC0D0E94CC0D06C081E090E0AE
:101520000E94EC0D0E94EF0D8091A0058130E1F446
:101530008091C20590E00E947F0C16C081E015C02A
:1015400082E013C088E111C089E10FC084E00DC0C2
:101550008BE10BC084E109C08EE107C08FE105C0BB
:1015600086E103C084E201C080E0A1960FB6F89442
:10157000DEBF0FBECDBFDF91CF911F910F91FF90C6
:10158000EF90DF90CF90BF90AF909F908F907F9023
:101590006F905F904F903F902F9008959091100121
:1015A00080911101891708F48058891B0895E0EC97
:1015B000F0E08081826080831092C50080E180939A
:1015C000C400E1ECF0E080818061808380818860EC
:1015D00080838081806880830895E0910F0191E08D
:1015E0009E0F903409F490E020910E01921305C0F3
:1015F0002091390524FFF8CF0895F0E0E153FA4F28
:10160000808390930F018091C10080628093C1001C
:1016100008951F920F920FB60F9211248F939F93EC
:10162000EF93FF9380910E01E82FF0E0E153FA4F22
:1016300090819093C6008F5F803409F480E080939E
:101640000E0190910F01891305C08091C1008F7D1B
:101650008093C100FF91EF919F918F910F900FBEEA
:101660000F901F901895909110018091110189178A
:1016700061F0E92FF0E0E15FF94F80819F5F9038E2
:1016800009F490E09093100108958FEF08951F9250
:101690000F920FB60F9211242F933F934F935F93A6
:1016A0006F937F938F939F93AF93BF93EF93FF932A
:1016B0008091C6008132B1F028F48831E1F40E94B3
:1016C00008052AC08F3341F08E37A9F49FB7F894EC
:1016D0008091390582600BC09FB7F89480913905DD
:1016E000816005C09FB7F894809139058860809328
:1016F00039059FBF11C0E091110191E09E0F903814
:1017000009F490E020911001921731F0F0E0E15FD0
:10171000F94F808390931101FF91EF91BF91AF91A9
:101720009F918F917F916F915F914F913F912F91F9
:101730000F900FBE0F901F9018958091110180930C
:10174000100108958AB18C638AB98BB1837C8BB9FF
:10175000F8941092B20083EF8093B30082E08093FC
:10176000B00086E08093B100E0E7F0E08081826025
:101770008083789408959BB1982B9BB908959BB171
:10178000809589238BB90895EF92FF920F931F9351
:10179000CF93DF931F92CDB7DEB78430E0F4E82E0D
:1017A000F12CF701EA5FFE4F80818823A1F08701C9
:1017B0000D56194F613039F469830E94BB0B698162
:1017C000F801608308C00E94BF0BF8011082F70186
:1017D000E157F94F10820F90DF91CF911F910F9138
:1017E000FF90EF900895CF93DF9300D0CDB7DEB791
:1017F00090913805923079F06A8389830E94340D84
:101800000E94B20D6A81898181500F900F90DF9103
:10181000CF910C94C40B0F900F90DF91CF9108954E
:101820001F920F920FB60F9211242F933F934F9355
:101830005F936F937F938F939F93AF93BF93CF9358
:10184000DF93EF93FF93809112018F5F80931201DA
:10185000811119C0C0E0D0E08C2FFE01ED56F94F88
:101860009081FE01E157F94F992319F090819F5F14
:10187000908390819F3F19F460E00E94C40B2196F1
:10188000C430D10549F7FF91EF91DF91CF91BF911E
:10189000AF919F918F917F916F915F914F913F9108
:1018A0002F910F900FBE0F901F901895EAE7F0E070
:1018B000808187608083ACE7B0E08C9180648C93FA
:1018C0008081806880838081806480830895909186
:1018D0007C00907F90937C0090917C00982B90935B
:1018E0007C0080917A00806480937A0080917A00F5
:1018F00086FDFCCF80917800909179000895CF9378
:10190000DF9300D000D01F92CDB7DEB70E94670CE6
:101910004AE050E0BE016F5F7F4F0E949929CE01DF
:1019200001960E94491F8AE091E00E94491F0F9092
:101930000F900F900F900F90DF91CF910895CF935C
:10194000C0913905CC2309F486C08C2F807639F1FB
:1019500081E080933805C6FF17C0C5FF02C08FEF36
:1019600001C08DEF0E94162181E00E9435219FB7B2
:10197000F894809139058F7E809339059FBF8091BF
:10198000390584FFFCCF03C08EEF0E9416219FB75C
:10199000F894809139058F79809339059FBFC4FFF2
:1019A00004C081E0809337055DC0C0FF0AC00E947B
:1019B000D5239FB7F894809139058E7F80933905A0
:1019C0009FBFC3FF15C080913805803149F480E284
:1019D000809338050E9467100E9489101092470575
:1019E0009FB7F89480913905877F809339059FBF11
:1019F000C1FF1DC080913805883089F480E1809353
:101A000038050E9489100E94CC0D8091D40681FF78
:101A100004C081E08093470502C0109247059FB73C
:101A2000F894809139058D7F809339059FBFC2FF5F
:101A300012C00E943D1B892B21F088E0809338055D
:101A400002C0109238059FB7F894809139058B7FBA
:101A5000809339059FBF80913805847319F0CF9129
:101A60000C948910CF91089580914705882341F007
:101A70009FB7F894809139058260809339059FBFA4
:101A80000895CF93DF930E945B21809138058130C8
:101A900021F482E00E94352121C01092380583E1B3
:101AA00091E00E94D3241AC08D3069F0DD2391F1BA
:101AB000D1E0893209F4D0E00E94330B8F3F09F462
:101AC00045C08A3089F7EC2FF0E0ED5EFE4F1082C2
:101AD0000E949F0C80913705882311F0C0E0EBCF66
:101AE00080911301811104C08CE00E94C320F6CFC5
:101AF000843229F483E191E00E94F224F6CF8091B0
:101B00003805813011F489E0F0CF83E191E00E9443
:101B10007B05EBCF813280F28F3271F28832A1F0F7
:101B2000CF3428F08BE00E94C320C0E0C5CF2C2F1B
:101B300030E0CF5F9FE9980FF901ED5EFE4F9A31DB
:101B400008F480528083B8CFD1E0B6CF0E94340D24
:101B50000E949F0C80913705882309F4ADCFDF9157
:101B6000CF9108950E94340D80913805803171F431
:101B700081E0809347050AC080913805803159F48F
:101B80000E949F0C80913705811105C00E943D1B6A
:101B9000892BB1F7F1CF08958091D40682FF02C05E
:101BA000299A01C02998809138058471A1F080910B
:101BB00094018093A801809195018093A701809161
:101BC000C706880F845081958093A60180916F008D
:101BD000826080936F0008958093920108958091B0
:101BE0006F008D7F80936F0080918100887F81607E
:101BF00080938100109293018091CA068F3F21F457
:101C00009091390595FF09C090913805943029F0DD
:101C100090E00E943E1F81E001C080E0909192011F
:101C2000992359F09091D40692FF02C091E0892740
:101C3000882311F0299A0895299808951F920F92E8
:101C40000FB60F9211242F933F934F935F936F938F
:101C50007F938F939F93AF93BF93CF93DF93EF9334
:101C6000FF938091930181117FC195B18091A8016B
:101C700080729F7D892B85B985B18F7E9091A70158
:101C8000892B85B98091A60186BD82E085BD81E062
:101C90008093930178948091BA019091BB01892B34
:101CA00009F0A4C08091980190919701981709F4C8
:101CB00092C0E091980186E0E89FF0011124E4547D
:101CC000FE4FF093BB01E093BA018381948190931E
:101CD000890080938800808191819093B6018093E0
:101CE000B501A2818091B7018A1771F1A093B70164
:101CF00081E1A89FD0011124A052BE4FB093B90139
:101D0000A093B8011D968D919D910D90BC91A02D31
:101D1000B695A795979587958093990190939A0189
:101D2000A0939B01B0939C0180939D0190939E0191
:101D3000A0939F01B093A0018093A1019093A20171
:101D4000A093A301B093A401C091B801D091B901AF
:101D500080919401988189278093A80125818981A8
:101D60009A81AB81BC81022E04C0B695A795979548
:101D700087950A94D2F78093A9019093AA01A09322
:101D8000AB01B093AC018D819E81AF81B885022EED
:101D900004C0B695A795979587950A94D2F7809336
:101DA000AD019093AE01A093AF01B093B0018985CE
:101DB0009A85AB85BC8504C0B695A7959795879500
:101DC0002A95D2F78093B1019093B201A093B30109
:101DD000B093B4010BC00E94EF0D9FB7F8948091AF
:101DE00039058460809339059FBFBEC00E94AA2038
:101DF0001092A7018091A9019091AA01A091AB0135
:101E0000B091AC014091990150919A0160919B0170
:101E100070919C01840F951FA61FB71F8093990195
:101E200090939A01A0939B01B0939C01E091B8011B
:101E3000F091B9014585568567857089481759071E
:101E40006A077B0768F520E12093A7014585568541
:101E500067857089841B950BA60BB70B809399013E
:101E600090939A01A0939B01B0939C012081809153
:101E70003B0590913C05A0913D05B0913E0525FFA5
:101E800004C00197A109B10903C00196A11DB11DAC
:101E900080933B0590933C05A0933D05B0933E0590
:101EA0008091AD019091AE01A091AF01B091B001D0
:101EB00040919D0150919E0160919F017091A00100
:101EC000840F951FA61FB71F80939D0190939E01BD
:101ED000A0939F01B093A0018091B1019091B201B4
:101EE000A091B301B091B4014091A1015091A20120
:101EF0006091A3017091A401840F951FA61FB71FC5
:101F00008093A1019093A201A093A301B093A40197
:101F100080913805843039F480913A059091A70179
:101F200089238093A7018091B5019091B601019713
:101F30009093B6018093B501892B69F41092BB018F
:101F40001092BA01809198018F5F8093980186303A
:101F500011F410929801809195019091A701892721
:101F60008093A70110929301FF91EF91DF91CF91A0
:101F7000BF91AF919F918F917F916F915F914F91A1
:101F80003F912F910F900FBE0F901F9018951F92A9
:101F90000F920FB60F9211248F939F9395B180915A
:101FA000950180719F7E892B85B915BC9F918F917A
:101FB0000F900FBE0F901F901895FF920F931F93D5
:101FC000CF93DF931092950110929401C0E0D0E07E
:101FD0000C2F1C2F2091C80630E08C2F0C2E02C035
:101FE000359527950A94E2F720FF07C0F0909501F8
:101FF0000E94F9198F29809395012091C90630E03C
:1020000002C0359527951A95E2F720FF08C0109178
:102010009401802F0E94FB19812B809394012196BB
:10202000C330D105A9F6DF91CF911F910F91FF9099
:102030000895CF93C1E0C09392010E94EF0D8BE20F
:10204000E3E6F1E0DF011D928A95E9F783E2E9E931
:10205000F1E0DF011D928A95E9F71092910110924B
:1020600090011092980110929701C09396011092DE
:1020700093010E94DD0F85B18F7E90919501892B90
:1020800085B985B18F7D90919401892B85B9CF91C8
:102090000895249A219A259AE1E8F0E080818F7EC4
:1020A0008083808188608083E0E8F0E080818C7F9D
:1020B000808380818F708083EEE6F0E08081887F6E
:1020C000808314BC15BC8081816080830895CF9388
:1020D000DF93C0919001D09191012097B9F081E0F8
:1020E0008093640160917A0170917B0180917C0101
:1020F00090917D019B01AC010E947828698B7A8BBD
:102100008B8B9C8B1092910110929001DF91CF915B
:1021100008952F923F924F925F926F927F928F928B
:102120009F92AF92BF92CF92DF92EF92FF920F9366
:102130001F93CF93DF93CDB7DEB7E5970FB6F89433
:10214000DEBF0FBECDBF9091980180919601981788
:1021500009F4E1C58091900190919101892B09F0DA
:1021600057C20E943D1B1C019093910180939001E6
:10217000009709F4D0C58091640110913805882337
:1021800019F010926401BDC0809163018F5F8530AA
:1021900019F08093630102C010926301E091630122
:1021A00021E12E9FF0011124E052FE4FF0938F01A8
:1021B000E0938E01D1018C91808311964D915D91B8
:1021C0006D917C91149703E0440F551F661F771F94
:1021D0000A95D1F7418352836383748315964D9199
:1021E0005D916D917C91189783E0440F551F661F98
:1021F000771F8A95D1F74583568367837087199631
:102200004D915D916D917C911C9793E0440F551F0A
:10221000661F771F9A95D1F7418752876387748726
:102220001D966D917D918D919C9150976B017C01D4
:1022300023E0CC0CDD1CEE1CFF1C2A95D1F7C586D3
:10224000D686E786F08A0E943F27609365017093E7
:1022500066018093670190936801F10125A136A181
:1022600047A150A50E94A6269B01AC01609369017D
:1022700070936A0180936B0190936C0160E070E051
:1022800080EA9FE30E94A62660936D0170936E0121
:1022900080936F01909370011092710110927201FE
:1022A00010927301109274011032E1F46091820176
:1022B00070918301809184019091850160937A01EE
:1022C00070937B0180937C0190937D019B01AC0115
:1022D0000E947828D10151966D937D938D939C93A4
:1022E00054970FC0F10161897289838994890E9492
:1022F000FF2860937A0170937B0180937C01909317
:102300007D0110927601109277011092780110925F
:102310007901D10191968D909D90AD90BC9094974C
:10232000A501940160E070E080E09FE30E94A62692
:102330002B013C01F101C5A0D6A0E7A0F0A410320A
:1023400009F04DC0F2E0F0937501D10151962D9145
:102350003D914D915C9154972D833E834F835887D7
:102360000E9478289B01AC01C701B6010E942A2671
:102370002B013C0120E030E0A9010E94A22687FF4A
:102380001DC0A5019401C501B4010E942B26A7011F
:1023900096010E9478289B01AC016D817E818F811E
:1023A00098850E942A260E94FF28609382017093DC
:1023B000830180938401909385012AC14092760124
:1023C00050927701609278017092790110928201A7
:1023D00010928301109284011092850119C110920C
:1023E0007501C0928601D0928701E0928801F09237
:1023F00089010E944D1B4B015C0160938201709327
:10240000830180938401909385019B01AC010E941C
:10241000782869837A838B839C8300919001109143
:102420009101D80195962D913D914D915C91989790
:1024300029873A874B875C8751962D913D914D9125
:102440005C9154972D833E834F8358879B01AC0149
:102450006D817E818F8198850E942A269B01AC0127
:10246000C301B2010E9478289B01AC0169857A857D
:102470008B859C850E942B2620E030E040E05FE3C6
:102480000E9478286B017C0120E030E0A9010E94C5
:10249000442818160CF0ACC029853A854B855C851C
:1024A000C701B6010E94A22687FF8EC0F801858C65
:1024B000968CA78CB0A029813A814B815C81C501A3
:1024C000B4010E942A269B01AC01C301B2010E9403
:1024D000782860938A0170938B0180938C0190938C
:1024E0008D01A70196010E94A22687FF3DC0C5016C
:1024F000B4010E94FF2860937E0170937F01809356
:10250000800190938101A50194016D817E818F816D
:1025100098850E94A226811104C0F1E0F093750114
:1025200077C02D813E814F815885C501B4010E943D
:102530002A269B01AC01C301B2010E9478289B01AD
:10254000AC01609186017091870180918801909122
:1025500089010E942A2660938601709387018093E7
:1025600088019093890154C0C0928601D09287015E
:10257000E0928801F0928901C0928A01D0928B0189
:10258000E0928C01F0928D01D80191966D917D9130
:102590008D919C9194979B01AC010E942B26A701E1
:1025A00096010E94782829813A814B815C810E94A2
:1025B0002B260E94FF2860937E0170937F018093F9
:1025C00080019093810124C0B2E0B09375018091A5
:1025D0007A0190917B01A0917C01B0917D01809363
:1025E0007E0190937F01A0938001B093810110C080
:1025F0001092860110928701109288011092890131
:1026000080927E0190927F01A0928001B092810120
:1026100080919701F6E0F89FF0011124E454FE4FF9
:10262000FE83ED838091630182832091900130913C
:1026300091013E872D87D9019596BC91BCA7F901E0
:10264000F6A1FDA7D9019796BC91BEA7F901F0A507
:10265000FFA720916D0130916E0140916F01509163
:1026600070016CA57DA58B2F9F2F0E942A2668A73D
:1026700079A78AA79BA720E030E0A9010E94A226A3
:1026800087FF04C018A619A61AA61BA620918601CA
:10269000288F30918701398F409188014A8F50915E
:1026A00089015B8F80917E018C8F90917F019D8F3E
:1026B000A0918001AE8FB0918101BF8FE0918A011E
:1026C000E8A3F0918B01F9A320918C012AA330910A
:1026D0008D013BA3409176014CA3509177015DA3FE
:1026E000809178018EA3909179019FA3209182011E
:1026F00030918301409184015091850128AB39AB21
:102700004AAB5BAB30917A01398340917B014987B9
:1027100020907C0130907D01509175015F878CA5E0
:102720008C8B9DA59D8BAEA5AE8BBFA5BF8B3EE3CD
:10273000C32E33ECD32E3EE2E32E39E3F32E188A78
:10274000198A1A8A1B8A26013701EF85EE2321F0A8
:10275000E13009F47CC0B1C0AD85BE8591962D9164
:102760003D914D915C919497C701B6010E947828E4
:102770004B015C0120E030E040E05FE30E947828FC
:102780009B01AC0169817985C1010E942B269B01C7
:10279000AC01C701B6010E9478289B01AC016C898D
:1027A0007D898E899F890E942A268B018DAB9CABE7
:1027B000288D398D4A8D5B8D0E94A22687FF3FC0F0
:1027C000288D398D4A8D5B8D6CA57DA58EA59FA525
:1027D0000E942A269B01AC010E942B266B017C01E2
:1027E0002C8D3D8D4E8D5F8D69817985C1010E9453
:1027F0002B269B01AC01C701B6010E94A6266B01E6
:102800007C0128A139A14AA15BA1688D798D8A8DAF
:102810009B8D0E94A226882319F0B1E0BF8702C0D9
:10282000E2E0EF87FC8DF9832D8D29872E8C3F8C7C
:10283000088D198D3A8D3DAB4B8D4CABAFC0A501CA
:10284000940169817985C1010E942B267CC0A70172
:1028500096016C8D7D8D8E8D9F8D0E9478289B01B9
:10286000AC016C897D898E899F890E942A268B0103
:102870008DAB9CAB28A139A14AA15BA10E94A226E5
:1028800087FF8CC028A139A14AA15BA16C897D89F1
:102890008E899F890E942A262C8D3D8D4E8D5F8DBD
:1028A0000E94A6266B017C0108A119A15AA15DAB6B
:1028B0008BA18CAB92E09F8771C0AD85BE85919650
:1028C0002D913D914D915C919497C701B6010E9465
:1028D00078284B015C019B01AC0169817985C101BC
:1028E0000E94442818169CF520E030E040E05FE3A9
:1028F000C501B4010E9478289B01AC0169817985EA
:10290000C1010E942A269B01AC01C701B6010E94A9
:1029100078289B01AC016C897D898E899F890E94F2
:102920002A268B018DAB9CAB2CA13DA14EA15FA1B2
:102930000E94442818165CF4A501940169817985E8
:10294000C1010E942A26698379871C0127C02CA116
:102950003DA14EA15FA16C897D898E899F890E94CE
:102960002A269B01AC010E942B266B017C0128A921
:1029700039A94AA95BA969817985C1010E942B26E1
:102980009B01AC01C701B6010E94A6266B017C0128
:102990000CA11DA1BEA1BDABEFA1ECABA70196019F
:1029A000688979898A899B890E942B26688B798B13
:1029B0008A8B9B8BA30192010E94A22687FD5AC09D
:1029C00028A539A54AA55BA5B8018DA99CA90E9497
:1029D000442818160CF444C089819985D10180934C
:1029E0007A0190937B01A0937C01B0937D01FF85D8
:1029F000F09375014090690150906A0160906B01FD
:102A000070906C0198014DA95CA9C301B2010E94AC
:102A1000782869837A838B839C830E948F266B013D
:102A20007C016091650170916601809167019091D0
:102A300068010E948F264B015C01A70196010E944C
:102A40002A260E94132769877A878B879C87E985C6
:102A5000FA85AD81BE81ED93FC933097B1F15AC0F8
:102A60002EE333EC4EE259E3C301B2010E942B2660
:102A70002B013C01288939894A895B89C301B2014C
:102A80000E942A266B017C012CA13DA14EA15FA1D1
:102A9000B8018DA99CA90E94442818167CF0898150
:102AA0009985D10180937A0190937B01A0937C0159
:102AB000B0937D013F85309375019CCF0C8B1D8BAE
:102AC0004DA94E8B5CA95F8B40CE8091380580323A
:102AD00009F510927A0110927B0110927C011092FC
:102AE0007D01109271011092720110927301109287
:102AF0007401C0926501D0926601E0926701F09284
:102B00006801A3019201C701B6010E94A626AD8506
:102B1000BE85EEC020917101309172014091730128
:102B200050917401688979898A899B890E942B2632
:102B30002B013C0129813A814B815C81C501B401A3
:102B40000E942A269B01AC01C301B2010E94A62665
:102B50004B015C0129813A814B815C81C701B6013F
:102B60000E942A26A50194010E9478286093710191
:102B700070937201809373019093740120EC31EE95
:102B800044E65EE4C501B4010E9478280E948F26C5
:102B90000E941327603DB7E07B078105910520F473
:102BA000ED81FE81158231C0603AFFE07F0781052B
:102BB000910510F4E1E009C06034FFE17F07810571
:102BC000910510F4E2E001C0E3E0AD81BE8115960D
:102BD000EC93AD81BE8115962C911597022E04C001
:102BE00096958795779567950A94D2F7E985FA8542
:102BF00002C0EE0FFF1F2A95E2F7ED93FC936115DB
:102C00007105F1E08F07910538F4AD81BE8114960E
:102C10007C936E93139706C02FEF3FEFED81FE81FB
:102C20003483238380919601809397018F5F863050
:102C300019F08093960102C01092960120917601BE
:102C4000309177014091780150917901B8018DA9B7
:102C50009CA90E9444281816C4F4E0919001F091B8
:102C60009101C801ADA9BCA985A396A3A7A3B0A74C
:102C700089819A81AB81BC818093650190936601C3
:102C8000A0936701B09368015ECA20E030E0A9011B
:102C9000B8018DA99CA90E9444281816ACF5109281
:102CA0007A0110927B0110927C0110927D011092AA
:102CB0007101109272011092730110927401C0920E
:102CC0006501D0926601E0926701F092680100917F
:102CD0009001109191012091690130916A01409118
:102CE0006B0150916C01C701B6010E94A626D80164
:102CF00095966D937D938D939C9398970E94841ED7
:102D000088E08093380507C01092910110929001DD
:102D10000E94291B18CAE5960FB6F894DEBF0FBEB5
:102D2000CDBFDF91CF911F910F91FF90EF90DF907A
:102D3000CF90BF90AF909F908F907F906F905F905B
:102D40004F903F902F900895F999FECF92BD81BD8D
:102D500081E08FBB80B50895F894F999FECF92BDBC
:102D600081BD81E08FBB40B54627842F992787FD21
:102D70009095262F30E082239323892B39F06F3FE3
:102D800019F060BD84E006C084E104C0442321F052
:102D900060BD84E28FBBF99A789408959F92AF92B8
:102DA000BF92CF92DF92EF92FF920F931F93CF9338
:102DB000DF938C017A016B01C40ED51EEB01912CBF
:102DC0005C01A61AB70ACE018A0D9B1DCC15DD0544
:102DD00091F0911009C0692D772767FD7095272F15
:102DE000221F2227221F01C021E06991922E960EF8
:102DF0000E94AC16E8CF692DC8018E0D9F1DDF9192
:102E0000CF911F910F91FF90EF90DF90CF90BF90E7
:102E1000AF909F900C94AC169F92AF92BF92CF92BE
:102E2000DF92EF92FF920F931F93CF93DF938B016B
:102E30007A016C01C40ED51EEC01912C5B01A81A1D
:102E4000B90AC5018C0F9D1FCC15DD0591F00E94BC
:102E5000A416911009C0292D332727FD3095232F63
:102E6000221F2227221F01C021E0922E980E899353
:102E7000E8CFC8018E0D9F1D0E94A41621E030E00E
:102E8000981611F020E030E0C901DF91CF911F9139
:102E90000F91FF90EF90DF90CF90BF90AF909F90F9
:102EA000089521E5829FC001112440E550E09D5F17
:102EB0000C94CE1640E550E0BC018EEA93E00C94F1
:102EC000CE162DE0829FC00111244CE050E09E5FA1
:102ED0000C94CE1661E080E090E00E94AC164DE4C8
:102EE00050E067E976E081E090E00C94CE168AE04D
:102EF0008093C70689E18093CA061092C80686E0CF
:102F00008093C90683E08093CB068AE097EDA3EA1D
:102F1000BCE38093CC069093CD06A093CE06B093ED
:102F2000CF068FE692E1A3E0BBE38093D0069093B7
:102F3000D106A093D206B093D3061092D50680E0B6
:102F400090E0A8ECB1E48093D6069093D706A093C6
:102F5000D806B093D90680E090E0AAEFB3E480935E
:102F6000DA069093DB06A093DC06B093DD068AEFC9
:102F700090E09093DF068093DE0680E090E0A0E88A
:102F8000BFE38093E0069093E106A093E206B0933E
:102F9000E30682E08093D40684EE98E3AEE0B1E4E9
:102FA0008093970690939806A0939906B0939A06FB
:102FB00080939B0690939C06A0939D06B0939E06DB
:102FC00080939F069093A006A093A106B093A206BB
:102FD00080E090ECA8E2B6E48093A3069093A40668
:102FE000A093A506B093A6068093A7069093A80683
:102FF000A093A906B093AA068093AB069093AC0663
:10300000A093AD06B093AE0680E094E3AEE1B9E4E0
:103010008093AF069093B006A093B106B093B2062A
:103020008093B3069093B406A093B506B093B6060A
:103030008093B7069093B806A093B906B093BA06EA
:1030400080E090E0A7E8B4EC8093BB069093BC06C8
:10305000A093BD06B093BE068093BF069093C006B2
:10306000A093C106B093C2068093C3069093C40692
:10307000A093C506B093C6060C946A1760E080E082
:1030800093E00E94AC1660E081E593E00C94AC16EE
:1030900060E08EEA93E00C94AC161F93CF93DF931D
:1030A000182FEB0181E5189FB00111247D5F40E5E9
:1030B00050E0CE010E940C17892B39F41882BE0112
:1030C000812F0E94511780E001C081E0DF91CF91F4
:1030D0001F910895CF93DF93EC0140E550E06EEA35
:1030E00073E00E940C17892B31F41882CE010E94E4
:1030F0005A1780E001C081E0DF91CF9108951F93BE
:10310000CF93DF93182FEB018DE0189FB0011124AE
:103110007E5F4CE050E0CE010E940C17892B59F4E1
:103120008CE0FE0111928A95E9F7BE01812F0E9481
:10313000611780E001C081E0DF91CF911F91089578
:1031400080E090E00E94A416813059F44DE450E0F4
:1031500061E070E087E996E00E940C1721E0892B7E
:1031600009F420E0822F0895CF92DF92EF92FF9230
:10317000CF93DF93C82F6A017B0120E030E0A901E3
:10318000C701B6010E94A22687FDF2C0C43608F42A
:1031900056C02CE92C0F80E0233008F047C030E007
:1031A0008230D1F0833091F1813041F0F901EE0F9E
:1031B000FF1FEE0FFF1FE956F94F33C0E901CC0F97
:1031C000DD1FCC0FDD1FCD55D94F20E030E040E7AB
:1031D00052E4C701B60113C0E901CC0FDD1FCC0FCB
:1031E000DD1FC155D94F20E030E040E752E4C70170
:1031F000B6010E94782820E030E040E752E40E94C7
:103200007828688379838A839B83AEC0F901EE0FA7
:10321000FF1FEE0FFF1FE554F94FF7FAF094F7F890
:10322000F094C082D182E282F3829EC08F5F2A3006
:1032300008F4A0C0843009F49DC02A50ADCFC70166
:10324000B6010E943D290E9413278C2F90E08C31FB
:10325000910508F08FC0FC01E35CFF4F0C948429BA
:10326000633008F489C06093C7067EC06093CA06C5
:103270007BC06093C80602C06093C9060E94DD0F40
:1032800073C08091D406662311F0846007C08B7FE1
:1032900005C08091D406662321F080648093D40613
:1032A00063C08F7BFBCF8091D406662311F08068CA
:1032B000F5CF8F77F3CF6093CB06C092CC06D09238
:1032C000CD06E092CE06F092CF064EC0C092D00658
:1032D000D092D106E092D206F092D30645C08091FA
:1032E000D406662311F08160D9CF8E7FD7CF80912D
:1032F000D406662311F08260D1CF8D7FCFCF80912D
:10330000D406662321F084FF39C08062C7CF8F7D49
:10331000C5CF8091D406662311F08061BFCF8F7C2A
:10332000BDCF6093D50620C0C092D606D092D706F6
:10333000E092D806F092D90617C0C092DA06D09271
:10334000DB06E092DC06F092DD060EC070E07093C2
:10335000DF066093DE0608C0C092E006D092E10668
:10336000E092E206F092E3060E946A1780E007C04E
:1033700084E005C083E003C086E001C08AE0DF91FD
:10338000CF91FF90EF90DF90CF9008951F93CF9350
:10339000DF93CDB7DEB72C970FB6F894DEBF0FBE24
:1033A000CDBF0E94A01881110BC087E00E94C320EE
:1033B0000E9477170E943E180E9448180E946321BD
:1033C00010E0BE016F5F7F4F812F0E947F18811137
:1033D00003C087E00E94C3201F5F183091F72C962E
:1033E0000FB6F894DEBF0FBECDBFDF91CF911F9116
:1033F000089580E1089580E208954F925F926F9260
:103400007F928F929F92AF92BF92CF92DF92EF9274
:10341000FF920F931F93CF93DF93109153021111DB
:1034200001C012E1115000915102101709F4EFC0D0
:1034300089E2189FE0011124CB5ADD4F8D889E88C8
:10344000AF88B88C69A17AA18BA19CA19B01AC012A
:103450000E942B262DA13EA14FA158A50E9478289D
:103460006B017C019B01AC01B401C5010E94A22645
:1034700087FF02C064017501A601B701498B5A8B11
:103480006B8B7C8B111101C012E177247A94710E41
:10349000701619F029E2622E27C080915402081399
:1034A00051C00E9467104EC0679C800111240B5AC6
:1034B0001D4F711002C092E1792E7A9480915402CE
:1034C000781202C00E946710F801C588D688E78884
:1034D000F08CA701960161897289838994890E9481
:1034E000A226811106C0E801809151027812DCCF3A
:1034F00029C0F80161A172A183A194A19B01AC0133
:103500000E942B26F80125A136A147A150A50E94B3
:10351000782829893A894B895C890E942B264B019E
:103520005C01A70196010E94A226F80187FF05C051
:10353000818A928AA38AB48AD6CFC18AD28AE38A40
:10354000F48AD1CF60905102F9E26F9E800111247C
:103550000B5A1D4F77247394760C82E1781201C0C8
:10356000712C5090530289E2482E751409F44DC015
:10357000479CE0011124CB5ADD4FF80181889288E5
:10358000A388B488C988DA88EB88FC88A7019601EB
:10359000C501B4010E94A22687FF23C0F80161A1E2
:1035A00072A183A194A19B01AC010E942B26F8017A
:1035B00025A136A147A150A50E9478289B01AC0106
:1035C000C501B4010E942B264B015C01A7019601A5
:1035D0000E94A22687FF05C0898A9A8AAB8ABC8A84
:1035E000672C2D893E894F89588D69897A898B8905
:1035F0009C890E94A226811101C0672C7394F2E17C
:103600007F1201C0712C8E01B0CF60925102DF9108
:10361000CF911F910F91FF90EF90DF90CF90BF90CF
:10362000AF909F908F907F906F905F904F90089594
:103630008CE1E5E3F2E0DF011D928A95E9F7109253
:1036400054021092530281E0809352021092510270
:1036500008959091540280915302891769F081E096
:10366000890F823109F480E020915102921302C047
:103670008093510280935402089580915402909156
:103680005302981739F029E2829FC00111248B5A06
:103690009D4F089580E090E00895E0915402EF5F1F
:1036A000E23109F4E0E080915302E81761F089E229
:1036B000E89FF0011124EB5AFD4F618972898389DB
:1036C00094890C94FF2860E070E0CB01089581E0BC
:1036D0002091540290915202291380E008952F9274
:1036E0003F924F925F926F927F928F929F92AF9292
:1036F000BF92CF92DF92EF92FF920F931F93CF93DF
:10370000DF93CDB7DEB7AD970FB6F894DEBF0FBE2F
:10371000CDBF142F052F6B8F7C8F822E20915302EB
:1037200039E2239F10011124F101EB5AFD4F1F01D3
:10373000158616861786108A15A216A217A210A63D
:10374000108249E956E766E97EE741A352A363A3E5
:1037500074A35C0137E9E32E36E0F32E9E01235F6C
:103760003F4F3E8F2D8F85E392E098A38F8F6F019F
:10377000FE013196FAA3E9A3912CF50161917191B3
:10378000819191915F01F7012081318142815381C3
:103790000E9478280E944828ED8DFE8D61937193D8
:1037A00081939193FE8FED8FEF8DF8A14190519011
:1037B00061907190F8A3EF8F6419750986099709D4
:1037C0002B013C0197FF07C0442455243201461ABF
:1037D000570A680A790AF60141825282638274822A
:1037E000F1012585368547855089421653066406C2
:1037F000750610F429013A01F1014586568667865F
:10380000708A0E944127F7012081318142815381D2
:103810000E94A6262B013C01E9A1FAA161937193B4
:1038200081939193FAA3E9A320E030E0A9010E94DB
:10383000A22687FF0AC0F1019081892D9DA70E94D1
:10384000FB199DA5892BF1018083A3019201C3017E
:10385000B2010E947828F10125A136A147A150A507
:103860000E942B26F10165A376A387A390A79394CA
:10387000F4E0EF0EF11C24E0C20ED11C33E09312F1
:103880007CCF0E94FF286B017C01F10165A376A328
:1038900087A390A785859685A785B089892B8A2BD4
:1038A0008B2B09F4DEC120E030E0A901612F702FDD
:1038B0008B8D9C8D0E94A22687FD21C0882061F0FF
:1038C000212F302F4B8D5C8DC701B6010E94A6269B
:1038D000162F072F8B8F9C8F20E030E040E85FE3AE
:1038E000612F702F8B8D9C8D0E94A22687FF0DC0AB
:1038F00010E000E030E83B8F8FE38C8F06C019E9C1
:1039000006E7F6E9FB8F2EE72C8FA701960160E012
:1039100070E080E89FE30E94A62669A77AA78BA79C
:103920009CA7E1E4F2E0FAA3E9A323EA36E038A396
:103930002F8FCE010D969A8F898FFE013196FE8FC3
:10394000ED8FC12CD12C7601ED8DFE8D8080918084
:10395000A280B38020E030E0A901C501B4010E943B
:10396000A226882309F47FC029A53AA54BA55CA50A
:10397000C501B4010E9478284B015C01ED8DFE8DDC
:1039800060837183828393839B01AC0160E070E06C
:1039900080E89FE30E94A6262B013C01E89477F87B
:1039A000EF8DF8A12081318142815381C301B201A1
:1039B0000E9478286BA37CA38DA39EA39B01AC01DE
:1039C000612F702F8B8D9C8D0E94A22687FF06C0D1
:1039D0001BA30CA3FB8DFDA32C8D2EA3F101F1A144
:1039E000FB8FF101F2A1FC8FF101F3A1FFA3F10123
:1039F000F4A1F8A7EF8DF8A1248535854685578574
:103A0000C301B2010E9478283B018C019B01AC01EB
:103A10006B8D7C8D8FA198A50E94A22687FF04C084
:103A20006B8C7C8C0FA118A5C301D801F10181A377
:103A300092A3A3A3B4A3E9A1FAA120813181428179
:103A40005381C501B4010E9478289B01AC01C701D4
:103A5000B6010E942A266B017C011BA10CA1FDA1CD
:103A6000FB8F2EA12C8F8D8D9E8D04969E8F8D8F1A
:103A7000E9A1FAA13496FAA3E9A32F8D38A12C5F0E
:103A80003F4F38A32F8FE98DFA8D8E179F0709F0CE
:103A90005BCF909153028091540298130AC0F101B8
:103AA000118A128A138A148A118E128E138E148E22
:103AB00049C0A701960160E070E080E89FE30E94A2
:103AC0002A2620E030E040E05FE30E9478280E9450
:103AD000FF286B017C012091CC063091CD064091EE
:103AE000CE065091CF06F10161A172A183A194A1EC
:103AF0000E947828A70196010E9478284B015C015A
:103B0000A701960160E070E080E89FE30E942A260A
:103B10009B01AC01C501B4010E94A6266B017C018A
:103B200020E030E0A9010E94A22687FF04C0C12C3A
:103B3000D12CE12CF12CA601B701F101418F528F5C
:103B4000638F748F212F302F4B8D5C8D612F702FE1
:103B50008B8D9C8D0E947828162F072FF82EE92E2A
:103B6000862F902FAF2DBE2DF101858F968FA78FB9
:103B7000B0A3A18CB28CC38CD48C60904D02709099
:103B80004E0280904F02909050029301A401612F49
:103B9000702F8F2D9E2D0E94A22687FD0BC09301B2
:103BA000A401B501C6010E94A22687FD11C05301E0
:103BB00064010EC0212F302F4F2D5E2DB501C6019F
:103BC0000E94A22687FD04C0A12EB02ECF2CDE2C91
:103BD000C501D601F101858B968BA78BB08F8CE048
:103BE000FE013196A1E4B2E001900D928A95E1F7D1
:103BF000812F902FAF2DBE2D80934D0290934E02BA
:103C0000A0934F02B09350028CE0FE013D96A5E3D5
:103C1000B2E001900D928A95E1F780915202809373
:103C200053028F5F823109F480E080935202AD9697
:103C30000FB6F894DEBF0FBECDBFDF91CF911F91BD
:103C40000F91FF90EF90DF90CF90BF90AF909F903B
:103C50008F907F906F905F904F903F902F900C943B
:103C6000FD19AD960FB6F894DEBF0FBECDBFDF9144
:103C7000CF911F910F91FF90EF90DF90CF90BF9069
:103C8000AF909F908F907F906F905F904F903F90FC
:103C90002F90089580913B0590913C05A0913D05A2
:103CA000B0913E058093350290933602A09337027F
:103CB000B093380280913F0590914005A091410555
:103CC000B09142058093390290933A02A0933B024F
:103CD000B0933C028091430590914405A091450525
:103CE000B091460580933D0290933E02A0933F021F
:103CF000B093400208958091530290915402891725
:103D000008F48E5E891B08950E946710809154020A
:103D1000809351020C94FD196F927F928F929F9223
:103D2000AF92BF92CF92DF92EF92FF920F931F93C9
:103D3000CF93DF937C018B016A01FB018081F70146
:103D4000E80FF11D2081EF012D3229F42296218107
:103D50006624639407C02B3211F0219602C022968C
:103D60002181612CA12CB12C712C60E070E0CB0181
:103D7000FE0130ED932E920E29E02915C8F0B39480
:103D800028E02B1588F0A1107A94A5E0B0E09B0103
:103D9000AC010E944B29660F771F881F991F690D80
:103DA000711D811D911D0BC0A11009C0739407C026
:103DB0002EEF921207C0A11005C0AA24A394219649
:103DC0002081D6CFBB2009F449C00E943F274B0178
:103DD0005C0120E030E0A9010E94A226882361F165
:103DE0008FEF78166CF42AE037ED43E25CE3C5010F
:103DF000B4010E9478284B015C0173947394F0CF56
:103E000078120BC02DEC3CEC4CEC5DE3C501B40129
:103E10000E9478284B015C010FC0772069F020E0F8
:103E200030E040E251E4C501B4010E9478284B0122
:103E30005C017A9417149CF3662021F0B7FAB094D1
:103E4000B7F8B094F60180829182A282B382CE1933
:103E5000DF09C150F801C08381E001C080E0DF913B
:103E6000CF911F910F91FF90EF90DF90CF90BF9077
:103E7000AF909F908F907F906F900895009741F042
:103E8000EFE9FFE03197F1F700C000000197F6CFAE
:103E90000895CF93DF93EC018991882319F00E9454
:103EA000ED0AFACFDF91CF910895CF93DF93FC0114
:103EB0008491EF012196882321F00E94ED0AFE01F2
:103EC000F7CFDF91CF910895EF92FF920F931F9359
:103ED000CF93DF93CDB7DEB728970FB6F894DEBF48
:103EE0000FBECDBFFE0131967F019E01275F3F4F80
:103EF000982F917091938695E217F307C9F78F0178
:103F0000F80182918F01805D0E94ED0A0E151F0558
:103F1000B9F728960FB6F894DEBF0FBECDBFDF917C
:103F2000CF911F910F91FF90EF9008951F93CF9322
:103F3000DF9300D01F92CDB7DEB7811109C080E3B7
:103F40000F900F900F90DF91CF911F910C94ED0A7D
:103F500090E02AE011E0190FE1E0F0E0EC0FFD1F26
:103F6000E90FF11D622F0E945629905D90838823EE
:103F700011F0912FEFCF112341F0FE01E10FF11D60
:103F800080810E94ED0A1150F6CF0F900F900F9094
:103F9000DF91CF911F9108958F929F92AF92BF9220
:103FA000CF92DF92EF92FF920F931F93CF93DF9305
:103FB000CDB7DEB72A970FB6F894DEBF0FBECDBFE0
:103FC0006B017C01142F20E030E0A9010E94A226A1
:103FD00087FF07C08DE20E94ED0AF7FAF094F7F828
:103FE000F094012F023060F020E030E048EC52E421
:103FF000C701B6010E9478286B017C010250F2CF04
:1040000010FF0AC020E030E040E251E4C701B601F1
:104010000E9478286B017C0120E030E040E05FE303
:10402000C701B6010E942B260E940E27E1E0F0E0B6
:10403000EC0FFD1FE10FF11D2EE22083D12C5AE081
:10404000852E912CA12CB12C61157105810591054E
:10405000A9F0D11201C0D394EE24E394F12CEC0E1C
:10406000FD1EED0CF11CA50194010E946229605D0A
:10407000F7016083B901CA01D394E6CF80E3D1167A
:1040800048F4E1E0F0E0EC0FFD1FED0DF11D808341
:10409000D394F5CF8D2DD1120BC0D394D3948F5FD1
:1040A000E1E0F0E0EC0FFD1FE80FF11D80E38083FD
:1040B000DD2041F0FE01ED0DF11D80810E94ED0A31
:1040C000DA94F6CF2A960FB6F894DEBF0FBECDBFB6
:1040D000DF91CF911F910F91FF90EF90DF90CF90E4
:1040E000BF90AF909F908F9008952091D40620FFAD
:1040F00008C02BE832E441E25DE30E94782844E006
:1041000001C043E00C94CC1F2091D40620FF08C0CE
:104110002BE832E441E25DE30E94782841E001C0EF
:1041200040E00C94CC1F43E00C94CC1F3D98809150
:10413000D40687FF04C045981092E4060895459A76
:1041400080E28093E406089586B180729091E4063F
:1041500089270895809148058130A1F40E94A42008
:10416000882381F0109248058CE0EBE3F5E0A9E4A8
:10417000B5E001900D928A95E1F78091390588604C
:10418000809339050895CF93C82F8C3009F44CC023
:10419000811103C08AE796E044C082E796E00E945E
:1041A000551F4C2F50E0FA013197E631F10580F5AB
:1041B000E75AFF4F0C9484298AE596E002C088E410
:1041C00096E00E94551F2BC086E396E0FACF8CE262
:1041D00096E0F7CF8BE196E0F4CF8CE096E0F1CF5C
:1041E0008BEE95E0EECF82EE95E0EBCF87ED95E09C
:1041F000E8CF84EC95E0E5CF86EB95E0E2CF80EA6E
:1042000095E0DFCF8CE895E0DCCF88E795E0D9CF6B
:1042100086E695E00E94551F8C2F0E94961F83E62C
:1042200095E0CF910C94551FCF910895CF93C82F4F
:104230008BE595E00E94551FCE3F51F0CF3F29F00E
:10424000CD3F51F48DE295E005C08BE495E002C0CE
:1042500088E395E00E94551F8AE295E00E94551F71
:1042600084EF91E0CF910C943E1FCF93C82F88E24A
:1042700095E00E94551FC33091F038F4C13061F0D1
:10428000C230A1F482E095E00FC0C43059F0C530CF
:1042900069F48FED94E008C086E195E005C080EFF9
:1042A00094E002C088EE94E00E94551F8BED94E0EC
:1042B000CF910C94551F8EEB94E00C94551F80EA1F
:1042C00093E00C94551FFF920F931F93CF93DF93AE
:1042D0008CE993E00E94551F8091C7060E94961FAB
:1042E00083E893E00E94551F8091CA060E94961FA2
:1042F00085E693E00E94551F8091C8060E94961F94
:104300008CE493E00E94551F8091C8060E94641FB0
:1043100085E493E00E94551F8091C9060E94961F74
:104320008DE293E00E94551F8091C9060E94641F90
:1043300086E293E00E94551F8091D40682FB882775
:1043400080F90E94961F85E093E00E94551F80919E
:10435000D40686FB882780F90E94961F85EE92E09E
:104360000E94551F8091D406881F8827881F0E94AD
:10437000961F85EC92E00E94551F8091CB060E940B
:10438000961F8FEA92E00E94551F8091CB060E94F3
:10439000641F87EA92E00E94551F6091CC067091DD
:1043A000CD068091CE069091CF060E94932086E89C
:1043B00092E00E94551F6091D0067091D1068091C5
:1043C000D2069091D3060E9493208AE692E00E9442
:1043D000551F8091D40681700E94961F8DE492E053
:1043E0000E94551F8091D406869581700E94961F69
:1043F00083E392E00E94551F8091D40685FB8827B5
:1044000080F90E94961F88E192E00E94551F8091DA
:10441000D40683FB882780F90E94961F8DEF91E0D8
:104420000E94551F8091D406829581700E94961F2C
:1044300084EE91E00E94551F84E6F82E10E0C7E953
:10444000D6E000E082EE91E00E94551F802F8F0D94
:104450000E94961F80EE91E00E94551F123091F04D
:104460001330D9F0113029F0688179818A819B81DC
:104470001BC020E030E040E752E46C857D858E85EE
:104480009F8508C020E030E041E655E4688D798DD5
:104490008A8D9B8D0E94A62607C08CA19DA1AEA1EE
:1044A000BFA1BC01CD0190580E9493208DED91E0F9
:1044B0000E94551F013029F0023031F08BED91E060
:1044C00005C089ED91E002C087ED91E00E94551F83
:1044D000123051F0133059F0113019F08CEC91E09A
:1044E00008C089EB91E005C087EA91E002C086E947
:1044F00091E00E94551F82E991E00E94551F0F5FD5
:104500002496033009F09ECF8AE0F80E1F5F8CE8F6
:10451000F81295CFDF91CF911F910F91FF900895E1
:10452000CF92DF92FF920F931F93CF93DF9300D030
:1045300000D0CDB7DEB78CE891E00E94551F09E4AA
:1045400015E097E9C92E96E0D92EF12CF80161917A
:104550007191819191918F01F60121913191419158
:1045600051916F0129833A834B835C830E944127D9
:1045700029813A814B815C810E94A6260E94752088
:10458000F2E0FF1621F08AE891E00E94551FF394B3
:1045900083E0F812DBCF86E891E00F900F900F9048
:1045A0000F90DF91CF911F910F91FF90DF90CF90EF
:1045B0000C94551FEF92FF920F931F93CF93DF93AD
:1045C000CDB7DEB72C970FB6F894DEBF0FBECDBFC8
:1045D000F12CBE016F5F7F4F8F2D0E947F188111DC
:1045E00004C087E00E94C32069C083E891E00E9474
:1045F000551F86E0F81631F0E7E0FE1208C08DE79F
:1046000091E002C080E891E00E94551F04C086E35B
:104610008F0D0E94961F8BE791E00E94551F8E011F
:104620000F5F1F4FE12CF801619171918191919180
:104630008F010E947520F2E0EF1619F089E791E0F2
:1046400002C085E791E00E94551FE39483E0E812E1
:10465000EACFF394E8E0FE12BCCF8FE691E00E942F
:10466000551F03E815E0F12CF801619171918191DA
:1046700091918F010E947520F2E0FF1619F08DE6EE
:1046800091E002C089E691E00E94551FF39483E017
:10469000F812EACF83E691E00E94551F60918F05E2
:1046A0007091900580919105909192050E947520DE
:1046B0008FE591E00E94551F0E9490222C960FB624
:1046C000F894DEBF0FBECDBFDF91CF911F910F9148
:1046D000FF90EF90089580915505823091F038F465
:1046E000882361F08130A1F487E591E00FC0833029
:1046F00059F0853069F48AE491E008C08BE591E0D7
:1047000005C083E591E002C08FE491E00E94551F4F
:1047100087E491E00E94551F80915B058A5C0E94AE
:10472000961F84E491E00E94551F80916A050E94C3
:10473000961F81E491E00E94551F6091660570917B
:10474000670580916805909169050E9484208DE33A
:1047500091E00C94551F1F93CF93DF93182FEB011B
:104760008AE391E00E94551F812F0E94961F88E3E3
:1047700091E00E94551FCE010E94491F85E391E000
:10478000DF91CF911F910C94551FCF93DF93EC01D4
:104790008FE291E00E94551FCE010E94491F8BE2DB
:1047A00091E0DF91CF910C94551FBF92CF92DF9291
:1047B000EF92FF920F931F93CF93DF93CDB7DEB7A6
:1047C0006C970FB6F894DEBF0FBECDBF8CE0EBE365
:1047D000F5E0DE011D9601900D928A95E1F780913A
:1047E00038058430D9F040F48130D9F070F082304F
:1047F000E1F48FEF90E017C0803151F0803259F032
:10480000883099F48EE191E00EC085E291E00BC012
:1048100089E191E008C083E191E005C08DE091E07D
:1048200002C086E091E00E94551F8091CB0680FD7A
:1048300005C08091CB0681FF8AC03CC088EF90E024
:104840000E94551F6E012DE0C20ED11C37E9E32EE8
:1048500036E0F32E8E010F5F1F4FB12CF6016191F0
:104860007191819191916F01F70121913191419164
:1048700051917F01298F3A8F4B8F5C8F0E94412786
:10488000298D3A8D4B8D5C8D0E94A626F80161938F
:104890007193819391938F010E947520F2E0BF166E
:1048A00021F086EF90E00E94551FB39423E0B212EE
:1048B000D5CFBFCF8FEE90E00E94551F27E7E22EA5
:1048C00025E0F22E8E010F5F1F4FB12C6801F7011A
:1048D00061917191819191917F012085318542850E
:1048E00053850E942B269B01AC01F80160817181E8
:1048F000828193810E942A26F801608371838283DA
:104900009383F2E0BF120FC020918F053091900584
:1049100040919105509192050E942A26F8016083EA
:104920007183828393830C5F1F4FF60160817181D5
:10493000828193810E947520F2E0BF1621F08DEEF6
:1049400090E00E94551FB39423E0B212BFCF809134
:10495000CB0682FF08C087EE90E00E94551F0E94A0
:104960007B1E0E94961F8091CB0683FF08C082EEBB
:1049700090E00E94551F0E94CE0A0E94961F8EED65
:1049800090E06C960FB6F894DEBF0FBECDBFDF91FE
:10499000CF911F910F91FF90EF90DF90CF90BF903C
:1049A0000C94551F08951F93CF93DF93EC0110E0F3
:1049B000BE01812F0E944D18811102C087E009C0FD
:1049C0008881882341F0CE010E94491FCE010E94B8
:1049D0007B050E94C3201F5F123051F7DF91CF91FA
:1049E0001F910895CF92DF92EF92FF921F93CF9382
:1049F000DF93CDB7DEB729970FB6F894DEBF0FBEB1
:104A0000CDBF7C0181E08987F7018181833449F141
:104A10002CF4882341F0843249F049C08734C1F036
:104A20008835A9F144C00E945F2110C082E08987C7
:104A3000F7018281882311F083E0FEC08091380560
:104A4000807311F088E0F8C00E94632180E0F4C018
:104A500082E08987F70182818111EECF0E946B236A
:104A6000F5CF82E08987F70192819111E5CF90918E
:104A70003805923021F40E94080585E005C09111A7
:104A8000E1CF8093380584E00E943521DFCF82E0BA
:104A90008987F70182818111CFCF809138058130DC
:104AA000A9F683E00E94352110923805CFCF90916E
:104AB0003805923038F6883491F01CF4833231F0A6
:104AC00059C08934C1F08E34B9F154C082E089876D
:104AD000F70182818111B0CF0E94DA22B7CF809195
:104AE000D40684FFA8C0809137058111AFCFC701DC
:104AF0000E94D324ABCF82E08987F70182818111A4
:104B000007C0C7010E946A18C7010E94C5239ECF33
:104B10008D3309F091CF83E0F701E80FF11D90810B
:104B2000DF0113979C938F5F90819111F5CF898757
:104B3000C7010E945A178ACF82E08987F7018281D4
:104B4000811114C010E0B701812F0E944D1881110E
:104B500004C087E00E94C32004C0B701812F0E94D7
:104B6000AB231F5F123009F471CFEDCF91116ACFE3
:104B700011E001C010E0AE014B5F5F4FBE01675F07
:104B80007F4FC7010E948C1E811102C082E054C079
:104B9000898521E0280F2987F701E80FF11D808121
:104BA0008D3309F049CF112321F1822F90E0E22FBC
:104BB000F0E0D701AE0FBF1F3C91E81BF90BEE0DE3
:104BC000FF1D30832F5F3C913111F1CF2987C70141
:104BD0000E947B05811130C06D817E818F81988517
:104BE0000E943D290E941327862FB7010E9451176A
:104BF0002DCFAE014F5F5F4FBE01675F7F4FC70193
:104C00000E948C1E882311F28985F701E80FF11D9F
:104C10008081811111CFC980DA80EB80FC806D81A9
:104C20007E818F8198850E941327862FB701A60168
:104C30000E94B41801C085E029960FB6F894DEBF33
:104C40000FBECDBFDF91CF911F91FF90EF90DF900E
:104C5000CF9008955058BB27AA270ED0C4C1B5D114
:104C600030F0BAD120F031F49F3F11F41EF4AAC104
:104C70000EF4E095E7FB77C1E92FC6D180F3BA17B0
:104C8000620773078407950718F071F49EF5F5C164
:104C90000EF4E0950B2EBA2FA02D0B01B901900157
:104CA0000C01CA01A0011124FF27591B99F0593F9B
:104CB00050F4503E68F11A16F040A22F232F342FE3
:104CC0004427585FF3CF469537952795A795F04031
:104CD0005395C9F77EF41F16BA0B620B730B840B46
:104CE000BAF09150A1F0FF0FBB1F661F771F881FFE
:104CF000C2F70EC0BA0F621F731F841F48F4879556
:104D000077956795B795F7959E3F08F0B3CF939544
:104D1000880F08F09927EE0F97958795089596D1FB
:104D200080F09F3740F491110EF4A8C160E070E06C
:104D300080E89FE3089526F01B16611D711D811DFB
:104D400018C132C1ECD008F481E008950CD04BC1F9
:104D500043D140F03AD130F021F45F3F19F003C164
:104D600051118CC12FC150D198F39923C9F3552308
:104D7000B1F3951B550BBB27AA276217730784074E
:104D800038F09F5F5F4F220F331F441FAA1FA9F304
:104D900033D00E2E3AF0E0E830D091505040E695F6
:104DA000001CCAF729D0FE2F27D0660F771F881F57
:104DB000BB1F261737074807AB07B0E809F0BB0B46
:104DC000802DBF01FF2793585F4F2AF09E3F51056A
:104DD00068F0C9C053C15F3FECF3983EDCF38695A1
:104DE00077956795B795F7959F5FC9F7880F911DE0
:104DF0009695879597F90895E1E0660F771F881FCC
:104E0000BB1F621773078407BA0720F0621B730B7E
:104E1000840BBA0BEE1F88F7E095089504D06894D0
:104E2000B1112CC10895F8D088F09F5790F0B92F98
:104E30009927B751A0F0D1F0660F771F881F991FEF
:104E40001AF0BA95C9F712C0B13081F016D1B1E0AD
:104E5000089513C1672F782F8827B85F39F0B93FBD
:104E6000CCF3869577956795B395D9F73EF49095F1
:104E70008095709561957F4F8F4F9F4F0895E8946F
:104E800009C097FB3EF490958095709561957F4F92
:104E90008F4F9F4F9923A9F0F92F96E9BB27939540
:104EA000F695879577956795B795F111F8CFFAF450
:104EB000BB0F11F460FF1BC06F5F7F4F8F4F9F4F81
:104EC00016C0882311F096E911C0772321F09EE8DF
:104ED000872F762F05C0662371F096E8862F70E045
:104EE00060E02AF09A95660F771F881FDAF7880F1F
:104EF0009695879597F90895A9D080F09F3740F44B
:104F000091110EF0BBC060E070E080E89FEB089567
:104F100026F41B16611D711D811D2BC045C0990F04
:104F20000008550FAA0BE0E8FEEF16161706E80773
:104F3000F907C0F012161306E407F50798F0621B94
:104F4000730B840B950B39F40A2661F0232B242B69
:104F5000252B21F408950A2609F4A140A6958FEF88
:104F6000811D811D089597F99F6780E870E060E0DA
:104F70000895882371F4772321F09850872B762F9A
:104F800007C0662311F499270DC09051862B70E05D
:104F900060E02AF09A95660F771F881FDAF7880F6E
:104FA0009695879597F908959F3F31F0915020F499
:104FB000879577956795B795880F911D96958795F5
:104FC00097F908959FEF80EC089500240A9416162F
:104FD000170618060906089500240A9412161306E7
:104FE000140605060895092E0394000C11F4882375
:104FF00052F0BB0F40F4BF2B11F460FF04C06F5F91
:105000007F4F8F4F9F4F089557FD9058440F551F66
:1050100059F05F3F71F04795880F97FB991F61F03A
:105020009F3F79F087950895121613061406551FB1
:10503000F2CF4695F1DF08C0161617061806991F1D
:10504000F1CF86957105610508940895E5DFA0F01C
:10505000BEE7B91788F4BB279F3860F41616B11D58
:10506000672F782F8827985FF7CF86957795679574
:10507000B11D93959639C8F30895E894BB27662728
:105080007727CB0197F908954ADF08F48FEF089549
:10509000C3DF58F19E5758F19851A0F0E9F09830CD
:1050A00020F5092E9927660F771F881F991F0A94EC
:1050B000D1F712C0062E672F782F8827985F11F43A
:1050C000000C07C0993FB4F3869577956795939543
:1050D000D9F7611D711D811D3EF4909580957095E5
:1050E00061957F4F8F4F9F4F08956894C7CFC5CF6D
:1050F0000BD079CF6ADF28F06FDF18F0952309F025
:1051000032CF60CF1124BACF7FDFA0F3959FD1F3C8
:10511000950F50E0551F629FF001729FBB27F00D65
:10512000B11D639FAA27F00DB11DAA1F649F6627BA
:10513000B00DA11D661F829F2227B00DA11D621F09
:10514000739FB00DA11D621F839FA00D611D221FC3
:10515000749F3327A00D611D231F849F600D211DA7
:10516000822F762F6A2F11249F5750408AF0E1F04A
:1051700088234AF0EE0FFF1FBB1F661F771F881F93
:1051800091505040A9F79E3F510570F0ECCE76CF7C
:105190005F3FECF3983EDCF3869577956795B7957E
:1051A000F795E7959F5FC1F7FE2B880F911D9695A8
:1051B000879597F9089530DFE0F09E37D8F096395B
:1051C000B8F49E3848F4672F782F8827985FF9CF76
:1051D00086957795679593959539D0F3B62FB170ED
:1051E0006B0F711D811D20F48795779567959395B9
:1051F000C0CEDACE43CF11F40EF4E4CED5CE0CDF20
:10520000D0F39923D9F3CEF39F57550B87FF3CD0AA
:105210000024A0E640EA900180585695979528F41E
:10522000805C660F771F881F20F026173707480716
:1052300030F4621B730B840B202931294A2BA6956D
:1052400017940794202531254A2758F7660F771FB2
:10525000881F20F026173707480730F4620B730BBE
:10526000840B200D311D411DA09581F7B901842FBC
:105270009158880F969587950895E8DE20F09F371E
:1052800008F4FCCE76CE90CE91505040660F771F3A
:10529000881FD2F708950E948A29A59F900DB49F78
:1052A000900DA49F800D911D11240895991B79E004
:1052B00004C0991F961708F0961B881F7A95C9F7A6
:1052C00080950895A1E21A2EAA1BBB1BFD010DC0FB
:1052D000AA1FBB1FEE1FFF1FA217B307E407F507A6
:1052E00020F0A21BB30BE40BF50B661F771F881F82
:1052F000991F1A9469F760957095809590959B0118
:10530000AC01BD01CF010895EE0FFF1F0590F49190
:10531000E02D0994A29FB001B39FC001A39F700D1F
:10532000811D1124911DB29F700D811D1124911DAD
:105330000895FB019F01E8944230C4F04532B4F473
:105340004A3029F497FB1EF4909581959F4F642F66
:1053500077270E94CA29805D8A330CF0895D81938A
:10536000CB010097A1F716F45DE251931082C901B9
:105370000C94BA29DC01FC01672F71917723E1F7C6
:10538000329704C07C916D9370836291AE17BF0712
:10539000C8F30895AA1BBB1B51E107C0AA1FBB1F7E
:1053A000A617B70710F0A61BB70B881F991F5A95B1
:1053B000A9F780959095BC01CD010895F894FFCF91
:0E53C0000000E5062000040810200D0A000081
:00000001FF
