:100000000C94C6030C94E3030C94E3030C94E303F5
:100010000C94E3030C94E3030C94E3030C94E303C8
:100020000C94E3030C94E3030C94E3030C94072176
:100030000C94E3030C94E3030C94E3030C94E303A8
:100040000C94B0220C94E3030C94C31D0C94851DF6
:100050000C94E3030C94E3030C94E3030C94E30388
:100060000C94E3030C94E303D70AE80A070BE80AAD
:100070000B0B1E0B110B170B161919191E19211931
:10008000241927192A192D1930193319361942192B
:1000900042194219421942194219421942193C198E
:1000A00039193F19E81FEE1FF11FF41FF91F012036
:1000B0000B20722072207220132015201E20272072
:1000C0002F2072207220722072207220372072201E
:1000D000412049204C2055205E206420084AD73B0F
:1000E0003BCE016E84BCBFFDC12F3D6C74319ABD07
:1000F00056833DDA3D00C77F11BED9E4BB4C3E912B
:100100006BAAAABE000000803F05A84CCDB2D44E19
:10011000B93836A9020C50B9918688083CA6AAAA1B
:100120002ABE000000803F3E0D0A002C52583A00C3
:100130002C4275663A002C002C57506F733A002CF5
:10014000002C4D506F733A003C436865636B003C74
:10015000416C61726D003C486F6D65003C486F6C8E
:1001600064003C52756E003C5175657565003C49F4
:10017000646C65005D0D0A005B302E39672E3230ED
:100180003134303831373A000D0A003D00244E003A
:100190005D0D0A002046002054002047005B4738D0
:1001A00030005B4733005B4732005B4731005B4701
:1001B00030005D0D0A005B544C4F3A005D0D0A00A3
:1001C0002C005B4739323A005D0D0A002C003A00E2
:1001D0003330003238005B47005D0D0A002C005BB5
:1001E0005052423A00290D0A00206D617820747245
:1001F0006176656C2C206465670020616363656CC3
:100200002C206465672F7365635E3200206D617812
:1002100020726174652C206465672F6D696E002CF7
:1002200020737465702F646567007A007900780028
:100230002028003D0024002028686F6D696E67202B
:1002400070756C6C2D6F66662C206D6D290D0A0023
:100250002028686F6D696E67206465626F756E63D4
:10026000652C206D736563290D0A2432373D00200B
:1002700028686F6D696E67207365656B2C206D6DE6
:100280002F6D696E290D0A2432363D002028686FD3
:100290006D696E6720666565642C206D6D2F6D69D4
:1002A0006E290D0A2432353D00290D0A2432343DD1
:1002B000002028686F6D696E672064697220696E1E
:1002C00076657274206D61736B3A002028686F6DDB
:1002D000696E67206379636C652C20626F6F6C298F
:1002E0000D0A2432333D00202868617264206C6955
:1002F0006D6974732C20626F6F6C290D0A24323281
:100300003D002028736F6674206C696D6974732CCE
:1003100020626F6F6C290D0A2432313D0020286164
:1003200075746F2073746172742C20626F6F6C2906
:100330000D0A2432303D0020287265706F727420DF
:10034000696E636865732C20626F6F6C290D0A24D7
:1003500031343D00202861726320746F6C657261D6
:100360006E63652C206D6D290D0A2431333D00200C
:10037000286A756E6374696F6E206465766961744E
:10038000696F6E2C206D6D290D0A2431323D0029D4
:100390000D0A2431313D0020287374617475732077
:1003A0007265706F7274206D61736B3A00202870F3
:1003B000726F62652070696E20696E766572742C4A
:1003C00020626F6F6C290D0A2431303D0020286CAB
:1003D000696D69742070696E7320696E76657274D8
:1003E0002C20626F6F6C290D0A24363D0020287383
:1003F00074657020656E61626C6520696E766572E9
:10040000742C20626F6F6C290D0A24353D00290D74
:100410000A24343D00202864697220706F727420B1
:10042000696E76657274206D61736B3A00290D0AEE
:1004300024333D0020287374657020706F7274201F
:10044000696E76657274206D61736B3A0020287353
:100450007465702069646C652064656C61792C201A
:100460006D736563290D0A24323D0020287374657D
:10047000702070756C73652C2075736563290D0A87
:1004800024313D0024303D002424202876696577FE
:10049000204772626C2073657474696E6773290DEE
:1004A0000A242320287669657720232070617261F1
:1004B0006D6574657273290D0A2447202876696575
:1004C0007720706172736572207374617465290D91
:1004D0000A2449202876696577206275696C642052
:1004E000696E666F290D0A244E202876696577208B
:1004F0007374617274757020626C6F636B73290D15
:100500000A24783D76616C756520287361766520D4
:100510004772626C2073657474696E67290D0A24D2
:100520004E783D6C696E6520287361766520737422
:10053000617274757020626C6F636B290D0A2443BD
:100540002028636865636B2067636F6465206D6F47
:100550006465290D0A245820286B696C6C20616C35
:1005600061726D206C6F636B290D0A24482028721C
:10057000756E20686F6D696E67206379636C65299D
:100580000D0A7E20286379636C6520737461727430
:10059000290D0A2120286665656420686F6C64292E
:1005A0000D0A3F202863757272656E742073746142
:1005B000747573290D0A6374726C2D782028726526
:1005C000736574204772626C290D0A000D0A477228
:1005D000626C20302E3967205B27242720666F72DB
:1005E0002068656C705D0D0A005D0D0A004469733A
:1005F00061626C656400456E61626C6564004361B4
:100600007574696F6E3A20556E6C6F636B6564002C
:10061000272448277C2724582720746F20756E6C68
:100620006F636B00526573657420746F20636F6E27
:1006300074696E7565005B000D0A0050726F62652B
:10064000206661696C0041626F7274206475726922
:100650006E67206379636C6500486172642F736F05
:100660006674206C696D697400414C41524D3A20AA
:10067000000D0A00496E76616C69642067636F64DF
:10068000652049443A00556E646566696E6564206C
:1006900066656564207261746500556E737570706F
:1006A0006F7274656420636F6D6D616E64004D6F71
:1006B00064616C2067726F75702076696F6C61740D
:1006C000696F6E004C696E65206F766572666C6F3F
:1006D0007700486F6D696E67206E6F7420656E617C
:1006E000626C656400416C61726D206C6F636B00BD
:1006F0004E6F742069646C6500454550524F4D2023
:1007000072656164206661696C2E205573696E673D
:100710002064656661756C74730056616C75652044
:100720003C203320757365630053657474696E678C
:100730002064697361626C65640056616C75652044
:100740003C203000496E76616C696420737461747A
:10075000656D656E7400426164206E756D626572D0
:1007600020666F726D6174004578706563746564AE
:1007700020636F6D6D616E64206C657474657200CA
:100780006572726F723A20000D0A000011241FBEBC
:10079000CFEFD8E0DEBFCDBF11E0A0E0B1E0E4E7ED
:1007A000FEE502C005900D92A430B107D9F716E01E
:1007B000A4E0B1E001C01D92A03DB107E1F70E94A5
:1007C0002B0C0C94382F0C940000F999FECF92BD9D
:1007D00081BD81E08FBB80B50895F894F999FECF73
:1007E00092BD81BD81E08FBB40B54627842F9927FC
:1007F00087FD9095262F30E082239323892B39F0B3
:100800006F3F19F060BD84E006C084E104C044235A
:1008100021F060BD84E28FBBF99A789408959F928D
:10082000AF92BF92CF92DF92EF92FF920F931F93FE
:10083000CF93DF938C017A016B01C40ED51EEB01BF
:10084000912C5C01A61AB70ACE018A0D9B1DCC150E
:10085000DD0591F0911009C0692D772767FD70952E
:10086000272F221F2227221F01C021E06991922EEB
:10087000960E0E94ED03E8CF692DC8018E0D9F1DD5
:10088000DF91CF911F910F91FF90EF90DF90CF906C
:10089000BF90AF909F900C94ED039F92AF92BF9248
:1008A000CF92DF92EF92FF920F931F93CF93DF933C
:1008B0008B017A016C01C40ED51EEC01912C5B01F9
:1008C000A81AB90AC5018C0F9D1FCC15DD0591F042
:1008D0000E94E503911009C0292D332727FD30958B
:1008E000232F221F2227221F01C021E0922E980EC3
:1008F0008993E8CFC8018E0D9F1D0E94E50321E07A
:1009000030E0981611F020E030E0C901DF91CF917E
:100910001F910F91FF90EF90DF90CF90BF90AF901D
:100920009F9008958DE3ECE2F5E0DF011D928A953A
:10093000E9F76DE475E080E00E94481F811103C073
:1009400087E00C94FD180895CF92DF92EF92FF920A
:100950000F931F93CF93DF9300D000D0CDB7DEB7B6
:1009600088EAC82E85E0D82E93E8E92E96E0F92E85
:1009700001E415E0F60161917191819191916F010E
:10098000F70121913191419151917F0129833A835E
:100990004B835C830E94612C29813A814B815C816D
:1009A0000E94C62BF80161937193819391938F01FB
:1009B000F4EBCF16F5E0DF06E9F60F900F900F90FD
:1009C0000F90DF91CF911F910F91FF90EF90DF90EB
:1009D000CF9008952F923F924F925F926F927F92A5
:1009E0008F929F92AF92BF92CF92DF92EF92FF923F
:1009F0000F931F93CF93DF93CDB7DEB7AC970FB6AE
:100A0000F894DEBF0FBECDBF6C018BE3E9E6F5E0E5
:100A1000DF011D928A95E9F78CE0ECE2F5E0AAE6A9
:100A2000B5E001900D928A95E1F71D8E18A6212C54
:100A3000312C00E010E0812C1E8EEE24E394F12C8A
:100A40008D8DF601E80FF11DA080AA2009F4EBC0FE
:100A50009FEB9A0D9A3108F08AC68F5F8D8FAE0199
:100A6000475E5F4FBE01635E7F4FC6010E94E41088
:100A7000882309F47EC6498C5A8C6B8C7C8CC3010C
:100A8000B2010E94CB2E0E94332CB62E70E080E083
:100A900090E00E94612C9B01AC01C301B2010E9455
:100AA000E52A20E030E048EC52E40E94FD2D0E944F
:100AB000602E0E94332CB7E4AB1621F0EDE4AE16A5
:100AC00001F16AC0F1E0BF125EC62E8D211153C63E
:100AD000B0926A05662311F087E166C6C701092C4A
:100AE00002C0880F991F0A94E2F79C01202331234A
:100AF000232B11F085E158C6082B192B82E08E8F2D
:100B00009FCF6111E9CF92E1B91631F19B1550F0F9
:100B1000A2E0AB1588F4B1E1BB1235C6E1E0E09389
:100B200075052AC0E6E4BE16D1F0F7E4BF16E1F081
:100B30002EE1B21228C60CC082E0B81649F09EE140
:100B4000B91631F0B11016C0A1E0A093710512C022
:100B5000B2E0B09371050EC0109275050DC01092F1
:100B60007405F1E0F8A708C021E02093740581E046
:100B700088A702C098E0992EC701092C02C0880FEF
:100B8000991F0A94E2F79C0120233123232B09F0BB
:100B9000B1CF082B192B54CF94E5A91681F0A8E505
:100BA000AA1691F0B6E4AB12EEC5409276055092CB
:100BB00077056092780570927905912C11C0B092FA
:100BC000970589E0982E0CC040929805509299059F
:100BD00060929A0570929B05BAE09B2E88248394BC
:100BE0005701092C02C0AA0CBB1C0A94E2F7C501EC
:100BF00082219321892B09F0C0C581E693E0092C5D
:100C000002C0959587950A94E2F780FF09C020E01D
:100C100030E0A901C301B2010E94BF2B87FDAFC51F
:100C20002A283B280DCF882029F0EE8DE11102C043
:100C3000F2E0FE8F25FE0EC0809187059091880519
:100C4000A0918905B0918A0580389649A849B105D7
:100C50000CF097C580916B05813031F48E8D823018
:100C6000A1F520FE96C531C080912D0581112DC0C2
:100C700020FE1BC080916C05813039F523E333E3FE
:100C80004BEC51E460917605709177058091780581
:100C9000909179050E94FD2D6093760570937705FC
:100CA000809378059093790510C080913C059091D0
:100CB0003D05A0913E05B0913F0580937605909348
:100CC0007705A0937805B093790530FC10C080912A
:100CD000380590913905A0913A05B0913B05809374
:100CE000930590939405A0939505B09396058091F4
:100CF0006905813031F426FC02C08CE155C5E894C9
:100D000026F880916E05882341F0813061F01FA2A2
:100D1000B2E0BCA3E1E0EBA30BC092E09FA3A1E093
:100D2000ACA31BA205C0F1E0FFA31CA222E02BA3F1
:100D300080916C05813061F08CE0EDE4F5E0DE013E
:100D40001D9601900D928A95E1F707FD2DC034C0E4
:100D5000A8E9CA2EA5E0DA2EE12CF12CA82CB12CA2
:100D6000C5010E2C02C0959587950A94E2F780FF85
:100D700010C023E333E34BEC51E4D6016D917D9138
:100D80008D919C910E94FD2DF60160837183828379
:100D90009383FFEFEF1AFF0A24E0C20ED11C83E019
:100DA000E816F104E9F6C8CF80917005873028F580
:100DB00090913205981323C07090690592E07916DE
:100DC00029F0A8E07A1609F4CDC032C1882009F4D0
:100DD0008AC0C10180759927892B09F48ECF609153
:100DE0008B0570918C0580918D0590918E050E94E8
:100DF000CB2E0E94332C673058F08DE1D5C4BE0154
:100E0000635F7F4F0E94481F8111D6CF87E0CCC41B
:100E100080918605843109F068C0BFEA2B226623E1
:100E200009F469C061506F8FBE016F5F7F4F8F8D76
:100E30000E94481F882351F39090860540906505D5
:100E4000509066056090670570906805CE01019628
:100E50007C01E8E9CE2EE5E0DE2EF1E4AF2EF5E0F0
:100E6000BF2E00E010E0A82DB0E0BEA3ADA38DA181
:100E70009EA1002E02C0959587950A94E2F780FD09
:100E80003EC00F5F1F4FF4E0EF0EF11C24E0C20ED6
:100E9000D11C84E0A80EB11C0330110541F710915C
:100EA0006A05153009F46FC1AE8DA23009F04EC24B
:100EB000112309F472C120E030E0A90160917605A8
:100EC0007091770580917805909179050E94BF2BEC
:100ED000882309F45EC4143008F05BC1123008F4B2
:100EE00055C181105EC18AE15FC4823009F04BC4F4
:100EF00027FC49C492CFE0917005EF8F95CFB4E104
:100F00009B1225C0F501208D318D428D538D60815E
:100F10007181828193810E94E52AD6012D913D91B4
:100F20004D915C910E94E52AF70160837183828371
:100F30009383023009F0A5CFA30192010E94E52A14
:100F4000D7016D937D938D939C9313979ACFF60160
:100F500080819181A281B381F70180839183A283F3
:100F6000B3838FCF882009F4BECF409065055090A1
:100F70006605609067057090680508E915E071E402
:100F8000C72E75E0D72E5E019DE0A90EB11CE12CA5
:100F9000F12CA82DB0E0B8A3AF8F8F8D98A10E2CA7
:100FA00002C0959587950A94E2F780FF26C0F50167
:100FB0002081318142815381D6016D917D918D9146
:100FC0009C910E94E52AF801208131814281538160
:100FD0000E94E52AD8016D937D938D939C9313977E
:100FE000B2E0EB1214C0A30192010E94E52AF801BD
:100FF00060837183828393830AC0F601808D918D13
:10100000A28DB38DF80180839183A283B383FFEF18
:10101000EF1AFF0A0C5F1F4F24E0C20ED11C84E0C0
:10102000A80EB11C93E0E916F10409F0B6CFA9C0EF
:1010300081100CC0A5E07A1609F491C0B7E07B16C8
:1010400009F49AC0E3E07E129CC081C060906D05F7
:101050008091650590916605A0916705B09168053E
:101060008F8F98A3A9A3BAA361E4C62E65E0D62EFC
:1010700008E915E02E019DE0490E511CE12CF12CF0
:10108000A82CB12CC5010E2C02C0959587950A9409
:10109000E2F780FD0BC0F60180819181A281B381CE
:1010A000F80180839183A283B38340C0F7E07F1669
:1010B000E9F161102AC0D60158962D913D914D91CC
:1010C0005C915B97F20160817181828193810E94C2
:1010D000E62AD8012D913D914D915C910E94E62A1E
:1010E000F8016083718382839383F2E0EF121EC064
:1010F0002F8D38A149A15AA10E94E62AD8016D93EB
:101100007D938D939C93139711C0F60120813181BB
:1011100042815381D8016D917D918D919C910E9466
:10112000E62AF8016083718382839383FFEFEF1ACD
:10113000FF0A24E0C20ED11C0C5F1F4F84E0480E52
:10114000511C93E0E916F10409F09CCF73CF811094
:1011500001C01E8EBE016F5F7F4F86E007C0811009
:1011600001C01E8EBE016F5F7F4F87E00E94481F47
:10117000882309F44BCE05C080916A05823008F0BF
:1011800004C31F8E8CCE811002C3E0C0113029F041
:10119000B8C1143009F499C0B4C18110B2C11E8E17
:1011A000D8C0BBA10B2F10E0FCA1EF2FF0E0FEA3F5
:1011B000EDA321E030E0C9010CA002C0880F991F07
:1011C0000A94E2F702C0220F331FBA95E2F7822B8E
:1011D000932B282D30E082239323892B09F4DBC243
:1011E000C801880F991F880F991FFC01E759FA4F12
:1011F000DC01A45DBA4F55962D913D914D915C91C6
:10120000589767A570A981A992A90E94E52A6B0148
:101210007C018DA19EA1880F991F880F991FFC0149
:10122000E759FA4FDC01A45DBA4F55962D913D91D7
:101230004D915C91589767A570A981A992A90E94C8
:10124000E52A4B015C0127FEA8C2E89427F820910B
:1012500098053091990540919A0550919B056091B0
:1012600041057091420580914305909144050E948B
:10127000BF2B811172C020919C0530919D0540913A
:101280009E0550919F05609145057091460580919E
:101290004705909148050E94BF2B81115EC02091A7
:1012A000A0053091A1054091A2055091A305609140
:1012B000490570914A0580914B0590914C050E941B
:1012C000BF2B882309F440C048C0882009F40BCE06
:1012D000209198053091990540919A0550919B0570
:1012E00060914105709142058091430590914405BC
:1012F0000E94BF2B811105C120919C0530919D0555
:1013000040919E0550919F0560914505709146055D
:1013100080914705909148050E94BF2B8111F1C033
:101320002091A0053091A1054091A2055091A305FF
:101330006091490570914A0580914B0590914C054B
:101340000E94BF2B8111DDC081E22EC2FE8DF11102
:10135000D8C0C1018E7D9C7FD7C080916C05813043
:10136000B1F423E333E34BEC51E460918F057091CA
:10137000900580919105909192050E94FD2D6093BA
:101380008F057093900580939105909392054090FE
:101390008F0550909005609091057090920520E027
:1013A00030E040E850E4C301B2010E94FD2DA301EA
:1013B00092010E94FD2D2B013C01A7019601C7015E
:1013C000B6010E94FD2D9B01AC01C301B2010E9438
:1013D000E52A2B013C01A5019401C501B4010E943D
:1013E000FD2D9B01AC01C301B2010E94E52A2B0136
:1013F0003C0120E030E0A9010E94BF2B87FDD3C152
:10140000C301B2010E948A2E2B013C01A501940167
:10141000C701B6010E94A1119B01AC01C301B20139
:1014200090580E94C62B2B013C0180916A058330A5
:1014300021F477FA709477F8709480918F059091E9
:101440009005A0919105B091920589A79AA7ABA7A5
:10145000BCA720E030E0A901BC01CD010E94BF2B58
:1014600087FF11C077FA709477F8709489A59AA5D0
:10147000ABA5BCA5B05880938F0590939005A09321
:101480009105B0939205000F111F000F111F035912
:101490001A4FA3019201C501B4010E94FD2D9B01C9
:1014A000AC01C701B6010E94E52A20E030E040E02F
:1014B0005FE30E94FD2DD8011D966D937D938D9362
:1014C0009C9350970DA11EA1000F111F000F111F1B
:1014D00003591A4FA3019201C701B6010E94FD2DC5
:1014E0009B01AC01C501B4010E94E62A20E030E076
:1014F00040E05FE30E94FD2DF801658776878787CE
:10150000908BC1018E7D907E892B09F048C180911E
:101510006B0580932D058091760590917705A091BC
:101520007805B091790580933C0590933D05A09393
:101530003E05B0933F0580919705809340058091CB
:101540006905813051F460918B0570918C05809113
:101550008D0590918E050E949A0F80916E05809363
:10156000300580916C0580932E05809170059091D7
:101570003205981759F0809332058CE0FE013D96B4
:10158000ADE4B5E001900D928A95E1F780916D058B
:1015900080932F058091690590E0FC013297E83037
:1015A000F10508F04BC0EC5CFF4F0C94232FBE01FB
:1015B0006F5F7F4F8F8D0E942E1E809132052F8D81
:1015C00082133CC08CE0FE013196ADE4B5E01AC058
:1015D0008E8D882349F020E040E050E060E87FEB0A
:1015E00088E995E00E94660C20E040E050E060E869
:1015F0007FEBCE0101960E94660C8CE0FE013196D5
:10160000A1E4B5E001900D928A95E1F717C061E47D
:1016100075E086E003C061E475E087E00E942E1E5D
:101620000DC08CE0E8E9F5E0A9E5B5E0EBCF8CE092
:10163000E9E5F5E0DF011D928A95E9F780916A05F9
:1016400080932C05853009F45DC0BE8DB23009F061
:1016500059C0843090F4823058F58823F9F08130F5
:1016600009F047C040913C0550913D0560913E0511
:1016700070913F0520912D0516C08430D1F5409121
:101680003C0550913D0560913E0570913F052091CC
:101690002D0588E995E00E94F90F2BC020E040E07D
:1016A00050E060E87FEB88E995E00E94660C21C07D
:1016B000C0903C05D0903D05E0903E05F0903F0580
:1016C00000918F0510919005209191053091920520
:1016D000EFA1EF93FCA1FF938BA0A0902D054AE70B
:1016E00055E068E975E081E495E00E94A30C0F9055
:1016F0000F908CE0E8E9F5E0A1E4B5E001900D92EF
:101700008A95E1F78091710580933305882369F00C
:101710000E94E3181092B40580913305823019F4C9
:101720000E94C91002C01092330580917405809305
:1017300036056091970570E090E00E94FD0B809166
:10174000750580933705813039F480E090E00E9480
:10175000D5200E94B52006C081E090E00E94D520EF
:101760000E94D82028A52223E1F08CE01DC081E052
:101770001BC082E019C088E117C089E115C084E070
:1017800013C08BE111C084E10FC08EE10DC08FE169
:101790000BC086E109C080E207C083E205C084E295
:1017A00003C080E001C082E2AC960FB6F894DEBFC1
:1017B0000FBECDBFDF91CF911F910F91FF90EF90A2
:1017C000DF90CF90BF90AF909F908F907F906F9061
:1017D0005F904F903F902F9008958AB18C638AB9A3
:1017E0008BB1837C8BB908959BB1809589238BB98C
:1017F00008959BB1982B9BB908951F93CF93DF93C6
:101800001F92CDB7DEB7182F8091A5058230F1F079
:1018100069830E9465180E94E318698161506430F1
:10182000A8F4E62FF0E0E050FF4F8081882371F0AC
:10183000113031F40F90DF91CF911F910C94F90B7F
:101840000F90DF91CF911F910C94F40B0F90DF91CB
:10185000CF911F9108950E94531D0E947E200E94E7
:1018600032230E948D298EE1E4EAF5E0DF011D922A
:101870008A95E9F781E08093A40578948091C00669
:1018800084FF03C081E08093A505C1E00E94191E7A
:101890000E9492040E94ED0B0E94A3170E94E21284
:1018A0000E9402230E9414160E94A4041092A40510
:1018B0001092A6058091C00681FF03C0C093B405B5
:1018C00002C01092B4050E947218E0CFEF92FF920E
:1018D0001F93CF93DF9300D000D0CDB7DEB77C014C
:1018E000122F8091A505823021F149835A836B83A1
:1018F0007C830E94D0178091A40581111AC00E9498
:10190000311349815A816B817C81882339F00E948F
:10191000651849815A816B817C81E7CF212FC701EE
:101920000E9439138091A505811103C088E080933E
:10193000A5050F900F900F900F90DF91CF911F9101
:10194000FF90EF9008952F923F924F925F926F9287
:101950007F928F929F92AF92BF92CF92DF92EF923F
:10196000FF920F931F93CF93DF93CDB7DEB7E79727
:101970000FB6F894DEBF0FBECDBF9C8B8B8B1B01C7
:101980003A0109871A872B873C87AD8A2D961FADB0
:101990002D972E962FAD2E97298B84E0889EA0013F
:1019A00011245A834983AB89BC89A40FB51FBF8B0F
:1019B000AE8B460D571D598F488FFA01808091805C
:1019C000A280B3802D913D914D915C91C501B401F0
:1019D0000E94E62A6A8F7B8F8C8F9D8FF4E01F9F79
:1019E000800111242B893C89200F311F3F8F2E8FBE
:1019F000A301400F511F59A348A3DA014D905D90F8
:101A00006D907C90F9012081318142815381C30125
:101A1000B2010E94E62A6AA37BA38CA39DA3A50121
:101A2000940150582D873E874F87588BD301C201B0
:101A3000B0588D839E83AF83B887E981FA81E20D28
:101A4000F31D2A8D3B8D4C8D5D8D6081718182816E
:101A500093810E94E52A2B013C01F101E00FF11F67
:101A60002AA13BA14CA15DA16081718182819381FA
:101A70000E94E52A4B015C01A30192016D857E85E0
:101A80008F8598890E94FD2D69837A838B839C833F
:101A9000A50194016D817E818F8198850E94FD2D25
:101AA0009B01AC0169817A818B819C810E94E62A2D
:101AB00069837A838B839C83A50194016D857E85E0
:101AC0008F8598890E94FD2D4B015C01A301920135
:101AD0006D817E818F8198850E94FD2D9B01AC01D7
:101AE000C501B4010E94E52A29813A814B815C81BC
:101AF0000E94592B2B013C0180912C0520E030E005
:101B0000A901823079F4C301B2010E94C22D87FD80
:101B100019C02BED3FE049EC50E4C301B2010E9433
:101B2000E52A0EC0C301B2010E94BF2B181654F063
:101B30002BED3FE049EC50E4C301B2010E94E62ADC
:101B40002B013C018090BC069090BD06A090BE0683
:101B5000B090BF0629853A854B855C85CA01B901DD
:101B60000E94E62AA50194010E94E52A9B01AC018E
:101B7000C501B4010E94FD2D0E948A2E4B015C011B
:101B800020E030E040E05FE3C301B2010E94FD2DA0
:101B900029853A854B855C850E94FD2D9F77A5019F
:101BA00094010E94C62B0E949C2C0E94332C7FA380
:101BB0006EA3DB01AB2B09F486C14B01A12CB12C28
:101BC000BD89BB2361F0C501B4010E945F2C9B015C
:101BD000AC01C701B6010E94FD2D6B017C01C5015E
:101BE000B4010E945F2C4B015C019B01AC01C3015D
:101BF000B2010E94C62B69877A878B879C87F989F7
:101C0000E4E0FE9FC00111242B893C89280F391F75
:101C10003A8B298BF101E80FF91FD9012D913D91E4
:101C20004D915C9160817181828193810E94E52A4E
:101C3000A50194010E94C62B6CAB7DAB8EAB9FAB14
:101C400029853A854B855C85CA01B9010E94FD2D25
:101C50009B01AC0160E070E080E090E40E94E52A26
:101C60004B015C012BEA3AEA4AE25EE369857A8538
:101C70008B859C850E94FD2D2B013C0120E030E0EE
:101C800040E850E4C501B4010E94E62A9B01AC0182
:101C9000C301B2010E94FD2D68A779A78AA79BA75F
:101CA00020E030E040E05FE3C501B4010E94FD2D7B
:101CB0006CA77DA78EA79FA7198201E010E0EEA177
:101CC000FFA10E171F0709F4FEC0B981BC3008F050
:101CD0004AC02CA53DA54EA55FA56D817E818F8153
:101CE00098850E94FD2D4B015C0128A539A54AA5C8
:101CF0005BA56D857E858F8598890E94FD2DA50148
:101D000094010E94E62AB62EA72E982E892E2CA585
:101D10003DA54EA55FA56D857E858F8598890E941E
:101D2000FD2D2B013C0128A539A54AA55BA56D8198
:101D30007E818F8198850E94FD2D9B01AC01C3019E
:101D4000B2010E94E52A6D877E878F87988BE98193
:101D5000EF5FE9838B2D9A2DA92DB82D8D839E835E
:101D6000AF83B8876EC0B80180E090E00E945F2C1E
:101D700029853A854B855C850E94FD2D4B015C01D0
:101D80000E94C32B6D837E838F839887C501B40126
:101D90000E94802E4B015C01E88DF98D808191813C
:101DA000A281B3819C01AD01505829833A834B83B2
:101DB0005C83A8A1B9A18D919D910D90BC91A02D9E
:101DC00088AB99ABAAABBBAB2D813E814F815885C7
:101DD00069817A818B819C810E94FD2D2B013C01C0
:101DE000A501940168A979A98AA99BA90E94FD2D42
:101DF0009B01AC01C301B2010E94E62A6D877E8778
:101E00008F87988BA501940169817A818B819C8150
:101E10000E94FD2D4B015C012D813E814F81588533
:101E200068A979A98AA99BA90E94FD2D9B01AC01F3
:101E3000C501B4010E94E52A6D837E838F83988754
:101E400019822D853E854F8558896A8D7B8D8C8DB5
:101E50009D8D0E94E62AEE89FF89608371838283CB
:101E600093832D813E814F8158856AA17BA18CA1EE
:101E70009DA10E94E62AAE8DBF8D6D937D938D93BB
:101E80009C9313972CA93DA94EA95FA9E989FA89CA
:101E900060817181828193810E94E62AA989BA8931
:101EA0006D937D938D939C9313972D89B701A60114
:101EB0008B899C890E94660C8091A405811121C0A8
:101EC0000F5F1F4FFCCE2D89B701A601C101E79618
:101ED0000FB6F894DEBF0FBECDBFDF91CF911F913B
:101EE0000F91FF90EF90DF90CF90BF90AF909F90B9
:101EF0008F907F906F905F904F903F902F900C94B9
:101F0000660CE7960FB6F894DEBF0FBECDBFDF912B
:101F1000CF911F910F91FF90EF90DF90CF90BF90E6
:101F2000AF909F908F907F906F905F904F903F9079
:101F30002F9008958F929F92AF92BF92CF92DF928F
:101F4000EF92FF924B015C018091A505823009F46C
:101F500047C020E030E040EA51E4C501B4010E94EE
:101F6000FD2D0E949C2C0E94332C6B017C010E9451
:101F7000E31820E030E04AE754E4C501B4010E94D0
:101F8000FD2D4B015C0182E38C9DB0018D9D700D98
:101F9000112480E090E00E945F2C9B01AC01C50100
:101FA000B4010E94E52A0E949C2C0E94332CCB0194
:101FB0000E949611C114D10499F00E94D01721E01B
:101FC000C21AD1088091A40581110AC08FEF90E751
:101FD00022E0815090402040E1F700C00000EACFAD
:101FE000FF90EF90DF90CF90BF90AF909F908F9039
:101FF00008954F925F926F927F928F929F92AF92CD
:10200000BF92CF92DF92EF92FF920F931F93CF93E5
:10201000DF9300D000D0CDB7DEB74C016A017B0161
:10202000722E8091A505823009F49EC00E94E318AB
:102030006090B4050E94B117882351F09FB7F894BF
:102040008091A60580648093A6059FBF0E94D0174B
:102050008091A405811188C0272DB701A601C40174
:102060000E94660C81E08093B5059FB7F89480913B
:10207000A60582608093A6059FBF0E94D01780911D
:10208000A405811171C08091A505877FB1F780916A
:10209000B505813041F49FB7F8948091A60580641E
:1020A0008093A6059FBF0E94D0178091A40581113F
:1020B0005BC00E9402230E94E2120E94141606EBEB
:1020C00015E083E8A82E86E0B82E2401F80161917E
:1020D0007191819191918F01F501219131914191FE
:1020E00051915F0129833A834B835C830E94612C69
:1020F00029813A814B815C810E94C62BF201619358
:102100007193819391932F01F5E0023C1F07F1F643
:10211000272DB701A601C4010E94660C9FB7F89451
:102120008091A60582608093A6059FBF0E94E31858
:102130008091A405811118C06092B4050F900F9092
:102140000F900F90DF91CF911F910F91FF90EF9023
:10215000DF90CF90BF90AF909F908F907F906F90C7
:102160005F904F900C94081B0F900F900F900F9062
:10217000DF91CF911F910F91FF90EF90DF90CF9063
:10218000BF90AF909F908F907F906F905F904F9097
:1021900008958091A60584FD16C09FB7F89480919C
:1021A000A60580618093A6059FBF8091A5058473D5
:1021B00051F09FB7F8948091A60580628093A605A0
:1021C0009FBF0C94D82008956F927F928F929F9218
:1021D000AF92BF92CF92DF92EF92FF920F931F9335
:1021E000CF93DF937C018B016A01FB018081F701B2
:1021F000E80FF11D2081EF012D3229F42296218173
:102200006624639407C02B3211F0219602C02296F7
:102210002181612CA12CB12C712C60E070E0CB01EC
:10222000FE0130ED932E920E29E02915C8F0B394EB
:1022300028E02B1588F0A1107A94A5E0B0E09B016E
:10224000AC010E94EA2E660F771F881F991F690D47
:10225000711D811D911D0BC0A11009C0739407C091
:102260002EEF921207C0A11005C0AA24A3942196B4
:102270002081D6CFBB2009F449C00E945F2C4B01BE
:102280005C0120E030E0A9010E94BF2B882361F1AE
:102290008FEF78166CF42AE037ED43E25CE3C5017A
:1022A000B4010E94FD2D4B015C0173947394F0CF37
:1022B00078120BC02DEC3CEC4CEC5DE3C501B40195
:1022C0000E94FD2D4B015C010FC0772069F020E0DA
:1022D00030E040E251E4C501B4010E94FD2D4B0104
:1022E0005C017A9417149CF3662021F0B7FAB0943D
:1022F000B7F8B094F60180829182A282B382CE199F
:10230000DF09C150F801C08381E001C080E0DF91A6
:10231000CF911F910F91FF90EF90DF90CF90BF90E2
:10232000AF909F908F907F906F900895009741F0AD
:10233000EFE9FFE03197F1F700C000000197F6CF19
:1023400008958F929F92AF92BF92CF92DF92EF92B9
:10235000FF9269017A019B01AC010E94FD2D4B01A6
:102360005C01A7019601C701B6010E94FD2D9B01EA
:10237000AC01C501B4010E94E62AFF90EF90DF9006
:10238000CF90BF90AF909F908F900C948A2E4F92D9
:102390005F926F927F928F929F92AF92BF92CF92F5
:1023A000DF92EF92FF920F931F93CF93DF931091E1
:1023B0002201111101C012E11150009120011017EA
:1023C00009F4EFC089E2189FE0011124CC5DDE4FD3
:1023D0008D889E88AF88B88C69A17AA18BA19CA1B9
:1023E0009B01AC010E94E62A2DA13EA14FA158A558
:1023F0000E94FD2D6B017C019B01AC01B401C50164
:102400000E94BF2B87FF02C064017501A601B701BE
:10241000498B5A8B6B8B7C8B111101C012E1772495
:102420007A94710E701619F029E2622E27C08091FD
:102430002301081351C00E9450234EC0679C8001A5
:1024400011240C5D1E4F711002C092E1792E7A9416
:1024500080912301781202C00E945023F801C588A0
:10246000D688E788F08CA7019601618972898389F3
:1024700094890E94BF2B811106C0E8018091200140
:102480007812DCCF29C0F80161A172A183A194A1C7
:102490009B01AC010E94E62AF80125A136A147A1C3
:1024A00050A50E94FD2D29893A894B895C890E949B
:1024B000E62A4B015C01A70196010E94BF2BF8019F
:1024C00087FF05C0818A928AA38AB48AD6CFC18A3F
:1024D000D28AE38AF48AD1CF60902001F9E26F9E1C
:1024E000800111240C5D1E4F77247394760C82E1D9
:1024F000781201C0712C5090220189E2482E751487
:1025000009F44DC0479CE0011124CC5DDE4FF80179
:1025100081889288A388B488C988DA88EB88FC8887
:10252000A7019601C501B4010E94BF2B87FF23C0FC
:10253000F80161A172A183A194A19B01AC010E9449
:10254000E62AF80125A136A147A150A50E94FD2D3C
:102550009B01AC01C501B4010E94E62A4B015C015C
:10256000A70196010E94BF2B87FF05C0898A9A8A1E
:10257000AB8ABC8A672C2D893E894F89588D698921
:102580007A898B899C890E94BF2B811101C0672C9D
:102590007394F2E17F1201C0712C8E01B0CF609272
:1025A0002001DF91CF911F910F91FF90EF90DF906D
:1025B000CF90BF90AF909F908F907F906F905F90E3
:1025C0004F9008958CE1E4E0F1E0DF011D928A95DF
:1025D000E9F7109223011092220181E080932101FA
:1025E0001092200108959091230180912201891772
:1025F00069F081E0890F823109F480E020912001A7
:10260000921302C08093200180932301089580914A
:10261000230190912201981739F029E2829FC0018D
:1026200011248C5D9E4F089580E090E00895E09124
:102630002301EF5FE23109F4E0E080912201E81725
:1026400061F089E2E89FF0011124EC5DFE4F6189A1
:102650007289838994890C948A2E60E070E0CB01A2
:10266000089581E02091230190912101291380E0B8
:1026700008952F923F924F925F926F927F928F9226
:102680009F92AF92BF92CF92DF92EF92FF920F9301
:102690001F93CF93DF93CDB7DEB7AD970FB6F89406
:1026A000DEBF0FBECDBF142F052F6B8F7C8F822E08
:1026B0002091220139E2239F10011124F101EC5DE8
:1026C000FE4F1F01158616861786108A15A216A2C0
:1026D00017A210A6108249E956E766E97EE741A3F2
:1026E00052A363A374A35C0133E8E32E36E0F32E18
:1026F0009E01235F3F4F3E8F2D8F84E091E098A392
:102700008F8F6F01FE013196FAA3E9A3912CF50199
:1027100061917191819191915F01F70120813181E6
:10272000428153810E94FD2D0E94CD2DED8DFE8DA5
:102730006193719381939193FE8FED8FEF8DF8A14B
:102740004190519061907190F8A3EF8F64197509D1
:10275000860997092B013C0197FF07C044245524A3
:102760003201461A570A680A790AF60141825282F2
:1027700063827482F101258536854785508942162A
:1027800053066406750610F429013A01F1014586E5
:1027900056866786708A0E94612CF70120813181FC
:1027A000428153810E94C62B2B013C01E9A1FAA171
:1027B0006193719381939193FAA3E9A320E030E0B0
:1027C000A9010E94BF2B87FF0AC0F1019081892DCA
:1027D0009DA70E94B3209DA5892BF1018083A301B1
:1027E0009201C301B2010E94FD2DF10125A136A184
:1027F00047A150A50E94E62AF10165A376A387A30D
:1028000090A79394F4E0EF0EF11C24E0C20ED11CCB
:1028100033E093127CCF0E948A2E6B017C01F10180
:1028200065A376A387A390A785859685A785B0899C
:10283000892B8A2B8B2B09F4DEC120E030E0A90123
:10284000612F702F8B8D9C8D0E94BF2B87FD21C027
:10285000882061F0212F302F4B8D5C8DC701B60190
:102860000E94C62B162F072F8B8F9C8F20E030E005
:1028700040E85FE3612F702F8B8D9C8D0E94BF2BF2
:1028800087FF0DC010E000E030E83B8F8FE38C8FB6
:1028900006C019E906E7F6E9FB8F2EE72C8FA701A2
:1028A000960160E070E080E89FE30E94C62B69A774
:1028B0007AA78BA79CA7E0E1F1E0FAA3E9A32FE8B0
:1028C00036E038A32F8FCE010D969A8F898FFE01A7
:1028D0003196FE8FED8FC12CD12C7601ED8DFE8DC2
:1028E00080809180A280B38020E030E0A901C50102
:1028F000B4010E94BF2B882309F47FC029A53AA503
:102900004BA55CA5C501B4010E94FD2D4B015C01E6
:10291000ED8DFE8D60837183828393839B01AC0177
:1029200060E070E080E89FE30E94C62B2B013C0131
:10293000E89477F8EF8DF8A12081318142815381AD
:10294000C301B2010E94FD2D6BA37CA38DA39EA3A6
:102950009B01AC01612F702F8B8D9C8D0E94BF2B32
:1029600087FF06C01BA30CA3FB8DFDA32C8D2EA3FC
:10297000F101F1A1FB8FF101F2A1FC8FF101F3A1B3
:10298000FFA3F101F4A1F8A7EF8DF8A12485358507
:1029900046855785C301B2010E94FD2D3B018C0184
:1029A0009B01AC016B8D7C8D8FA198A50E94BF2BE4
:1029B00087FF04C06B8C7C8C0FA118A5C301D801C4
:1029C000F10181A392A3A3A3B4A3E9A1FAA1208159
:1029D000318142815381C501B4010E94FD2D9B01CB
:1029E000AC01C701B6010E94E52A6B017C011BA165
:1029F0000CA1FDA1FB8F2EA12C8F8D8D9E8D049699
:102A00009E8F8D8FE9A1FAA13496FAA3E9A32F8DA9
:102A100038A12C5F3F4F38A32F8FE98DFA8D8E1789
:102A20009F0709F05BCF90912201809123019813B9
:102A30000AC0F101118A128A138A148A118E128E29
:102A4000138E148E49C0A701960160E070E080E803
:102A50009FE30E94E52A20E030E040E05FE30E942F
:102A6000FD2D0E948A2E6B017C012091B8063091C9
:102A7000B9064091BA065091BB06F10161A172A15D
:102A800083A194A10E94FD2DA70196010E94FD2D16
:102A90004B015C01A701960160E070E080E89FE3D4
:102AA0000E94E52A9B01AC01C501B4010E94C62B1E
:102AB0006B017C0120E030E0A9010E94BF2B87FF61
:102AC00004C0C12CD12CE12CF12CA601B701F101DD
:102AD000418F528F638F748F212F302F4B8D5C8DE0
:102AE000612F702F8B8D9C8D0E94FD2D162F072F2F
:102AF000F82EE92E862F902FAF2DBE2DF101858F58
:102B0000968FA78FB0A3A18CB28CC38CD48C60900D
:102B10001C0170901D0180901E0190901F01930177
:102B2000A401612F702F8F2D9E2D0E94BF2B87FD3A
:102B30000BC09301A401B501C6010E94BF2B87FD04
:102B400011C0530164010EC0212F302F4F2D5E2D77
:102B5000B501C6010E94BF2B87FD04C0A12EB02E77
:102B6000CF2CDE2CC501D601F101858B968BA78B6E
:102B7000B08F8CE0FE013196A0E1B1E001900D92A2
:102B80008A95E1F7812F902FAF2DBE2D80931C01E8
:102B900090931D01A0931E01B0931F018CE0FE01D4
:102BA0003D96A4E0B1E001900D928A95E1F7809105
:102BB0002101809322018F5F823109F480E08093AC
:102BC0002101AD960FB6F894DEBF0FBECDBFDF91E9
:102BD000CF911F910F91FF90EF90DF90CF90BF901A
:102BE000AF909F908F907F906F905F904F903F90AD
:102BF0002F900C94C711AD960FB6F894DEBF0FBEA0
:102C0000CDBFDF91CF911F910F91FF90EF90DF909B
:102C1000CF90BF90AF909F908F907F906F905F907C
:102C20004F903F902F9008958091A8059091A9050D
:102C3000A091AA05B091AB05809304019093050182
:102C4000A0930601B09307018091AC059091AD056A
:102C5000A091AE05B091AF05809308019093090152
:102C6000A0930A01B0930B018091B0059091B1053A
:102C7000A091B205B091B30580930C0190930D0122
:102C8000A0930E01B0930F010895809122019091BD
:102C90002301891708F48E5E891B08950E94502332
:102CA00080912301809320010C94C711CF93DF936F
:102CB000EC018991882319F00E94691DFACFDF91F8
:102CC000CF910895CF93DF93FC018491EF0121967A
:102CD000882321F00E94691DFE01F7CFDF91CF917B
:102CE0000895EF92FF920F931F93CF93DF93CDB789
:102CF000DEB728970FB6F894DEBF0FBECDBFFE013A
:102D000031967F019E01275F3F4F982F91709193DD
:102D10008695E217F307C9F78F01F80182918F01B9
:102D2000805D0E94691D0E151F05B9F728960FB624
:102D3000F894DEBF0FBECDBFDF91CF911F910F91F1
:102D4000FF90EF9008951F93CF93DF9300D01F92D1
:102D5000CDB7DEB7811109C080E30F900F900F90BF
:102D6000DF91CF911F910C94691D90E02AE011E052
:102D7000190FE1E0F0E0EC0FFD1FE90FF11D622FEC
:102D80000E94F52E905D9083882311F0912FEFCF54
:102D9000112341F0FE01E10FF11D80810E94691DA8
:102DA0001150F6CF0F900F900F90DF91CF911F91A0
:102DB00008958F929F92AF92BF92CF92DF92EF923F
:102DC000FF920F931F93CF93DF93CDB7DEB72A9770
:102DD0000FB6F894DEBF0FBECDBF6B017C01142F80
:102DE00020E030E0A9010E94BF2B87FF07C08DE2E1
:102DF0000E94691DF7FAF094F7F8F094012F023061
:102E000060F020E030E048EC52E4C701B6010E94D7
:102E1000FD2D6B017C010250F2CF10FF0AC020E0B3
:102E200030E040E251E4C701B6010E94FD2D6B0184
:102E30007C0120E030E040E05FE3C701B6010E9482
:102E4000E62A0E942E2CE1E0F0E0EC0FFD1FE10FDE
:102E5000F11D2EE22083D12C5AE0852E912CA12C3D
:102E6000B12C6115710581059105A9F0D11201C040
:102E7000D394EE24E394F12CEC0EFD1EED0CF11C2A
:102E8000A50194010E94012F605DF7016083B901E3
:102E9000CA01D394E6CF80E3D11648F4E1E0F0E034
:102EA000EC0FFD1FED0DF11D8083D394F5CF8D2D1B
:102EB000D1120BC0D394D3948F5FE1E0F0E0EC0F1C
:102EC000FD1FE80FF11D80E38083DD2041F0FE014E
:102ED000ED0DF11D80810E94691DDA94F6CF2A96CE
:102EE0000FB6F894DEBF0FBECDBFDF91CF911F911B
:102EF0000F91FF90EF90DF90CF90BF90AF909F9099
:102F00008F9008952091C00620FF08C02BE832E47E
:102F100041E25DE30E94FD2D44E001C043E00C94DA
:102F2000D9162091C00620FF08C02BE832E441E208
:102F30005DE30E94FD2D41E001C040E00C94D916F4
:102F400043E00C94D9163D988091C00687FF04C0D9
:102F500045981092C2050895459A80E28093C20573
:102F6000089586B180729091C20589270895809155
:102F7000B5058130A1F40E94B117882381F0109229
:102F8000B5058CE0E8EAF5E0A6EBB5E001900D921E
:102F90008A95E1F78091A60588608093A60508953B
:102FA000CF93C091A605CC2309F486C08C2F8076E0
:102FB00039F181E08093A505C6FF17C0C5FF02C0A7
:102FC0008FEF01C08DEF0E94501981E00E946F19B0
:102FD0009FB7F8948091A6058F7E8093A6059FBF2A
:102FE0008091A60584FFFCCF03C08EEF0E9450198C
:102FF0009FB7F8948091A6058F798093A6059FBF0F
:10300000C4FF04C081E08093A4055DC0C0FF0AC076
:103010000E944D1C9FB7F8948091A6058E7F8093E7
:10302000A6059FBFC3FF15C08091A505803149F457
:1030300080E28093A5050E9450230E947223109283
:10304000B4059FB7F8948091A605877F8093A60565
:103050009FBFC1FF1DC08091A505883089F480E124
:103060008093A5050E9472230E94B5208091C0061E
:1030700081FF04C081E08093B40502C01092B405C2
:103080009FB7F8948091A6058D7F8093A6059FBF7A
:10309000C2FF12C00E940713892B21F088E08093A1
:1030A000A50502C01092A5059FB7F8948091A605CA
:1030B0008B7F8093A6059FBF8091A505847319F02F
:1030C000CF910C947223CF9108958091B4058823F9
:1030D00041F09FB7F8948091A60582608093A60581
:1030E0009FBF0895CF93DF930E9495198091A50506
:1030F000813021F482E00E946F1921C01092A50551
:1031000086E094E00E948E291AC08D3069F0DD239C
:1031100091F1D1E0893209F4D0E00E94AF1D8F3FD8
:1031200009F445C08A3089F7EC2FF0E0EA5FFB4FE5
:1031300010820E94D0178091A405882311F0C0E06E
:10314000EBCF80910604811104C08CE00E94FD1831
:10315000F6CF843229F486E094E00E94AD29F6CFC0
:103160008091A505813011F489E0F0CF86E094E0EC
:103170000E94EA04EBCF813280F28F3271F2883202
:10318000A1F0CF3428F08BE00E94FD18C0E0C5CF3D
:103190002C2F30E0CF5F9FE9980FF901EA5FFB4FDA
:1031A0009A3108F480528083B8CFD1E0B6CF0E9424
:1031B00065180E94D0178091A405882309F4ADCF2B
:1031C000DF91CF9108950E9465188091A505803107
:1031D00071F481E08093B4050AC08091A505803127
:1031E00059F40E94D0178091A405811105C00E9456
:1031F0000713892BB1F7F1CF0895CF93C82F8C30E7
:1032000009F44CC0811103C088E897E044C080E80D
:1032100097E00E9462164C2F50E0FA013197E63198
:10322000F10580F5E45CFF4F0C94232F88E697E0CE
:1032300002C086E597E00E9462162BC084E497E006
:10324000FACF8AE397E0F7CF89E297E0F4CF8AE1FB
:1032500097E0F1CF89EF96E0EECF80EF96E0EBCFED
:1032600085EE96E0E8CF82ED96E0E5CF84EC96E03F
:10327000E2CF8EEA96E0DFCF8AE996E0DCCF86E8FF
:1032800096E0D9CF84E796E00E9462168C2F0E94C8
:10329000A31681E796E0CF910C946216CF91089522
:1032A000CF93C82F89E696E00E946216CE3F51F078
:1032B000CF3F29F0CD3F51F48BE396E005C089E57F
:1032C00096E002C086E496E00E94621688E396E0EB
:1032D0000E94621684EF91E0CF910C949611CF93E7
:1032E000C82F86E396E00E946216C33091F038F44E
:1032F000C13061F0C230A1F480E196E00FC0C4306B
:1033000059F0C53069F48DEE95E008C084E296E08E
:1033100005C08EEF95E002C086EF95E00E94621630
:1033200089EE95E0CF910C9462168CEC95E00C94AC
:10333000621688E894E00C946216FF920F931F9334
:10334000CF93DF9384E894E00E9462168091B306E5
:103350000E94A3168BE694E00E9462168091B60646
:103360000E94A3168DE494E00E9462168091B40638
:103370000E94A31684E394E00E9462168091B40632
:103380000E9471168DE294E00E9462168091B5064B
:103390000E94A31685E194E00E9462168091B50612
:1033A0000E9471168EE094E00E9462168091C00621
:1033B00082FB882780F90E94A3168DEE93E00E947D
:1033C00062168091C00686FB882780F90E94A316AA
:1033D0008DEC93E00E9462168091C006881F8827BA
:1033E000881F0E94A3168DEA93E00E9462168091C6
:1033F000B7060E94A31687E993E00E9462168091A7
:10340000B7060E9471168FE893E00E9462166091E1
:10341000B8067091B9068091BA069091BB060E94D9
:10342000A0178FE693E00E9462166091BC0670912F
:10343000BD068091BE069091BF060E94A01784E54C
:1034400093E00E9462168091C00681700E94A316CC
:1034500087E393E00E9462168091C0068695817092
:103460000E94A3168DE193E00E9462168091C0062F
:1034700085FB882780F90E94A31682E093E00E94D2
:1034800062168091C00683FB882780F90E94A316EC
:1034900087EE92E00E9462168091C006829581704C
:1034A0000E94A3168BEC92E00E9462168091C106E6
:1034B0000E94A31681EB92E00E9462168091C106E1
:1034C0000E94711689EA92E00E9462166091C2061B
:1034D0007091C3068091C4069091C5060E94A01702
:1034E0008CE892E00E9462166091C6067091C70651
:1034F0008091C8069091C9060E94A0178FE692E0BD
:103500000E9462168091CA060E94A31680E592E08E
:103510000E9462166091CC067091CD068091CE0615
:103520009091CF060E94A01787E392E00E94621656
:1035300084E6F82E10E0C3E8D6E000E085E392E0F0
:103540000E946216802F8F0D0E94A31683E392E0E3
:103550000E946216123071F01330B9F0113029F068
:10356000688179818A819B8117C06C857D858E8574
:103570009F8512C020E030E041E655E4688D798DEA
:103580008A8D9B8D0E94C62B07C08CA19DA1AEA1E8
:10359000BFA1BC01CD0190580E94A01780E392E02A
:1035A0000E946216013029F0023031F08EE292E082
:1035B00005C08CE292E002C08AE292E00E946216AC
:1035C000123051F0133059F0113019F08FE192E0C0
:1035D00008C08CE092E005C08AEF91E002C089EE5D
:1035E00091E00E94621685EE91E00E9462160F5FE4
:1035F0002496033009F0A2CF8AE0F80E1F5F8CE812
:10360000F81299CFDF91CF911F910F91FF900895FC
:10361000CF92DF92FF920F931F93CF93DF9300D04F
:1036200000D0CDB7DEB78FED91E00E94621606EBB9
:1036300015E093E8C92E96E0D92EF12CF80161919E
:103640007191819191918F01F60121913191419177
:1036500051916F0129833A834B835C830E94612CD3
:1036600029813A814B815C810E94C62B0E9482177E
:10367000F2E0FF1621F08DED91E00E946216F394C6
:1036800083E0F812DBCF89ED91E00F900F900F905F
:103690000F90DF91CF911F910F91FF90DF90CF900E
:1036A0000C946216EF92FF920F931F93CF93DF93C8
:1036B000CDB7DEB72C970FB6F894DEBF0FBECDBFE7
:1036C000F12CBE016F5F7F4F8F2D0E94481F81112B
:1036D00004C087E00E94FD1869C086ED91E00E9459
:1036E000621686E0F81631F0E7E0FE1208C080EDC1
:1036F00091E002C083ED91E00E94621604C086E36F
:103700008F0D0E94A3168EEC91E00E9462168E012E
:103710000F5F1F4FE12CF80161917191819191919F
:103720008F010E948217F2E0EF1619F08CEC91E005
:1037300002C088EC91E00E946216E39483E0E812F4
:10374000EACFF394E8E0FE12BCCF82EC91E00E9455
:10375000621609E515E0F12CF801619171918191F2
:1037600091918F010E948217F2E0FF1619F080EC10
:1037700091E002C08CEB91E00E946216F39483E02A
:10378000F812EACF86EB91E00E946216609165051F
:103790007091660580916705909168050E94821777
:1037A00082EB91E00E9462160E94081B2C960FB6D5
:1037B000F894DEBF0FBECDBFDF91CF911F910F9167
:1037C000FF90EF90089580912C05823091F038F4AD
:1037D000882361F08130A1F48AEA91E00FC0833040
:1037E00059F0853069F48DE991E008C08EEA91E0E6
:1037F00005C086EA91E002C082EA91E00E9462166A
:103800008AE991E00E946216809132058A5C0E94EA
:10381000A31687E991E00E946216809140050E94FC
:10382000A31684E991E00E94621660913C057091B4
:103830003D0580913E0590913F050E94911780E9DA
:1038400091E00C9462161F93CF93DF93182FEB0136
:103850008DE891E00E946216812F0E94A3168BE8EA
:1038600091E00E946216CE010E94561688E891E00F
:10387000DF91CF911F910C946216CF93DF93EC01EF
:1038800088E791E00E946216CE010E94561684E7F6
:1038900091E0DF91CF910C946216BF92CF92DF92AC
:1038A000EF92FF920F931F93CF93DF93CDB7DEB7C5
:1038B0006C970FB6F894DEBF0FBECDBF8CE0E8EA80
:1038C000F5E0DE011D9601900D928A95E1F7809159
:1038D000A5058430D9F040F48130D9F070F0823001
:1038E000E1F488E491E017C0803151F0803259F062
:1038F000883099F487E691E00EC08EE691E00BC027
:1039000082E691E008C08CE591E005C086E591E093
:1039100002C08FE491E00E9462168091B70680FD9C
:1039200005C08091B70681FF8AC03CC081E491E068
:103930000E9462166E012DE0C20ED11C33E8E32E08
:1039400036E0F32E8E010F5F1F4FB12CF60161910F
:103950007191819191916F01F70121913191419183
:1039600051917F01298F3A8F4B8F5C8F0E94612C80
:10397000298D3A8D4B8D5C8D0E94C62BF801619389
:103980007193819391938F010E948217F2E0BF1689
:1039900021F08FE391E00E946216B39423E0B2120B
:1039A000D5CFBFCF88E391E00E9462162DE4E22ECE
:1039B00025E0F22E8E010F5F1F4FB12C6801F70139
:1039C00061917191819191917F012085318542852D
:1039D00053850E94E62A9B01AC01F8016081718148
:1039E000828193810E94E52AF8016083718382833A
:1039F0009383F2E0BF120FC02091650530916605F8
:103A000040916705509168050E94E52AF80160839E
:103A10007183828393830C5F1F4FF60160817181F4
:103A2000828193810E948217F2E0BF1621F086E323
:103A300091E00E946216B39423E0B212BFCF80914E
:103A4000B70682FF08C080E391E00E9462160E94E0
:103A500045160E94A3168091B70683FF08C08BE22B
:103A600091E00E9462160E944A1D0E94A31687E2FE
:103A700091E06C960FB6F894DEBF0FBECDBFDF911C
:103A8000CF911F910F91FF90EF90DF90CF90BF905B
:103A90000C9462169091580480915904891708F487
:103AA0008058891B0895E0ECF0E080818D7F808351
:103AB0001092C50087E68093C400E1ECF0E08081BD
:103AC000806180838081886080838081806880833A
:103AD0000895E091570491E09E0F903409F490E02E
:103AE00020915604921305C02091A60524FFF8CF1B
:103AF0000895F0E0ED53FA4F80839093570480913E
:103B0000C10080628093C10008951F920F920FB68A
:103B10000F9211248F939F93EF93FF9380915604FC
:103B2000E82FF0E0ED53FA4F90819093C6008F5F3D
:103B3000803409F480E080935604909157048913EF
:103B400005C08091C1008F7D8093C100FF91EF91EE
:103B50009F918F910F900FBE0F901F90189590918D
:103B6000580480915904891761F0E92FF0E0ED5F66
:103B7000F94F80819F5F903809F490E0909358044A
:103B800008958FEF08951F920F920FB60F92112490
:103B90002F933F934F935F936F937F938F939F9355
:103BA000AF93BF93EF93FF938091C6008132B1F042
:103BB00028F48831E1F40E94C9102AC08F3341F003
:103BC0008E37A9F49FB7F8948091A60582600BC048
:103BD0009FB7F8948091A605816005C09FB7F894BF
:103BE0008091A60588608093A6059FBF11C0E091D3
:103BF000590491E09E0F903809F490E02091580408
:103C0000921731F0F0E0ED5FF94F80839093590403
:103C1000FF91EF91BF91AF919F918F917F916F91A4
:103C20005F914F913F912F910F900FBE0F901F907A
:103C300018958091590480935804089521E5829F36
:103C4000C001112440E550E09D5F0C940F0440E555
:103C500050E0BC018EEA93E00C940F042DE0829FAB
:103C6000C00111244CE050E09E5F0C940F0469E009
:103C700080E090E00E94ED034DE450E063E876E0E0
:103C800081E090E00C940F048AE08093B30689E110
:103C90008093B6061092B40686E08093B50683E062
:103CA0008093B7068AE097EDA3EABCE38093B80659
:103CB0009093B906A093BA06B093BB068FE692E143
:103CC000A3E0BBE38093BC069093BD06A093BE0621
:103CD000B093BF061092C10680E090E0A8ECB1E47A
:103CE0008093C2069093C306A093C406B093C50602
:103CF00080E090E0AAEFB3E48093C6069093C706F5
:103D0000A093C806B093C9062AEF30E03093CB06E3
:103D10002093CA0640E050E060E87FE34093CC0681
:103D20005093CD066093CE067093CF0622E0209389
:103D3000C00640E050E06AE773E440938306509386
:103D40008406609385067093860640938706509399
:103D500088066093890670938A0640938B06509379
:103D60008C0660938D0670938E0680938F069093D9
:103D70009006A0939106B093920680939306909339
:103D80009406A0939506B093960680939706909319
:103D90009806A0939906B0939A0680E090EAACE06A
:103DA000B7E480939B0690939C06A0939D06B093E6
:103DB0009E0680939F069093A006A093A106B093C1
:103DC000A2068093A3069093A406A093A506B093A1
:103DD000A60680E090E0AAE7B4EC8093A706909353
:103DE000A806A093A906B093AA068093AB06909369
:103DF000AC06A093AD06B093AE068093AF06909349
:103E0000B006A093B106B093B2060C94371E60E0E2
:103E100080E093E00E94ED0360E081E593E00C9484
:103E2000ED0360E08EEA93E00C94ED031F93CF93D3
:103E3000DF93182FEB0181E5189FB00111247D5FFE
:103E400040E550E0CE010E944D04892B39F41882E0
:103E5000BE01812F0E941E1E80E001C081E0DF9123
:103E6000CF911F910895CF93DF93EC0140E550E08F
:103E70006EEA73E00E944D04892B31F41882CE0162
:103E80000E94271E80E001C081E0DF91CF9108955C
:103E90001F93CF93DF93182FEB018DE0189FB00194
:103EA00011247E5F4CE050E0CE010E944D04892B2E
:103EB00059F48CE0FE0111928A95E9F7BE01812F39
:103EC0000E942E1E80E001C081E0DF91CF911F9102
:103ED000089580E090E00E94E503893059F44DE4B4
:103EE00050E061E070E083E896E00E944D0421E03C
:103EF000892B09F420E0822F0895CF92DF92EF9270
:103F0000FF92CF93DF93C82F6A017B0120E030E05E
:103F1000A901C701B6010E94BF2B87FDE1C0C436CD
:103F200008F445C02CE92C0F80E02330B8F530E0D0
:103F3000823079F0F901EE0FFF1FEE0FFF1F833083
:103F400011F1813019F0ED57F94F23C0E157F94FC6
:103F500020C0E901CC0FDD1FCC0FDD1FC556D94FA6
:103F600020E030E040E752E4C701B6010E94FD2D99
:103F700020E030E040E752E40E94FD2D6883798321
:103F80008A839B83A9C0E955F94FF7FAF094F7F8B3
:103F9000F094C082D182E282F3829EC08F5F2A3089
:103FA00008F4A0C0843009F49DC02A50BECFC701D8
:103FB000B6010E94CB2E0E94332C8C2F90E08C31C6
:103FC000910508F08FC0FC01EE5AFF4F0C94232F8F
:103FD000633008F489C06093B3067EC06093B60670
:103FE0007BC06093B40602C06093B5060E94C622EF
:103FF00073C08091C006662311F0846007C08B7F78
:1040000005C08091C006662321F080648093C006BD
:1040100063C08F7BFBCF8091C006662311F0806860
:10402000F5CF8F77F3CF6093B706C092B806D092E2
:10403000B906E092BA06F092BB064EC0C092BC062A
:10404000D092BD06E092BE06F092BF0645C08091B8
:10405000C006662311F08160D9CF8E7FD7CF8091C3
:10406000C006662311F08260D1CF8D7FCFCF8091C3
:10407000C006662321F084FF39C08062C7CF8F7DE0
:10408000C5CF8091C006662311F08061BFCF8F7CC1
:10409000BDCF6093C10620C0C092C206D092C306B5
:1040A000E092C406F092C50617C0C092C606D09230
:1040B000C706E092C806F092C9060EC070E0709381
:1040C000CB066093CA0608C0C092CC06D092CD063B
:1040D000E092CE06F092CF060E94371E80E007C025
:1040E00084E005C083E003C086E001C08AE0DF9180
:1040F000CF91FF90EF90DF90CF9008951F93CF93D3
:10410000DF93CDB7DEB72C970FB6F894DEBF0FBEA6
:10411000CDBF0E94691F81110BC087E00E94FD186E
:104120000E94441E0E94071F0E94111F0E949D1999
:1041300010E0BE016F5F7F4F812F0E94481F8111E9
:1041400003C087E00E94FD181F5F183091F72C967E
:104150000FB6F894DEBF0FBECDBFDF91CF911F9198
:10416000089580E1089580E208958091C00682FF5D
:1041700002C0299A01C029988091A5058471A1F0F7
:1041800080918B0480939F0480918C0480939E0483
:104190008091B306880F8450819580939D0480910F
:1041A0006F00826080936F00089580938904089562
:1041B00080916F008D7F80936F0080918100887F58
:1041C00081608093810010928A048091B6068F3FAF
:1041D00021F49091A60595FF09C09091A505943012
:1041E00029F090E00E94961181E001C080E090915A
:1041F0008904992359F09091C00692FF02C091E082
:104200008927882311F0299A0895299808951F92E3
:104210000F920FB60F9211242F933F934F935F93FA
:104220006F937F938F939F93AF93BF93CF93DF93BE
:10423000EF93FF9380918A0481117FC195B18091A2
:104240009F0480729F7D892B85B985B18F7E909167
:104250009E04892B85B980919D0486BD82E085BD31
:1042600081E080938A0478948091B1049091B204A3
:10427000892B09F0A4C080918F0490918E04981727
:1042800009F492C0E0918F0486E0E89FF0011124C8
:10429000ED54FB4FF093B204E093B1048381948119
:1042A0009093890080938800808191819093AD04E0
:1042B0008093AC04A2818091AE048A1771F1A0931F
:1042C000AE0481E1A89FD0011124A952BB4FB09345
:1042D000B004A093AF041D968D919D910D90BC915B
:1042E000A02DB695A7959795879580939004909368
:1042F0009104A0939204B0939304809394049093B8
:104300009504A0939604B093970480939804909397
:104310009904A0939A04B0939B04C091AF04D091E8
:10432000B00480918B049881892780939F04258114
:1043300089819A81AB81BC81022E04C0B695A79574
:10434000979587950A94D2F78093A0049093A1043F
:10435000A093A204B093A3048D819E81AF81B88500
:10436000022E04C0B695A795979587950A94D2F723
:104370008093A4049093A504A093A604B093A704EB
:1043800089859A85AB85BC8504C0B695A795979518
:1043900087952A95D2F78093A8049093A904A093B7
:1043A000AA04B093AB040BC00E94D8209FB7F89426
:1043B0008091A60584608093A6059FBFBEC00E9421
:1043C000B71710929E048091A0049091A104A0912F
:1043D000A204B091A3044091900450919104609183
:1043E000920470919304840F951FA61FB71F8093AA
:1043F000900490939104A0939204B0939304E0915D
:10440000AF04F091B00445855685678570894817DB
:1044100059076A077B0768F520E120939E044585CC
:10442000568567857089841B950BA60BB70B809307
:10443000900490939104A0939204B09393042081EC
:104440008091A8059091A905A091AA05B091AB050E
:1044500025FF04C00197A109B10903C00196A11D60
:10446000B11D8093A8059093A905A093AA05B093C8
:10447000AB058091A4049091A504A091A604B091ED
:10448000A704409194045091950460919604709112
:104490009704840F951FA61FB71F809394049093D1
:1044A0009504A0939604B09397048091A8049091EA
:1044B000A904A091AA04B091AB0440919804509132
:1044C000990460919A0470919B04840F951FA61F14
:1044D000B71F8093980490939904A0939A04B09383
:1044E0009B048091A505843039F48091A7059091B3
:1044F0009E04892380939E048091AC049091AD0426
:1045000001979093AD048093AC04892B69F41092C9
:10451000B2041092B10480918F048F5F80938F0456
:10452000863011F410928F0480918C0490919E0437
:10453000892780939E0410928A04FF91EF91DF9166
:10454000CF91BF91AF919F918F917F916F915F912B
:104550004F913F912F910F900FBE0F901F90189584
:104560001F920F920FB60F9211248F939F9395B1C4
:1045700080918C0480719F7E892B85B915BC9F9199
:104580008F910F900FBE0F901F901895FF920F9371
:104590001F93CF93DF9310928C0410928B04C0E092
:1045A000D0E00C2F1C2F2091B40630E08C2F0C2E65
:1045B00002C0359527950A94E2F720FF07C0F090D6
:1045C0008C040E94B1208F2980938C042091B50621
:1045D00030E002C0359527951A95E2F720FF08C014
:1045E00010918B04802F0E94B320812B80938B0429
:1045F0002196C330D105A9F6DF91CF911F910F917C
:10460000FF900895CF93C1E0C09389040E94D82001
:104610008BE2EAE5F4E0DF011D928A95E9F783E297
:10462000E0E9F4E0DF011D928A95E9F71092880431
:104630001092870410928F0410928E04C0938D0400
:1046400010928A040E94C62285B18F7E90918C04BC
:10465000892B85B985B18F7D90918B04892B85B984
:10466000CF910895249A219A259AE1E8F0E080817B
:104670008F7E8083808188608083E0E8F0E08081A5
:104680008C7F808380818F708083EEE6F0E0808174
:10469000887F808314BC15BC8081816080830895ED
:1046A000CF93DF93C0918704D09188042097B9F00D
:1046B00081E080935B046091710470917204809139
:1046C0007304909174049B01AC010E94FD2D698BD1
:1046D0007A8B8B8B9C8B1092880410928704DF91CD
:1046E000CF9108952F923F924F925F926F927F9257
:1046F0008F929F92AF92BF92CF92DF92EF92FF92F2
:104700000F931F93CF93DF93CDB7DEB7E5970FB627
:10471000F894DEBF0FBECDBF90918F0480918D04C1
:10472000981709F4E1C58091870490918804892B3A
:1047300009F057C20E9407131C01909388048093CC
:104740008704009709F4D0C580915B041091A505FA
:10475000882319F010925B04BDC080915A048F5FCA
:10476000853019F080935A0402C010925A04E091E7
:104770005A0421E12E9FF0011124E952FB4FF093DE
:104780008604E0938504D1018C91808311964D912C
:104790005D916D917C91149703E0440F551F661F46
:1047A000771F0A95D1F741835283638374831596EB
:1047B0004D915D916D917C91189783E0440F551F49
:1047C000661F771F8A95D1F7458356836783708765
:1047D00019964D915D916D917C911C9793E0440FDA
:1047E000551F661F771F9A95D1F7418752876387B8
:1047F00074871D966D917D918D919C9150976B0161
:104800007C0123E0CC0CDD1CEE1CFF1C2A95D1F7AB
:10481000C586D686E786F08A0E945F2C60935C048A
:1048200070935D0480935E0490935F04F10125A171
:1048300036A147A150A50E94C62B9B01AC016093F5
:10484000600470936104809362049093630460E059
:1048500070E080EA9FE30E94C62B6093640470932B
:104860006504809366049093670410926804109224
:10487000690410926A0410926B041032E1F46091A2
:10488000790470917A0480917B0490917C04609308
:1048900071047093720480937304909374049B0169
:1048A000AC010E94FD2DD10151966D937D938D93A6
:1048B0009C9354970FC0F10161897289838994890F
:1048C0000E948A2E60937104709372048093730423
:1048D0009093740410926D0410926E0410926F0401
:1048E00010927004D10191968D909D90AD90BC90E6
:1048F0009497A501940160E070E080E09FE30E943E
:10490000C62B2B013C01F101C5A0D6A0E7A0F0A465
:10491000103209F04DC0F2E0F0936C04D1015196D1
:104920002D913D914D915C9154972D833E834F8302
:1049300058870E94FD2D9B01AC01C701B6010E9462
:10494000E52A2B013C0120E030E0A9010E94BF2BA9
:1049500087FF1DC0A5019401C501B4010E94E62A8C
:10496000A70196010E94FD2D9B01AC016D817E8106
:104970008F8198850E94E52A0E948A2E609379048F
:1049800070937A0480937B0490937C042AC14092B4
:104990006D0450926E0460926F04709270041092D5
:1049A000790410927A0410927B0410927C0419C14D
:1049B00010926C04C0927D04D0927E04E0927F0439
:1049C000F09280040E9417134B015C0160937904FC
:1049D00070937A0480937B0490937C049B01AC01D8
:1049E0000E94FD2D69837A838B839C8300918704C9
:1049F00010918804D80195962D913D914D915C912F
:104A0000989729873A874B875C8751962D913D91DE
:104A10004D915C9154972D833E834F8358879B0122
:104A2000AC016D817E818F8198850E94E52A9B0172
:104A3000AC01C301B2010E94FD2D9B01AC0169854F
:104A40007A858B859C850E94E62A20E030E040E054
:104A50005FE30E94FD2D6B017C0120E030E0A901A5
:104A60000E94C22D18160CF0ACC029853A854B85E2
:104A70005C85C701B6010E94BF2B87FF8EC0F8017D
:104A8000858C968CA78CB0A029813A814B815C8162
:104A9000C501B4010E94E52A9B01AC01C301B2012A
:104AA0000E94FD2D6093810470938204809383049F
:104AB00090938404A70196010E94BF2B87FF3DC0FD
:104AC000C501B4010E948A2E609375047093760428
:104AD0008093770490937804A50194016D817E8181
:104AE0008F8198850E94BF2B811104C0F1E0F09363
:104AF0006C0477C02D813E814F815885C501B4017A
:104B00000E94E52A9B01AC01C301B2010E94FD2D68
:104B10009B01AC0160917D0470917E0480917F04C3
:104B2000909180040E94E52A60937D0470937E0436
:104B300080937F049093800454C0C0927D04D092EF
:104B40007E04E0927F04F0928004C0928104D092AF
:104B50008204E0928304F0928404D80191966D91CE
:104B60007D918D919C9194979B01AC010E94E62AC6
:104B7000A70196010E94FD2D29813A814B815C811C
:104B80000E94E62A0E948A2E609375047093760430
:104B9000809377049093780424C0B2E0B0936C04BF
:104BA0008091710490917204A0917304B091740487
:104BB0008093750490937604A0937704B09378045F
:104BC00010C010927D0410927E0410927F04109207
:104BD00080048092750490927604A0927704B0923B
:104BE000780480918E04F6E0F89FF0011124ED54D2
:104BF000FB4FFE83ED8380915A04828320918704CA
:104C0000309188043E872D87D9019596BC91BCA729
:104C1000F901F6A1FDA7D9019796BC91BEA7F901AC
:104C2000F0A5FFA7209164043091650440916604CB
:104C3000509167046CA57DA58B2F9F2F0E94E52ABC
:104C400068A779A78AA79BA720E030E0A9010E9466
:104C5000BF2B87FF04C018A619A61AA61BA6209171
:104C60007D04288F30917E04398F40917F044A8FD4
:104C7000509180045B8F809175048C8F90917604A5
:104C80009D8FA0917704AE8FB0917804BF8FE09193
:104C90008104E8A3F0918204F9A3209183042AA35C
:104CA000309184043BA340916D044CA350916E0459
:104CB0005DA380916F048EA3909170049FA32091B7
:104CC000790430917A0440917B0450917C0428ABA4
:104CD00039AB4AAB5BAB30917104398340917204BC
:104CE0004987209073043090740450916C045F875E
:104CF0008CA58C8B9DA59D8BAEA5AE8BBFA5BF8BC8
:104D00003EE3C32E33ECD32E3EEAE32E38E3F32EFC
:104D1000188A198A1A8A1B8A26013701EF85EE2321
:104D200021F0E13009F47CC0B1C0AD85BE8591961B
:104D30002D913D914D915C919497C701B6010E94D0
:104D4000FD2D4B015C0120E030E040E05FE30E947C
:104D5000FD2D9B01AC0169817985C1010E94E62A84
:104D60009B01AC01C701B6010E94FD2D9B01AC0166
:104D70006C897D898E899F890E94E52A8B018DAB84
:104D80009CAB288D398D4A8D5B8D0E94BF2B87FF90
:104D90003FC0288D398D4A8D5B8D6CA57DA58EA574
:104DA0009FA50E94E52A9B01AC010E94E62A6B01A7
:104DB0007C012C8D3D8D4E8D5F8D69817985C10182
:104DC0000E94E62A9B01AC01C701B6010E94C62BD6
:104DD0006B017C0128A139A14AA15BA1688D798D65
:104DE0008A8D9B8D0E94BF2B882319F0B1E0BF876D
:104DF00002C0E2E0EF87FC8DF9832D8D29872E8C90
:104E00003F8C088D198D3A8D3DAB4B8D4CABAFC0AF
:104E1000A501940169817985C1010E94E62A7CC0BF
:104E2000A70196016C8D7D8D8E8D9F8D0E94FD2D2D
:104E30009B01AC016C897D898E899F890E94E52A3E
:104E40008B018DAB9CAB28A139A14AA15BA10E942B
:104E5000BF2B87FF8CC028A139A14AA15BA16C8917
:104E60007D898E899F890E94E52A2C8D3D8D4E8DEE
:104E70005F8D0E94C62B6B017C0108A119A15AA16C
:104E80005DAB8BA18CAB92E09F8771C0AD85BE8579
:104E900091962D913D914D915C919497C701B601EA
:104EA0000E94FD2D4B015C019B01AC01698179855C
:104EB000C1010E94C22D18169CF520E030E040E0B0
:104EC0005FE3C501B4010E94FD2D9B01AC01698126
:104ED0007985C1010E94E52A9B01AC01C701B60199
:104EE0000E94FD2D9B01AC016C897D898E899F8973
:104EF0000E94E52A8B018DAB9CAB2CA13DA14EA15C
:104F00005FA10E94C22D18165CF4A501940169816D
:104F10007985C1010E94E52A698379871C0127C030
:104F20002CA13DA14EA15FA16C897D898E899F89AD
:104F30000E94E52A9B01AC010E94E62A6B017C01DC
:104F400028A939A94AA95BA969817985C1010E946B
:104F5000E62A9B01AC01C701B6010E94C62B6B017A
:104F60007C010CA11DA1BEA1BDABEFA1ECABA701C3
:104F70009601688979898A899B890E94E62A688BCB
:104F8000798B8A8B9B8BA30192010E94BF2B87FD9B
:104F90005AC028A539A54AA55BA5B8018DA99CA929
:104FA0000E94C22D18160CF444C089819985D10144
:104FB0008093710490937204A0937304B09374046B
:104FC000FF85F0936C044090600450906104609001
:104FD00062047090630498014DA95CA9C301B201F9
:104FE0000E94FD2D69837A838B839C830E94AC2B66
:104FF0006B017C0160915C0470915D0480915E04A2
:1050000090915F040E94AC2B4B015C01A7019601BB
:105010000E94E52A0E94332C69877A878B879C87B8
:10502000E985FA85AD81BE81ED93FC933097B1F1AE
:105030005AC02EE333EC4EEA58E3C301B2010E949A
:10504000E62A2B013C01288939894A895B89C301F9
:10505000B2010E94E52A6B017C012CA13DA14EA169
:105060005FA1B8018DA99CA90E94C22D18167CF0E1
:1050700089819985D1018093710490937204A093E2
:105080007304B09374043F8530936C049CCF0C8BF5
:105090001D8B4DA94E8B5CA95F8B40CE8091A505E1
:1050A000803209F510927104109272041092730408
:1050B00010927404109268041092690410926A04A9
:1050C00010926B04C0925C04D0925D04E0925E0486
:1050D000F0925F04A3019201C701B6010E94C62BA2
:1050E000AD85BE85EEC02091680430916904409181
:1050F0006A0450916B04688979898A899B890E9426
:10510000E62A2B013C0129813A814B815C81C50152
:10511000B4010E94E52A9B01AC01C301B2010E94C7
:10512000C62B4B015C0129813A814B815C81C7010F
:10513000B6010E94E52AA50194010E94FD2D60930D
:1051400068047093690480936A0490936B0420EC64
:1051500031EE44E65EE4C501B4010E94FD2D0E94DB
:10516000AC2B0E94332C603DB7E07B078105910595
:1051700020F4ED81FE81158231C0603AFFE07F07A7
:105180008105910510F4E1E009C06034FFE17F077B
:105190008105910510F4E2E001C0E3E0AD81BE813C
:1051A0001596EC93AD81BE8115962C911597022E24
:1051B00004C096958795779567950A94D2F7E98507
:1051C000FA8502C0EE0FFF1F2A95E2F7ED93FC93DC
:1051D00061157105F1E08F07910538F4AD81BE814D
:1051E00014967C936E93139706C02FEF3FEFED81DB
:1051F000FE813483238380918D0480938E048F5F9E
:10520000863019F080938D0402C010928D04209195
:105210006D0430916E0440916F0450917004B80198
:105220008DA99CA90E94C22D1816C4F4E091870490
:10523000F0918804C801ADA9BCA985A396A3A7A332
:10524000B0A789819A81AB81BC8180935C049093E3
:105250005D04A0935E04B0935F045ECA20E030E07A
:10526000A901B8018DA99CA90E94C22D1816ACF500
:1052700010927104109272041092730410927404CC
:10528000109268041092690410926A0410926B04E0
:10529000C0925C04D0925D04E0925E04F0925F04E0
:1052A000009187041091880420916004309161047A
:1052B0004091620450916304C701B6010E94C62B5D
:1052C000D80195966D937D938D939C9398970E94AA
:1052D0004E1688E08093A50507C0109288041092AE
:1052E00087040E94F31218CAE5960FB6F894DEBF41
:1052F0000FBECDBFDF91CF911F910F91FF90EF9027
:10530000DF90CF90BF90AF909F908F907F906F90E5
:105310005F904F903F902F90089508951F93CF93E3
:10532000DF93EC0110E0BE01812F0E94161F811156
:1053300002C087E009C08881882341F0CE010E9425
:105340005616CE010E94EA040E94FD181F5F12301B
:1053500051F7DF91CF911F910895CF92DF92EF9295
:10536000FF921F93CF93DF93CDB7DEB729970FB688
:10537000F894DEBF0FBECDBF7C0181E08987F701C5
:105380008181833449F12CF4882341F0843249F03F
:1053900049C08734C1F08835A9F144C00E949919E9
:1053A00010C082E08987F7018281882311F083E0B1
:1053B000FEC08091A505807311F088E0F8C00E94BE
:1053C0009D1980E0F4C082E08987F7018281811114
:1053D000EECF0E94E31BF5CF82E08987F70192812F
:1053E0009111E5CF9091A505923021F40E94C9104A
:1053F00085E005C09111E1CF8093A50584E00E946E
:105400006F19DFCF82E08987F70182818111CFCFC9
:105410008091A5058130A9F683E00E946F19109252
:10542000A505CFCF9091A505923038F6883491F03C
:105430001CF4833231F059C08934C1F08E34B9F193
:1054400054C082E08987F70182818111B0CF0E9428
:10545000521BB7CF8091C00684FFA8C08091A405DD
:105460008111AFCFC7010E948E29ABCF82E089871F
:10547000F7018281811107C0C7010E94331FC70154
:105480000E943D1C9ECF8D3309F091CF83E0F70140
:10549000E80FF11D9081DF0113979C938F5F90813E
:1054A0009111F5CF8987C7010E94271E8ACF82E01C
:1054B0008987F7018281811114C010E0B701812F23
:1054C0000E94161F811104C087E00E94FD1804C0CD
:1054D000B701812F0E94231C1F5F123009F471CF86
:1054E000EDCF91116ACF11E001C010E0AE014B5F2A
:1054F0005F4FBE01675F7F4FC7010E94E4108111BB
:1055000002C082E054C0898521E0280F2987F70175
:10551000E80FF11D80818D3309F049CF112321F16E
:10552000822F90E0E22FF0E0D701AE0FBF1F3C9139
:10553000E81BF90BEE0DFF1D30832F5F3C913111FD
:10554000F1CF2987C7010E94EA04811130C06D8123
:105550007E818F8198850E94CB2E0E94332C862FCE
:10556000B7010E941E1E2DCFAE014F5F5F4FBE01DF
:10557000675F7F4FC7010E94E410882311F289857D
:10558000F701E80FF11D8081811111CFC980DA8008
:10559000EB80FC806D817E818F8198850E94332C09
:1055A000862FB701A6010E947D1F01C085E02996C4
:1055B0000FB6F894DEBF0FBECDBFDF91CF911F9124
:1055C000FF90EF90DF90CF9008955058BB27AA2707
:1055D0000ED076C23FD230F044D220F031F49F3F5B
:1055E00011F41EF40FC20EF4E095E7FBDCC1E92FC5
:1055F00089D280F3BA17620773078407950718F0FA
:1056000071F49EF5B8C20EF4E0950B2EBA2FA02DC2
:105610000B01B90190010C01CA01A0011124FF275F
:10562000591B99F0593F50F4503E68F11A16F0405A
:10563000A22F232F342F4427585FF3CF4695379559
:105640002795A795F0405395C9F77EF41F16BA0B1E
:10565000620B730B840BBAF09150A1F0FF0FBB1FCC
:10566000661F771F881FC2F70EC0BA0F621F731F15
:10567000841F48F4879577956795B795F7959E3F72
:1056800008F0B3CF9395880F08F09927EE0F979500
:1056900087950895DFD158F080E891E009F49EEFF6
:1056A000E0D128F040E851E059F45EEF09C0AAC10A
:1056B00062C2E92FE07826D268F3092E052AC1F3E9
:1056C000261737074807590738F00E2E07F8E02548
:1056D00069F0E025E0640AC0EF6307F8009407FA78
:1056E000DB01B9019D01DC01CA01AD01EF935DD081
:1056F000E7D10AD05F91552331F02BED3FE049E42B
:1057000050FD49EC63CF0895DF93DD27B92FBF77B4
:1057100040E85FE31616170648075B0710F4D92F19
:1057200035D29F938F937F936F9332D3ECEDF0E05C
:105730006CD1C6D12F913F914F915F916AD2DD23F9
:1057400049F09058A2EA2AED3FE049EC5FE3D078B7
:105750005D274DDFDF91B4C1F7D180F09F3740F472
:1057600091110EF409C260E070E080E89FE30895B3
:1057700026F01B16611D711D811D1BC135C1EFD0A7
:1057800008F481E0089575D1E395ABC10CD098C1C0
:1057900068D140F05FD130F021F45F3F19F003C1D0
:1057A0005111EAC12FC1AED198F39923C9F3552302
:1057B000B1F3951B550BBB27AA2762177307840704
:1057C00038F09F5F5F4F220F331F441FAA1FA9F3BA
:1057D00033D00E2E3AF0E0E830D091505040E695AC
:1057E000001CCAF729D0FE2F27D0660F771F881F0D
:1057F000BB1F261737074807AB07B0E809F0BB0BFC
:10580000802DBF01FF2793585F4F2AF09E3F51051F
:1058100068F0C9C0B1C15F3FECF3983EDCF38695F8
:1058200077956795B795F7959F5FC9F7880F911D95
:105830009695879597F90895E1E0660F771F881F81
:10584000BB1F621773078407BA0720F0621B730B34
:10585000840BBA0BEE1F88F7E095089504D0689486
:10586000B1118AC1089556D188F09F5790F0B92F91
:105870009927B751A0F0D1F0660F771F881F991FA5
:105880001AF0BA95C9F712C0B13081F074D1B1E005
:10589000089571C1672F782F8827B85F39F0B93F15
:1058A000CCF3869577956795B395D9F73EF49095A7
:1058B0008095709561957F4F8F4F9F4F0895E89425
:1058C00009C097FB3EF490958095709561957F4F48
:1058D0008F4F9F4F9923A9F0F92F96E9BB279395F6
:1058E000F695879577956795B795F111F8CFFAF406
:1058F000BB0F11F460FF1BC06F5F7F4F8F4F9F4F37
:1059000016C0882311F096E911C0772321F09EE894
:10591000872F762F05C0662371F096E8862F70E0FA
:1059200060E02AF09A95660F771F881FDAF7880FD4
:105930009695879597F9089507D180F09F3740F4A1
:1059400091110EF019C160E070E080E89FEB0895BE
:1059500026F41B16611D711D811D2BC045C0990FBA
:105960000008550FAA0BE0E8FEEF16161706E80729
:10597000F907C0F012161306E407F50798F0621B4A
:10598000730B840B950B39F40A2661F0232B242B1F
:10599000252B21F408950A2609F4A140A6958FEF3E
:1059A000811D811D089597F99F6780E870E060E090
:1059B0000895882371F4772321F09850872B762F50
:1059C00007C0662311F499270DC09051862B70E013
:1059D00060E02AF09A95660F771F881FDAF7880F24
:1059E0009695879597F908959F3F31F0915020F44F
:1059F000879577956795B795880F911D96958795AB
:105A000097F908959FEF80EC0895DF93CF931F934C
:105A10000F93FF92EF92DF927B018C01689405C097
:105A2000DA2EEF01F6D0FE01E894A591259135918B
:105A300045915591AEF3EF01DADDFE019701A80122
:105A4000DA9479F7DF90EF90FF900F911F91CF914B
:105A5000DF91089500240A94161617061806090601
:105A6000089500240A9412161306140605060895D4
:105A7000C9CF50D0E8F3E894E0E0BB279F57F0F09F
:105A80002AED3FE049EC06C0EE0FBB0F661F771F03
:105A9000881F28F0B23A62077307840728F0B25AC9
:105AA000620B730B840BE3959A9572F7803830F490
:105AB0009A95BB0F661F771F881FD2F7904896CF25
:105AC000092E0394000C11F4882352F0BB0F40F40C
:105AD000BF2B11F460FF04C06F5F7F4F8F4F9F4F4C
